{
  "_format": "hh-sol-artifact-1",
  "contractName": "MarginAccount",
  "sourceName": "contracts/MarginAccount.sol",
  "abi": [
    {
      "inputs": [
        {
          "internalType": "address",
          "name": "_usdcToken",
          "type": "address"
        }
      ],
      "stateMutability": "nonpayable",
      "type": "constructor"
    },
    {
      "anonymous": false,
      "inputs": [
        {
          "indexed": true,
          "internalType": "address",
          "name": "user",
          "type": "address"
        },
        {
          "indexed": false,
          "internalType": "uint256",
          "name": "amount",
          "type": "uint256"
        }
      ],
      "name": "Deposit",
      "type": "event"
    },
    {
      "anonymous": false,
      "inputs": [
        {
          "indexed": true,
          "internalType": "address",
          "name": "user",
          "type": "address"
        },
        {
          "indexed": false,
          "internalType": "uint256",
          "name": "amount",
          "type": "uint256"
        }
      ],
      "name": "Withdraw",
      "type": "event"
    },
    {
      "inputs": [
        {
          "internalType": "address",
          "name": "_orderBook",
          "type": "address"
        },
        {
          "internalType": "address",
          "name": "_indexToken",
          "type": "address"
        }
      ],
      "name": "addOrderBook",
      "outputs": [],
      "stateMutability": "nonpayable",
      "type": "function"
    },
    {
      "inputs": [
        {
          "internalType": "bytes32",
          "name": "",
          "type": "bytes32"
        }
      ],
      "name": "balances",
      "outputs": [
        {
          "internalType": "uint256",
          "name": "",
          "type": "uint256"
        }
      ],
      "stateMutability": "view",
      "type": "function"
    },
    {
      "inputs": [
        {
          "internalType": "address",
          "name": "newGov",
          "type": "address"
        }
      ],
      "name": "changeGov",
      "outputs": [],
      "stateMutability": "nonpayable",
      "type": "function"
    },
    {
      "inputs": [
        {
          "internalType": "uint256",
          "name": "_amount",
          "type": "uint256"
        },
        {
          "internalType": "address",
          "name": "_indexToken",
          "type": "address"
        }
      ],
      "name": "deposit",
      "outputs": [],
      "stateMutability": "nonpayable",
      "type": "function"
    },
    {
      "inputs": [],
      "name": "gov",
      "outputs": [
        {
          "internalType": "address",
          "name": "",
          "type": "address"
        }
      ],
      "stateMutability": "view",
      "type": "function"
    },
    {
      "inputs": [
        {
          "internalType": "address",
          "name": "_user",
          "type": "address"
        },
        {
          "internalType": "address",
          "name": "_indexToken",
          "type": "address"
        }
      ],
      "name": "lockFunds",
      "outputs": [],
      "stateMutability": "nonpayable",
      "type": "function"
    },
    {
      "inputs": [
        {
          "internalType": "address",
          "name": "",
          "type": "address"
        }
      ],
      "name": "lockedFunds",
      "outputs": [
        {
          "internalType": "uint256",
          "name": "",
          "type": "uint256"
        }
      ],
      "stateMutability": "view",
      "type": "function"
    },
    {
      "inputs": [],
      "name": "positionManager",
      "outputs": [
        {
          "internalType": "address",
          "name": "",
          "type": "address"
        }
      ],
      "stateMutability": "view",
      "type": "function"
    },
    {
      "inputs": [
        {
          "internalType": "address",
          "name": "_positionManager",
          "type": "address"
        }
      ],
      "name": "setPositionManager",
      "outputs": [],
      "stateMutability": "nonpayable",
      "type": "function"
    },
    {
      "inputs": [
        {
          "internalType": "address",
          "name": "_user",
          "type": "address"
        },
        {
          "internalType": "address",
          "name": "_indexToken",
          "type": "address"
        }
      ],
      "name": "unlockFunds",
      "outputs": [],
      "stateMutability": "nonpayable",
      "type": "function"
    },
    {
      "inputs": [
        {
          "internalType": "address",
          "name": "_user",
          "type": "address"
        },
        {
          "internalType": "address",
          "name": "_indexToken",
          "type": "address"
        },
        {
          "internalType": "int256",
          "name": "_fundingFee",
          "type": "int256"
        }
      ],
      "name": "updateFundingFee",
      "outputs": [
        {
          "internalType": "uint256",
          "name": "",
          "type": "uint256"
        }
      ],
      "stateMutability": "nonpayable",
      "type": "function"
    },
    {
      "inputs": [],
      "name": "usdcToken",
      "outputs": [
        {
          "internalType": "contract IERC20",
          "name": "",
          "type": "address"
        }
      ],
      "stateMutability": "view",
      "type": "function"
    },
    {
      "inputs": [
        {
          "internalType": "uint256",
          "name": "_amount",
          "type": "uint256"
        },
        {
          "internalType": "address",
          "name": "_indexToken",
          "type": "address"
        }
      ],
      "name": "withdraw",
      "outputs": [],
      "stateMutability": "nonpayable",
      "type": "function"
    }
  ],
  "bytecode": "0x60806040523480156200001157600080fd5b5060405162001a0338038062001a0383398181016040528101906200003791906200012a565b80600260006101000a81548173ffffffffffffffffffffffffffffffffffffffff021916908373ffffffffffffffffffffffffffffffffffffffff16021790555033600360006101000a81548173ffffffffffffffffffffffffffffffffffffffff021916908373ffffffffffffffffffffffffffffffffffffffff160217905550506200015c565b600080fd5b600073ffffffffffffffffffffffffffffffffffffffff82169050919050565b6000620000f282620000c5565b9050919050565b6200010481620000e5565b81146200011057600080fd5b50565b6000815190506200012481620000f9565b92915050565b600060208284031215620001435762000142620000c0565b5b6000620001538482850162000113565b91505092915050565b611897806200016c6000396000f3fe608060405234801561001057600080fd5b50600436106100ce5760003560e01c80635760f2e31161008c5780638909aa3f116100665780638909aa3f146101e9578063a962ef1e14610219578063b86247d714610235578063bc73473b14610265576100ce565b80635760f2e3146101935780636e553f65146101af578063791b98bc146101cb576100ce565b8062f714ce146100d357806311eac855146100ef57806312d43a511461010d5780633601ce3c1461012b57806341d9a0561461015b578063466730ff14610177575b600080fd5b6100ed60048036038101906100e89190610ed5565b610281565b005b6100f7610485565b6040516101049190610f74565b60405180910390f35b6101156104ab565b6040516101229190610f9e565b60405180910390f35b61014560048036038101906101409190610fef565b6104d1565b6040516101529190611051565b60405180910390f35b6101756004803603810190610170919061106c565b61064b565b005b610191600480360381019061018c919061106c565b6106d5565b005b6101ad60048036038101906101a891906110ac565b610891565b005b6101c960048036038101906101c49190610ed5565b6108dd565b005b6101d3610a85565b6040516101e09190610f9e565b60405180910390f35b61020360048036038101906101fe919061110f565b610aab565b6040516102109190611051565b60405180910390f35b610233600480360381019061022e91906110ac565b610ac3565b005b61024f600480360381019061024a91906110ac565b610b7e565b60405161025c9190611051565b60405180910390f35b61027f600480360381019061027a919061106c565b610b96565b005b600082116102c4576040517f08c379a00000000000000000000000000000000000000000000000000000000081526004016102bb906111bf565b60405180910390fd5b6000806102d13384610d77565b815260200190815260200160002054821115610322576040517f08c379a000000000000000000000000000000000000000000000000000000000815260040161031990611251565b60405180910390fd5b816000806103303385610d77565b8152602001908152602001600020600082825461034d91906112a0565b92505081905550600260009054906101000a900473ffffffffffffffffffffffffffffffffffffffff1673ffffffffffffffffffffffffffffffffffffffff1663a9059cbb33846040518363ffffffff1660e01b81526004016103b19291906112d4565b6020604051808303816000875af11580156103d0573d6000803e3d6000fd5b505050506040513d601f19601f820116820180604052508101906103f49190611335565b610433576040517f08c379a000000000000000000000000000000000000000000000000000000000815260040161042a906113ae565b60405180910390fd5b3373ffffffffffffffffffffffffffffffffffffffff167f884edad9ce6fa2440d8a54cc123490eb96d2768479d49ff9c7366125a9424364836040516104799190611051565b60405180910390a25050565b600260009054906101000a900473ffffffffffffffffffffffffffffffffffffffff1681565b600360009054906101000a900473ffffffffffffffffffffffffffffffffffffffff1681565b6000600460009054906101000a900473ffffffffffffffffffffffffffffffffffffffff1673ffffffffffffffffffffffffffffffffffffffff163373ffffffffffffffffffffffffffffffffffffffff1614610563576040517f08c379a000000000000000000000000000000000000000000000000000000000815260040161055a90611440565b60405180910390fd5b600061056f8585610d77565b9050600083136105b0578261058390611460565b60008083815260200190815260200160002060008282546105a491906114a8565b9250508190555061062e565b826000808381526020019081526020016000205411610604576040517f08c379a00000000000000000000000000000000000000000000000000000000081526004016105fb9061154e565b60405180910390fd5b82600080838152602001908152602001600020600082825461062691906112a0565b925050819055505b600080828152602001908152602001600020549150509392505050565b610653610daa565b81600560008373ffffffffffffffffffffffffffffffffffffffff1673ffffffffffffffffffffffffffffffffffffffff16815260200190815260200160002060006101000a81548173ffffffffffffffffffffffffffffffffffffffff021916908373ffffffffffffffffffffffffffffffffffffffff1602179055505050565b600560008273ffffffffffffffffffffffffffffffffffffffff1673ffffffffffffffffffffffffffffffffffffffff16815260200190815260200160002060009054906101000a900473ffffffffffffffffffffffffffffffffffffffff1673ffffffffffffffffffffffffffffffffffffffff163373ffffffffffffffffffffffffffffffffffffffff16146107a2576040517f08c379a0000000000000000000000000000000000000000000000000000000008152600401610799906115e0565b60405180910390fd5b6006546000806107b28585610d77565b81526020019081526020016000205411610801576040517f08c379a00000000000000000000000000000000000000000000000000000000081526004016107f89061154e565b60405180910390fd5b600654600160008473ffffffffffffffffffffffffffffffffffffffff1673ffffffffffffffffffffffffffffffffffffffff168152602001908152602001600020600082825461085291906114a8565b925050819055506006546000806108698585610d77565b8152602001908152602001600020600082825461088691906112a0565b925050819055505050565b610899610daa565b80600460006101000a81548173ffffffffffffffffffffffffffffffffffffffff021916908373ffffffffffffffffffffffffffffffffffffffff16021790555050565b60008211610920576040517f08c379a0000000000000000000000000000000000000000000000000000000008152600401610917906111bf565b60405180910390fd5b600260009054906101000a900473ffffffffffffffffffffffffffffffffffffffff1673ffffffffffffffffffffffffffffffffffffffff166323b872dd3330856040518463ffffffff1660e01b815260040161097f93929190611600565b6020604051808303816000875af115801561099e573d6000803e3d6000fd5b505050506040513d601f19601f820116820180604052508101906109c29190611335565b610a01576040517f08c379a00000000000000000000000000000000000000000000000000000000081526004016109f8906116a9565b60405180910390fd5b81600080610a0f3385610d77565b81526020019081526020016000206000828254610a2c91906114a8565b925050819055503373ffffffffffffffffffffffffffffffffffffffff167fe1fffcc4923d04b559f4d29a8bfc6cda04eb5b0d3c460751c2402c5c5cc9109c83604051610a799190611051565b60405180910390a25050565b600460009054906101000a900473ffffffffffffffffffffffffffffffffffffffff1681565b60006020528060005260406000206000915090505481565b610acb610daa565b600073ffffffffffffffffffffffffffffffffffffffff168173ffffffffffffffffffffffffffffffffffffffff1603610b3a576040517f08c379a0000000000000000000000000000000000000000000000000000000008152600401610b319061173b565b60405180910390fd5b80600360006101000a81548173ffffffffffffffffffffffffffffffffffffffff021916908373ffffffffffffffffffffffffffffffffffffffff16021790555050565b60016020528060005260406000206000915090505481565b600560008273ffffffffffffffffffffffffffffffffffffffff1673ffffffffffffffffffffffffffffffffffffffff16815260200190815260200160002060009054906101000a900473ffffffffffffffffffffffffffffffffffffffff1673ffffffffffffffffffffffffffffffffffffffff163373ffffffffffffffffffffffffffffffffffffffff1614610c63576040517f08c379a0000000000000000000000000000000000000000000000000000000008152600401610c5a906115e0565b60405180910390fd5b600654600160008473ffffffffffffffffffffffffffffffffffffffff1673ffffffffffffffffffffffffffffffffffffffff168152602001908152602001600020541015610ce7576040517f08c379a0000000000000000000000000000000000000000000000000000000008152600401610cde9061154e565b60405180910390fd5b600654600160008473ffffffffffffffffffffffffffffffffffffffff1673ffffffffffffffffffffffffffffffffffffffff1681526020019081526020016000206000828254610d3891906112a0565b92505081905550600654600080610d4f8585610d77565b81526020019081526020016000206000828254610d6c91906114a8565b925050819055505050565b60008282604051602001610d8c9291906117a3565b60405160208183030381529060405280519060200120905092915050565b600360009054906101000a900473ffffffffffffffffffffffffffffffffffffffff1673ffffffffffffffffffffffffffffffffffffffff163373ffffffffffffffffffffffffffffffffffffffff1614610e3a576040517f08c379a0000000000000000000000000000000000000000000000000000000008152600401610e3190611841565b60405180910390fd5b565b600080fd5b6000819050919050565b610e5481610e41565b8114610e5f57600080fd5b50565b600081359050610e7181610e4b565b92915050565b600073ffffffffffffffffffffffffffffffffffffffff82169050919050565b6000610ea282610e77565b9050919050565b610eb281610e97565b8114610ebd57600080fd5b50565b600081359050610ecf81610ea9565b92915050565b60008060408385031215610eec57610eeb610e3c565b5b6000610efa85828601610e62565b9250506020610f0b85828601610ec0565b9150509250929050565b6000819050919050565b6000610f3a610f35610f3084610e77565b610f15565b610e77565b9050919050565b6000610f4c82610f1f565b9050919050565b6000610f5e82610f41565b9050919050565b610f6e81610f53565b82525050565b6000602082019050610f896000830184610f65565b92915050565b610f9881610e97565b82525050565b6000602082019050610fb36000830184610f8f565b92915050565b6000819050919050565b610fcc81610fb9565b8114610fd757600080fd5b50565b600081359050610fe981610fc3565b92915050565b60008060006060848603121561100857611007610e3c565b5b600061101686828701610ec0565b935050602061102786828701610ec0565b925050604061103886828701610fda565b9150509250925092565b61104b81610e41565b82525050565b60006020820190506110666000830184611042565b92915050565b6000806040838503121561108357611082610e3c565b5b600061109185828601610ec0565b92505060206110a285828601610ec0565b9150509250929050565b6000602082840312156110c2576110c1610e3c565b5b60006110d084828501610ec0565b91505092915050565b6000819050919050565b6110ec816110d9565b81146110f757600080fd5b50565b600081359050611109816110e3565b92915050565b60006020828403121561112557611124610e3c565b5b6000611133848285016110fa565b91505092915050565b600082825260208201905092915050565b7f4d617267696e4163636f756e743a20416d6f756e74206d75737420626520677260008201527f6561746572207468616e207a65726f0000000000000000000000000000000000602082015250565b60006111a9602f8361113c565b91506111b48261114d565b604082019050919050565b600060208201905081810360008301526111d88161119c565b9050919050565b7f4d617267696e4163636f756e743a20496e73756666696369656e742062616c6160008201527f6e63650000000000000000000000000000000000000000000000000000000000602082015250565b600061123b60238361113c565b9150611246826111df565b604082019050919050565b6000602082019050818103600083015261126a8161122e565b9050919050565b7f4e487b7100000000000000000000000000000000000000000000000000000000600052601160045260246000fd5b60006112ab82610e41565b91506112b683610e41565b92508282039050818111156112ce576112cd611271565b5b92915050565b60006040820190506112e96000830185610f8f565b6112f66020830184611042565b9392505050565b60008115159050919050565b611312816112fd565b811461131d57600080fd5b50565b60008151905061132f81611309565b92915050565b60006020828403121561134b5761134a610e3c565b5b600061135984828501611320565b91505092915050565b7f4d617267696e4163636f756e743a205472616e73666572206661696c65640000600082015250565b6000611398601e8361113c565b91506113a382611362565b602082019050919050565b600060208201905081810360008301526113c78161138b565b9050919050565b7f4d617267696e4163636f756e743a206f6e6c7920706f736974696f6e206d616e60008201527f616765722063616e206d616b6520746869732063616c6c000000000000000000602082015250565b600061142a60378361113c565b9150611435826113ce565b604082019050919050565b600060208201905081810360008301526114598161141d565b9050919050565b600061146b82610fb9565b91507f8000000000000000000000000000000000000000000000000000000000000000820361149d5761149c611271565b5b816000039050919050565b60006114b382610e41565b91506114be83610e41565b92508282019050808211156114d6576114d5611271565b5b92915050565b7f4d617267696e4163636f756e743a20696e73756666696369656e742066756e6460008201527f7300000000000000000000000000000000000000000000000000000000000000602082015250565b600061153860218361113c565b9150611543826114dc565b604082019050919050565b600060208201905081810360008301526115678161152b565b9050919050565b7f4d617267696e4163636f756e743a206f6e6c79206f7264657220626f6f6b206360008201527f616e206d616b6520746869732063616c6c000000000000000000000000000000602082015250565b60006115ca60318361113c565b91506115d58261156e565b604082019050919050565b600060208201905081810360008301526115f9816115bd565b9050919050565b60006060820190506116156000830186610f8f565b6116226020830185610f8f565b61162f6040830184611042565b949350505050565b7f4d617267696e4163636f756e743a205472616e7366657246726f6d206661696c60008201527f6564000000000000000000000000000000000000000000000000000000000000602082015250565b600061169360228361113c565b915061169e82611637565b604082019050919050565b600060208201905081810360008301526116c281611686565b9050919050565b7f4d617267696e4163636f756e743a20476f762063616e6e6f74206265207a657260008201527f6f20616464726573730000000000000000000000000000000000000000000000602082015250565b600061172560298361113c565b9150611730826116c9565b604082019050919050565b6000602082019050818103600083015261175481611718565b9050919050565b60008160601b9050919050565b60006117738261175b565b9050919050565b600061178582611768565b9050919050565b61179d61179882610e97565b61177a565b82525050565b60006117af828561178c565b6014820191506117bf828461178c565b6014820191508190509392505050565b7f4d617267696e4163636f756e743a204f6e6c7920676f762063616e2063616c6c60008201527f20746869732066756e6374696f6e000000000000000000000000000000000000602082015250565b600061182b602e8361113c565b9150611836826117cf565b604082019050919050565b6000602082019050818103600083015261185a8161181e565b905091905056fea2646970667358221220177803c25194cd966a0355728d7214303e0b814ffdc14d4689190eea6054333964736f6c63430008110033",
  "linkReferences": {},
  "deployedLinkReferences": {}
}