{
  "abi": [
    {
      "inputs": [],
      "stateMutability": "nonpayable",
      "type": "constructor"
    },
    {
      "anonymous": false,
      "inputs": [
        {
          "indexed": false,
          "internalType": "uint32",
          "name": "domain",
          "type": "uint32"
        },
        {
          "indexed": false,
          "internalType": "bytes32",
          "name": "commitment",
          "type": "bytes32"
        }
      ],
      "name": "CommitmentUpdated",
      "type": "event"
    },
    {
      "anonymous": false,
      "inputs": [
        {
          "indexed": true,
          "internalType": "address",
          "name": "previousOwner",
          "type": "address"
        },
        {
          "indexed": true,
          "internalType": "address",
          "name": "newOwner",
          "type": "address"
        }
      ],
      "name": "OwnershipTransferred",
      "type": "event"
    },
    {
      "anonymous": false,
      "inputs": [
        {
          "indexed": true,
          "internalType": "uint32",
          "name": "domain",
          "type": "uint32"
        },
        {
          "indexed": false,
          "internalType": "uint8",
          "name": "threshold",
          "type": "uint8"
        }
      ],
      "name": "ThresholdSet",
      "type": "event"
    },
    {
      "anonymous": false,
      "inputs": [
        {
          "indexed": true,
          "internalType": "uint32",
          "name": "domain",
          "type": "uint32"
        },
        {
          "indexed": true,
          "internalType": "address",
          "name": "validator",
          "type": "address"
        },
        {
          "indexed": false,
          "internalType": "uint256",
          "name": "validatorCount",
          "type": "uint256"
        }
      ],
      "name": "ValidatorEnrolled",
      "type": "event"
    },
    {
      "anonymous": false,
      "inputs": [
        {
          "indexed": true,
          "internalType": "uint32",
          "name": "domain",
          "type": "uint32"
        },
        {
          "indexed": true,
          "internalType": "address",
          "name": "validator",
          "type": "address"
        },
        {
          "indexed": false,
          "internalType": "uint256",
          "name": "validatorCount",
          "type": "uint256"
        }
      ],
      "name": "ValidatorUnenrolled",
      "type": "event"
    },
    {
      "inputs": [
        {
          "internalType": "uint32",
          "name": "",
          "type": "uint32"
        }
      ],
      "name": "commitment",
      "outputs": [
        {
          "internalType": "bytes32",
          "name": "",
          "type": "bytes32"
        }
      ],
      "stateMutability": "view",
      "type": "function"
    },
    {
      "inputs": [
        {
          "internalType": "uint32",
          "name": "_domain",
          "type": "uint32"
        },
        {
          "internalType": "address",
          "name": "_validator",
          "type": "address"
        }
      ],
      "name": "enrollValidator",
      "outputs": [],
      "stateMutability": "nonpayable",
      "type": "function"
    },
    {
      "inputs": [
        {
          "internalType": "uint32[]",
          "name": "_domains",
          "type": "uint32[]"
        },
        {
          "internalType": "address[][]",
          "name": "_validators",
          "type": "address[][]"
        }
      ],
      "name": "enrollValidators",
      "outputs": [],
      "stateMutability": "nonpayable",
      "type": "function"
    },
    {
      "inputs": [
        {
          "internalType": "uint32",
          "name": "_domain",
          "type": "uint32"
        },
        {
          "internalType": "address",
          "name": "_address",
          "type": "address"
        }
      ],
      "name": "isEnrolled",
      "outputs": [
        {
          "internalType": "bool",
          "name": "",
          "type": "bool"
        }
      ],
      "stateMutability": "view",
      "type": "function"
    },
    {
      "inputs": [],
      "name": "moduleType",
      "outputs": [
        {
          "internalType": "uint8",
          "name": "",
          "type": "uint8"
        }
      ],
      "stateMutability": "view",
      "type": "function"
    },
    {
      "inputs": [],
      "name": "owner",
      "outputs": [
        {
          "internalType": "address",
          "name": "",
          "type": "address"
        }
      ],
      "stateMutability": "view",
      "type": "function"
    },
    {
      "inputs": [],
      "name": "renounceOwnership",
      "outputs": [],
      "stateMutability": "nonpayable",
      "type": "function"
    },
    {
      "inputs": [
        {
          "internalType": "uint32",
          "name": "_domain",
          "type": "uint32"
        },
        {
          "internalType": "uint8",
          "name": "_threshold",
          "type": "uint8"
        }
      ],
      "name": "setThreshold",
      "outputs": [],
      "stateMutability": "nonpayable",
      "type": "function"
    },
    {
      "inputs": [
        {
          "internalType": "uint32[]",
          "name": "_domains",
          "type": "uint32[]"
        },
        {
          "internalType": "uint8[]",
          "name": "_thresholds",
          "type": "uint8[]"
        }
      ],
      "name": "setThresholds",
      "outputs": [],
      "stateMutability": "nonpayable",
      "type": "function"
    },
    {
      "inputs": [
        {
          "internalType": "uint32",
          "name": "",
          "type": "uint32"
        }
      ],
      "name": "threshold",
      "outputs": [
        {
          "internalType": "uint8",
          "name": "",
          "type": "uint8"
        }
      ],
      "stateMutability": "view",
      "type": "function"
    },
    {
      "inputs": [
        {
          "internalType": "address",
          "name": "newOwner",
          "type": "address"
        }
      ],
      "name": "transferOwnership",
      "outputs": [],
      "stateMutability": "nonpayable",
      "type": "function"
    },
    {
      "inputs": [
        {
          "internalType": "uint32",
          "name": "_domain",
          "type": "uint32"
        },
        {
          "internalType": "address",
          "name": "_validator",
          "type": "address"
        }
      ],
      "name": "unenrollValidator",
      "outputs": [],
      "stateMutability": "nonpayable",
      "type": "function"
    },
    {
      "inputs": [
        {
          "internalType": "uint32",
          "name": "_domain",
          "type": "uint32"
        }
      ],
      "name": "validatorCount",
      "outputs": [
        {
          "internalType": "uint256",
          "name": "",
          "type": "uint256"
        }
      ],
      "stateMutability": "view",
      "type": "function"
    },
    {
      "inputs": [
        {
          "internalType": "uint32",
          "name": "_domain",
          "type": "uint32"
        }
      ],
      "name": "validators",
      "outputs": [
        {
          "internalType": "address[]",
          "name": "",
          "type": "address[]"
        }
      ],
      "stateMutability": "view",
      "type": "function"
    },
    {
      "inputs": [
        {
          "internalType": "bytes",
          "name": "_message",
          "type": "bytes"
        }
      ],
      "name": "validatorsAndThreshold",
      "outputs": [
        {
          "internalType": "address[]",
          "name": "",
          "type": "address[]"
        },
        {
          "internalType": "uint8",
          "name": "",
          "type": "uint8"
        }
      ],
      "stateMutability": "view",
      "type": "function"
    },
    {
      "inputs": [
        {
          "internalType": "bytes",
          "name": "_metadata",
          "type": "bytes"
        },
        {
          "internalType": "bytes",
          "name": "_message",
          "type": "bytes"
        }
      ],
      "name": "verify",
      "outputs": [
        {
          "internalType": "bool",
          "name": "",
          "type": "bool"
        }
      ],
      "stateMutability": "view",
      "type": "function"
    }
  ],
  "address": "0x21f5169F6e794f980E628e1393c8Fa533C93a4B4",
  "args": [],
  "bytecode": "0x608060405234801561001057600080fd5b5061001a3361001f565b61006f565b600080546001600160a01b038381166001600160a01b0319831681178455604051919092169283917f8be0079c531659141344cd1fd0a4f28419497f9722a3daafe3b4186f6b6457e09190a35050565b6122628061007e6000396000f3fe608060405234801561001057600080fd5b50600436106101005760003560e01c8063715018a611610097578063f211b73211610066578063f211b73214610247578063f2fde38b1461026a578063f7e83aee1461027d578063fe9f5ab11461029057600080fd5b8063715018a6146101e45780638da5cb5b146101ec5780639a6e9a2414610214578063e7d5d3a11461023457600080fd5b8063414c676f116100d3578063414c676f146101845780634422cc2a146101975780635d94f2b9146101aa5780636465e69f146101ca57600080fd5b8063020addf114610105578063174769dc1461012b5780632e0ed234146101405780634098991214610161575b600080fd5b610118610113366004611a8b565b6102a3565b6040519081526020015b60405180910390f35b61013e610139366004611aeb565b6102c7565b005b61015361014e366004611b99565b610439565b604051610122929190611c2c565b61017461016f366004611c75565b61047d565b6040519015158152602001610122565b61013e610192366004611aeb565b6104ab565b61013e6101a5366004611cb9565b61058b565b6101186101b8366004611a8b565b60036020526000908152604090205481565b6101d2600381565b60405160ff9091168152602001610122565b61013e61069c565b60005460405173ffffffffffffffffffffffffffffffffffffffff9091168152602001610122565b610227610222366004611a8b565b6106b0565b6040516101229190611ce3565b61013e610242366004611c75565b610781565b6101d2610255366004611a8b565b60016020526000908152604090205460ff1681565b61013e610278366004611cf6565b610907565b61017461028b366004611d11565b6109be565b61013e61029e366004611c75565b610aaf565b63ffffffff811660009081526002602052604081206102c190610aca565b92915050565b6102cf610ad4565b8281811461033e576040517f08c379a000000000000000000000000000000000000000000000000000000000815260206004820152600760248201527f216c656e6774680000000000000000000000000000000000000000000000000060448201526064015b60405180910390fd5b60005b818110156104315736600085858481811061035e5761035e611d71565b90506020028101906103709190611da0565b90925090508060005b818110156103e9576103d78a8a8781811061039657610396611d71565b90506020020160208101906103ab9190611a8b565b8585848181106103bd576103bd611d71565b90506020020160208101906103d29190611cf6565b610b55565b6103e2600182611e37565b9050610379565b506104198989868181106103ff576103ff611d71565b90506020020160208101906104149190611a8b565b610cb7565b5050505060018161042a9190611e37565b9050610341565b505050505050565b60606000806104488585610d7c565b90506000610455826106b0565b63ffffffff9092166000908152600160205260409020549193505060ff1690505b9250929050565b63ffffffff808316600090815260026020526040812090916104a39082908590610d9f16565b949350505050565b6104b3610ad4565b8281811461051d576040517f08c379a000000000000000000000000000000000000000000000000000000000815260206004820152600760248201527f216c656e677468000000000000000000000000000000000000000000000000006044820152606401610335565b60005b818110156104315761057986868381811061053d5761053d611d71565b90506020020160208101906105529190611a8b565b85858481811061056457610564611d71565b90506020020160208101906101a59190611e4f565b610584600182611e37565b9050610520565b610593610ad4565b60008160ff161180156105b157506105aa826102a3565b8160ff1611155b610617576040517f08c379a000000000000000000000000000000000000000000000000000000000815260206004820152600660248201527f2172616e676500000000000000000000000000000000000000000000000000006044820152606401610335565b63ffffffff821660008181526001602090815260409182902080547fffffffffffffffffffffffffffffffffffffffffffffffffffffffffffffff001660ff861690811790915591519182527ff25cfff98c95cf069df801752174d854732576e4b283bc4299386f65676e386a910160405180910390a261069782610cb7565b505050565b6106a4610ad4565b6106ae6000610dd1565b565b63ffffffff811660009081526002602052604081206060916106d182610aca565b905060008167ffffffffffffffff8111156106ee576106ee611e99565b604051908082528060200260200182016040528015610717578160200160208202803683370190505b50905060005b828110156107785761072f8482610e46565b82828151811061074157610741611d71565b73ffffffffffffffffffffffffffffffffffffffff909216602092830291909101909101528061077081611ec8565b91505061071d565b50949350505050565b610789610ad4565b63ffffffff80831660009081526002602052604090206107ab918390610e5216565b610811576040517f08c379a000000000000000000000000000000000000000000000000000000000815260206004820152600960248201527f21656e726f6c6c656400000000000000000000000000000000000000000000006044820152606401610335565b600061081c836102a3565b63ffffffff841660009081526001602052604090205490915060ff168110156108a1576040517f08c379a000000000000000000000000000000000000000000000000000000000815260206004820152601960248201527f76696f6c617465732071756f72756d207468726573686f6c64000000000000006044820152606401610335565b6108aa83610cb7565b508173ffffffffffffffffffffffffffffffffffffffff168363ffffffff167fa4c7a7b783c9afd72ed0b93a7e67ca063acdaa9c3b3268bd43abe1199bdad27c836040516108fa91815260200190565b60405180910390a3505050565b61090f610ad4565b73ffffffffffffffffffffffffffffffffffffffff81166109b2576040517f08c379a000000000000000000000000000000000000000000000000000000000815260206004820152602660248201527f4f776e61626c653a206e6577206f776e657220697320746865207a65726f206160448201527f64647265737300000000000000000000000000000000000000000000000000006064820152608401610335565b6109bb81610dd1565b50565b60006109cc85858585610e74565b610a32576040517f08c379a000000000000000000000000000000000000000000000000000000000815260206004820152600760248201527f216d65726b6c65000000000000000000000000000000000000000000000000006044820152606401610335565b610a3e85858585610eee565b610aa4576040517f08c379a000000000000000000000000000000000000000000000000000000000815260206004820152600560248201527f21736967730000000000000000000000000000000000000000000000000000006044820152606401610335565b506001949350505050565b610ab7610ad4565b610ac18282610b55565b61069782610cb7565b60006102c1825490565b60005473ffffffffffffffffffffffffffffffffffffffff1633146106ae576040517f08c379a000000000000000000000000000000000000000000000000000000000815260206004820181905260248201527f4f776e61626c653a2063616c6c6572206973206e6f7420746865206f776e65726044820152606401610335565b73ffffffffffffffffffffffffffffffffffffffff8116610bd2576040517f08c379a000000000000000000000000000000000000000000000000000000000815260206004820152600c60248201527f7a65726f206164647265737300000000000000000000000000000000000000006044820152606401610335565b63ffffffff8083166000908152600260205260409020610bf491839061116616565b610c5a576040517f08c379a000000000000000000000000000000000000000000000000000000000815260206004820152601060248201527f616c726561647920656e726f6c6c6564000000000000000000000000000000006044820152606401610335565b8073ffffffffffffffffffffffffffffffffffffffff168263ffffffff167f890997ec79a2b993cbc6e69433ed0ffa6303de16e3c21e315ba91c21ab5ec15a610ca2856102a3565b60405190815260200160405180910390a35050565b600080610cc3836106b0565b63ffffffff8416600090815260016020908152604080832054905193945060ff1692610cf3918491869101611f00565b604080518083037fffffffffffffffffffffffffffffffffffffffffffffffffffffffffffffffe0018152828252805160209182012063ffffffff8916600081815260038452849020829055845290830181905292507f6f17fabbcaf1b0e8cfbc153d8884a27de46c3076c2de8ac2aef0094a134909e3910160405180910390a1949350505050565b6000610d8c600960058486611f78565b610d9591611fa2565b60e01c9392505050565b73ffffffffffffffffffffffffffffffffffffffff8116600090815260018301602052604081205415155b9392505050565b6000805473ffffffffffffffffffffffffffffffffffffffff8381167fffffffffffffffffffffffff0000000000000000000000000000000000000000831681178455604051919092169283917f8be0079c531659141344cd1fd0a4f28419497f9722a3daafe3b4186f6b6457e09190a35050565b6000610dca8383611188565b6000610dca8373ffffffffffffffffffffffffffffffffffffffff84166111b2565b600080610ed8610eb985858080601f0160208091040260200160405190810160405280939291908181526020018383808284376000920191909152506112a592505050565b610ec388886112b0565b610ecd87876112d4565b63ffffffff166112e4565b9050610ee48686611395565b1495945050505050565b600080610efb86866113ad565b9050600080610f0a8686610d7c565b9050600083610f198a8a6113d2565b604051602001610f2b93929190611fea565b604080517fffffffffffffffffffffffffffffffffffffffffffffffffffffffffffffffe0818403018152918152815160209283012063ffffffff8516600090815260039093529120549091508114610fe0576040517f08c379a000000000000000000000000000000000000000000000000000000000815260206004820152600b60248201527f21636f6d6d69746d656e740000000000000000000000000000000000000000006044820152606401610335565b61100782610fee8b8b6113f7565b610ff88c8c611395565b6110028d8d611407565b611417565b92505050600061101788886114cb565b90506000805b8460ff16811015611156576000611073856110398d8d866114ed565b8080601f01602080910402602001604051908101604052809392919081815260200183838082843760009201919091525061153392505050565b90505b83831080156110bb575061108b8b8b8561154f565b73ffffffffffffffffffffffffffffffffffffffff168173ffffffffffffffffffffffffffffffffffffffff1614155b156110d0576110c983611ec8565b9250611076565b838310611139576040517f08c379a000000000000000000000000000000000000000000000000000000000815260206004820152600a60248201527f217468726573686f6c64000000000000000000000000000000000000000000006044820152606401610335565b61114283611ec8565b9250508061114f90611ec8565b905061101d565b5060019998505050505050505050565b6000610dca8373ffffffffffffffffffffffffffffffffffffffff84166115af565b600082600001828154811061119f5761119f611d71565b9060005260206000200154905092915050565b6000818152600183016020526040812054801561129b5760006111d6600183612029565b85549091506000906111ea90600190612029565b905081811461124f57600086600001828154811061120a5761120a611d71565b906000526020600020015490508087600001848154811061122d5761122d611d71565b6000918252602080832090910192909255918252600188019052604090208390555b855486908061126057611260612040565b6001900381819060005260206000200160009055905585600101600086815260200190815260200160002060009055600193505050506102c1565b60009150506102c1565b805160209091012090565b6112b8611a53565b6112c761044460448486611f78565b810190610dca919061206f565b6000610d8c600560018486611f78565b8260005b602081101561138d57600183821c16600085836020811061130b5761130b611d71565b602002015190508160010361134b576040805160208101839052908101859052606001604051602081830303815290604052805190602001209350611378565b60408051602081018690529081018290526060016040516020818303038152906040528051906020012093505b5050808061138590611ec8565b9150506112e8565b509392505050565b60006113a46020828486611f78565b610dca91612115565b60006113bf6104456104448486611f78565b6113c891612151565b60f81c9392505050565b36600083836113e186866115fe565b6113ec928290611f78565b915091509250929050565b60006113a4604460248486611f78565b6000610d8c602460208486611f78565b6000806114248686611625565b60408051602080820184905281830188905260e087901b7fffffffff00000000000000000000000000000000000000000000000000000000166060830152825160448184030181526064830184528051908201207f19457468657265756d205369676e6564204d6573736167653a0a333200000000608484015260a0808401919091528351808403909101815260c090920190925280519101209091509695505050505050565b600060206114d984846115fe565b6114e39084612029565b610dca9190612197565b366000806114fc6041856121d2565b61150890610445611e37565b90506000611517604183611e37565b90506115258183888a611f78565b935093505050935093915050565b600080600061154285856116a5565b9150915061138d816116e7565b60008061155d8360206121d2565b61156786866115fe565b6115719190611e37565b61157c90600c611e37565b9050600061158b826014611e37565b905061159981838789611f78565b6115a29161220f565b60601c9695505050505050565b60008181526001830160205260408120546115f6575081546001818101845560008481526020808220909301849055845484825282860190935260409020919091556102c1565b5060006102c1565b6000604161160c84846113ad565b60ff1661161991906121d2565b610dca90610445611e37565b6040805160e084901b7fffffffff0000000000000000000000000000000000000000000000000000000016602080830191909152602482018490527f48595045524c414e45000000000000000000000000000000000000000000000060448301528251602d818403018152604d9092019092528051910120600090610dca565b60008082516041036116db5760208301516040840151606085015160001a6116cf8782858561193b565b94509450505050610476565b50600090506002610476565b60008160048111156116fb576116fb611e6a565b036117035750565b600181600481111561171757611717611e6a565b0361177e576040517f08c379a000000000000000000000000000000000000000000000000000000000815260206004820152601860248201527f45434453413a20696e76616c6964207369676e617475726500000000000000006044820152606401610335565b600281600481111561179257611792611e6a565b036117f9576040517f08c379a000000000000000000000000000000000000000000000000000000000815260206004820152601f60248201527f45434453413a20696e76616c6964207369676e6174757265206c656e677468006044820152606401610335565b600381600481111561180d5761180d611e6a565b0361189a576040517f08c379a000000000000000000000000000000000000000000000000000000000815260206004820152602260248201527f45434453413a20696e76616c6964207369676e6174757265202773272076616c60448201527f75650000000000000000000000000000000000000000000000000000000000006064820152608401610335565b60048160048111156118ae576118ae611e6a565b036109bb576040517f08c379a000000000000000000000000000000000000000000000000000000000815260206004820152602260248201527f45434453413a20696e76616c6964207369676e6174757265202776272076616c60448201527f75650000000000000000000000000000000000000000000000000000000000006064820152608401610335565b6000807f7fffffffffffffffffffffffffffffff5d576e7357a4501ddfe92f46681b20a08311156119725750600090506003611a4a565b8460ff16601b1415801561198a57508460ff16601c14155b1561199b5750600090506004611a4a565b6040805160008082526020820180845289905260ff881692820192909252606081018690526080810185905260019060a0016020604051602081039080840390855afa1580156119ef573d6000803e3d6000fd5b50506040517fffffffffffffffffffffffffffffffffffffffffffffffffffffffffffffffe0015191505073ffffffffffffffffffffffffffffffffffffffff8116611a4357600060019250925050611a4a565b9150600090505b94509492505050565b6040518061040001604052806020906020820280368337509192915050565b803563ffffffff81168114611a8657600080fd5b919050565b600060208284031215611a9d57600080fd5b610dca82611a72565b60008083601f840112611ab857600080fd5b50813567ffffffffffffffff811115611ad057600080fd5b6020830191508360208260051b850101111561047657600080fd5b60008060008060408587031215611b0157600080fd5b843567ffffffffffffffff80821115611b1957600080fd5b611b2588838901611aa6565b90965094506020870135915080821115611b3e57600080fd5b50611b4b87828801611aa6565b95989497509550505050565b60008083601f840112611b6957600080fd5b50813567ffffffffffffffff811115611b8157600080fd5b60208301915083602082850101111561047657600080fd5b60008060208385031215611bac57600080fd5b823567ffffffffffffffff811115611bc357600080fd5b611bcf85828601611b57565b90969095509350505050565b600081518084526020808501945080840160005b83811015611c2157815173ffffffffffffffffffffffffffffffffffffffff1687529582019590820190600101611bef565b509495945050505050565b604081526000611c3f6040830185611bdb565b905060ff831660208301529392505050565b803573ffffffffffffffffffffffffffffffffffffffff81168114611a8657600080fd5b60008060408385031215611c8857600080fd5b611c9183611a72565b9150611c9f60208401611c51565b90509250929050565b803560ff81168114611a8657600080fd5b60008060408385031215611ccc57600080fd5b611cd583611a72565b9150611c9f60208401611ca8565b602081526000610dca6020830184611bdb565b600060208284031215611d0857600080fd5b610dca82611c51565b60008060008060408587031215611d2757600080fd5b843567ffffffffffffffff80821115611d3f57600080fd5b611d4b88838901611b57565b90965094506020870135915080821115611d6457600080fd5b50611b4b87828801611b57565b7f4e487b7100000000000000000000000000000000000000000000000000000000600052603260045260246000fd5b60008083357fffffffffffffffffffffffffffffffffffffffffffffffffffffffffffffffe1843603018112611dd557600080fd5b83018035915067ffffffffffffffff821115611df057600080fd5b6020019150600581901b360382131561047657600080fd5b7f4e487b7100000000000000000000000000000000000000000000000000000000600052601160045260246000fd5b60008219821115611e4a57611e4a611e08565b500190565b600060208284031215611e6157600080fd5b610dca82611ca8565b7f4e487b7100000000000000000000000000000000000000000000000000000000600052602160045260246000fd5b7f4e487b7100000000000000000000000000000000000000000000000000000000600052604160045260246000fd5b60007fffffffffffffffffffffffffffffffffffffffffffffffffffffffffffffffff8203611ef957611ef9611e08565b5060010190565b7fff000000000000000000000000000000000000000000000000000000000000008360f81b168152600060018083018451602080870160005b83811015611f6a57815173ffffffffffffffffffffffffffffffffffffffff16855293820193908201908501611f39565b509298975050505050505050565b60008085851115611f8857600080fd5b83861115611f9557600080fd5b5050820193919092039150565b7fffffffff000000000000000000000000000000000000000000000000000000008135818116916004851015611fe25780818660040360031b1b83161692505b505092915050565b7fff000000000000000000000000000000000000000000000000000000000000008460f81b168152818360018301376000910160010190815292915050565b60008282101561203b5761203b611e08565b500390565b7f4e487b7100000000000000000000000000000000000000000000000000000000600052603160045260246000fd5b600061040080838503121561208357600080fd5b83601f84011261209257600080fd5b60405181810181811067ffffffffffffffff821117156120db577f4e487b7100000000000000000000000000000000000000000000000000000000600052604160045260246000fd5b6040529083019080858311156120f057600080fd5b845b8381101561210a5780358252602091820191016120f2565b509095945050505050565b803560208310156102c1577fffffffffffffffffffffffffffffffffffffffffffffffffffffffffffffffff602084900360031b1b1692915050565b7fff000000000000000000000000000000000000000000000000000000000000008135818116916001851015611fe25760019490940360031b84901b1690921692915050565b6000826121cd577f4e487b7100000000000000000000000000000000000000000000000000000000600052601260045260246000fd5b500490565b6000817fffffffffffffffffffffffffffffffffffffffffffffffffffffffffffffffff048311821515161561220a5761220a611e08565b500290565b7fffffffffffffffffffffffffffffffffffffffff0000000000000000000000008135818116916014851015611fe25760149490940360031b84901b169092169291505056fea164736f6c634300080f000a",
  "devdoc": {
    "version": 1,
    "kind": "dev",
    "methods": {
      "enrollValidator(uint32,address)": {
        "details": "Reverts if `_validator` is already in the validator set.",
        "params": {
          "_domain": "The remote domain of the validator set.",
          "_validator": "The validator to add to the validator set."
        }
      },
      "enrollValidators(uint32[],address[][])": {
        "details": "Reverts if `_validator` is already in the validator set._validators[i] are the validators to enroll for _domains[i].",
        "params": {
          "_domains": "The remote domains of the validator sets.",
          "_validators": "The validators to add to the validator sets."
        }
      },
      "isEnrolled(uint32,address)": {
        "params": {
          "_address": "The address to test for set membership.",
          "_domain": "The remote domain of the validator set."
        },
        "returns": {
          "_0": "True if the address is enrolled, false otherwise."
        }
      },
      "owner()": {
        "details": "Returns the address of the current owner."
      },
      "renounceOwnership()": {
        "details": "Leaves the contract without owner. It will not be possible to call `onlyOwner` functions anymore. Can only be called by the current owner. NOTE: Renouncing ownership will leave the contract without an owner, thereby removing any functionality that is only available to the owner."
      },
      "setThreshold(uint32,uint8)": {
        "params": {
          "_domain": "The remote domain of the validator set.",
          "_threshold": "The new quorum threshold."
        }
      },
      "setThresholds(uint32[],uint8[])": {
        "params": {
          "_domains": "The remote domains of the validator sets.",
          "_thresholds": "The new quorum thresholds."
        }
      },
      "transferOwnership(address)": {
        "details": "Transfers ownership of the contract to a new account (`newOwner`). Can only be called by the current owner."
      },
      "unenrollValidator(uint32,address)": {
        "details": "Reverts if `_validator` is not in the validator set.",
        "params": {
          "_domain": "The remote domain of the validator set.",
          "_validator": "The validator to remove from the validator set."
        }
      },
      "validatorCount(uint32)": {
        "params": {
          "_domain": "The remote domain of the validator set."
        },
        "returns": {
          "_0": "The number of validators enrolled in the validator set."
        }
      },
      "validators(uint32)": {
        "params": {
          "_domain": "The remote domain of the validator set."
        },
        "returns": {
          "_0": "The addresses of the validator set."
        }
      },
      "validatorsAndThreshold(bytes)": {
        "details": "Can change based on the content of _message",
        "params": {
          "_message": "Hyperlane formatted interchain message"
        },
        "returns": {
          "_0": "validators The array of validator addresses",
          "_1": "threshold The number of validator signatures needed"
        }
      },
      "verify(bytes,bytes)": {
        "params": {
          "_message": "Formatted Hyperlane message (see Message.sol).",
          "_metadata": "ABI encoded module metadata (see LegacyMultisigIsmMetadata.sol)"
        }
      }
    },
    "events": {
      "CommitmentUpdated(uint32,bytes32)": {
        "params": {
          "commitment": "A commitment to the validator set and threshold.",
          "domain": "The remote domain of the validator set."
        }
      },
      "ThresholdSet(uint32,uint8)": {
        "params": {
          "domain": "The remote domain of the validator set.",
          "threshold": "The new quorum threshold."
        }
      },
      "ValidatorEnrolled(uint32,address,uint256)": {
        "params": {
          "domain": "The remote domain of the validator set.",
          "validator": "The address of the validator.",
          "validatorCount": "The number of enrolled validators in the validator set."
        }
      },
      "ValidatorUnenrolled(uint32,address,uint256)": {
        "params": {
          "domain": "The remote domain of the validator set.",
          "validator": "The address of the validator.",
          "validatorCount": "The number of enrolled validators in the validator set."
        }
      }
    },
    "title": "MultisigIsm"
  },
  "numDeployments": 0,
  "solcInputHash": "0x0000000000000000000000000000000000000000000000000000000000000000",
  "storageLayout": {
    "storage": [
      {
        "astId": 47279,
        "contract": "node_modules/@hyperlane-xyz/core/contracts/isms/multisig/LegacyMultisigIsm.sol:LegacyMultisigIsm",
        "label": "_owner",
        "offset": 0,
        "slot": "0",
        "type": "t_address"
      },
      {
        "astId": 45973,
        "contract": "node_modules/@hyperlane-xyz/core/contracts/isms/multisig/LegacyMultisigIsm.sol:LegacyMultisigIsm",
        "label": "threshold",
        "offset": 0,
        "slot": "1",
        "type": "t_mapping(t_uint32,t_uint8)"
      },
      {
        "astId": 45979,
        "contract": "node_modules/@hyperlane-xyz/core/contracts/isms/multisig/LegacyMultisigIsm.sol:LegacyMultisigIsm",
        "label": "validatorSet",
        "offset": 0,
        "slot": "2",
        "type": "t_mapping(t_uint32,t_struct(AddressSet)50663_storage)"
      },
      {
        "astId": 45984,
        "contract": "node_modules/@hyperlane-xyz/core/contracts/isms/multisig/LegacyMultisigIsm.sol:LegacyMultisigIsm",
        "label": "commitment",
        "offset": 0,
        "slot": "3",
        "type": "t_mapping(t_uint32,t_bytes32)"
      }
    ],
    "types": {
      "t_address": {
        "encoding": "inplace",
        "label": "address",
        "numberOfBytes": "20"
      },
      "t_array(t_bytes32)dyn_storage": {
        "encoding": "dynamic_array",
        "label": "bytes32[]",
        "numberOfBytes": "32",
        "base": "t_bytes32"
      },
      "t_bytes32": {
        "encoding": "inplace",
        "label": "bytes32",
        "numberOfBytes": "32"
      },
      "t_mapping(t_bytes32,t_uint256)": {
        "encoding": "mapping",
        "key": "t_bytes32",
        "label": "mapping(bytes32 => uint256)",
        "numberOfBytes": "32",
        "value": "t_uint256"
      },
      "t_mapping(t_uint32,t_bytes32)": {
        "encoding": "mapping",
        "key": "t_uint32",
        "label": "mapping(uint32 => bytes32)",
        "numberOfBytes": "32",
        "value": "t_bytes32"
      },
      "t_mapping(t_uint32,t_struct(AddressSet)50663_storage)": {
        "encoding": "mapping",
        "key": "t_uint32",
        "label": "mapping(uint32 => struct EnumerableSet.AddressSet)",
        "numberOfBytes": "32",
        "value": "t_struct(AddressSet)50663_storage"
      },
      "t_mapping(t_uint32,t_uint8)": {
        "encoding": "mapping",
        "key": "t_uint32",
        "label": "mapping(uint32 => uint8)",
        "numberOfBytes": "32",
        "value": "t_uint8"
      },
      "t_struct(AddressSet)50663_storage": {
        "encoding": "inplace",
        "label": "struct EnumerableSet.AddressSet",
        "numberOfBytes": "64",
        "members": [
          {
            "astId": 50662,
            "contract": "node_modules/@hyperlane-xyz/core/contracts/isms/multisig/LegacyMultisigIsm.sol:LegacyMultisigIsm",
            "label": "_inner",
            "offset": 0,
            "slot": "0",
            "type": "t_struct(Set)50362_storage"
          }
        ]
      },
      "t_struct(Set)50362_storage": {
        "encoding": "inplace",
        "label": "struct EnumerableSet.Set",
        "numberOfBytes": "64",
        "members": [
          {
            "astId": 50357,
            "contract": "node_modules/@hyperlane-xyz/core/contracts/isms/multisig/LegacyMultisigIsm.sol:LegacyMultisigIsm",
            "label": "_values",
            "offset": 0,
            "slot": "0",
            "type": "t_array(t_bytes32)dyn_storage"
          },
          {
            "astId": 50361,
            "contract": "node_modules/@hyperlane-xyz/core/contracts/isms/multisig/LegacyMultisigIsm.sol:LegacyMultisigIsm",
            "label": "_indexes",
            "offset": 0,
            "slot": "1",
            "type": "t_mapping(t_bytes32,t_uint256)"
          }
        ]
      },
      "t_uint256": {
        "encoding": "inplace",
        "label": "uint256",
        "numberOfBytes": "32"
      },
      "t_uint32": {
        "encoding": "inplace",
        "label": "uint32",
        "numberOfBytes": "4"
      },
      "t_uint8": {
        "encoding": "inplace",
        "label": "uint8",
        "numberOfBytes": "1"
      }
    }
  },
  "transactionHash": "0xd24ca313d25af3e9b9ae004f903b28869cca7a02532b686170726ada41fe5d2f",
  "userdoc": {
    "version": 1,
    "kind": "user",
    "methods": {
      "commitment(uint32)": {
        "notice": "A succinct commitment to the validator set and threshold for each remote domain."
      },
      "enrollValidator(uint32,address)": {
        "notice": "Enrolls a validator into a validator set."
      },
      "enrollValidators(uint32[],address[][])": {
        "notice": "Enrolls multiple validators into a validator set."
      },
      "isEnrolled(uint32,address)": {
        "notice": "Returns whether an address is enrolled in a validator set."
      },
      "moduleType()": {
        "notice": "Returns an enum that represents the type of security model encoded by this ISM."
      },
      "setThreshold(uint32,uint8)": {
        "notice": "Sets the quorum threshold."
      },
      "setThresholds(uint32[],uint8[])": {
        "notice": "Sets the quorum threshold for multiple domains."
      },
      "threshold(uint32)": {
        "notice": "The validator threshold for each remote domain."
      },
      "unenrollValidator(uint32,address)": {
        "notice": "Unenrolls a validator from a validator set."
      },
      "validatorCount(uint32)": {
        "notice": "Returns the number of validators enrolled in the validator set."
      },
      "validators(uint32)": {
        "notice": "Gets the current validator set"
      },
      "validatorsAndThreshold(bytes)": {
        "notice": "Returns the set of validators responsible for verifying _message and the number of signatures required"
      },
      "verify(bytes,bytes)": {
        "notice": "Verifies that a quorum of the origin domain's validators signed a checkpoint, and verifies the merkle proof of `_message` against that checkpoint."
      }
    },
    "events": {
      "CommitmentUpdated(uint32,bytes32)": {
        "notice": "Emitted when the validator set or threshold changes."
      },
      "ThresholdSet(uint32,uint8)": {
        "notice": "Emitted when the quorum threshold is set."
      },
      "ValidatorEnrolled(uint32,address,uint256)": {
        "notice": "Emitted when a validator is enrolled in a validator set."
      },
      "ValidatorUnenrolled(uint32,address,uint256)": {
        "notice": "Emitted when a validator is unenrolled from a validator set."
      }
    },
    "notice": "Manages an ownable set of validators that ECDSA sign checkpoints to reach a quorum."
  }
}