{
  "abi": [
    {
      "inputs": [
        {
          "internalType": "uint32",
          "name": "_destinationDomain",
          "type": "uint32"
        },
        {
          "internalType": "address",
          "name": "_messenger",
          "type": "address"
        },
        {
          "internalType": "address",
          "name": "_ism",
          "type": "address"
        }
      ],
      "stateMutability": "nonpayable",
      "type": "constructor"
    },
    {
      "inputs": [],
      "name": "destinationDomain",
      "outputs": [
        {
          "internalType": "uint32",
          "name": "",
          "type": "uint32"
        }
      ],
      "stateMutability": "view",
      "type": "function"
    },
    {
      "inputs": [],
      "name": "ism",
      "outputs": [
        {
          "internalType": "address",
          "name": "",
          "type": "address"
        }
      ],
      "stateMutability": "view",
      "type": "function"
    },
    {
      "inputs": [],
      "name": "l1Messenger",
      "outputs": [
        {
          "internalType": "contract ICrossDomainMessenger",
          "name": "",
          "type": "address"
        }
      ],
      "stateMutability": "view",
      "type": "function"
    },
    {
      "inputs": [
        {
          "internalType": "uint32",
          "name": "_destination",
          "type": "uint32"
        },
        {
          "internalType": "bytes32",
          "name": "_messageId",
          "type": "bytes32"
        }
      ],
      "name": "postDispatch",
      "outputs": [
        {
          "internalType": "uint256",
          "name": "",
          "type": "uint256"
        }
      ],
      "stateMutability": "payable",
      "type": "function"
    }
  ],
  "address": "0x5F07A7f55152bb2bC09F49CDea4ba1E42b440a36",
  "args": [
    "42069",
    "0x72193fd6fd32C834a4aEc87a153b3d6a0B10C030",
    "0x420000000000000000000000000000000000006b"
  ],
  "bytecode": "0x60e060405234801561001057600080fd5b5060405161058738038061058783398101604081905261002f9161006d565b63ffffffff9092166080526001600160a01b0390811660a0521660c0526100bb565b80516001600160a01b038116811461006857600080fd5b919050565b60008060006060848603121561008257600080fd5b835163ffffffff8116811461009657600080fd5b92506100a460208501610051565b91506100b260408501610051565b90509250925092565b60805160a05160c05161048a6100fd6000396000818160c5015261033e01526000818161011e0152610311015260008181605601526101b1015261048a6000f3fe60806040526004361061003f5760003560e01c80632858c55a146100445780633fa843b0146100925780634deefab2146100b35780636140e0e61461010c575b600080fd5b34801561005057600080fd5b506100787f000000000000000000000000000000000000000000000000000000000000000081565b60405163ffffffff90911681526020015b60405180910390f35b6100a56100a03660046103a9565b610140565b604051908152602001610089565b3480156100bf57600080fd5b506100e77f000000000000000000000000000000000000000000000000000000000000000081565b60405173ffffffffffffffffffffffffffffffffffffffff9091168152602001610089565b34801561011857600080fd5b506100e77f000000000000000000000000000000000000000000000000000000000000000081565b600034156101af576040517f08c379a000000000000000000000000000000000000000000000000000000000815260206004820152601e60248201527f4f7074696d69736d486f6f6b3a206e6f2076616c756520616c6c6f776564000060448201526064015b60405180910390fd5b7f000000000000000000000000000000000000000000000000000000000000000063ffffffff168363ffffffff161461026a576040517f08c379a000000000000000000000000000000000000000000000000000000000815260206004820152602860248201527f4f7074696d69736d486f6f6b3a20696e76616c69642064657374696e6174696f60448201527f6e20646f6d61696e00000000000000000000000000000000000000000000000060648201526084016101a6565b60408051336024820152604480820185905282518083039091018152606490910182526020810180517bffffffffffffffffffffffffffffffffffffffffffffffffffffffff167f5161ad8b0000000000000000000000000000000000000000000000000000000017905290517f3dbb202b00000000000000000000000000000000000000000000000000000000815273ffffffffffffffffffffffffffffffffffffffff7f00000000000000000000000000000000000000000000000000000000000000001690633dbb202b9061036d907f0000000000000000000000000000000000000000000000000000000000000000908590621d4c00906004016103de565b600060405180830381600087803b15801561038757600080fd5b505af115801561039b573d6000803e3d6000fd5b506000979650505050505050565b600080604083850312156103bc57600080fd5b823563ffffffff811681146103d057600080fd5b946020939093013593505050565b73ffffffffffffffffffffffffffffffffffffffff8416815260006020606081840152845180606085015260005b818110156104285786810183015185820160800152820161040c565b8181111561043a576000608083870101525b5063ffffffff9490941660408401525050601f919091017fffffffffffffffffffffffffffffffffffffffffffffffffffffffffffffffe016016080019291505056fea164736f6c634300080f000a",
  "devdoc": {
    "version": 1,
    "kind": "dev",
    "methods": {
      "postDispatch(uint32,bytes32)": {
        "details": "anyone can call this function, that's why we need to send msg.sender",
        "params": {
          "_destination": "The destination domain of the message.",
          "_messageId": "The message ID."
        },
        "returns": {
          "_0": "gasOverhead The gas overhead for the function call on L2."
        }
      }
    },
    "title": "HyperlaneOptimismMessageHook"
  },
  "numDeployments": 0,
  "solcInputHash": "0x0000000000000000000000000000000000000000000000000000000000000000",
  "storageLayout": {
    "storage": [],
    "types": {}
  },
  "transactionHash": "0x0f44893833c4bd9fda007a439ad9409f03c9c8c0dde6c8472c6591e1fe67ced8",
  "userdoc": {
    "version": 1,
    "kind": "user",
    "methods": {
      "postDispatch(uint32,bytes32)": {
        "notice": "Hook to inform the optimism ISM of messages published through."
      }
    },
    "notice": "Message hook to inform the Optimism ISM of messages published through the native Optimism bridge."
  }
}