{"contracts/OrderBook.sol":{"OrderBook":{"abi":[{"inputs":[{"internalType":"address","name":"_positionManager","type":"address"},{"internalType":"address","name":"_marginAccount","type":"address"},{"internalType":"address","name":"_tokenAddress","type":"address"}],"stateMutability":"nonpayable","type":"constructor"},{"inputs":[{"internalType":"uint256","name":"price","type":"uint256"},{"internalType":"uint256","name":"size","type":"uint256"}],"name":"addBuyOrder","outputs":[],"stateMutability":"nonpayable","type":"function"},{"inputs":[{"internalType":"uint256","name":"price","type":"uint256"},{"internalType":"uint256","name":"size","type":"uint256"}],"name":"addSellOrder","outputs":[],"stateMutability":"nonpayable","type":"function"},{"inputs":[{"internalType":"uint256","name":"_orderId","type":"uint256"}],"name":"cancelBuyOrder","outputs":[],"stateMutability":"nonpayable","type":"function"},{"inputs":[{"internalType":"uint256","name":"_orderId","type":"uint256"}],"name":"cancelSellOrder","outputs":[],"stateMutability":"nonpayable","type":"function"},{"inputs":[{"internalType":"uint256","name":"_orderId","type":"uint256"}],"name":"claimBuyLimitOrder","outputs":[],"stateMutability":"nonpayable","type":"function"},{"inputs":[{"internalType":"uint256","name":"_orderId","type":"uint256"}],"name":"claimSellLimitOrder","outputs":[],"stateMutability":"nonpayable","type":"function"},{"inputs":[{"internalType":"uint256","name":"_size","type":"uint256"}],"name":"placeAndExecuteMarketBuy","outputs":[],"stateMutability":"nonpayable","type":"function"},{"inputs":[{"internalType":"uint256","name":"_size","type":"uint256"}],"name":"placeAndExecuteMarketSell","outputs":[],"stateMutability":"nonpayable","type":"function"},{"inputs":[],"name":"pricePoints","outputs":[{"internalType":"uint256","name":"","type":"uint256"},{"internalType":"uint256","name":"","type":"uint256"}],"stateMutability":"view","type":"function"}],"evm":{"bytecode":{"linkReferences":{},"object":"60806040523480156200001157600080fd5b50604051620020f3380380620020f383398181016040528101906200003791906200016d565b81600760006101000a81548173ffffffffffffffffffffffffffffffffffffffff021916908373ffffffffffffffffffffffffffffffffffffffff16021790555082600660006101000a81548173ffffffffffffffffffffffffffffffffffffffff021916908373ffffffffffffffffffffffffffffffffffffffff16021790555080600860006101000a81548173ffffffffffffffffffffffffffffffffffffffff021916908373ffffffffffffffffffffffffffffffffffffffff160217905550505050620001c9565b600080fd5b600073ffffffffffffffffffffffffffffffffffffffff82169050919050565b6000620001358262000108565b9050919050565b620001478162000128565b81146200015357600080fd5b50565b60008151905062000167816200013c565b92915050565b60008060006060848603121562000189576200018862000103565b5b6000620001998682870162000156565b9350506020620001ac8682870162000156565b9250506040620001bf8682870162000156565b9150509250925092565b611f1a80620001d96000396000f3fe608060405234801561001057600080fd5b50600436106100935760003560e01c80635998dbe6116100665780635998dbe61461010b5780637e78e05f146101275780639049681c14610143578063ab0bcaaa1461015f578063be5d147f1461017b57610093565b806302e0d258146100985780631a46e42a146100b45780633acde419146100d05780633f146088146100ec575b600080fd5b6100b260048036038101906100ad9190611ac8565b610197565b005b6100ce60048036038101906100c99190611ac8565b6104c0565b005b6100ea60048036038101906100e59190611af5565b610672565b005b6100f4610778565b604051610102929190611b44565b60405180910390f35b61012560048036038101906101209190611ac8565b6107c2565b005b610141600480360381019061013c9190611ac8565b610a22565b005b61015d60048036038101906101589190611af5565b610d4b565b005b61017960048036038101906101749190611ac8565b610e51565b005b61019560048036038101906101909190611ac8565b6110b3565b005b60006002600083815260200190815260200160002090508060030160009054906101000a900473ffffffffffffffffffffffffffffffffffffffff1673ffffffffffffffffffffffffffffffffffffffff163373ffffffffffffffffffffffffffffffffffffffff161461020a57600080fd5b600060046000836000015481526020019081526020016000209050806000015481600201546102399190611b9c565b82600201541061024857600080fd5b60008260020154826000015483600201546102639190611b9c565b61026d9190611bd0565b90506000836001015482116102825781610288565b83600101545b90508084600101600082825461029e9190611bd0565b92505081905550808360000160008282546102b99190611b9c565b92505081905550808360020160008282546102d49190611bd0565b92505081905550600660009054906101000a900473ffffffffffffffffffffffffffffffffffffffff1673ffffffffffffffffffffffffffffffffffffffff1663083d2bdb33600860009054906101000a900473ffffffffffffffffffffffffffffffffffffffff168461035589600001548761126590919063ffffffff16565b6040518563ffffffff1660e01b81526004016103749493929190611c45565b600060405180830381600087803b15801561038e57600080fd5b505af11580156103a2573d6000803e3d6000fd5b5050505060008460010154036104b95760026000868152602001908152602001600020600080820160009055600182016000905560028201600090556003820160006101000a81549073ffffffffffffffffffffffffffffffffffffffff02191690555050600760009054906101000a900473ffffffffffffffffffffffffffffffffffffffff1673ffffffffffffffffffffffffffffffffffffffff1663bc73473b33600860009054906101000a900473ffffffffffffffffffffffffffffffffffffffff166040518363ffffffff1660e01b8152600401610486929190611c8a565b600060405180830381600087803b1580156104a057600080fd5b505af11580156104b4573d6000803e3d6000fd5b505050505b5050505050565b60006002600083815260200190815260200160002090508060030160009054906101000a900473ffffffffffffffffffffffffffffffffffffffff1673ffffffffffffffffffffffffffffffffffffffff163373ffffffffffffffffffffffffffffffffffffffff161461053357600080fd5b8060010154600460008360000154815260200190815260200160002060000160008282546105619190611b9c565b9250508190555060026000838152602001908152602001600020600080820160009055600182016000905560028201600090556003820160006101000a81549073ffffffffffffffffffffffffffffffffffffffff02191690555050600760009054906101000a900473ffffffffffffffffffffffffffffffffffffffff1673ffffffffffffffffffffffffffffffffffffffff1663bc73473b33600860009054906101000a900473ffffffffffffffffffffffffffffffffffffffff166040518363ffffffff1660e01b815260040161063c929190611c8a565b600060405180830381600087803b15801561065657600080fd5b505af115801561066a573d6000803e3d6000fd5b505050505050565b6005600081548092919061068590611cb3565b9190505550600060046000848152602001908152602001600020905060008160010154036106b7576106b68361127b565b5b6106c28184846113b5565b600760009054906101000a900473ffffffffffffffffffffffffffffffffffffffff1673ffffffffffffffffffffffffffffffffffffffff1663466730ff33600860009054906101000a900473ffffffffffffffffffffffffffffffffffffffff166040518363ffffffff1660e01b8152600401610741929190611c8a565b600060405180830381600087803b15801561075b57600080fd5b505af115801561076f573d6000803e3d6000fd5b50505050505050565b60008060016000815481106107905761078f611cfb565b5b9060005260206000200154600080815481106107af576107ae611cfb565b5b9060005260206000200154915091509091565b600081116107cf57600080fd5b600060036000806000815481106107e9576107e8611cfb565b5b906000526020600020015481526020019081526020016000209050600081600201548260000154836001015461081f9190611bd0565b6108299190611bd0565b905060005b8184111561090357610868600160008154811061084e5761084d611cfb565b5b90600052602060002001548361126590919063ffffffff16565b816108739190611b9c565b9050818360020160008282546108899190611b9c565b92505081905550818461089c9190611bd0565b93506108a66114a6565b60036000806000815481106108be576108bd611cfb565b5b9060005260206000200154815260200190815260200160002092508260020154836000015484600101546108f29190611bd0565b6108fc9190611bd0565b915061082e565b60008411156109675761093e600160008154811061092457610923611cfb565b5b90600052602060002001548561126590919063ffffffff16565b816109499190611b9c565b90508383600201600082825461095f9190611b9c565b925050819055505b600660009054906101000a900473ffffffffffffffffffffffffffffffffffffffff1673ffffffffffffffffffffffffffffffffffffffff1663083d2bdb33600860009054906101000a900473ffffffffffffffffffffffffffffffffffffffff1687856040518563ffffffff1660e01b81526004016109ea9493929190611c45565b600060405180830381600087803b158015610a0457600080fd5b505af1158015610a18573d6000803e3d6000fd5b5050505050505050565b60006002600083815260200190815260200160002090508060030160009054906101000a900473ffffffffffffffffffffffffffffffffffffffff1673ffffffffffffffffffffffffffffffffffffffff163373ffffffffffffffffffffffffffffffffffffffff1614610a9557600080fd5b60006003600083600001548152602001908152602001600020905080600001548160020154610ac49190611b9c565b826002015410610ad357600080fd5b6000826002015482600001548360020154610aee9190611b9c565b610af89190611bd0565b9050600083600101548211610b0d5781610b13565b83600101545b905080846001016000828254610b299190611bd0565b9250508190555080836000016000828254610b449190611b9c565b9250508190555080836002016000828254610b5f9190611bd0565b92505081905550600660009054906101000a900473ffffffffffffffffffffffffffffffffffffffff1673ffffffffffffffffffffffffffffffffffffffff1663abb2361e33600860009054906101000a900473ffffffffffffffffffffffffffffffffffffffff1684610be089600001548761126590919063ffffffff16565b6040518563ffffffff1660e01b8152600401610bff9493929190611c45565b600060405180830381600087803b158015610c1957600080fd5b505af1158015610c2d573d6000803e3d6000fd5b505050506000846001015403610d445760026000868152602001908152602001600020600080820160009055600182016000905560028201600090556003820160006101000a81549073ffffffffffffffffffffffffffffffffffffffff02191690555050600760009054906101000a900473ffffffffffffffffffffffffffffffffffffffff1673ffffffffffffffffffffffffffffffffffffffff1663bc73473b33600860009054906101000a900473ffffffffffffffffffffffffffffffffffffffff166040518363ffffffff1660e01b8152600401610d11929190611c8a565b600060405180830381600087803b158015610d2b57600080fd5b505af1158015610d3f573d6000803e3d6000fd5b505050505b5050505050565b60056000815480929190610d5e90611cb3565b919050555060006003600084815260200190815260200160002090506000816001015403610d9057610d8f8361157b565b5b610d9b8184846113b5565b600760009054906101000a900473ffffffffffffffffffffffffffffffffffffffff1673ffffffffffffffffffffffffffffffffffffffff1663466730ff33600860009054906101000a900473ffffffffffffffffffffffffffffffffffffffff166040518363ffffffff1660e01b8152600401610e1a929190611c8a565b600060405180830381600087803b158015610e3457600080fd5b505af1158015610e48573d6000803e3d6000fd5b50505050505050565b60008111610e5e57600080fd5b6000600460006001600081548110610e7957610e78611cfb565b5b9060005260206000200154815260200190815260200160002090506000816002015482600001548360010154610eaf9190611bd0565b610eb99190611bd0565b905060005b81841115610f9457610ef86001600081548110610ede57610edd611cfb565b5b90600052602060002001548361126590919063ffffffff16565b81610f039190611b9c565b905081836002016000828254610f199190611b9c565b925050819055508184610f2c9190611bd0565b9350610f366116b3565b600460006001600081548110610f4f57610f4e611cfb565b5b906000526020600020015481526020019081526020016000209250826002015483600001548460010154610f839190611bd0565b610f8d9190611bd0565b9150610ebe565b6000841115610ff857610fcf6001600081548110610fb557610fb4611cfb565b5b90600052602060002001548561126590919063ffffffff16565b81610fda9190611b9c565b905083836002016000828254610ff09190611b9c565b925050819055505b600660009054906101000a900473ffffffffffffffffffffffffffffffffffffffff1673ffffffffffffffffffffffffffffffffffffffff1663abb2361e33600860009054906101000a900473ffffffffffffffffffffffffffffffffffffffff1687856040518563ffffffff1660e01b815260040161107b9493929190611c45565b600060405180830381600087803b15801561109557600080fd5b505af11580156110a9573d6000803e3d6000fd5b5050505050505050565b60006002600083815260200190815260200160002090508060030160009054906101000a900473ffffffffffffffffffffffffffffffffffffffff1673ffffffffffffffffffffffffffffffffffffffff163373ffffffffffffffffffffffffffffffffffffffff161461112657600080fd5b8060010154600360008360000154815260200190815260200160002060000160008282546111549190611b9c565b9250508190555060026000838152602001908152602001600020600080820160009055600182016000905560028201600090556003820160006101000a81549073ffffffffffffffffffffffffffffffffffffffff02191690555050600760009054906101000a900473ffffffffffffffffffffffffffffffffffffffff1673ffffffffffffffffffffffffffffffffffffffff1663bc73473b33600860009054906101000a900473ffffffffffffffffffffffffffffffffffffffff166040518363ffffffff1660e01b815260040161122f929190611c8a565b600060405180830381600087803b15801561124957600080fd5b505af115801561125d573d6000803e3d6000fd5b505050505050565b600081836112739190611d2a565b905092915050565b6000600180549050905060018290806001815401808255809150506001900390600052602060002001600090919091909150555b60008111156113b157600060026001836112c99190611bd0565b6112d39190611d9b565b9050600182815481106112e9576112e8611cfb565b5b90600052602060002001546001828154811061130857611307611cfb565b5b90600052602060002001541161131e57506113b1565b6001818154811061133257611331611cfb565b5b90600052602060002001546001838154811061135157611350611cfb565b5b9060005260206000200154600184815481106113705761136f611cfb565b5b906000526020600020016000600185815481106113905761138f611cfb565b5b906000526020600020016000849190505583919050555050809150506112af565b5050565b6000808460010154146113cc5783600101546113cf565b60005b905060405180608001604052808481526020018381526020018281526020013373ffffffffffffffffffffffffffffffffffffffff1681525060026000600554815260200190815260200160002060008201518160000155602082015181600101556040820151816002015560608201518160030160006101000a81548173ffffffffffffffffffffffffffffffffffffffff021916908373ffffffffffffffffffffffffffffffffffffffff160217905550905050818460010160008282546114999190611b9c565b9250508190555050505050565b600160008054905010156114ef576040517f08c379a00000000000000000000000000000000000000000000000000000000081526004016114e690611e29565b60405180910390fd5b600060016000805490506115039190611bd0565b90506000818154811061151957611518611cfb565b5b90600052602060002001546000808154811061153857611537611cfb565b5b9060005260206000200181905550600080548061155857611557611e49565b5b600190038181906000526020600020016000905590556115786000611786565b50565b60008080549050905060008290806001815401808255809150506001900390600052602060002001600090919091909150555b60008111156116af57600060026001836115c89190611bd0565b6115d29190611d9b565b9050600082815481106115e8576115e7611cfb565b5b90600052602060002001546000828154811061160757611606611cfb565b5b90600052602060002001541061161d57506116af565b6000818154811061163157611630611cfb565b5b9060005260206000200154600083815481106116505761164f611cfb565b5b90600052602060002001546000848154811061166f5761166e611cfb565b5b90600052602060002001600080858154811061168e5761168d611cfb565b5b906000526020600020016000849190505583919050555050809150506115ae565b5050565b60018080549050116116fa576040517f08c379a00000000000000000000000000000000000000000000000000000000081526004016116f190611ec4565b60405180910390fd5b60006001808054905061170d9190611bd0565b90506001818154811061172357611722611cfb565b5b9060005260206000200154600160008154811061174357611742611cfb565b5b9060005260206000200181905550600180548061176357611762611e49565b5b600190038181906000526020600020016000905590556117836000611909565b50565b600060016002836117979190611d2a565b6117a19190611b9c565b905060006002826117b29190611b9c565b90506000839050600080549050831080156118085750600081815481106117dc576117db611cfb565b5b9060005260206000200154600084815481106117fb576117fa611cfb565b5b9060005260206000200154115b15611811578290505b6000805490508210801561186057506000818154811061183457611833611cfb565b5b90600052602060002001546000838154811061185357611852611cfb565b5b9060005260206000200154115b15611869578190505b838114611903576000818154811061188457611883611cfb565b5b9060005260206000200154600085815481106118a3576118a2611cfb565b5b9060005260206000200154600086815481106118c2576118c1611cfb565b5b9060005260206000200160008085815481106118e1576118e0611cfb565b5b90600052602060002001600084919050558391905055505061190281611786565b5b50505050565b6000600160028361191a9190611d2a565b6119249190611b9c565b905060006002826119359190611b9c565b905060008390506001805490508310801561198b57506001818154811061195f5761195e611cfb565b5b90600052602060002001546001848154811061197e5761197d611cfb565b5b9060005260206000200154105b15611994578290505b600180549050821080156119e35750600181815481106119b7576119b6611cfb565b5b9060005260206000200154600183815481106119d6576119d5611cfb565b5b9060005260206000200154105b156119ec578190505b838114611a875760018181548110611a0757611a06611cfb565b5b906000526020600020015460018581548110611a2657611a25611cfb565b5b906000526020600020015460018681548110611a4557611a44611cfb565b5b90600052602060002001600060018581548110611a6557611a64611cfb565b5b906000526020600020016000849190505583919050555050611a8681611909565b5b50505050565b600080fd5b6000819050919050565b611aa581611a92565b8114611ab057600080fd5b50565b600081359050611ac281611a9c565b92915050565b600060208284031215611ade57611add611a8d565b5b6000611aec84828501611ab3565b91505092915050565b60008060408385031215611b0c57611b0b611a8d565b5b6000611b1a85828601611ab3565b9250506020611b2b85828601611ab3565b9150509250929050565b611b3e81611a92565b82525050565b6000604082019050611b596000830185611b35565b611b666020830184611b35565b9392505050565b7f4e487b7100000000000000000000000000000000000000000000000000000000600052601160045260246000fd5b6000611ba782611a92565b9150611bb283611a92565b9250828201905080821115611bca57611bc9611b6d565b5b92915050565b6000611bdb82611a92565b9150611be683611a92565b9250828203905081811115611bfe57611bfd611b6d565b5b92915050565b600073ffffffffffffffffffffffffffffffffffffffff82169050919050565b6000611c2f82611c04565b9050919050565b611c3f81611c24565b82525050565b6000608082019050611c5a6000830187611c36565b611c676020830186611c36565b611c746040830185611b35565b611c816060830184611b35565b95945050505050565b6000604082019050611c9f6000830185611c36565b611cac6020830184611c36565b9392505050565b6000611cbe82611a92565b91507fffffffffffffffffffffffffffffffffffffffffffffffffffffffffffffffff8203611cf057611cef611b6d565b5b600182019050919050565b7f4e487b7100000000000000000000000000000000000000000000000000000000600052603260045260246000fd5b6000611d3582611a92565b9150611d4083611a92565b9250828202611d4e81611a92565b91508282048414831517611d6557611d64611b6d565b5b5092915050565b7f4e487b7100000000000000000000000000000000000000000000000000000000600052601260045260246000fd5b6000611da682611a92565b9150611db183611a92565b925082611dc157611dc0611d6c565b5b828204905092915050565b600082825260208201905092915050565b7f4e6f20627579206f726465727320617661696c61626c65000000000000000000600082015250565b6000611e13601783611dcc565b9150611e1e82611ddd565b602082019050919050565b60006020820190508181036000830152611e4281611e06565b9050919050565b7f4e487b7100000000000000000000000000000000000000000000000000000000600052603160045260246000fd5b7f4e6f2073656c6c206f726465727320617661696c61626c650000000000000000600082015250565b6000611eae601883611dcc565b9150611eb982611e78565b602082019050919050565b60006020820190508181036000830152611edd81611ea1565b905091905056fea2646970667358221220c8e507614cd57fc438ba0d4c0fb8ed3073875209fb77d9df575a3c0c218a6ee564736f6c63430008110033","opcodes":"PUSH1 0x80 PUSH1 0x40 MSTORE CALLVALUE DUP1 ISZERO PUSH3 0x11 JUMPI PUSH1 0x0 DUP1 REVERT JUMPDEST POP PUSH1 0x40 MLOAD PUSH3 0x20F3 CODESIZE SUB DUP1 PUSH3 0x20F3 DUP4 CODECOPY DUP2 DUP2 ADD PUSH1 0x40 MSTORE DUP2 ADD SWAP1 PUSH3 0x37 SWAP2 SWAP1 PUSH3 0x16D JUMP JUMPDEST DUP2 PUSH1 0x7 PUSH1 0x0 PUSH2 0x100 EXP DUP2 SLOAD DUP2 PUSH20 0xFFFFFFFFFFFFFFFFFFFFFFFFFFFFFFFFFFFFFFFF MUL NOT AND SWAP1 DUP4 PUSH20 0xFFFFFFFFFFFFFFFFFFFFFFFFFFFFFFFFFFFFFFFF AND MUL OR SWAP1 SSTORE POP DUP3 PUSH1 0x6 PUSH1 0x0 PUSH2 0x100 EXP DUP2 SLOAD DUP2 PUSH20 0xFFFFFFFFFFFFFFFFFFFFFFFFFFFFFFFFFFFFFFFF MUL NOT AND SWAP1 DUP4 PUSH20 0xFFFFFFFFFFFFFFFFFFFFFFFFFFFFFFFFFFFFFFFF AND MUL OR SWAP1 SSTORE POP DUP1 PUSH1 0x8 PUSH1 0x0 PUSH2 0x100 EXP DUP2 SLOAD DUP2 PUSH20 0xFFFFFFFFFFFFFFFFFFFFFFFFFFFFFFFFFFFFFFFF MUL NOT AND SWAP1 DUP4 PUSH20 0xFFFFFFFFFFFFFFFFFFFFFFFFFFFFFFFFFFFFFFFF AND MUL OR SWAP1 SSTORE POP POP POP POP PUSH3 0x1C9 JUMP JUMPDEST PUSH1 0x0 DUP1 REVERT JUMPDEST PUSH1 0x0 PUSH20 0xFFFFFFFFFFFFFFFFFFFFFFFFFFFFFFFFFFFFFFFF DUP3 AND SWAP1 POP SWAP2 SWAP1 POP JUMP JUMPDEST PUSH1 0x0 PUSH3 0x135 DUP3 PUSH3 0x108 JUMP JUMPDEST SWAP1 POP SWAP2 SWAP1 POP JUMP JUMPDEST PUSH3 0x147 DUP2 PUSH3 0x128 JUMP JUMPDEST DUP2 EQ PUSH3 0x153 JUMPI PUSH1 0x0 DUP1 REVERT JUMPDEST POP JUMP JUMPDEST PUSH1 0x0 DUP2 MLOAD SWAP1 POP PUSH3 0x167 DUP2 PUSH3 0x13C JUMP JUMPDEST SWAP3 SWAP2 POP POP JUMP JUMPDEST PUSH1 0x0 DUP1 PUSH1 0x0 PUSH1 0x60 DUP5 DUP7 SUB SLT ISZERO PUSH3 0x189 JUMPI PUSH3 0x188 PUSH3 0x103 JUMP JUMPDEST JUMPDEST PUSH1 0x0 PUSH3 0x199 DUP7 DUP3 DUP8 ADD PUSH3 0x156 JUMP JUMPDEST SWAP4 POP POP PUSH1 0x20 PUSH3 0x1AC DUP7 DUP3 DUP8 ADD PUSH3 0x156 JUMP JUMPDEST SWAP3 POP POP PUSH1 0x40 PUSH3 0x1BF DUP7 DUP3 DUP8 ADD PUSH3 0x156 JUMP JUMPDEST SWAP2 POP POP SWAP3 POP SWAP3 POP SWAP3 JUMP JUMPDEST PUSH2 0x1F1A DUP1 PUSH3 0x1D9 PUSH1 0x0 CODECOPY PUSH1 0x0 RETURN INVALID PUSH1 0x80 PUSH1 0x40 MSTORE CALLVALUE DUP1 ISZERO PUSH2 0x10 JUMPI PUSH1 0x0 DUP1 REVERT JUMPDEST POP PUSH1 0x4 CALLDATASIZE LT PUSH2 0x93 JUMPI PUSH1 0x0 CALLDATALOAD PUSH1 0xE0 SHR DUP1 PUSH4 0x5998DBE6 GT PUSH2 0x66 JUMPI DUP1 PUSH4 0x5998DBE6 EQ PUSH2 0x10B JUMPI DUP1 PUSH4 0x7E78E05F EQ PUSH2 0x127 JUMPI DUP1 PUSH4 0x9049681C EQ PUSH2 0x143 JUMPI DUP1 PUSH4 0xAB0BCAAA EQ PUSH2 0x15F JUMPI DUP1 PUSH4 0xBE5D147F EQ PUSH2 0x17B JUMPI PUSH2 0x93 JUMP JUMPDEST DUP1 PUSH4 0x2E0D258 EQ PUSH2 0x98 JUMPI DUP1 PUSH4 0x1A46E42A EQ PUSH2 0xB4 JUMPI DUP1 PUSH4 0x3ACDE419 EQ PUSH2 0xD0 JUMPI DUP1 PUSH4 0x3F146088 EQ PUSH2 0xEC JUMPI JUMPDEST PUSH1 0x0 DUP1 REVERT JUMPDEST PUSH2 0xB2 PUSH1 0x4 DUP1 CALLDATASIZE SUB DUP2 ADD SWAP1 PUSH2 0xAD SWAP2 SWAP1 PUSH2 0x1AC8 JUMP JUMPDEST PUSH2 0x197 JUMP JUMPDEST STOP JUMPDEST PUSH2 0xCE PUSH1 0x4 DUP1 CALLDATASIZE SUB DUP2 ADD SWAP1 PUSH2 0xC9 SWAP2 SWAP1 PUSH2 0x1AC8 JUMP JUMPDEST PUSH2 0x4C0 JUMP JUMPDEST STOP JUMPDEST PUSH2 0xEA PUSH1 0x4 DUP1 CALLDATASIZE SUB DUP2 ADD SWAP1 PUSH2 0xE5 SWAP2 SWAP1 PUSH2 0x1AF5 JUMP JUMPDEST PUSH2 0x672 JUMP JUMPDEST STOP JUMPDEST PUSH2 0xF4 PUSH2 0x778 JUMP JUMPDEST PUSH1 0x40 MLOAD PUSH2 0x102 SWAP3 SWAP2 SWAP1 PUSH2 0x1B44 JUMP JUMPDEST PUSH1 0x40 MLOAD DUP1 SWAP2 SUB SWAP1 RETURN JUMPDEST PUSH2 0x125 PUSH1 0x4 DUP1 CALLDATASIZE SUB DUP2 ADD SWAP1 PUSH2 0x120 SWAP2 SWAP1 PUSH2 0x1AC8 JUMP JUMPDEST PUSH2 0x7C2 JUMP JUMPDEST STOP JUMPDEST PUSH2 0x141 PUSH1 0x4 DUP1 CALLDATASIZE SUB DUP2 ADD SWAP1 PUSH2 0x13C SWAP2 SWAP1 PUSH2 0x1AC8 JUMP JUMPDEST PUSH2 0xA22 JUMP JUMPDEST STOP JUMPDEST PUSH2 0x15D PUSH1 0x4 DUP1 CALLDATASIZE SUB DUP2 ADD SWAP1 PUSH2 0x158 SWAP2 SWAP1 PUSH2 0x1AF5 JUMP JUMPDEST PUSH2 0xD4B JUMP JUMPDEST STOP JUMPDEST PUSH2 0x179 PUSH1 0x4 DUP1 CALLDATASIZE SUB DUP2 ADD SWAP1 PUSH2 0x174 SWAP2 SWAP1 PUSH2 0x1AC8 JUMP JUMPDEST PUSH2 0xE51 JUMP JUMPDEST STOP JUMPDEST PUSH2 0x195 PUSH1 0x4 DUP1 CALLDATASIZE SUB DUP2 ADD SWAP1 PUSH2 0x190 SWAP2 SWAP1 PUSH2 0x1AC8 JUMP JUMPDEST PUSH2 0x10B3 JUMP JUMPDEST STOP JUMPDEST PUSH1 0x0 PUSH1 0x2 PUSH1 0x0 DUP4 DUP2 MSTORE PUSH1 0x20 ADD SWAP1 DUP2 MSTORE PUSH1 0x20 ADD PUSH1 0x0 KECCAK256 SWAP1 POP DUP1 PUSH1 0x3 ADD PUSH1 0x0 SWAP1 SLOAD SWAP1 PUSH2 0x100 EXP SWAP1 DIV PUSH20 0xFFFFFFFFFFFFFFFFFFFFFFFFFFFFFFFFFFFFFFFF AND PUSH20 0xFFFFFFFFFFFFFFFFFFFFFFFFFFFFFFFFFFFFFFFF AND CALLER PUSH20 0xFFFFFFFFFFFFFFFFFFFFFFFFFFFFFFFFFFFFFFFF AND EQ PUSH2 0x20A JUMPI PUSH1 0x0 DUP1 REVERT JUMPDEST PUSH1 0x0 PUSH1 0x4 PUSH1 0x0 DUP4 PUSH1 0x0 ADD SLOAD DUP2 MSTORE PUSH1 0x20 ADD SWAP1 DUP2 MSTORE PUSH1 0x20 ADD PUSH1 0x0 KECCAK256 SWAP1 POP DUP1 PUSH1 0x0 ADD SLOAD DUP2 PUSH1 0x2 ADD SLOAD PUSH2 0x239 SWAP2 SWAP1 PUSH2 0x1B9C JUMP JUMPDEST DUP3 PUSH1 0x2 ADD SLOAD LT PUSH2 0x248 JUMPI PUSH1 0x0 DUP1 REVERT JUMPDEST PUSH1 0x0 DUP3 PUSH1 0x2 ADD SLOAD DUP3 PUSH1 0x0 ADD SLOAD DUP4 PUSH1 0x2 ADD SLOAD PUSH2 0x263 SWAP2 SWAP1 PUSH2 0x1B9C JUMP JUMPDEST PUSH2 0x26D SWAP2 SWAP1 PUSH2 0x1BD0 JUMP JUMPDEST SWAP1 POP PUSH1 0x0 DUP4 PUSH1 0x1 ADD SLOAD DUP3 GT PUSH2 0x282 JUMPI DUP2 PUSH2 0x288 JUMP JUMPDEST DUP4 PUSH1 0x1 ADD SLOAD JUMPDEST SWAP1 POP DUP1 DUP5 PUSH1 0x1 ADD PUSH1 0x0 DUP3 DUP3 SLOAD PUSH2 0x29E SWAP2 SWAP1 PUSH2 0x1BD0 JUMP JUMPDEST SWAP3 POP POP DUP2 SWAP1 SSTORE POP DUP1 DUP4 PUSH1 0x0 ADD PUSH1 0x0 DUP3 DUP3 SLOAD PUSH2 0x2B9 SWAP2 SWAP1 PUSH2 0x1B9C JUMP JUMPDEST SWAP3 POP POP DUP2 SWAP1 SSTORE POP DUP1 DUP4 PUSH1 0x2 ADD PUSH1 0x0 DUP3 DUP3 SLOAD PUSH2 0x2D4 SWAP2 SWAP1 PUSH2 0x1BD0 JUMP JUMPDEST SWAP3 POP POP DUP2 SWAP1 SSTORE POP PUSH1 0x6 PUSH1 0x0 SWAP1 SLOAD SWAP1 PUSH2 0x100 EXP SWAP1 DIV PUSH20 0xFFFFFFFFFFFFFFFFFFFFFFFFFFFFFFFFFFFFFFFF AND PUSH20 0xFFFFFFFFFFFFFFFFFFFFFFFFFFFFFFFFFFFFFFFF AND PUSH4 0x83D2BDB CALLER PUSH1 0x8 PUSH1 0x0 SWAP1 SLOAD SWAP1 PUSH2 0x100 EXP SWAP1 DIV PUSH20 0xFFFFFFFFFFFFFFFFFFFFFFFFFFFFFFFFFFFFFFFF AND DUP5 PUSH2 0x355 DUP10 PUSH1 0x0 ADD SLOAD DUP8 PUSH2 0x1265 SWAP1 SWAP2 SWAP1 PUSH4 0xFFFFFFFF AND JUMP JUMPDEST PUSH1 0x40 MLOAD DUP6 PUSH4 0xFFFFFFFF AND PUSH1 0xE0 SHL DUP2 MSTORE PUSH1 0x4 ADD PUSH2 0x374 SWAP5 SWAP4 SWAP3 SWAP2 SWAP1 PUSH2 0x1C45 JUMP JUMPDEST PUSH1 0x0 PUSH1 0x40 MLOAD DUP1 DUP4 SUB DUP2 PUSH1 0x0 DUP8 DUP1 EXTCODESIZE ISZERO DUP1 ISZERO PUSH2 0x38E JUMPI PUSH1 0x0 DUP1 REVERT JUMPDEST POP GAS CALL ISZERO DUP1 ISZERO PUSH2 0x3A2 JUMPI RETURNDATASIZE PUSH1 0x0 DUP1 RETURNDATACOPY RETURNDATASIZE PUSH1 0x0 REVERT JUMPDEST POP POP POP POP PUSH1 0x0 DUP5 PUSH1 0x1 ADD SLOAD SUB PUSH2 0x4B9 JUMPI PUSH1 0x2 PUSH1 0x0 DUP7 DUP2 MSTORE PUSH1 0x20 ADD SWAP1 DUP2 MSTORE PUSH1 0x20 ADD PUSH1 0x0 KECCAK256 PUSH1 0x0 DUP1 DUP3 ADD PUSH1 0x0 SWAP1 SSTORE PUSH1 0x1 DUP3 ADD PUSH1 0x0 SWAP1 SSTORE PUSH1 0x2 DUP3 ADD PUSH1 0x0 SWAP1 SSTORE PUSH1 0x3 DUP3 ADD PUSH1 0x0 PUSH2 0x100 EXP DUP2 SLOAD SWAP1 PUSH20 0xFFFFFFFFFFFFFFFFFFFFFFFFFFFFFFFFFFFFFFFF MUL NOT AND SWAP1 SSTORE POP POP PUSH1 0x7 PUSH1 0x0 SWAP1 SLOAD SWAP1 PUSH2 0x100 EXP SWAP1 DIV PUSH20 0xFFFFFFFFFFFFFFFFFFFFFFFFFFFFFFFFFFFFFFFF AND PUSH20 0xFFFFFFFFFFFFFFFFFFFFFFFFFFFFFFFFFFFFFFFF AND PUSH4 0xBC73473B CALLER PUSH1 0x8 PUSH1 0x0 SWAP1 SLOAD SWAP1 PUSH2 0x100 EXP SWAP1 DIV PUSH20 0xFFFFFFFFFFFFFFFFFFFFFFFFFFFFFFFFFFFFFFFF AND PUSH1 0x40 MLOAD DUP4 PUSH4 0xFFFFFFFF AND PUSH1 0xE0 SHL DUP2 MSTORE PUSH1 0x4 ADD PUSH2 0x486 SWAP3 SWAP2 SWAP1 PUSH2 0x1C8A JUMP JUMPDEST PUSH1 0x0 PUSH1 0x40 MLOAD DUP1 DUP4 SUB DUP2 PUSH1 0x0 DUP8 DUP1 EXTCODESIZE ISZERO DUP1 ISZERO PUSH2 0x4A0 JUMPI PUSH1 0x0 DUP1 REVERT JUMPDEST POP GAS CALL ISZERO DUP1 ISZERO PUSH2 0x4B4 JUMPI RETURNDATASIZE PUSH1 0x0 DUP1 RETURNDATACOPY RETURNDATASIZE PUSH1 0x0 REVERT JUMPDEST POP POP POP POP JUMPDEST POP POP POP POP POP JUMP JUMPDEST PUSH1 0x0 PUSH1 0x2 PUSH1 0x0 DUP4 DUP2 MSTORE PUSH1 0x20 ADD SWAP1 DUP2 MSTORE PUSH1 0x20 ADD PUSH1 0x0 KECCAK256 SWAP1 POP DUP1 PUSH1 0x3 ADD PUSH1 0x0 SWAP1 SLOAD SWAP1 PUSH2 0x100 EXP SWAP1 DIV PUSH20 0xFFFFFFFFFFFFFFFFFFFFFFFFFFFFFFFFFFFFFFFF AND PUSH20 0xFFFFFFFFFFFFFFFFFFFFFFFFFFFFFFFFFFFFFFFF AND CALLER PUSH20 0xFFFFFFFFFFFFFFFFFFFFFFFFFFFFFFFFFFFFFFFF AND EQ PUSH2 0x533 JUMPI PUSH1 0x0 DUP1 REVERT JUMPDEST DUP1 PUSH1 0x1 ADD SLOAD PUSH1 0x4 PUSH1 0x0 DUP4 PUSH1 0x0 ADD SLOAD DUP2 MSTORE PUSH1 0x20 ADD SWAP1 DUP2 MSTORE PUSH1 0x20 ADD PUSH1 0x0 KECCAK256 PUSH1 0x0 ADD PUSH1 0x0 DUP3 DUP3 SLOAD PUSH2 0x561 SWAP2 SWAP1 PUSH2 0x1B9C JUMP JUMPDEST SWAP3 POP POP DUP2 SWAP1 SSTORE POP PUSH1 0x2 PUSH1 0x0 DUP4 DUP2 MSTORE PUSH1 0x20 ADD SWAP1 DUP2 MSTORE PUSH1 0x20 ADD PUSH1 0x0 KECCAK256 PUSH1 0x0 DUP1 DUP3 ADD PUSH1 0x0 SWAP1 SSTORE PUSH1 0x1 DUP3 ADD PUSH1 0x0 SWAP1 SSTORE PUSH1 0x2 DUP3 ADD PUSH1 0x0 SWAP1 SSTORE PUSH1 0x3 DUP3 ADD PUSH1 0x0 PUSH2 0x100 EXP DUP2 SLOAD SWAP1 PUSH20 0xFFFFFFFFFFFFFFFFFFFFFFFFFFFFFFFFFFFFFFFF MUL NOT AND SWAP1 SSTORE POP POP PUSH1 0x7 PUSH1 0x0 SWAP1 SLOAD SWAP1 PUSH2 0x100 EXP SWAP1 DIV PUSH20 0xFFFFFFFFFFFFFFFFFFFFFFFFFFFFFFFFFFFFFFFF AND PUSH20 0xFFFFFFFFFFFFFFFFFFFFFFFFFFFFFFFFFFFFFFFF AND PUSH4 0xBC73473B CALLER PUSH1 0x8 PUSH1 0x0 SWAP1 SLOAD SWAP1 PUSH2 0x100 EXP SWAP1 DIV PUSH20 0xFFFFFFFFFFFFFFFFFFFFFFFFFFFFFFFFFFFFFFFF AND PUSH1 0x40 MLOAD DUP4 PUSH4 0xFFFFFFFF AND PUSH1 0xE0 SHL DUP2 MSTORE PUSH1 0x4 ADD PUSH2 0x63C SWAP3 SWAP2 SWAP1 PUSH2 0x1C8A JUMP JUMPDEST PUSH1 0x0 PUSH1 0x40 MLOAD DUP1 DUP4 SUB DUP2 PUSH1 0x0 DUP8 DUP1 EXTCODESIZE ISZERO DUP1 ISZERO PUSH2 0x656 JUMPI PUSH1 0x0 DUP1 REVERT JUMPDEST POP GAS CALL ISZERO DUP1 ISZERO PUSH2 0x66A JUMPI RETURNDATASIZE PUSH1 0x0 DUP1 RETURNDATACOPY RETURNDATASIZE PUSH1 0x0 REVERT JUMPDEST POP POP POP POP POP POP JUMP JUMPDEST PUSH1 0x5 PUSH1 0x0 DUP2 SLOAD DUP1 SWAP3 SWAP2 SWAP1 PUSH2 0x685 SWAP1 PUSH2 0x1CB3 JUMP JUMPDEST SWAP2 SWAP1 POP SSTORE POP PUSH1 0x0 PUSH1 0x4 PUSH1 0x0 DUP5 DUP2 MSTORE PUSH1 0x20 ADD SWAP1 DUP2 MSTORE PUSH1 0x20 ADD PUSH1 0x0 KECCAK256 SWAP1 POP PUSH1 0x0 DUP2 PUSH1 0x1 ADD SLOAD SUB PUSH2 0x6B7 JUMPI PUSH2 0x6B6 DUP4 PUSH2 0x127B JUMP JUMPDEST JUMPDEST PUSH2 0x6C2 DUP2 DUP5 DUP5 PUSH2 0x13B5 JUMP JUMPDEST PUSH1 0x7 PUSH1 0x0 SWAP1 SLOAD SWAP1 PUSH2 0x100 EXP SWAP1 DIV PUSH20 0xFFFFFFFFFFFFFFFFFFFFFFFFFFFFFFFFFFFFFFFF AND PUSH20 0xFFFFFFFFFFFFFFFFFFFFFFFFFFFFFFFFFFFFFFFF AND PUSH4 0x466730FF CALLER PUSH1 0x8 PUSH1 0x0 SWAP1 SLOAD SWAP1 PUSH2 0x100 EXP SWAP1 DIV PUSH20 0xFFFFFFFFFFFFFFFFFFFFFFFFFFFFFFFFFFFFFFFF AND PUSH1 0x40 MLOAD DUP4 PUSH4 0xFFFFFFFF AND PUSH1 0xE0 SHL DUP2 MSTORE PUSH1 0x4 ADD PUSH2 0x741 SWAP3 SWAP2 SWAP1 PUSH2 0x1C8A JUMP JUMPDEST PUSH1 0x0 PUSH1 0x40 MLOAD DUP1 DUP4 SUB DUP2 PUSH1 0x0 DUP8 DUP1 EXTCODESIZE ISZERO DUP1 ISZERO PUSH2 0x75B JUMPI PUSH1 0x0 DUP1 REVERT JUMPDEST POP GAS CALL ISZERO DUP1 ISZERO PUSH2 0x76F JUMPI RETURNDATASIZE PUSH1 0x0 DUP1 RETURNDATACOPY RETURNDATASIZE PUSH1 0x0 REVERT JUMPDEST POP POP POP POP POP POP POP JUMP JUMPDEST PUSH1 0x0 DUP1 PUSH1 0x1 PUSH1 0x0 DUP2 SLOAD DUP2 LT PUSH2 0x790 JUMPI PUSH2 0x78F PUSH2 0x1CFB JUMP JUMPDEST JUMPDEST SWAP1 PUSH1 0x0 MSTORE PUSH1 0x20 PUSH1 0x0 KECCAK256 ADD SLOAD PUSH1 0x0 DUP1 DUP2 SLOAD DUP2 LT PUSH2 0x7AF JUMPI PUSH2 0x7AE PUSH2 0x1CFB JUMP JUMPDEST JUMPDEST SWAP1 PUSH1 0x0 MSTORE PUSH1 0x20 PUSH1 0x0 KECCAK256 ADD SLOAD SWAP2 POP SWAP2 POP SWAP1 SWAP2 JUMP JUMPDEST PUSH1 0x0 DUP2 GT PUSH2 0x7CF JUMPI PUSH1 0x0 DUP1 REVERT JUMPDEST PUSH1 0x0 PUSH1 0x3 PUSH1 0x0 DUP1 PUSH1 0x0 DUP2 SLOAD DUP2 LT PUSH2 0x7E9 JUMPI PUSH2 0x7E8 PUSH2 0x1CFB JUMP JUMPDEST JUMPDEST SWAP1 PUSH1 0x0 MSTORE PUSH1 0x20 PUSH1 0x0 KECCAK256 ADD SLOAD DUP2 MSTORE PUSH1 0x20 ADD SWAP1 DUP2 MSTORE PUSH1 0x20 ADD PUSH1 0x0 KECCAK256 SWAP1 POP PUSH1 0x0 DUP2 PUSH1 0x2 ADD SLOAD DUP3 PUSH1 0x0 ADD SLOAD DUP4 PUSH1 0x1 ADD SLOAD PUSH2 0x81F SWAP2 SWAP1 PUSH2 0x1BD0 JUMP JUMPDEST PUSH2 0x829 SWAP2 SWAP1 PUSH2 0x1BD0 JUMP JUMPDEST SWAP1 POP PUSH1 0x0 JUMPDEST DUP2 DUP5 GT ISZERO PUSH2 0x903 JUMPI PUSH2 0x868 PUSH1 0x1 PUSH1 0x0 DUP2 SLOAD DUP2 LT PUSH2 0x84E JUMPI PUSH2 0x84D PUSH2 0x1CFB JUMP JUMPDEST JUMPDEST SWAP1 PUSH1 0x0 MSTORE PUSH1 0x20 PUSH1 0x0 KECCAK256 ADD SLOAD DUP4 PUSH2 0x1265 SWAP1 SWAP2 SWAP1 PUSH4 0xFFFFFFFF AND JUMP JUMPDEST DUP2 PUSH2 0x873 SWAP2 SWAP1 PUSH2 0x1B9C JUMP JUMPDEST SWAP1 POP DUP2 DUP4 PUSH1 0x2 ADD PUSH1 0x0 DUP3 DUP3 SLOAD PUSH2 0x889 SWAP2 SWAP1 PUSH2 0x1B9C JUMP JUMPDEST SWAP3 POP POP DUP2 SWAP1 SSTORE POP DUP2 DUP5 PUSH2 0x89C SWAP2 SWAP1 PUSH2 0x1BD0 JUMP JUMPDEST SWAP4 POP PUSH2 0x8A6 PUSH2 0x14A6 JUMP JUMPDEST PUSH1 0x3 PUSH1 0x0 DUP1 PUSH1 0x0 DUP2 SLOAD DUP2 LT PUSH2 0x8BE JUMPI PUSH2 0x8BD PUSH2 0x1CFB JUMP JUMPDEST JUMPDEST SWAP1 PUSH1 0x0 MSTORE PUSH1 0x20 PUSH1 0x0 KECCAK256 ADD SLOAD DUP2 MSTORE PUSH1 0x20 ADD SWAP1 DUP2 MSTORE PUSH1 0x20 ADD PUSH1 0x0 KECCAK256 SWAP3 POP DUP3 PUSH1 0x2 ADD SLOAD DUP4 PUSH1 0x0 ADD SLOAD DUP5 PUSH1 0x1 ADD SLOAD PUSH2 0x8F2 SWAP2 SWAP1 PUSH2 0x1BD0 JUMP JUMPDEST PUSH2 0x8FC SWAP2 SWAP1 PUSH2 0x1BD0 JUMP JUMPDEST SWAP2 POP PUSH2 0x82E JUMP JUMPDEST PUSH1 0x0 DUP5 GT ISZERO PUSH2 0x967 JUMPI PUSH2 0x93E PUSH1 0x1 PUSH1 0x0 DUP2 SLOAD DUP2 LT PUSH2 0x924 JUMPI PUSH2 0x923 PUSH2 0x1CFB JUMP JUMPDEST JUMPDEST SWAP1 PUSH1 0x0 MSTORE PUSH1 0x20 PUSH1 0x0 KECCAK256 ADD SLOAD DUP6 PUSH2 0x1265 SWAP1 SWAP2 SWAP1 PUSH4 0xFFFFFFFF AND JUMP JUMPDEST DUP2 PUSH2 0x949 SWAP2 SWAP1 PUSH2 0x1B9C JUMP JUMPDEST SWAP1 POP DUP4 DUP4 PUSH1 0x2 ADD PUSH1 0x0 DUP3 DUP3 SLOAD PUSH2 0x95F SWAP2 SWAP1 PUSH2 0x1B9C JUMP JUMPDEST SWAP3 POP POP DUP2 SWAP1 SSTORE POP JUMPDEST PUSH1 0x6 PUSH1 0x0 SWAP1 SLOAD SWAP1 PUSH2 0x100 EXP SWAP1 DIV PUSH20 0xFFFFFFFFFFFFFFFFFFFFFFFFFFFFFFFFFFFFFFFF AND PUSH20 0xFFFFFFFFFFFFFFFFFFFFFFFFFFFFFFFFFFFFFFFF AND PUSH4 0x83D2BDB CALLER PUSH1 0x8 PUSH1 0x0 SWAP1 SLOAD SWAP1 PUSH2 0x100 EXP SWAP1 DIV PUSH20 0xFFFFFFFFFFFFFFFFFFFFFFFFFFFFFFFFFFFFFFFF AND DUP8 DUP6 PUSH1 0x40 MLOAD DUP6 PUSH4 0xFFFFFFFF AND PUSH1 0xE0 SHL DUP2 MSTORE PUSH1 0x4 ADD PUSH2 0x9EA SWAP5 SWAP4 SWAP3 SWAP2 SWAP1 PUSH2 0x1C45 JUMP JUMPDEST PUSH1 0x0 PUSH1 0x40 MLOAD DUP1 DUP4 SUB DUP2 PUSH1 0x0 DUP8 DUP1 EXTCODESIZE ISZERO DUP1 ISZERO PUSH2 0xA04 JUMPI PUSH1 0x0 DUP1 REVERT JUMPDEST POP GAS CALL ISZERO DUP1 ISZERO PUSH2 0xA18 JUMPI RETURNDATASIZE PUSH1 0x0 DUP1 RETURNDATACOPY RETURNDATASIZE PUSH1 0x0 REVERT JUMPDEST POP POP POP POP POP POP POP POP JUMP JUMPDEST PUSH1 0x0 PUSH1 0x2 PUSH1 0x0 DUP4 DUP2 MSTORE PUSH1 0x20 ADD SWAP1 DUP2 MSTORE PUSH1 0x20 ADD PUSH1 0x0 KECCAK256 SWAP1 POP DUP1 PUSH1 0x3 ADD PUSH1 0x0 SWAP1 SLOAD SWAP1 PUSH2 0x100 EXP SWAP1 DIV PUSH20 0xFFFFFFFFFFFFFFFFFFFFFFFFFFFFFFFFFFFFFFFF AND PUSH20 0xFFFFFFFFFFFFFFFFFFFFFFFFFFFFFFFFFFFFFFFF AND CALLER PUSH20 0xFFFFFFFFFFFFFFFFFFFFFFFFFFFFFFFFFFFFFFFF AND EQ PUSH2 0xA95 JUMPI PUSH1 0x0 DUP1 REVERT JUMPDEST PUSH1 0x0 PUSH1 0x3 PUSH1 0x0 DUP4 PUSH1 0x0 ADD SLOAD DUP2 MSTORE PUSH1 0x20 ADD SWAP1 DUP2 MSTORE PUSH1 0x20 ADD PUSH1 0x0 KECCAK256 SWAP1 POP DUP1 PUSH1 0x0 ADD SLOAD DUP2 PUSH1 0x2 ADD SLOAD PUSH2 0xAC4 SWAP2 SWAP1 PUSH2 0x1B9C JUMP JUMPDEST DUP3 PUSH1 0x2 ADD SLOAD LT PUSH2 0xAD3 JUMPI PUSH1 0x0 DUP1 REVERT JUMPDEST PUSH1 0x0 DUP3 PUSH1 0x2 ADD SLOAD DUP3 PUSH1 0x0 ADD SLOAD DUP4 PUSH1 0x2 ADD SLOAD PUSH2 0xAEE SWAP2 SWAP1 PUSH2 0x1B9C JUMP JUMPDEST PUSH2 0xAF8 SWAP2 SWAP1 PUSH2 0x1BD0 JUMP JUMPDEST SWAP1 POP PUSH1 0x0 DUP4 PUSH1 0x1 ADD SLOAD DUP3 GT PUSH2 0xB0D JUMPI DUP2 PUSH2 0xB13 JUMP JUMPDEST DUP4 PUSH1 0x1 ADD SLOAD JUMPDEST SWAP1 POP DUP1 DUP5 PUSH1 0x1 ADD PUSH1 0x0 DUP3 DUP3 SLOAD PUSH2 0xB29 SWAP2 SWAP1 PUSH2 0x1BD0 JUMP JUMPDEST SWAP3 POP POP DUP2 SWAP1 SSTORE POP DUP1 DUP4 PUSH1 0x0 ADD PUSH1 0x0 DUP3 DUP3 SLOAD PUSH2 0xB44 SWAP2 SWAP1 PUSH2 0x1B9C JUMP JUMPDEST SWAP3 POP POP DUP2 SWAP1 SSTORE POP DUP1 DUP4 PUSH1 0x2 ADD PUSH1 0x0 DUP3 DUP3 SLOAD PUSH2 0xB5F SWAP2 SWAP1 PUSH2 0x1BD0 JUMP JUMPDEST SWAP3 POP POP DUP2 SWAP1 SSTORE POP PUSH1 0x6 PUSH1 0x0 SWAP1 SLOAD SWAP1 PUSH2 0x100 EXP SWAP1 DIV PUSH20 0xFFFFFFFFFFFFFFFFFFFFFFFFFFFFFFFFFFFFFFFF AND PUSH20 0xFFFFFFFFFFFFFFFFFFFFFFFFFFFFFFFFFFFFFFFF AND PUSH4 0xABB2361E CALLER PUSH1 0x8 PUSH1 0x0 SWAP1 SLOAD SWAP1 PUSH2 0x100 EXP SWAP1 DIV PUSH20 0xFFFFFFFFFFFFFFFFFFFFFFFFFFFFFFFFFFFFFFFF AND DUP5 PUSH2 0xBE0 DUP10 PUSH1 0x0 ADD SLOAD DUP8 PUSH2 0x1265 SWAP1 SWAP2 SWAP1 PUSH4 0xFFFFFFFF AND JUMP JUMPDEST PUSH1 0x40 MLOAD DUP6 PUSH4 0xFFFFFFFF AND PUSH1 0xE0 SHL DUP2 MSTORE PUSH1 0x4 ADD PUSH2 0xBFF SWAP5 SWAP4 SWAP3 SWAP2 SWAP1 PUSH2 0x1C45 JUMP JUMPDEST PUSH1 0x0 PUSH1 0x40 MLOAD DUP1 DUP4 SUB DUP2 PUSH1 0x0 DUP8 DUP1 EXTCODESIZE ISZERO DUP1 ISZERO PUSH2 0xC19 JUMPI PUSH1 0x0 DUP1 REVERT JUMPDEST POP GAS CALL ISZERO DUP1 ISZERO PUSH2 0xC2D JUMPI RETURNDATASIZE PUSH1 0x0 DUP1 RETURNDATACOPY RETURNDATASIZE PUSH1 0x0 REVERT JUMPDEST POP POP POP POP PUSH1 0x0 DUP5 PUSH1 0x1 ADD SLOAD SUB PUSH2 0xD44 JUMPI PUSH1 0x2 PUSH1 0x0 DUP7 DUP2 MSTORE PUSH1 0x20 ADD SWAP1 DUP2 MSTORE PUSH1 0x20 ADD PUSH1 0x0 KECCAK256 PUSH1 0x0 DUP1 DUP3 ADD PUSH1 0x0 SWAP1 SSTORE PUSH1 0x1 DUP3 ADD PUSH1 0x0 SWAP1 SSTORE PUSH1 0x2 DUP3 ADD PUSH1 0x0 SWAP1 SSTORE PUSH1 0x3 DUP3 ADD PUSH1 0x0 PUSH2 0x100 EXP DUP2 SLOAD SWAP1 PUSH20 0xFFFFFFFFFFFFFFFFFFFFFFFFFFFFFFFFFFFFFFFF MUL NOT AND SWAP1 SSTORE POP POP PUSH1 0x7 PUSH1 0x0 SWAP1 SLOAD SWAP1 PUSH2 0x100 EXP SWAP1 DIV PUSH20 0xFFFFFFFFFFFFFFFFFFFFFFFFFFFFFFFFFFFFFFFF AND PUSH20 0xFFFFFFFFFFFFFFFFFFFFFFFFFFFFFFFFFFFFFFFF AND PUSH4 0xBC73473B CALLER PUSH1 0x8 PUSH1 0x0 SWAP1 SLOAD SWAP1 PUSH2 0x100 EXP SWAP1 DIV PUSH20 0xFFFFFFFFFFFFFFFFFFFFFFFFFFFFFFFFFFFFFFFF AND PUSH1 0x40 MLOAD DUP4 PUSH4 0xFFFFFFFF AND PUSH1 0xE0 SHL DUP2 MSTORE PUSH1 0x4 ADD PUSH2 0xD11 SWAP3 SWAP2 SWAP1 PUSH2 0x1C8A JUMP JUMPDEST PUSH1 0x0 PUSH1 0x40 MLOAD DUP1 DUP4 SUB DUP2 PUSH1 0x0 DUP8 DUP1 EXTCODESIZE ISZERO DUP1 ISZERO PUSH2 0xD2B JUMPI PUSH1 0x0 DUP1 REVERT JUMPDEST POP GAS CALL ISZERO DUP1 ISZERO PUSH2 0xD3F JUMPI RETURNDATASIZE PUSH1 0x0 DUP1 RETURNDATACOPY RETURNDATASIZE PUSH1 0x0 REVERT JUMPDEST POP POP POP POP JUMPDEST POP POP POP POP POP JUMP JUMPDEST PUSH1 0x5 PUSH1 0x0 DUP2 SLOAD DUP1 SWAP3 SWAP2 SWAP1 PUSH2 0xD5E SWAP1 PUSH2 0x1CB3 JUMP JUMPDEST SWAP2 SWAP1 POP SSTORE POP PUSH1 0x0 PUSH1 0x3 PUSH1 0x0 DUP5 DUP2 MSTORE PUSH1 0x20 ADD SWAP1 DUP2 MSTORE PUSH1 0x20 ADD PUSH1 0x0 KECCAK256 SWAP1 POP PUSH1 0x0 DUP2 PUSH1 0x1 ADD SLOAD SUB PUSH2 0xD90 JUMPI PUSH2 0xD8F DUP4 PUSH2 0x157B JUMP JUMPDEST JUMPDEST PUSH2 0xD9B DUP2 DUP5 DUP5 PUSH2 0x13B5 JUMP JUMPDEST PUSH1 0x7 PUSH1 0x0 SWAP1 SLOAD SWAP1 PUSH2 0x100 EXP SWAP1 DIV PUSH20 0xFFFFFFFFFFFFFFFFFFFFFFFFFFFFFFFFFFFFFFFF AND PUSH20 0xFFFFFFFFFFFFFFFFFFFFFFFFFFFFFFFFFFFFFFFF AND PUSH4 0x466730FF CALLER PUSH1 0x8 PUSH1 0x0 SWAP1 SLOAD SWAP1 PUSH2 0x100 EXP SWAP1 DIV PUSH20 0xFFFFFFFFFFFFFFFFFFFFFFFFFFFFFFFFFFFFFFFF AND PUSH1 0x40 MLOAD DUP4 PUSH4 0xFFFFFFFF AND PUSH1 0xE0 SHL DUP2 MSTORE PUSH1 0x4 ADD PUSH2 0xE1A SWAP3 SWAP2 SWAP1 PUSH2 0x1C8A JUMP JUMPDEST PUSH1 0x0 PUSH1 0x40 MLOAD DUP1 DUP4 SUB DUP2 PUSH1 0x0 DUP8 DUP1 EXTCODESIZE ISZERO DUP1 ISZERO PUSH2 0xE34 JUMPI PUSH1 0x0 DUP1 REVERT JUMPDEST POP GAS CALL ISZERO DUP1 ISZERO PUSH2 0xE48 JUMPI RETURNDATASIZE PUSH1 0x0 DUP1 RETURNDATACOPY RETURNDATASIZE PUSH1 0x0 REVERT JUMPDEST POP POP POP POP POP POP POP JUMP JUMPDEST PUSH1 0x0 DUP2 GT PUSH2 0xE5E JUMPI PUSH1 0x0 DUP1 REVERT JUMPDEST PUSH1 0x0 PUSH1 0x4 PUSH1 0x0 PUSH1 0x1 PUSH1 0x0 DUP2 SLOAD DUP2 LT PUSH2 0xE79 JUMPI PUSH2 0xE78 PUSH2 0x1CFB JUMP JUMPDEST JUMPDEST SWAP1 PUSH1 0x0 MSTORE PUSH1 0x20 PUSH1 0x0 KECCAK256 ADD SLOAD DUP2 MSTORE PUSH1 0x20 ADD SWAP1 DUP2 MSTORE PUSH1 0x20 ADD PUSH1 0x0 KECCAK256 SWAP1 POP PUSH1 0x0 DUP2 PUSH1 0x2 ADD SLOAD DUP3 PUSH1 0x0 ADD SLOAD DUP4 PUSH1 0x1 ADD SLOAD PUSH2 0xEAF SWAP2 SWAP1 PUSH2 0x1BD0 JUMP JUMPDEST PUSH2 0xEB9 SWAP2 SWAP1 PUSH2 0x1BD0 JUMP JUMPDEST SWAP1 POP PUSH1 0x0 JUMPDEST DUP2 DUP5 GT ISZERO PUSH2 0xF94 JUMPI PUSH2 0xEF8 PUSH1 0x1 PUSH1 0x0 DUP2 SLOAD DUP2 LT PUSH2 0xEDE JUMPI PUSH2 0xEDD PUSH2 0x1CFB JUMP JUMPDEST JUMPDEST SWAP1 PUSH1 0x0 MSTORE PUSH1 0x20 PUSH1 0x0 KECCAK256 ADD SLOAD DUP4 PUSH2 0x1265 SWAP1 SWAP2 SWAP1 PUSH4 0xFFFFFFFF AND JUMP JUMPDEST DUP2 PUSH2 0xF03 SWAP2 SWAP1 PUSH2 0x1B9C JUMP JUMPDEST SWAP1 POP DUP2 DUP4 PUSH1 0x2 ADD PUSH1 0x0 DUP3 DUP3 SLOAD PUSH2 0xF19 SWAP2 SWAP1 PUSH2 0x1B9C JUMP JUMPDEST SWAP3 POP POP DUP2 SWAP1 SSTORE POP DUP2 DUP5 PUSH2 0xF2C SWAP2 SWAP1 PUSH2 0x1BD0 JUMP JUMPDEST SWAP4 POP PUSH2 0xF36 PUSH2 0x16B3 JUMP JUMPDEST PUSH1 0x4 PUSH1 0x0 PUSH1 0x1 PUSH1 0x0 DUP2 SLOAD DUP2 LT PUSH2 0xF4F JUMPI PUSH2 0xF4E PUSH2 0x1CFB JUMP JUMPDEST JUMPDEST SWAP1 PUSH1 0x0 MSTORE PUSH1 0x20 PUSH1 0x0 KECCAK256 ADD SLOAD DUP2 MSTORE PUSH1 0x20 ADD SWAP1 DUP2 MSTORE PUSH1 0x20 ADD PUSH1 0x0 KECCAK256 SWAP3 POP DUP3 PUSH1 0x2 ADD SLOAD DUP4 PUSH1 0x0 ADD SLOAD DUP5 PUSH1 0x1 ADD SLOAD PUSH2 0xF83 SWAP2 SWAP1 PUSH2 0x1BD0 JUMP JUMPDEST PUSH2 0xF8D SWAP2 SWAP1 PUSH2 0x1BD0 JUMP JUMPDEST SWAP2 POP PUSH2 0xEBE JUMP JUMPDEST PUSH1 0x0 DUP5 GT ISZERO PUSH2 0xFF8 JUMPI PUSH2 0xFCF PUSH1 0x1 PUSH1 0x0 DUP2 SLOAD DUP2 LT PUSH2 0xFB5 JUMPI PUSH2 0xFB4 PUSH2 0x1CFB JUMP JUMPDEST JUMPDEST SWAP1 PUSH1 0x0 MSTORE PUSH1 0x20 PUSH1 0x0 KECCAK256 ADD SLOAD DUP6 PUSH2 0x1265 SWAP1 SWAP2 SWAP1 PUSH4 0xFFFFFFFF AND JUMP JUMPDEST DUP2 PUSH2 0xFDA SWAP2 SWAP1 PUSH2 0x1B9C JUMP JUMPDEST SWAP1 POP DUP4 DUP4 PUSH1 0x2 ADD PUSH1 0x0 DUP3 DUP3 SLOAD PUSH2 0xFF0 SWAP2 SWAP1 PUSH2 0x1B9C JUMP JUMPDEST SWAP3 POP POP DUP2 SWAP1 SSTORE POP JUMPDEST PUSH1 0x6 PUSH1 0x0 SWAP1 SLOAD SWAP1 PUSH2 0x100 EXP SWAP1 DIV PUSH20 0xFFFFFFFFFFFFFFFFFFFFFFFFFFFFFFFFFFFFFFFF AND PUSH20 0xFFFFFFFFFFFFFFFFFFFFFFFFFFFFFFFFFFFFFFFF AND PUSH4 0xABB2361E CALLER PUSH1 0x8 PUSH1 0x0 SWAP1 SLOAD SWAP1 PUSH2 0x100 EXP SWAP1 DIV PUSH20 0xFFFFFFFFFFFFFFFFFFFFFFFFFFFFFFFFFFFFFFFF AND DUP8 DUP6 PUSH1 0x40 MLOAD DUP6 PUSH4 0xFFFFFFFF AND PUSH1 0xE0 SHL DUP2 MSTORE PUSH1 0x4 ADD PUSH2 0x107B SWAP5 SWAP4 SWAP3 SWAP2 SWAP1 PUSH2 0x1C45 JUMP JUMPDEST PUSH1 0x0 PUSH1 0x40 MLOAD DUP1 DUP4 SUB DUP2 PUSH1 0x0 DUP8 DUP1 EXTCODESIZE ISZERO DUP1 ISZERO PUSH2 0x1095 JUMPI PUSH1 0x0 DUP1 REVERT JUMPDEST POP GAS CALL ISZERO DUP1 ISZERO PUSH2 0x10A9 JUMPI RETURNDATASIZE PUSH1 0x0 DUP1 RETURNDATACOPY RETURNDATASIZE PUSH1 0x0 REVERT JUMPDEST POP POP POP POP POP POP POP POP JUMP JUMPDEST PUSH1 0x0 PUSH1 0x2 PUSH1 0x0 DUP4 DUP2 MSTORE PUSH1 0x20 ADD SWAP1 DUP2 MSTORE PUSH1 0x20 ADD PUSH1 0x0 KECCAK256 SWAP1 POP DUP1 PUSH1 0x3 ADD PUSH1 0x0 SWAP1 SLOAD SWAP1 PUSH2 0x100 EXP SWAP1 DIV PUSH20 0xFFFFFFFFFFFFFFFFFFFFFFFFFFFFFFFFFFFFFFFF AND PUSH20 0xFFFFFFFFFFFFFFFFFFFFFFFFFFFFFFFFFFFFFFFF AND CALLER PUSH20 0xFFFFFFFFFFFFFFFFFFFFFFFFFFFFFFFFFFFFFFFF AND EQ PUSH2 0x1126 JUMPI PUSH1 0x0 DUP1 REVERT JUMPDEST DUP1 PUSH1 0x1 ADD SLOAD PUSH1 0x3 PUSH1 0x0 DUP4 PUSH1 0x0 ADD SLOAD DUP2 MSTORE PUSH1 0x20 ADD SWAP1 DUP2 MSTORE PUSH1 0x20 ADD PUSH1 0x0 KECCAK256 PUSH1 0x0 ADD PUSH1 0x0 DUP3 DUP3 SLOAD PUSH2 0x1154 SWAP2 SWAP1 PUSH2 0x1B9C JUMP JUMPDEST SWAP3 POP POP DUP2 SWAP1 SSTORE POP PUSH1 0x2 PUSH1 0x0 DUP4 DUP2 MSTORE PUSH1 0x20 ADD SWAP1 DUP2 MSTORE PUSH1 0x20 ADD PUSH1 0x0 KECCAK256 PUSH1 0x0 DUP1 DUP3 ADD PUSH1 0x0 SWAP1 SSTORE PUSH1 0x1 DUP3 ADD PUSH1 0x0 SWAP1 SSTORE PUSH1 0x2 DUP3 ADD PUSH1 0x0 SWAP1 SSTORE PUSH1 0x3 DUP3 ADD PUSH1 0x0 PUSH2 0x100 EXP DUP2 SLOAD SWAP1 PUSH20 0xFFFFFFFFFFFFFFFFFFFFFFFFFFFFFFFFFFFFFFFF MUL NOT AND SWAP1 SSTORE POP POP PUSH1 0x7 PUSH1 0x0 SWAP1 SLOAD SWAP1 PUSH2 0x100 EXP SWAP1 DIV PUSH20 0xFFFFFFFFFFFFFFFFFFFFFFFFFFFFFFFFFFFFFFFF AND PUSH20 0xFFFFFFFFFFFFFFFFFFFFFFFFFFFFFFFFFFFFFFFF AND PUSH4 0xBC73473B CALLER PUSH1 0x8 PUSH1 0x0 SWAP1 SLOAD SWAP1 PUSH2 0x100 EXP SWAP1 DIV PUSH20 0xFFFFFFFFFFFFFFFFFFFFFFFFFFFFFFFFFFFFFFFF AND PUSH1 0x40 MLOAD DUP4 PUSH4 0xFFFFFFFF AND PUSH1 0xE0 SHL DUP2 MSTORE PUSH1 0x4 ADD PUSH2 0x122F SWAP3 SWAP2 SWAP1 PUSH2 0x1C8A JUMP JUMPDEST PUSH1 0x0 PUSH1 0x40 MLOAD DUP1 DUP4 SUB DUP2 PUSH1 0x0 DUP8 DUP1 EXTCODESIZE ISZERO DUP1 ISZERO PUSH2 0x1249 JUMPI PUSH1 0x0 DUP1 REVERT JUMPDEST POP GAS CALL ISZERO DUP1 ISZERO PUSH2 0x125D JUMPI RETURNDATASIZE PUSH1 0x0 DUP1 RETURNDATACOPY RETURNDATASIZE PUSH1 0x0 REVERT JUMPDEST POP POP POP POP POP POP JUMP JUMPDEST PUSH1 0x0 DUP2 DUP4 PUSH2 0x1273 SWAP2 SWAP1 PUSH2 0x1D2A JUMP JUMPDEST SWAP1 POP SWAP3 SWAP2 POP POP JUMP JUMPDEST PUSH1 0x0 PUSH1 0x1 DUP1 SLOAD SWAP1 POP SWAP1 POP PUSH1 0x1 DUP3 SWAP1 DUP1 PUSH1 0x1 DUP2 SLOAD ADD DUP1 DUP3 SSTORE DUP1 SWAP2 POP POP PUSH1 0x1 SWAP1 SUB SWAP1 PUSH1 0x0 MSTORE PUSH1 0x20 PUSH1 0x0 KECCAK256 ADD PUSH1 0x0 SWAP1 SWAP2 SWAP1 SWAP2 SWAP1 SWAP2 POP SSTORE JUMPDEST PUSH1 0x0 DUP2 GT ISZERO PUSH2 0x13B1 JUMPI PUSH1 0x0 PUSH1 0x2 PUSH1 0x1 DUP4 PUSH2 0x12C9 SWAP2 SWAP1 PUSH2 0x1BD0 JUMP JUMPDEST PUSH2 0x12D3 SWAP2 SWAP1 PUSH2 0x1D9B JUMP JUMPDEST SWAP1 POP PUSH1 0x1 DUP3 DUP2 SLOAD DUP2 LT PUSH2 0x12E9 JUMPI PUSH2 0x12E8 PUSH2 0x1CFB JUMP JUMPDEST JUMPDEST SWAP1 PUSH1 0x0 MSTORE PUSH1 0x20 PUSH1 0x0 KECCAK256 ADD SLOAD PUSH1 0x1 DUP3 DUP2 SLOAD DUP2 LT PUSH2 0x1308 JUMPI PUSH2 0x1307 PUSH2 0x1CFB JUMP JUMPDEST JUMPDEST SWAP1 PUSH1 0x0 MSTORE PUSH1 0x20 PUSH1 0x0 KECCAK256 ADD SLOAD GT PUSH2 0x131E JUMPI POP PUSH2 0x13B1 JUMP JUMPDEST PUSH1 0x1 DUP2 DUP2 SLOAD DUP2 LT PUSH2 0x1332 JUMPI PUSH2 0x1331 PUSH2 0x1CFB JUMP JUMPDEST JUMPDEST SWAP1 PUSH1 0x0 MSTORE PUSH1 0x20 PUSH1 0x0 KECCAK256 ADD SLOAD PUSH1 0x1 DUP4 DUP2 SLOAD DUP2 LT PUSH2 0x1351 JUMPI PUSH2 0x1350 PUSH2 0x1CFB JUMP JUMPDEST JUMPDEST SWAP1 PUSH1 0x0 MSTORE PUSH1 0x20 PUSH1 0x0 KECCAK256 ADD SLOAD PUSH1 0x1 DUP5 DUP2 SLOAD DUP2 LT PUSH2 0x1370 JUMPI PUSH2 0x136F PUSH2 0x1CFB JUMP JUMPDEST JUMPDEST SWAP1 PUSH1 0x0 MSTORE PUSH1 0x20 PUSH1 0x0 KECCAK256 ADD PUSH1 0x0 PUSH1 0x1 DUP6 DUP2 SLOAD DUP2 LT PUSH2 0x1390 JUMPI PUSH2 0x138F PUSH2 0x1CFB JUMP JUMPDEST JUMPDEST SWAP1 PUSH1 0x0 MSTORE PUSH1 0x20 PUSH1 0x0 KECCAK256 ADD PUSH1 0x0 DUP5 SWAP2 SWAP1 POP SSTORE DUP4 SWAP2 SWAP1 POP SSTORE POP POP DUP1 SWAP2 POP POP PUSH2 0x12AF JUMP JUMPDEST POP POP JUMP JUMPDEST PUSH1 0x0 DUP1 DUP5 PUSH1 0x1 ADD SLOAD EQ PUSH2 0x13CC JUMPI DUP4 PUSH1 0x1 ADD SLOAD PUSH2 0x13CF JUMP JUMPDEST PUSH1 0x0 JUMPDEST SWAP1 POP PUSH1 0x40 MLOAD DUP1 PUSH1 0x80 ADD PUSH1 0x40 MSTORE DUP1 DUP5 DUP2 MSTORE PUSH1 0x20 ADD DUP4 DUP2 MSTORE PUSH1 0x20 ADD DUP3 DUP2 MSTORE PUSH1 0x20 ADD CALLER PUSH20 0xFFFFFFFFFFFFFFFFFFFFFFFFFFFFFFFFFFFFFFFF AND DUP2 MSTORE POP PUSH1 0x2 PUSH1 0x0 PUSH1 0x5 SLOAD DUP2 MSTORE PUSH1 0x20 ADD SWAP1 DUP2 MSTORE PUSH1 0x20 ADD PUSH1 0x0 KECCAK256 PUSH1 0x0 DUP3 ADD MLOAD DUP2 PUSH1 0x0 ADD SSTORE PUSH1 0x20 DUP3 ADD MLOAD DUP2 PUSH1 0x1 ADD SSTORE PUSH1 0x40 DUP3 ADD MLOAD DUP2 PUSH1 0x2 ADD SSTORE PUSH1 0x60 DUP3 ADD MLOAD DUP2 PUSH1 0x3 ADD PUSH1 0x0 PUSH2 0x100 EXP DUP2 SLOAD DUP2 PUSH20 0xFFFFFFFFFFFFFFFFFFFFFFFFFFFFFFFFFFFFFFFF MUL NOT AND SWAP1 DUP4 PUSH20 0xFFFFFFFFFFFFFFFFFFFFFFFFFFFFFFFFFFFFFFFF AND MUL OR SWAP1 SSTORE POP SWAP1 POP POP DUP2 DUP5 PUSH1 0x1 ADD PUSH1 0x0 DUP3 DUP3 SLOAD PUSH2 0x1499 SWAP2 SWAP1 PUSH2 0x1B9C JUMP JUMPDEST SWAP3 POP POP DUP2 SWAP1 SSTORE POP POP POP POP POP JUMP JUMPDEST PUSH1 0x1 PUSH1 0x0 DUP1 SLOAD SWAP1 POP LT ISZERO PUSH2 0x14EF JUMPI PUSH1 0x40 MLOAD PUSH32 0x8C379A000000000000000000000000000000000000000000000000000000000 DUP2 MSTORE PUSH1 0x4 ADD PUSH2 0x14E6 SWAP1 PUSH2 0x1E29 JUMP JUMPDEST PUSH1 0x40 MLOAD DUP1 SWAP2 SUB SWAP1 REVERT JUMPDEST PUSH1 0x0 PUSH1 0x1 PUSH1 0x0 DUP1 SLOAD SWAP1 POP PUSH2 0x1503 SWAP2 SWAP1 PUSH2 0x1BD0 JUMP JUMPDEST SWAP1 POP PUSH1 0x0 DUP2 DUP2 SLOAD DUP2 LT PUSH2 0x1519 JUMPI PUSH2 0x1518 PUSH2 0x1CFB JUMP JUMPDEST JUMPDEST SWAP1 PUSH1 0x0 MSTORE PUSH1 0x20 PUSH1 0x0 KECCAK256 ADD SLOAD PUSH1 0x0 DUP1 DUP2 SLOAD DUP2 LT PUSH2 0x1538 JUMPI PUSH2 0x1537 PUSH2 0x1CFB JUMP JUMPDEST JUMPDEST SWAP1 PUSH1 0x0 MSTORE PUSH1 0x20 PUSH1 0x0 KECCAK256 ADD DUP2 SWAP1 SSTORE POP PUSH1 0x0 DUP1 SLOAD DUP1 PUSH2 0x1558 JUMPI PUSH2 0x1557 PUSH2 0x1E49 JUMP JUMPDEST JUMPDEST PUSH1 0x1 SWAP1 SUB DUP2 DUP2 SWAP1 PUSH1 0x0 MSTORE PUSH1 0x20 PUSH1 0x0 KECCAK256 ADD PUSH1 0x0 SWAP1 SSTORE SWAP1 SSTORE PUSH2 0x1578 PUSH1 0x0 PUSH2 0x1786 JUMP JUMPDEST POP JUMP JUMPDEST PUSH1 0x0 DUP1 DUP1 SLOAD SWAP1 POP SWAP1 POP PUSH1 0x0 DUP3 SWAP1 DUP1 PUSH1 0x1 DUP2 SLOAD ADD DUP1 DUP3 SSTORE DUP1 SWAP2 POP POP PUSH1 0x1 SWAP1 SUB SWAP1 PUSH1 0x0 MSTORE PUSH1 0x20 PUSH1 0x0 KECCAK256 ADD PUSH1 0x0 SWAP1 SWAP2 SWAP1 SWAP2 SWAP1 SWAP2 POP SSTORE JUMPDEST PUSH1 0x0 DUP2 GT ISZERO PUSH2 0x16AF JUMPI PUSH1 0x0 PUSH1 0x2 PUSH1 0x1 DUP4 PUSH2 0x15C8 SWAP2 SWAP1 PUSH2 0x1BD0 JUMP JUMPDEST PUSH2 0x15D2 SWAP2 SWAP1 PUSH2 0x1D9B JUMP JUMPDEST SWAP1 POP PUSH1 0x0 DUP3 DUP2 SLOAD DUP2 LT PUSH2 0x15E8 JUMPI PUSH2 0x15E7 PUSH2 0x1CFB JUMP JUMPDEST JUMPDEST SWAP1 PUSH1 0x0 MSTORE PUSH1 0x20 PUSH1 0x0 KECCAK256 ADD SLOAD PUSH1 0x0 DUP3 DUP2 SLOAD DUP2 LT PUSH2 0x1607 JUMPI PUSH2 0x1606 PUSH2 0x1CFB JUMP JUMPDEST JUMPDEST SWAP1 PUSH1 0x0 MSTORE PUSH1 0x20 PUSH1 0x0 KECCAK256 ADD SLOAD LT PUSH2 0x161D JUMPI POP PUSH2 0x16AF JUMP JUMPDEST PUSH1 0x0 DUP2 DUP2 SLOAD DUP2 LT PUSH2 0x1631 JUMPI PUSH2 0x1630 PUSH2 0x1CFB JUMP JUMPDEST JUMPDEST SWAP1 PUSH1 0x0 MSTORE PUSH1 0x20 PUSH1 0x0 KECCAK256 ADD SLOAD PUSH1 0x0 DUP4 DUP2 SLOAD DUP2 LT PUSH2 0x1650 JUMPI PUSH2 0x164F PUSH2 0x1CFB JUMP JUMPDEST JUMPDEST SWAP1 PUSH1 0x0 MSTORE PUSH1 0x20 PUSH1 0x0 KECCAK256 ADD SLOAD PUSH1 0x0 DUP5 DUP2 SLOAD DUP2 LT PUSH2 0x166F JUMPI PUSH2 0x166E PUSH2 0x1CFB JUMP JUMPDEST JUMPDEST SWAP1 PUSH1 0x0 MSTORE PUSH1 0x20 PUSH1 0x0 KECCAK256 ADD PUSH1 0x0 DUP1 DUP6 DUP2 SLOAD DUP2 LT PUSH2 0x168E JUMPI PUSH2 0x168D PUSH2 0x1CFB JUMP JUMPDEST JUMPDEST SWAP1 PUSH1 0x0 MSTORE PUSH1 0x20 PUSH1 0x0 KECCAK256 ADD PUSH1 0x0 DUP5 SWAP2 SWAP1 POP SSTORE DUP4 SWAP2 SWAP1 POP SSTORE POP POP DUP1 SWAP2 POP POP PUSH2 0x15AE JUMP JUMPDEST POP POP JUMP JUMPDEST PUSH1 0x1 DUP1 DUP1 SLOAD SWAP1 POP GT PUSH2 0x16FA JUMPI PUSH1 0x40 MLOAD PUSH32 0x8C379A000000000000000000000000000000000000000000000000000000000 DUP2 MSTORE PUSH1 0x4 ADD PUSH2 0x16F1 SWAP1 PUSH2 0x1EC4 JUMP JUMPDEST PUSH1 0x40 MLOAD DUP1 SWAP2 SUB SWAP1 REVERT JUMPDEST PUSH1 0x0 PUSH1 0x1 DUP1 DUP1 SLOAD SWAP1 POP PUSH2 0x170D SWAP2 SWAP1 PUSH2 0x1BD0 JUMP JUMPDEST SWAP1 POP PUSH1 0x1 DUP2 DUP2 SLOAD DUP2 LT PUSH2 0x1723 JUMPI PUSH2 0x1722 PUSH2 0x1CFB JUMP JUMPDEST JUMPDEST SWAP1 PUSH1 0x0 MSTORE PUSH1 0x20 PUSH1 0x0 KECCAK256 ADD SLOAD PUSH1 0x1 PUSH1 0x0 DUP2 SLOAD DUP2 LT PUSH2 0x1743 JUMPI PUSH2 0x1742 PUSH2 0x1CFB JUMP JUMPDEST JUMPDEST SWAP1 PUSH1 0x0 MSTORE PUSH1 0x20 PUSH1 0x0 KECCAK256 ADD DUP2 SWAP1 SSTORE POP PUSH1 0x1 DUP1 SLOAD DUP1 PUSH2 0x1763 JUMPI PUSH2 0x1762 PUSH2 0x1E49 JUMP JUMPDEST JUMPDEST PUSH1 0x1 SWAP1 SUB DUP2 DUP2 SWAP1 PUSH1 0x0 MSTORE PUSH1 0x20 PUSH1 0x0 KECCAK256 ADD PUSH1 0x0 SWAP1 SSTORE SWAP1 SSTORE PUSH2 0x1783 PUSH1 0x0 PUSH2 0x1909 JUMP JUMPDEST POP JUMP JUMPDEST PUSH1 0x0 PUSH1 0x1 PUSH1 0x2 DUP4 PUSH2 0x1797 SWAP2 SWAP1 PUSH2 0x1D2A JUMP JUMPDEST PUSH2 0x17A1 SWAP2 SWAP1 PUSH2 0x1B9C JUMP JUMPDEST SWAP1 POP PUSH1 0x0 PUSH1 0x2 DUP3 PUSH2 0x17B2 SWAP2 SWAP1 PUSH2 0x1B9C JUMP JUMPDEST SWAP1 POP PUSH1 0x0 DUP4 SWAP1 POP PUSH1 0x0 DUP1 SLOAD SWAP1 POP DUP4 LT DUP1 ISZERO PUSH2 0x1808 JUMPI POP PUSH1 0x0 DUP2 DUP2 SLOAD DUP2 LT PUSH2 0x17DC JUMPI PUSH2 0x17DB PUSH2 0x1CFB JUMP JUMPDEST JUMPDEST SWAP1 PUSH1 0x0 MSTORE PUSH1 0x20 PUSH1 0x0 KECCAK256 ADD SLOAD PUSH1 0x0 DUP5 DUP2 SLOAD DUP2 LT PUSH2 0x17FB JUMPI PUSH2 0x17FA PUSH2 0x1CFB JUMP JUMPDEST JUMPDEST SWAP1 PUSH1 0x0 MSTORE PUSH1 0x20 PUSH1 0x0 KECCAK256 ADD SLOAD GT JUMPDEST ISZERO PUSH2 0x1811 JUMPI DUP3 SWAP1 POP JUMPDEST PUSH1 0x0 DUP1 SLOAD SWAP1 POP DUP3 LT DUP1 ISZERO PUSH2 0x1860 JUMPI POP PUSH1 0x0 DUP2 DUP2 SLOAD DUP2 LT PUSH2 0x1834 JUMPI PUSH2 0x1833 PUSH2 0x1CFB JUMP JUMPDEST JUMPDEST SWAP1 PUSH1 0x0 MSTORE PUSH1 0x20 PUSH1 0x0 KECCAK256 ADD SLOAD PUSH1 0x0 DUP4 DUP2 SLOAD DUP2 LT PUSH2 0x1853 JUMPI PUSH2 0x1852 PUSH2 0x1CFB JUMP JUMPDEST JUMPDEST SWAP1 PUSH1 0x0 MSTORE PUSH1 0x20 PUSH1 0x0 KECCAK256 ADD SLOAD GT JUMPDEST ISZERO PUSH2 0x1869 JUMPI DUP2 SWAP1 POP JUMPDEST DUP4 DUP2 EQ PUSH2 0x1903 JUMPI PUSH1 0x0 DUP2 DUP2 SLOAD DUP2 LT PUSH2 0x1884 JUMPI PUSH2 0x1883 PUSH2 0x1CFB JUMP JUMPDEST JUMPDEST SWAP1 PUSH1 0x0 MSTORE PUSH1 0x20 PUSH1 0x0 KECCAK256 ADD SLOAD PUSH1 0x0 DUP6 DUP2 SLOAD DUP2 LT PUSH2 0x18A3 JUMPI PUSH2 0x18A2 PUSH2 0x1CFB JUMP JUMPDEST JUMPDEST SWAP1 PUSH1 0x0 MSTORE PUSH1 0x20 PUSH1 0x0 KECCAK256 ADD SLOAD PUSH1 0x0 DUP7 DUP2 SLOAD DUP2 LT PUSH2 0x18C2 JUMPI PUSH2 0x18C1 PUSH2 0x1CFB JUMP JUMPDEST JUMPDEST SWAP1 PUSH1 0x0 MSTORE PUSH1 0x20 PUSH1 0x0 KECCAK256 ADD PUSH1 0x0 DUP1 DUP6 DUP2 SLOAD DUP2 LT PUSH2 0x18E1 JUMPI PUSH2 0x18E0 PUSH2 0x1CFB JUMP JUMPDEST JUMPDEST SWAP1 PUSH1 0x0 MSTORE PUSH1 0x20 PUSH1 0x0 KECCAK256 ADD PUSH1 0x0 DUP5 SWAP2 SWAP1 POP SSTORE DUP4 SWAP2 SWAP1 POP SSTORE POP POP PUSH2 0x1902 DUP2 PUSH2 0x1786 JUMP JUMPDEST JUMPDEST POP POP POP POP JUMP JUMPDEST PUSH1 0x0 PUSH1 0x1 PUSH1 0x2 DUP4 PUSH2 0x191A SWAP2 SWAP1 PUSH2 0x1D2A JUMP JUMPDEST PUSH2 0x1924 SWAP2 SWAP1 PUSH2 0x1B9C JUMP JUMPDEST SWAP1 POP PUSH1 0x0 PUSH1 0x2 DUP3 PUSH2 0x1935 SWAP2 SWAP1 PUSH2 0x1B9C JUMP JUMPDEST SWAP1 POP PUSH1 0x0 DUP4 SWAP1 POP PUSH1 0x1 DUP1 SLOAD SWAP1 POP DUP4 LT DUP1 ISZERO PUSH2 0x198B JUMPI POP PUSH1 0x1 DUP2 DUP2 SLOAD DUP2 LT PUSH2 0x195F JUMPI PUSH2 0x195E PUSH2 0x1CFB JUMP JUMPDEST JUMPDEST SWAP1 PUSH1 0x0 MSTORE PUSH1 0x20 PUSH1 0x0 KECCAK256 ADD SLOAD PUSH1 0x1 DUP5 DUP2 SLOAD DUP2 LT PUSH2 0x197E JUMPI PUSH2 0x197D PUSH2 0x1CFB JUMP JUMPDEST JUMPDEST SWAP1 PUSH1 0x0 MSTORE PUSH1 0x20 PUSH1 0x0 KECCAK256 ADD SLOAD LT JUMPDEST ISZERO PUSH2 0x1994 JUMPI DUP3 SWAP1 POP JUMPDEST PUSH1 0x1 DUP1 SLOAD SWAP1 POP DUP3 LT DUP1 ISZERO PUSH2 0x19E3 JUMPI POP PUSH1 0x1 DUP2 DUP2 SLOAD DUP2 LT PUSH2 0x19B7 JUMPI PUSH2 0x19B6 PUSH2 0x1CFB JUMP JUMPDEST JUMPDEST SWAP1 PUSH1 0x0 MSTORE PUSH1 0x20 PUSH1 0x0 KECCAK256 ADD SLOAD PUSH1 0x1 DUP4 DUP2 SLOAD DUP2 LT PUSH2 0x19D6 JUMPI PUSH2 0x19D5 PUSH2 0x1CFB JUMP JUMPDEST JUMPDEST SWAP1 PUSH1 0x0 MSTORE PUSH1 0x20 PUSH1 0x0 KECCAK256 ADD SLOAD LT JUMPDEST ISZERO PUSH2 0x19EC JUMPI DUP2 SWAP1 POP JUMPDEST DUP4 DUP2 EQ PUSH2 0x1A87 JUMPI PUSH1 0x1 DUP2 DUP2 SLOAD DUP2 LT PUSH2 0x1A07 JUMPI PUSH2 0x1A06 PUSH2 0x1CFB JUMP JUMPDEST JUMPDEST SWAP1 PUSH1 0x0 MSTORE PUSH1 0x20 PUSH1 0x0 KECCAK256 ADD SLOAD PUSH1 0x1 DUP6 DUP2 SLOAD DUP2 LT PUSH2 0x1A26 JUMPI PUSH2 0x1A25 PUSH2 0x1CFB JUMP JUMPDEST JUMPDEST SWAP1 PUSH1 0x0 MSTORE PUSH1 0x20 PUSH1 0x0 KECCAK256 ADD SLOAD PUSH1 0x1 DUP7 DUP2 SLOAD DUP2 LT PUSH2 0x1A45 JUMPI PUSH2 0x1A44 PUSH2 0x1CFB JUMP JUMPDEST JUMPDEST SWAP1 PUSH1 0x0 MSTORE PUSH1 0x20 PUSH1 0x0 KECCAK256 ADD PUSH1 0x0 PUSH1 0x1 DUP6 DUP2 SLOAD DUP2 LT PUSH2 0x1A65 JUMPI PUSH2 0x1A64 PUSH2 0x1CFB JUMP JUMPDEST JUMPDEST SWAP1 PUSH1 0x0 MSTORE PUSH1 0x20 PUSH1 0x0 KECCAK256 ADD PUSH1 0x0 DUP5 SWAP2 SWAP1 POP SSTORE DUP4 SWAP2 SWAP1 POP SSTORE POP POP PUSH2 0x1A86 DUP2 PUSH2 0x1909 JUMP JUMPDEST JUMPDEST POP POP POP POP JUMP JUMPDEST PUSH1 0x0 DUP1 REVERT JUMPDEST PUSH1 0x0 DUP2 SWAP1 POP SWAP2 SWAP1 POP JUMP JUMPDEST PUSH2 0x1AA5 DUP2 PUSH2 0x1A92 JUMP JUMPDEST DUP2 EQ PUSH2 0x1AB0 JUMPI PUSH1 0x0 DUP1 REVERT JUMPDEST POP JUMP JUMPDEST PUSH1 0x0 DUP2 CALLDATALOAD SWAP1 POP PUSH2 0x1AC2 DUP2 PUSH2 0x1A9C JUMP JUMPDEST SWAP3 SWAP2 POP POP JUMP JUMPDEST PUSH1 0x0 PUSH1 0x20 DUP3 DUP5 SUB SLT ISZERO PUSH2 0x1ADE JUMPI PUSH2 0x1ADD PUSH2 0x1A8D JUMP JUMPDEST JUMPDEST PUSH1 0x0 PUSH2 0x1AEC DUP5 DUP3 DUP6 ADD PUSH2 0x1AB3 JUMP JUMPDEST SWAP2 POP POP SWAP3 SWAP2 POP POP JUMP JUMPDEST PUSH1 0x0 DUP1 PUSH1 0x40 DUP4 DUP6 SUB SLT ISZERO PUSH2 0x1B0C JUMPI PUSH2 0x1B0B PUSH2 0x1A8D JUMP JUMPDEST JUMPDEST PUSH1 0x0 PUSH2 0x1B1A DUP6 DUP3 DUP7 ADD PUSH2 0x1AB3 JUMP JUMPDEST SWAP3 POP POP PUSH1 0x20 PUSH2 0x1B2B DUP6 DUP3 DUP7 ADD PUSH2 0x1AB3 JUMP JUMPDEST SWAP2 POP POP SWAP3 POP SWAP3 SWAP1 POP JUMP JUMPDEST PUSH2 0x1B3E DUP2 PUSH2 0x1A92 JUMP JUMPDEST DUP3 MSTORE POP POP JUMP JUMPDEST PUSH1 0x0 PUSH1 0x40 DUP3 ADD SWAP1 POP PUSH2 0x1B59 PUSH1 0x0 DUP4 ADD DUP6 PUSH2 0x1B35 JUMP JUMPDEST PUSH2 0x1B66 PUSH1 0x20 DUP4 ADD DUP5 PUSH2 0x1B35 JUMP JUMPDEST SWAP4 SWAP3 POP POP POP JUMP JUMPDEST PUSH32 0x4E487B7100000000000000000000000000000000000000000000000000000000 PUSH1 0x0 MSTORE PUSH1 0x11 PUSH1 0x4 MSTORE PUSH1 0x24 PUSH1 0x0 REVERT JUMPDEST PUSH1 0x0 PUSH2 0x1BA7 DUP3 PUSH2 0x1A92 JUMP JUMPDEST SWAP2 POP PUSH2 0x1BB2 DUP4 PUSH2 0x1A92 JUMP JUMPDEST SWAP3 POP DUP3 DUP3 ADD SWAP1 POP DUP1 DUP3 GT ISZERO PUSH2 0x1BCA JUMPI PUSH2 0x1BC9 PUSH2 0x1B6D JUMP JUMPDEST JUMPDEST SWAP3 SWAP2 POP POP JUMP JUMPDEST PUSH1 0x0 PUSH2 0x1BDB DUP3 PUSH2 0x1A92 JUMP JUMPDEST SWAP2 POP PUSH2 0x1BE6 DUP4 PUSH2 0x1A92 JUMP JUMPDEST SWAP3 POP DUP3 DUP3 SUB SWAP1 POP DUP2 DUP2 GT ISZERO PUSH2 0x1BFE JUMPI PUSH2 0x1BFD PUSH2 0x1B6D JUMP JUMPDEST JUMPDEST SWAP3 SWAP2 POP POP JUMP JUMPDEST PUSH1 0x0 PUSH20 0xFFFFFFFFFFFFFFFFFFFFFFFFFFFFFFFFFFFFFFFF DUP3 AND SWAP1 POP SWAP2 SWAP1 POP JUMP JUMPDEST PUSH1 0x0 PUSH2 0x1C2F DUP3 PUSH2 0x1C04 JUMP JUMPDEST SWAP1 POP SWAP2 SWAP1 POP JUMP JUMPDEST PUSH2 0x1C3F DUP2 PUSH2 0x1C24 JUMP JUMPDEST DUP3 MSTORE POP POP JUMP JUMPDEST PUSH1 0x0 PUSH1 0x80 DUP3 ADD SWAP1 POP PUSH2 0x1C5A PUSH1 0x0 DUP4 ADD DUP8 PUSH2 0x1C36 JUMP JUMPDEST PUSH2 0x1C67 PUSH1 0x20 DUP4 ADD DUP7 PUSH2 0x1C36 JUMP JUMPDEST PUSH2 0x1C74 PUSH1 0x40 DUP4 ADD DUP6 PUSH2 0x1B35 JUMP JUMPDEST PUSH2 0x1C81 PUSH1 0x60 DUP4 ADD DUP5 PUSH2 0x1B35 JUMP JUMPDEST SWAP6 SWAP5 POP POP POP POP POP JUMP JUMPDEST PUSH1 0x0 PUSH1 0x40 DUP3 ADD SWAP1 POP PUSH2 0x1C9F PUSH1 0x0 DUP4 ADD DUP6 PUSH2 0x1C36 JUMP JUMPDEST PUSH2 0x1CAC PUSH1 0x20 DUP4 ADD DUP5 PUSH2 0x1C36 JUMP JUMPDEST SWAP4 SWAP3 POP POP POP JUMP JUMPDEST PUSH1 0x0 PUSH2 0x1CBE DUP3 PUSH2 0x1A92 JUMP JUMPDEST SWAP2 POP PUSH32 0xFFFFFFFFFFFFFFFFFFFFFFFFFFFFFFFFFFFFFFFFFFFFFFFFFFFFFFFFFFFFFFFF DUP3 SUB PUSH2 0x1CF0 JUMPI PUSH2 0x1CEF PUSH2 0x1B6D JUMP JUMPDEST JUMPDEST PUSH1 0x1 DUP3 ADD SWAP1 POP SWAP2 SWAP1 POP JUMP JUMPDEST PUSH32 0x4E487B7100000000000000000000000000000000000000000000000000000000 PUSH1 0x0 MSTORE PUSH1 0x32 PUSH1 0x4 MSTORE PUSH1 0x24 PUSH1 0x0 REVERT JUMPDEST PUSH1 0x0 PUSH2 0x1D35 DUP3 PUSH2 0x1A92 JUMP JUMPDEST SWAP2 POP PUSH2 0x1D40 DUP4 PUSH2 0x1A92 JUMP JUMPDEST SWAP3 POP DUP3 DUP3 MUL PUSH2 0x1D4E DUP2 PUSH2 0x1A92 JUMP JUMPDEST SWAP2 POP DUP3 DUP3 DIV DUP5 EQ DUP4 ISZERO OR PUSH2 0x1D65 JUMPI PUSH2 0x1D64 PUSH2 0x1B6D JUMP JUMPDEST JUMPDEST POP SWAP3 SWAP2 POP POP JUMP JUMPDEST PUSH32 0x4E487B7100000000000000000000000000000000000000000000000000000000 PUSH1 0x0 MSTORE PUSH1 0x12 PUSH1 0x4 MSTORE PUSH1 0x24 PUSH1 0x0 REVERT JUMPDEST PUSH1 0x0 PUSH2 0x1DA6 DUP3 PUSH2 0x1A92 JUMP JUMPDEST SWAP2 POP PUSH2 0x1DB1 DUP4 PUSH2 0x1A92 JUMP JUMPDEST SWAP3 POP DUP3 PUSH2 0x1DC1 JUMPI PUSH2 0x1DC0 PUSH2 0x1D6C JUMP JUMPDEST JUMPDEST DUP3 DUP3 DIV SWAP1 POP SWAP3 SWAP2 POP POP JUMP JUMPDEST PUSH1 0x0 DUP3 DUP3 MSTORE PUSH1 0x20 DUP3 ADD SWAP1 POP SWAP3 SWAP2 POP POP JUMP JUMPDEST PUSH32 0x4E6F20627579206F726465727320617661696C61626C65000000000000000000 PUSH1 0x0 DUP3 ADD MSTORE POP JUMP JUMPDEST PUSH1 0x0 PUSH2 0x1E13 PUSH1 0x17 DUP4 PUSH2 0x1DCC JUMP JUMPDEST SWAP2 POP PUSH2 0x1E1E DUP3 PUSH2 0x1DDD JUMP JUMPDEST PUSH1 0x20 DUP3 ADD SWAP1 POP SWAP2 SWAP1 POP JUMP JUMPDEST PUSH1 0x0 PUSH1 0x20 DUP3 ADD SWAP1 POP DUP2 DUP2 SUB PUSH1 0x0 DUP4 ADD MSTORE PUSH2 0x1E42 DUP2 PUSH2 0x1E06 JUMP JUMPDEST SWAP1 POP SWAP2 SWAP1 POP JUMP JUMPDEST PUSH32 0x4E487B7100000000000000000000000000000000000000000000000000000000 PUSH1 0x0 MSTORE PUSH1 0x31 PUSH1 0x4 MSTORE PUSH1 0x24 PUSH1 0x0 REVERT JUMPDEST PUSH32 0x4E6F2073656C6C206F726465727320617661696C61626C650000000000000000 PUSH1 0x0 DUP3 ADD MSTORE POP JUMP JUMPDEST PUSH1 0x0 PUSH2 0x1EAE PUSH1 0x18 DUP4 PUSH2 0x1DCC JUMP JUMPDEST SWAP2 POP PUSH2 0x1EB9 DUP3 PUSH2 0x1E78 JUMP JUMPDEST PUSH1 0x20 DUP3 ADD SWAP1 POP SWAP2 SWAP1 POP JUMP JUMPDEST PUSH1 0x0 PUSH1 0x20 DUP3 ADD SWAP1 POP DUP2 DUP2 SUB PUSH1 0x0 DUP4 ADD MSTORE PUSH2 0x1EDD DUP2 PUSH2 0x1EA1 JUMP JUMPDEST SWAP1 POP SWAP2 SWAP1 POP JUMP INVALID LOG2 PUSH5 0x6970667358 0x22 SLT KECCAK256 0xC8 0xE5 SMOD PUSH2 0x4CD5 PUSH32 0xC438BA0D4C0FB8ED3073875209FB77D9DF575A3C0C218A6EE564736F6C634300 ADDMOD GT STOP CALLER "},"methodIdentifiers":{"addBuyOrder(uint256,uint256)":"9049681c","addSellOrder(uint256,uint256)":"3acde419","cancelBuyOrder(uint256)":"be5d147f","cancelSellOrder(uint256)":"1a46e42a","claimBuyLimitOrder(uint256)":"7e78e05f","claimSellLimitOrder(uint256)":"02e0d258","placeAndExecuteMarketBuy(uint256)":"ab0bcaaa","placeAndExecuteMarketSell(uint256)":"5998dbe6","pricePoints()":"3f146088"}}}}}