{"contracts/OrderBook.sol":{"OrderBook":{"abi":[{"inputs":[{"internalType":"address","name":"_positionManager","type":"address"},{"internalType":"address","name":"_marginAccount","type":"address"},{"internalType":"address","name":"_tokenAddress","type":"address"}],"stateMutability":"nonpayable","type":"constructor"},{"inputs":[{"internalType":"uint256","name":"price","type":"uint256"},{"internalType":"uint256","name":"size","type":"uint256"}],"name":"addBuyOrder","outputs":[],"stateMutability":"nonpayable","type":"function"},{"inputs":[{"internalType":"uint256","name":"price","type":"uint256"},{"internalType":"uint256","name":"size","type":"uint256"}],"name":"addSellOrder","outputs":[],"stateMutability":"nonpayable","type":"function"},{"inputs":[{"internalType":"uint256","name":"_orderId","type":"uint256"}],"name":"cancelBuyOrder","outputs":[],"stateMutability":"nonpayable","type":"function"},{"inputs":[{"internalType":"uint256","name":"_orderId","type":"uint256"}],"name":"cancelSellOrder","outputs":[],"stateMutability":"nonpayable","type":"function"},{"inputs":[{"internalType":"uint256","name":"_orderId","type":"uint256"}],"name":"claimBuyLimitOrder","outputs":[],"stateMutability":"nonpayable","type":"function"},{"inputs":[{"internalType":"uint256","name":"_orderId","type":"uint256"}],"name":"claimSellLimitOrder","outputs":[],"stateMutability":"nonpayable","type":"function"},{"inputs":[{"internalType":"uint256","name":"_size","type":"uint256"}],"name":"placeAndExecuteMarketBuy","outputs":[],"stateMutability":"nonpayable","type":"function"},{"inputs":[{"internalType":"uint256","name":"_size","type":"uint256"}],"name":"placeAndExecuteMarketSell","outputs":[],"stateMutability":"nonpayable","type":"function"},{"inputs":[],"name":"pricePoints","outputs":[{"internalType":"uint256","name":"","type":"uint256"},{"internalType":"uint256","name":"","type":"uint256"}],"stateMutability":"view","type":"function"}],"evm":{"bytecode":{"linkReferences":{},"object":"60806040523480156200001157600080fd5b50604051620022f4380380620022f483398181016040528101906200003791906200016d565b81600760006101000a81548173ffffffffffffffffffffffffffffffffffffffff021916908373ffffffffffffffffffffffffffffffffffffffff16021790555082600660006101000a81548173ffffffffffffffffffffffffffffffffffffffff021916908373ffffffffffffffffffffffffffffffffffffffff16021790555080600860006101000a81548173ffffffffffffffffffffffffffffffffffffffff021916908373ffffffffffffffffffffffffffffffffffffffff160217905550505050620001c9565b600080fd5b600073ffffffffffffffffffffffffffffffffffffffff82169050919050565b6000620001358262000108565b9050919050565b620001478162000128565b81146200015357600080fd5b50565b60008151905062000167816200013c565b92915050565b60008060006060848603121562000189576200018862000103565b5b6000620001998682870162000156565b9350506020620001ac8682870162000156565b9250506040620001bf8682870162000156565b9150509250925092565b61211b80620001d96000396000f3fe608060405234801561001057600080fd5b50600436106100935760003560e01c80635998dbe6116100665780635998dbe61461010b5780637e78e05f146101275780639049681c14610143578063ab0bcaaa1461015f578063be5d147f1461017b57610093565b806302e0d258146100985780631a46e42a146100b45780633acde419146100d05780633f146088146100ec575b600080fd5b6100b260048036038101906100ad9190611c42565b610197565b005b6100ce60048036038101906100c99190611c42565b6104d7565b005b6100ea60048036038101906100e59190611c6f565b610689565b005b6100f461078f565b604051610102929190611cbe565b60405180910390f35b61012560048036038101906101209190611c42565b6107d9565b005b610141600480360381019061013c9190611c42565b610a96565b005b61015d60048036038101906101589190611c6f565b610dd6565b005b61017960048036038101906101749190611c42565b610edc565b005b61019560048036038101906101909190611c42565b611155565b005b60006002600083815260200190815260200160002090508060030160009054906101000a900473ffffffffffffffffffffffffffffffffffffffff1673ffffffffffffffffffffffffffffffffffffffff163373ffffffffffffffffffffffffffffffffffffffff161461020a57600080fd5b600060046000836000015481526020019081526020016000209050806000015481600201546102399190611d16565b82600201541061024857600080fd5b60008260020154826000015483600201546102639190611d16565b61026d9190611d4a565b90506000836001015482116102825781610288565b83600101545b90508084600101600082825461029e9190611d4a565b92505081905550808360000160008282546102b99190611d16565b92505081905550808360020160008282546102d49190611d4a565b92505081905550600660009054906101000a900473ffffffffffffffffffffffffffffffffffffffff1673ffffffffffffffffffffffffffffffffffffffff1663083d2bdb33600860009054906101000a900473ffffffffffffffffffffffffffffffffffffffff168461036c6402540be40061035e8b600001548961130790919063ffffffff16565b61131d90919063ffffffff16565b6040518563ffffffff1660e01b815260040161038b9493929190611dbf565b600060405180830381600087803b1580156103a557600080fd5b505af11580156103b9573d6000803e3d6000fd5b5050505060008460010154036104d05760026000868152602001908152602001600020600080820160009055600182016000905560028201600090556003820160006101000a81549073ffffffffffffffffffffffffffffffffffffffff02191690555050600760009054906101000a900473ffffffffffffffffffffffffffffffffffffffff1673ffffffffffffffffffffffffffffffffffffffff1663bc73473b33600860009054906101000a900473ffffffffffffffffffffffffffffffffffffffff166040518363ffffffff1660e01b815260040161049d929190611e04565b600060405180830381600087803b1580156104b757600080fd5b505af11580156104cb573d6000803e3d6000fd5b505050505b5050505050565b60006002600083815260200190815260200160002090508060030160009054906101000a900473ffffffffffffffffffffffffffffffffffffffff1673ffffffffffffffffffffffffffffffffffffffff163373ffffffffffffffffffffffffffffffffffffffff161461054a57600080fd5b8060010154600460008360000154815260200190815260200160002060000160008282546105789190611d16565b9250508190555060026000838152602001908152602001600020600080820160009055600182016000905560028201600090556003820160006101000a81549073ffffffffffffffffffffffffffffffffffffffff02191690555050600760009054906101000a900473ffffffffffffffffffffffffffffffffffffffff1673ffffffffffffffffffffffffffffffffffffffff1663bc73473b33600860009054906101000a900473ffffffffffffffffffffffffffffffffffffffff166040518363ffffffff1660e01b8152600401610653929190611e04565b600060405180830381600087803b15801561066d57600080fd5b505af1158015610681573d6000803e3d6000fd5b505050505050565b6005600081548092919061069c90611e2d565b9190505550600060046000848152602001908152602001600020905060008160010154036106ce576106cd83611333565b5b6106d981848461146d565b600760009054906101000a900473ffffffffffffffffffffffffffffffffffffffff1673ffffffffffffffffffffffffffffffffffffffff1663466730ff33600860009054906101000a900473ffffffffffffffffffffffffffffffffffffffff166040518363ffffffff1660e01b8152600401610758929190611e04565b600060405180830381600087803b15801561077257600080fd5b505af1158015610786573d6000803e3d6000fd5b50505050505050565b60008060016000815481106107a7576107a6611e75565b5b9060005260206000200154600080815481106107c6576107c5611e75565b5b9060005260206000200154915091509091565b6000811161081c576040517f08c379a000000000000000000000000000000000000000000000000000000000815260040161081390611f01565b60405180910390fd5b6108258161155e565b6000600360008060008154811061083f5761083e611e75565b5b90600052602060002001548152602001908152602001600020905060008160020154826000015483600101546108759190611d4a565b61087f9190611d4a565b905060005b81841115610958576108bd600080815481106108a3576108a2611e75565b5b90600052602060002001548361130790919063ffffffff16565b816108c89190611d16565b9050818360020160008282546108de9190611d16565b9250508190555081846108f19190611d4a565b93506108fb6115f7565b600360008060008154811061091357610912611e75565b5b9060005260206000200154815260200190815260200160002092508260020154836000015484600101546109479190611d4a565b6109519190611d4a565b9150610884565b60008411156109bb576109926000808154811061097857610977611e75565b5b90600052602060002001548561130790919063ffffffff16565b8161099d9190611d16565b9050838360020160008282546109b39190611d16565b925050819055505b6109c48161155e565b600660009054906101000a900473ffffffffffffffffffffffffffffffffffffffff1673ffffffffffffffffffffffffffffffffffffffff1663083d2bdb33600860009054906101000a900473ffffffffffffffffffffffffffffffffffffffff1687610a3f6402540be4008761131d90919063ffffffff16565b6040518563ffffffff1660e01b8152600401610a5e9493929190611dbf565b600060405180830381600087803b158015610a7857600080fd5b505af1158015610a8c573d6000803e3d6000fd5b5050505050505050565b60006002600083815260200190815260200160002090508060030160009054906101000a900473ffffffffffffffffffffffffffffffffffffffff1673ffffffffffffffffffffffffffffffffffffffff163373ffffffffffffffffffffffffffffffffffffffff1614610b0957600080fd5b60006003600083600001548152602001908152602001600020905080600001548160020154610b389190611d16565b826002015410610b4757600080fd5b6000826002015482600001548360020154610b629190611d16565b610b6c9190611d4a565b9050600083600101548211610b815781610b87565b83600101545b905080846001016000828254610b9d9190611d4a565b9250508190555080836000016000828254610bb89190611d16565b9250508190555080836002016000828254610bd39190611d4a565b92505081905550600660009054906101000a900473ffffffffffffffffffffffffffffffffffffffff1673ffffffffffffffffffffffffffffffffffffffff1663abb2361e33600860009054906101000a900473ffffffffffffffffffffffffffffffffffffffff1684610c6b6402540be400610c5d8b600001548961130790919063ffffffff16565b61131d90919063ffffffff16565b6040518563ffffffff1660e01b8152600401610c8a9493929190611dbf565b600060405180830381600087803b158015610ca457600080fd5b505af1158015610cb8573d6000803e3d6000fd5b505050506000846001015403610dcf5760026000868152602001908152602001600020600080820160009055600182016000905560028201600090556003820160006101000a81549073ffffffffffffffffffffffffffffffffffffffff02191690555050600760009054906101000a900473ffffffffffffffffffffffffffffffffffffffff1673ffffffffffffffffffffffffffffffffffffffff1663bc73473b33600860009054906101000a900473ffffffffffffffffffffffffffffffffffffffff166040518363ffffffff1660e01b8152600401610d9c929190611e04565b600060405180830381600087803b158015610db657600080fd5b505af1158015610dca573d6000803e3d6000fd5b505050505b5050505050565b60056000815480929190610de990611e2d565b919050555060006003600084815260200190815260200160002090506000816001015403610e1b57610e1a836116cc565b5b610e2681848461146d565b600760009054906101000a900473ffffffffffffffffffffffffffffffffffffffff1673ffffffffffffffffffffffffffffffffffffffff1663466730ff33600860009054906101000a900473ffffffffffffffffffffffffffffffffffffffff166040518363ffffffff1660e01b8152600401610ea5929190611e04565b600060405180830381600087803b158015610ebf57600080fd5b505af1158015610ed3573d6000803e3d6000fd5b50505050505050565b60008111610ee957600080fd5b6000600460006001600081548110610f0457610f03611e75565b5b9060005260206000200154815260200190815260200160002090506000816002015482600001548360010154610f3a9190611d4a565b610f449190611d4a565b905060005b8184111561101f57610f836001600081548110610f6957610f68611e75565b5b90600052602060002001548361130790919063ffffffff16565b81610f8e9190611d16565b905081836002016000828254610fa49190611d16565b925050819055508184610fb79190611d4a565b9350610fc1611804565b600460006001600081548110610fda57610fd9611e75565b5b90600052602060002001548152602001908152602001600020925082600201548360000154846001015461100e9190611d4a565b6110189190611d4a565b9150610f49565b60008411156110835761105a60016000815481106110405761103f611e75565b5b90600052602060002001548561130790919063ffffffff16565b816110659190611d16565b90508383600201600082825461107b9190611d16565b925050819055505b600660009054906101000a900473ffffffffffffffffffffffffffffffffffffffff1673ffffffffffffffffffffffffffffffffffffffff1663abb2361e33600860009054906101000a900473ffffffffffffffffffffffffffffffffffffffff16876110fe6402540be4008761131d90919063ffffffff16565b6040518563ffffffff1660e01b815260040161111d9493929190611dbf565b600060405180830381600087803b15801561113757600080fd5b505af115801561114b573d6000803e3d6000fd5b5050505050505050565b60006002600083815260200190815260200160002090508060030160009054906101000a900473ffffffffffffffffffffffffffffffffffffffff1673ffffffffffffffffffffffffffffffffffffffff163373ffffffffffffffffffffffffffffffffffffffff16146111c857600080fd5b8060010154600360008360000154815260200190815260200160002060000160008282546111f69190611d16565b9250508190555060026000838152602001908152602001600020600080820160009055600182016000905560028201600090556003820160006101000a81549073ffffffffffffffffffffffffffffffffffffffff02191690555050600760009054906101000a900473ffffffffffffffffffffffffffffffffffffffff1673ffffffffffffffffffffffffffffffffffffffff1663bc73473b33600860009054906101000a900473ffffffffffffffffffffffffffffffffffffffff166040518363ffffffff1660e01b81526004016112d1929190611e04565b600060405180830381600087803b1580156112eb57600080fd5b505af11580156112ff573d6000803e3d6000fd5b505050505050565b600081836113159190611f21565b905092915050565b6000818361132b9190611f92565b905092915050565b6000600180549050905060018290806001815401808255809150506001900390600052602060002001600090919091909150555b600081111561146957600060026001836113819190611d4a565b61138b9190611f92565b9050600182815481106113a1576113a0611e75565b5b9060005260206000200154600182815481106113c0576113bf611e75565b5b9060005260206000200154116113d65750611469565b600181815481106113ea576113e9611e75565b5b90600052602060002001546001838154811061140957611408611e75565b5b90600052602060002001546001848154811061142857611427611e75565b5b9060005260206000200160006001858154811061144857611447611e75565b5b90600052602060002001600084919050558391905055505080915050611367565b5050565b600080846001015414611484578360010154611487565b60005b905060405180608001604052808481526020018381526020018281526020013373ffffffffffffffffffffffffffffffffffffffff1681525060026000600554815260200190815260200160002060008201518160000155602082015181600101556040820151816002015560608201518160030160006101000a81548173ffffffffffffffffffffffffffffffffffffffff021916908373ffffffffffffffffffffffffffffffffffffffff160217905550905050818460010160008282546115519190611d16565b9250508190555050505050565b6115f4816040516024016115729190611fc3565b6040516020818303038152906040527ff82c50f1000000000000000000000000000000000000000000000000000000007bffffffffffffffffffffffffffffffffffffffffffffffffffffffff19166020820180517bffffffffffffffffffffffffffffffffffffffffffffffffffffffff83818316178352505050506118d7565b50565b60016000805490501015611640576040517f08c379a00000000000000000000000000000000000000000000000000000000081526004016116379061202a565b60405180910390fd5b600060016000805490506116549190611d4a565b90506000818154811061166a57611669611e75565b5b90600052602060002001546000808154811061168957611688611e75565b5b906000526020600020018190555060008054806116a9576116a861204a565b5b600190038181906000526020600020016000905590556116c96000611900565b50565b60008080549050905060008290806001815401808255809150506001900390600052602060002001600090919091909150555b600081111561180057600060026001836117199190611d4a565b6117239190611f92565b90506000828154811061173957611738611e75565b5b90600052602060002001546000828154811061175857611757611e75565b5b90600052602060002001541061176e5750611800565b6000818154811061178257611781611e75565b5b9060005260206000200154600083815481106117a1576117a0611e75565b5b9060005260206000200154600084815481106117c0576117bf611e75565b5b9060005260206000200160008085815481106117df576117de611e75565b5b906000526020600020016000849190505583919050555050809150506116ff565b5050565b600180805490501161184b576040517f08c379a0000000000000000000000000000000000000000000000000000000008152600401611842906120c5565b60405180910390fd5b60006001808054905061185e9190611d4a565b90506001818154811061187457611873611e75565b5b9060005260206000200154600160008154811061189457611893611e75565b5b906000526020600020018190555060018054806118b4576118b361204a565b5b600190038181906000526020600020016000905590556118d46000611a83565b50565b60008151905060006a636f6e736f6c652e6c6f679050602083016000808483855afa5050505050565b600060016002836119119190611f21565b61191b9190611d16565b9050600060028261192c9190611d16565b905060008390506000805490508310801561198257506000818154811061195657611955611e75565b5b90600052602060002001546000848154811061197557611974611e75565b5b9060005260206000200154115b1561198b578290505b600080549050821080156119da5750600081815481106119ae576119ad611e75565b5b9060005260206000200154600083815481106119cd576119cc611e75565b5b9060005260206000200154115b156119e3578190505b838114611a7d57600081815481106119fe576119fd611e75565b5b906000526020600020015460008581548110611a1d57611a1c611e75565b5b906000526020600020015460008681548110611a3c57611a3b611e75565b5b906000526020600020016000808581548110611a5b57611a5a611e75565b5b906000526020600020016000849190505583919050555050611a7c81611900565b5b50505050565b60006001600283611a949190611f21565b611a9e9190611d16565b90506000600282611aaf9190611d16565b9050600083905060018054905083108015611b05575060018181548110611ad957611ad8611e75565b5b906000526020600020015460018481548110611af857611af7611e75565b5b9060005260206000200154105b15611b0e578290505b60018054905082108015611b5d575060018181548110611b3157611b30611e75565b5b906000526020600020015460018381548110611b5057611b4f611e75565b5b9060005260206000200154105b15611b66578190505b838114611c015760018181548110611b8157611b80611e75565b5b906000526020600020015460018581548110611ba057611b9f611e75565b5b906000526020600020015460018681548110611bbf57611bbe611e75565b5b90600052602060002001600060018581548110611bdf57611bde611e75565b5b906000526020600020016000849190505583919050555050611c0081611a83565b5b50505050565b600080fd5b6000819050919050565b611c1f81611c0c565b8114611c2a57600080fd5b50565b600081359050611c3c81611c16565b92915050565b600060208284031215611c5857611c57611c07565b5b6000611c6684828501611c2d565b91505092915050565b60008060408385031215611c8657611c85611c07565b5b6000611c9485828601611c2d565b9250506020611ca585828601611c2d565b9150509250929050565b611cb881611c0c565b82525050565b6000604082019050611cd36000830185611caf565b611ce06020830184611caf565b9392505050565b7f4e487b7100000000000000000000000000000000000000000000000000000000600052601160045260246000fd5b6000611d2182611c0c565b9150611d2c83611c0c565b9250828201905080821115611d4457611d43611ce7565b5b92915050565b6000611d5582611c0c565b9150611d6083611c0c565b9250828203905081811115611d7857611d77611ce7565b5b92915050565b600073ffffffffffffffffffffffffffffffffffffffff82169050919050565b6000611da982611d7e565b9050919050565b611db981611d9e565b82525050565b6000608082019050611dd46000830187611db0565b611de16020830186611db0565b611dee6040830185611caf565b611dfb6060830184611caf565b95945050505050565b6000604082019050611e196000830185611db0565b611e266020830184611db0565b9392505050565b6000611e3882611c0c565b91507fffffffffffffffffffffffffffffffffffffffffffffffffffffffffffffffff8203611e6a57611e69611ce7565b5b600182019050919050565b7f4e487b7100000000000000000000000000000000000000000000000000000000600052603260045260246000fd5b600082825260208201905092915050565b7f73697a652063616e277420626520300000000000000000000000000000000000600082015250565b6000611eeb600f83611ea4565b9150611ef682611eb5565b602082019050919050565b60006020820190508181036000830152611f1a81611ede565b9050919050565b6000611f2c82611c0c565b9150611f3783611c0c565b9250828202611f4581611c0c565b91508282048414831517611f5c57611f5b611ce7565b5b5092915050565b7f4e487b7100000000000000000000000000000000000000000000000000000000600052601260045260246000fd5b6000611f9d82611c0c565b9150611fa883611c0c565b925082611fb857611fb7611f63565b5b828204905092915050565b6000602082019050611fd86000830184611caf565b92915050565b7f4e6f20627579206f726465727320617661696c61626c65000000000000000000600082015250565b6000612014601783611ea4565b915061201f82611fde565b602082019050919050565b6000602082019050818103600083015261204381612007565b9050919050565b7f4e487b7100000000000000000000000000000000000000000000000000000000600052603160045260246000fd5b7f4e6f2073656c6c206f726465727320617661696c61626c650000000000000000600082015250565b60006120af601883611ea4565b91506120ba82612079565b602082019050919050565b600060208201905081810360008301526120de816120a2565b905091905056fea26469706673582212206ac7612d944b2ccd158143722d9aab39e8eb672302b124d7790057c5d9a9de1c64736f6c63430008110033","opcodes":"PUSH1 0x80 PUSH1 0x40 MSTORE CALLVALUE DUP1 ISZERO PUSH3 0x11 JUMPI PUSH1 0x0 DUP1 REVERT JUMPDEST POP PUSH1 0x40 MLOAD PUSH3 0x22F4 CODESIZE SUB DUP1 PUSH3 0x22F4 DUP4 CODECOPY DUP2 DUP2 ADD PUSH1 0x40 MSTORE DUP2 ADD SWAP1 PUSH3 0x37 SWAP2 SWAP1 PUSH3 0x16D JUMP JUMPDEST DUP2 PUSH1 0x7 PUSH1 0x0 PUSH2 0x100 EXP DUP2 SLOAD DUP2 PUSH20 0xFFFFFFFFFFFFFFFFFFFFFFFFFFFFFFFFFFFFFFFF MUL NOT AND SWAP1 DUP4 PUSH20 0xFFFFFFFFFFFFFFFFFFFFFFFFFFFFFFFFFFFFFFFF AND MUL OR SWAP1 SSTORE POP DUP3 PUSH1 0x6 PUSH1 0x0 PUSH2 0x100 EXP DUP2 SLOAD DUP2 PUSH20 0xFFFFFFFFFFFFFFFFFFFFFFFFFFFFFFFFFFFFFFFF MUL NOT AND SWAP1 DUP4 PUSH20 0xFFFFFFFFFFFFFFFFFFFFFFFFFFFFFFFFFFFFFFFF AND MUL OR SWAP1 SSTORE POP DUP1 PUSH1 0x8 PUSH1 0x0 PUSH2 0x100 EXP DUP2 SLOAD DUP2 PUSH20 0xFFFFFFFFFFFFFFFFFFFFFFFFFFFFFFFFFFFFFFFF MUL NOT AND SWAP1 DUP4 PUSH20 0xFFFFFFFFFFFFFFFFFFFFFFFFFFFFFFFFFFFFFFFF AND MUL OR SWAP1 SSTORE POP POP POP POP PUSH3 0x1C9 JUMP JUMPDEST PUSH1 0x0 DUP1 REVERT JUMPDEST PUSH1 0x0 PUSH20 0xFFFFFFFFFFFFFFFFFFFFFFFFFFFFFFFFFFFFFFFF DUP3 AND SWAP1 POP SWAP2 SWAP1 POP JUMP JUMPDEST PUSH1 0x0 PUSH3 0x135 DUP3 PUSH3 0x108 JUMP JUMPDEST SWAP1 POP SWAP2 SWAP1 POP JUMP JUMPDEST PUSH3 0x147 DUP2 PUSH3 0x128 JUMP JUMPDEST DUP2 EQ PUSH3 0x153 JUMPI PUSH1 0x0 DUP1 REVERT JUMPDEST POP JUMP JUMPDEST PUSH1 0x0 DUP2 MLOAD SWAP1 POP PUSH3 0x167 DUP2 PUSH3 0x13C JUMP JUMPDEST SWAP3 SWAP2 POP POP JUMP JUMPDEST PUSH1 0x0 DUP1 PUSH1 0x0 PUSH1 0x60 DUP5 DUP7 SUB SLT ISZERO PUSH3 0x189 JUMPI PUSH3 0x188 PUSH3 0x103 JUMP JUMPDEST JUMPDEST PUSH1 0x0 PUSH3 0x199 DUP7 DUP3 DUP8 ADD PUSH3 0x156 JUMP JUMPDEST SWAP4 POP POP PUSH1 0x20 PUSH3 0x1AC DUP7 DUP3 DUP8 ADD PUSH3 0x156 JUMP JUMPDEST SWAP3 POP POP PUSH1 0x40 PUSH3 0x1BF DUP7 DUP3 DUP8 ADD PUSH3 0x156 JUMP JUMPDEST SWAP2 POP POP SWAP3 POP SWAP3 POP SWAP3 JUMP JUMPDEST PUSH2 0x211B DUP1 PUSH3 0x1D9 PUSH1 0x0 CODECOPY PUSH1 0x0 RETURN INVALID PUSH1 0x80 PUSH1 0x40 MSTORE CALLVALUE DUP1 ISZERO PUSH2 0x10 JUMPI PUSH1 0x0 DUP1 REVERT JUMPDEST POP PUSH1 0x4 CALLDATASIZE LT PUSH2 0x93 JUMPI PUSH1 0x0 CALLDATALOAD PUSH1 0xE0 SHR DUP1 PUSH4 0x5998DBE6 GT PUSH2 0x66 JUMPI DUP1 PUSH4 0x5998DBE6 EQ PUSH2 0x10B JUMPI DUP1 PUSH4 0x7E78E05F EQ PUSH2 0x127 JUMPI DUP1 PUSH4 0x9049681C EQ PUSH2 0x143 JUMPI DUP1 PUSH4 0xAB0BCAAA EQ PUSH2 0x15F JUMPI DUP1 PUSH4 0xBE5D147F EQ PUSH2 0x17B JUMPI PUSH2 0x93 JUMP JUMPDEST DUP1 PUSH4 0x2E0D258 EQ PUSH2 0x98 JUMPI DUP1 PUSH4 0x1A46E42A EQ PUSH2 0xB4 JUMPI DUP1 PUSH4 0x3ACDE419 EQ PUSH2 0xD0 JUMPI DUP1 PUSH4 0x3F146088 EQ PUSH2 0xEC JUMPI JUMPDEST PUSH1 0x0 DUP1 REVERT JUMPDEST PUSH2 0xB2 PUSH1 0x4 DUP1 CALLDATASIZE SUB DUP2 ADD SWAP1 PUSH2 0xAD SWAP2 SWAP1 PUSH2 0x1C42 JUMP JUMPDEST PUSH2 0x197 JUMP JUMPDEST STOP JUMPDEST PUSH2 0xCE PUSH1 0x4 DUP1 CALLDATASIZE SUB DUP2 ADD SWAP1 PUSH2 0xC9 SWAP2 SWAP1 PUSH2 0x1C42 JUMP JUMPDEST PUSH2 0x4D7 JUMP JUMPDEST STOP JUMPDEST PUSH2 0xEA PUSH1 0x4 DUP1 CALLDATASIZE SUB DUP2 ADD SWAP1 PUSH2 0xE5 SWAP2 SWAP1 PUSH2 0x1C6F JUMP JUMPDEST PUSH2 0x689 JUMP JUMPDEST STOP JUMPDEST PUSH2 0xF4 PUSH2 0x78F JUMP JUMPDEST PUSH1 0x40 MLOAD PUSH2 0x102 SWAP3 SWAP2 SWAP1 PUSH2 0x1CBE JUMP JUMPDEST PUSH1 0x40 MLOAD DUP1 SWAP2 SUB SWAP1 RETURN JUMPDEST PUSH2 0x125 PUSH1 0x4 DUP1 CALLDATASIZE SUB DUP2 ADD SWAP1 PUSH2 0x120 SWAP2 SWAP1 PUSH2 0x1C42 JUMP JUMPDEST PUSH2 0x7D9 JUMP JUMPDEST STOP JUMPDEST PUSH2 0x141 PUSH1 0x4 DUP1 CALLDATASIZE SUB DUP2 ADD SWAP1 PUSH2 0x13C SWAP2 SWAP1 PUSH2 0x1C42 JUMP JUMPDEST PUSH2 0xA96 JUMP JUMPDEST STOP JUMPDEST PUSH2 0x15D PUSH1 0x4 DUP1 CALLDATASIZE SUB DUP2 ADD SWAP1 PUSH2 0x158 SWAP2 SWAP1 PUSH2 0x1C6F JUMP JUMPDEST PUSH2 0xDD6 JUMP JUMPDEST STOP JUMPDEST PUSH2 0x179 PUSH1 0x4 DUP1 CALLDATASIZE SUB DUP2 ADD SWAP1 PUSH2 0x174 SWAP2 SWAP1 PUSH2 0x1C42 JUMP JUMPDEST PUSH2 0xEDC JUMP JUMPDEST STOP JUMPDEST PUSH2 0x195 PUSH1 0x4 DUP1 CALLDATASIZE SUB DUP2 ADD SWAP1 PUSH2 0x190 SWAP2 SWAP1 PUSH2 0x1C42 JUMP JUMPDEST PUSH2 0x1155 JUMP JUMPDEST STOP JUMPDEST PUSH1 0x0 PUSH1 0x2 PUSH1 0x0 DUP4 DUP2 MSTORE PUSH1 0x20 ADD SWAP1 DUP2 MSTORE PUSH1 0x20 ADD PUSH1 0x0 KECCAK256 SWAP1 POP DUP1 PUSH1 0x3 ADD PUSH1 0x0 SWAP1 SLOAD SWAP1 PUSH2 0x100 EXP SWAP1 DIV PUSH20 0xFFFFFFFFFFFFFFFFFFFFFFFFFFFFFFFFFFFFFFFF AND PUSH20 0xFFFFFFFFFFFFFFFFFFFFFFFFFFFFFFFFFFFFFFFF AND CALLER PUSH20 0xFFFFFFFFFFFFFFFFFFFFFFFFFFFFFFFFFFFFFFFF AND EQ PUSH2 0x20A JUMPI PUSH1 0x0 DUP1 REVERT JUMPDEST PUSH1 0x0 PUSH1 0x4 PUSH1 0x0 DUP4 PUSH1 0x0 ADD SLOAD DUP2 MSTORE PUSH1 0x20 ADD SWAP1 DUP2 MSTORE PUSH1 0x20 ADD PUSH1 0x0 KECCAK256 SWAP1 POP DUP1 PUSH1 0x0 ADD SLOAD DUP2 PUSH1 0x2 ADD SLOAD PUSH2 0x239 SWAP2 SWAP1 PUSH2 0x1D16 JUMP JUMPDEST DUP3 PUSH1 0x2 ADD SLOAD LT PUSH2 0x248 JUMPI PUSH1 0x0 DUP1 REVERT JUMPDEST PUSH1 0x0 DUP3 PUSH1 0x2 ADD SLOAD DUP3 PUSH1 0x0 ADD SLOAD DUP4 PUSH1 0x2 ADD SLOAD PUSH2 0x263 SWAP2 SWAP1 PUSH2 0x1D16 JUMP JUMPDEST PUSH2 0x26D SWAP2 SWAP1 PUSH2 0x1D4A JUMP JUMPDEST SWAP1 POP PUSH1 0x0 DUP4 PUSH1 0x1 ADD SLOAD DUP3 GT PUSH2 0x282 JUMPI DUP2 PUSH2 0x288 JUMP JUMPDEST DUP4 PUSH1 0x1 ADD SLOAD JUMPDEST SWAP1 POP DUP1 DUP5 PUSH1 0x1 ADD PUSH1 0x0 DUP3 DUP3 SLOAD PUSH2 0x29E SWAP2 SWAP1 PUSH2 0x1D4A JUMP JUMPDEST SWAP3 POP POP DUP2 SWAP1 SSTORE POP DUP1 DUP4 PUSH1 0x0 ADD PUSH1 0x0 DUP3 DUP3 SLOAD PUSH2 0x2B9 SWAP2 SWAP1 PUSH2 0x1D16 JUMP JUMPDEST SWAP3 POP POP DUP2 SWAP1 SSTORE POP DUP1 DUP4 PUSH1 0x2 ADD PUSH1 0x0 DUP3 DUP3 SLOAD PUSH2 0x2D4 SWAP2 SWAP1 PUSH2 0x1D4A JUMP JUMPDEST SWAP3 POP POP DUP2 SWAP1 SSTORE POP PUSH1 0x6 PUSH1 0x0 SWAP1 SLOAD SWAP1 PUSH2 0x100 EXP SWAP1 DIV PUSH20 0xFFFFFFFFFFFFFFFFFFFFFFFFFFFFFFFFFFFFFFFF AND PUSH20 0xFFFFFFFFFFFFFFFFFFFFFFFFFFFFFFFFFFFFFFFF AND PUSH4 0x83D2BDB CALLER PUSH1 0x8 PUSH1 0x0 SWAP1 SLOAD SWAP1 PUSH2 0x100 EXP SWAP1 DIV PUSH20 0xFFFFFFFFFFFFFFFFFFFFFFFFFFFFFFFFFFFFFFFF AND DUP5 PUSH2 0x36C PUSH5 0x2540BE400 PUSH2 0x35E DUP12 PUSH1 0x0 ADD SLOAD DUP10 PUSH2 0x1307 SWAP1 SWAP2 SWAP1 PUSH4 0xFFFFFFFF AND JUMP JUMPDEST PUSH2 0x131D SWAP1 SWAP2 SWAP1 PUSH4 0xFFFFFFFF AND JUMP JUMPDEST PUSH1 0x40 MLOAD DUP6 PUSH4 0xFFFFFFFF AND PUSH1 0xE0 SHL DUP2 MSTORE PUSH1 0x4 ADD PUSH2 0x38B SWAP5 SWAP4 SWAP3 SWAP2 SWAP1 PUSH2 0x1DBF JUMP JUMPDEST PUSH1 0x0 PUSH1 0x40 MLOAD DUP1 DUP4 SUB DUP2 PUSH1 0x0 DUP8 DUP1 EXTCODESIZE ISZERO DUP1 ISZERO PUSH2 0x3A5 JUMPI PUSH1 0x0 DUP1 REVERT JUMPDEST POP GAS CALL ISZERO DUP1 ISZERO PUSH2 0x3B9 JUMPI RETURNDATASIZE PUSH1 0x0 DUP1 RETURNDATACOPY RETURNDATASIZE PUSH1 0x0 REVERT JUMPDEST POP POP POP POP PUSH1 0x0 DUP5 PUSH1 0x1 ADD SLOAD SUB PUSH2 0x4D0 JUMPI PUSH1 0x2 PUSH1 0x0 DUP7 DUP2 MSTORE PUSH1 0x20 ADD SWAP1 DUP2 MSTORE PUSH1 0x20 ADD PUSH1 0x0 KECCAK256 PUSH1 0x0 DUP1 DUP3 ADD PUSH1 0x0 SWAP1 SSTORE PUSH1 0x1 DUP3 ADD PUSH1 0x0 SWAP1 SSTORE PUSH1 0x2 DUP3 ADD PUSH1 0x0 SWAP1 SSTORE PUSH1 0x3 DUP3 ADD PUSH1 0x0 PUSH2 0x100 EXP DUP2 SLOAD SWAP1 PUSH20 0xFFFFFFFFFFFFFFFFFFFFFFFFFFFFFFFFFFFFFFFF MUL NOT AND SWAP1 SSTORE POP POP PUSH1 0x7 PUSH1 0x0 SWAP1 SLOAD SWAP1 PUSH2 0x100 EXP SWAP1 DIV PUSH20 0xFFFFFFFFFFFFFFFFFFFFFFFFFFFFFFFFFFFFFFFF AND PUSH20 0xFFFFFFFFFFFFFFFFFFFFFFFFFFFFFFFFFFFFFFFF AND PUSH4 0xBC73473B CALLER PUSH1 0x8 PUSH1 0x0 SWAP1 SLOAD SWAP1 PUSH2 0x100 EXP SWAP1 DIV PUSH20 0xFFFFFFFFFFFFFFFFFFFFFFFFFFFFFFFFFFFFFFFF AND PUSH1 0x40 MLOAD DUP4 PUSH4 0xFFFFFFFF AND PUSH1 0xE0 SHL DUP2 MSTORE PUSH1 0x4 ADD PUSH2 0x49D SWAP3 SWAP2 SWAP1 PUSH2 0x1E04 JUMP JUMPDEST PUSH1 0x0 PUSH1 0x40 MLOAD DUP1 DUP4 SUB DUP2 PUSH1 0x0 DUP8 DUP1 EXTCODESIZE ISZERO DUP1 ISZERO PUSH2 0x4B7 JUMPI PUSH1 0x0 DUP1 REVERT JUMPDEST POP GAS CALL ISZERO DUP1 ISZERO PUSH2 0x4CB JUMPI RETURNDATASIZE PUSH1 0x0 DUP1 RETURNDATACOPY RETURNDATASIZE PUSH1 0x0 REVERT JUMPDEST POP POP POP POP JUMPDEST POP POP POP POP POP JUMP JUMPDEST PUSH1 0x0 PUSH1 0x2 PUSH1 0x0 DUP4 DUP2 MSTORE PUSH1 0x20 ADD SWAP1 DUP2 MSTORE PUSH1 0x20 ADD PUSH1 0x0 KECCAK256 SWAP1 POP DUP1 PUSH1 0x3 ADD PUSH1 0x0 SWAP1 SLOAD SWAP1 PUSH2 0x100 EXP SWAP1 DIV PUSH20 0xFFFFFFFFFFFFFFFFFFFFFFFFFFFFFFFFFFFFFFFF AND PUSH20 0xFFFFFFFFFFFFFFFFFFFFFFFFFFFFFFFFFFFFFFFF AND CALLER PUSH20 0xFFFFFFFFFFFFFFFFFFFFFFFFFFFFFFFFFFFFFFFF AND EQ PUSH2 0x54A JUMPI PUSH1 0x0 DUP1 REVERT JUMPDEST DUP1 PUSH1 0x1 ADD SLOAD PUSH1 0x4 PUSH1 0x0 DUP4 PUSH1 0x0 ADD SLOAD DUP2 MSTORE PUSH1 0x20 ADD SWAP1 DUP2 MSTORE PUSH1 0x20 ADD PUSH1 0x0 KECCAK256 PUSH1 0x0 ADD PUSH1 0x0 DUP3 DUP3 SLOAD PUSH2 0x578 SWAP2 SWAP1 PUSH2 0x1D16 JUMP JUMPDEST SWAP3 POP POP DUP2 SWAP1 SSTORE POP PUSH1 0x2 PUSH1 0x0 DUP4 DUP2 MSTORE PUSH1 0x20 ADD SWAP1 DUP2 MSTORE PUSH1 0x20 ADD PUSH1 0x0 KECCAK256 PUSH1 0x0 DUP1 DUP3 ADD PUSH1 0x0 SWAP1 SSTORE PUSH1 0x1 DUP3 ADD PUSH1 0x0 SWAP1 SSTORE PUSH1 0x2 DUP3 ADD PUSH1 0x0 SWAP1 SSTORE PUSH1 0x3 DUP3 ADD PUSH1 0x0 PUSH2 0x100 EXP DUP2 SLOAD SWAP1 PUSH20 0xFFFFFFFFFFFFFFFFFFFFFFFFFFFFFFFFFFFFFFFF MUL NOT AND SWAP1 SSTORE POP POP PUSH1 0x7 PUSH1 0x0 SWAP1 SLOAD SWAP1 PUSH2 0x100 EXP SWAP1 DIV PUSH20 0xFFFFFFFFFFFFFFFFFFFFFFFFFFFFFFFFFFFFFFFF AND PUSH20 0xFFFFFFFFFFFFFFFFFFFFFFFFFFFFFFFFFFFFFFFF AND PUSH4 0xBC73473B CALLER PUSH1 0x8 PUSH1 0x0 SWAP1 SLOAD SWAP1 PUSH2 0x100 EXP SWAP1 DIV PUSH20 0xFFFFFFFFFFFFFFFFFFFFFFFFFFFFFFFFFFFFFFFF AND PUSH1 0x40 MLOAD DUP4 PUSH4 0xFFFFFFFF AND PUSH1 0xE0 SHL DUP2 MSTORE PUSH1 0x4 ADD PUSH2 0x653 SWAP3 SWAP2 SWAP1 PUSH2 0x1E04 JUMP JUMPDEST PUSH1 0x0 PUSH1 0x40 MLOAD DUP1 DUP4 SUB DUP2 PUSH1 0x0 DUP8 DUP1 EXTCODESIZE ISZERO DUP1 ISZERO PUSH2 0x66D JUMPI PUSH1 0x0 DUP1 REVERT JUMPDEST POP GAS CALL ISZERO DUP1 ISZERO PUSH2 0x681 JUMPI RETURNDATASIZE PUSH1 0x0 DUP1 RETURNDATACOPY RETURNDATASIZE PUSH1 0x0 REVERT JUMPDEST POP POP POP POP POP POP JUMP JUMPDEST PUSH1 0x5 PUSH1 0x0 DUP2 SLOAD DUP1 SWAP3 SWAP2 SWAP1 PUSH2 0x69C SWAP1 PUSH2 0x1E2D JUMP JUMPDEST SWAP2 SWAP1 POP SSTORE POP PUSH1 0x0 PUSH1 0x4 PUSH1 0x0 DUP5 DUP2 MSTORE PUSH1 0x20 ADD SWAP1 DUP2 MSTORE PUSH1 0x20 ADD PUSH1 0x0 KECCAK256 SWAP1 POP PUSH1 0x0 DUP2 PUSH1 0x1 ADD SLOAD SUB PUSH2 0x6CE JUMPI PUSH2 0x6CD DUP4 PUSH2 0x1333 JUMP JUMPDEST JUMPDEST PUSH2 0x6D9 DUP2 DUP5 DUP5 PUSH2 0x146D JUMP JUMPDEST PUSH1 0x7 PUSH1 0x0 SWAP1 SLOAD SWAP1 PUSH2 0x100 EXP SWAP1 DIV PUSH20 0xFFFFFFFFFFFFFFFFFFFFFFFFFFFFFFFFFFFFFFFF AND PUSH20 0xFFFFFFFFFFFFFFFFFFFFFFFFFFFFFFFFFFFFFFFF AND PUSH4 0x466730FF CALLER PUSH1 0x8 PUSH1 0x0 SWAP1 SLOAD SWAP1 PUSH2 0x100 EXP SWAP1 DIV PUSH20 0xFFFFFFFFFFFFFFFFFFFFFFFFFFFFFFFFFFFFFFFF AND PUSH1 0x40 MLOAD DUP4 PUSH4 0xFFFFFFFF AND PUSH1 0xE0 SHL DUP2 MSTORE PUSH1 0x4 ADD PUSH2 0x758 SWAP3 SWAP2 SWAP1 PUSH2 0x1E04 JUMP JUMPDEST PUSH1 0x0 PUSH1 0x40 MLOAD DUP1 DUP4 SUB DUP2 PUSH1 0x0 DUP8 DUP1 EXTCODESIZE ISZERO DUP1 ISZERO PUSH2 0x772 JUMPI PUSH1 0x0 DUP1 REVERT JUMPDEST POP GAS CALL ISZERO DUP1 ISZERO PUSH2 0x786 JUMPI RETURNDATASIZE PUSH1 0x0 DUP1 RETURNDATACOPY RETURNDATASIZE PUSH1 0x0 REVERT JUMPDEST POP POP POP POP POP POP POP JUMP JUMPDEST PUSH1 0x0 DUP1 PUSH1 0x1 PUSH1 0x0 DUP2 SLOAD DUP2 LT PUSH2 0x7A7 JUMPI PUSH2 0x7A6 PUSH2 0x1E75 JUMP JUMPDEST JUMPDEST SWAP1 PUSH1 0x0 MSTORE PUSH1 0x20 PUSH1 0x0 KECCAK256 ADD SLOAD PUSH1 0x0 DUP1 DUP2 SLOAD DUP2 LT PUSH2 0x7C6 JUMPI PUSH2 0x7C5 PUSH2 0x1E75 JUMP JUMPDEST JUMPDEST SWAP1 PUSH1 0x0 MSTORE PUSH1 0x20 PUSH1 0x0 KECCAK256 ADD SLOAD SWAP2 POP SWAP2 POP SWAP1 SWAP2 JUMP JUMPDEST PUSH1 0x0 DUP2 GT PUSH2 0x81C JUMPI PUSH1 0x40 MLOAD PUSH32 0x8C379A000000000000000000000000000000000000000000000000000000000 DUP2 MSTORE PUSH1 0x4 ADD PUSH2 0x813 SWAP1 PUSH2 0x1F01 JUMP JUMPDEST PUSH1 0x40 MLOAD DUP1 SWAP2 SUB SWAP1 REVERT JUMPDEST PUSH2 0x825 DUP2 PUSH2 0x155E JUMP JUMPDEST PUSH1 0x0 PUSH1 0x3 PUSH1 0x0 DUP1 PUSH1 0x0 DUP2 SLOAD DUP2 LT PUSH2 0x83F JUMPI PUSH2 0x83E PUSH2 0x1E75 JUMP JUMPDEST JUMPDEST SWAP1 PUSH1 0x0 MSTORE PUSH1 0x20 PUSH1 0x0 KECCAK256 ADD SLOAD DUP2 MSTORE PUSH1 0x20 ADD SWAP1 DUP2 MSTORE PUSH1 0x20 ADD PUSH1 0x0 KECCAK256 SWAP1 POP PUSH1 0x0 DUP2 PUSH1 0x2 ADD SLOAD DUP3 PUSH1 0x0 ADD SLOAD DUP4 PUSH1 0x1 ADD SLOAD PUSH2 0x875 SWAP2 SWAP1 PUSH2 0x1D4A JUMP JUMPDEST PUSH2 0x87F SWAP2 SWAP1 PUSH2 0x1D4A JUMP JUMPDEST SWAP1 POP PUSH1 0x0 JUMPDEST DUP2 DUP5 GT ISZERO PUSH2 0x958 JUMPI PUSH2 0x8BD PUSH1 0x0 DUP1 DUP2 SLOAD DUP2 LT PUSH2 0x8A3 JUMPI PUSH2 0x8A2 PUSH2 0x1E75 JUMP JUMPDEST JUMPDEST SWAP1 PUSH1 0x0 MSTORE PUSH1 0x20 PUSH1 0x0 KECCAK256 ADD SLOAD DUP4 PUSH2 0x1307 SWAP1 SWAP2 SWAP1 PUSH4 0xFFFFFFFF AND JUMP JUMPDEST DUP2 PUSH2 0x8C8 SWAP2 SWAP1 PUSH2 0x1D16 JUMP JUMPDEST SWAP1 POP DUP2 DUP4 PUSH1 0x2 ADD PUSH1 0x0 DUP3 DUP3 SLOAD PUSH2 0x8DE SWAP2 SWAP1 PUSH2 0x1D16 JUMP JUMPDEST SWAP3 POP POP DUP2 SWAP1 SSTORE POP DUP2 DUP5 PUSH2 0x8F1 SWAP2 SWAP1 PUSH2 0x1D4A JUMP JUMPDEST SWAP4 POP PUSH2 0x8FB PUSH2 0x15F7 JUMP JUMPDEST PUSH1 0x3 PUSH1 0x0 DUP1 PUSH1 0x0 DUP2 SLOAD DUP2 LT PUSH2 0x913 JUMPI PUSH2 0x912 PUSH2 0x1E75 JUMP JUMPDEST JUMPDEST SWAP1 PUSH1 0x0 MSTORE PUSH1 0x20 PUSH1 0x0 KECCAK256 ADD SLOAD DUP2 MSTORE PUSH1 0x20 ADD SWAP1 DUP2 MSTORE PUSH1 0x20 ADD PUSH1 0x0 KECCAK256 SWAP3 POP DUP3 PUSH1 0x2 ADD SLOAD DUP4 PUSH1 0x0 ADD SLOAD DUP5 PUSH1 0x1 ADD SLOAD PUSH2 0x947 SWAP2 SWAP1 PUSH2 0x1D4A JUMP JUMPDEST PUSH2 0x951 SWAP2 SWAP1 PUSH2 0x1D4A JUMP JUMPDEST SWAP2 POP PUSH2 0x884 JUMP JUMPDEST PUSH1 0x0 DUP5 GT ISZERO PUSH2 0x9BB JUMPI PUSH2 0x992 PUSH1 0x0 DUP1 DUP2 SLOAD DUP2 LT PUSH2 0x978 JUMPI PUSH2 0x977 PUSH2 0x1E75 JUMP JUMPDEST JUMPDEST SWAP1 PUSH1 0x0 MSTORE PUSH1 0x20 PUSH1 0x0 KECCAK256 ADD SLOAD DUP6 PUSH2 0x1307 SWAP1 SWAP2 SWAP1 PUSH4 0xFFFFFFFF AND JUMP JUMPDEST DUP2 PUSH2 0x99D SWAP2 SWAP1 PUSH2 0x1D16 JUMP JUMPDEST SWAP1 POP DUP4 DUP4 PUSH1 0x2 ADD PUSH1 0x0 DUP3 DUP3 SLOAD PUSH2 0x9B3 SWAP2 SWAP1 PUSH2 0x1D16 JUMP JUMPDEST SWAP3 POP POP DUP2 SWAP1 SSTORE POP JUMPDEST PUSH2 0x9C4 DUP2 PUSH2 0x155E JUMP JUMPDEST PUSH1 0x6 PUSH1 0x0 SWAP1 SLOAD SWAP1 PUSH2 0x100 EXP SWAP1 DIV PUSH20 0xFFFFFFFFFFFFFFFFFFFFFFFFFFFFFFFFFFFFFFFF AND PUSH20 0xFFFFFFFFFFFFFFFFFFFFFFFFFFFFFFFFFFFFFFFF AND PUSH4 0x83D2BDB CALLER PUSH1 0x8 PUSH1 0x0 SWAP1 SLOAD SWAP1 PUSH2 0x100 EXP SWAP1 DIV PUSH20 0xFFFFFFFFFFFFFFFFFFFFFFFFFFFFFFFFFFFFFFFF AND DUP8 PUSH2 0xA3F PUSH5 0x2540BE400 DUP8 PUSH2 0x131D SWAP1 SWAP2 SWAP1 PUSH4 0xFFFFFFFF AND JUMP JUMPDEST PUSH1 0x40 MLOAD DUP6 PUSH4 0xFFFFFFFF AND PUSH1 0xE0 SHL DUP2 MSTORE PUSH1 0x4 ADD PUSH2 0xA5E SWAP5 SWAP4 SWAP3 SWAP2 SWAP1 PUSH2 0x1DBF JUMP JUMPDEST PUSH1 0x0 PUSH1 0x40 MLOAD DUP1 DUP4 SUB DUP2 PUSH1 0x0 DUP8 DUP1 EXTCODESIZE ISZERO DUP1 ISZERO PUSH2 0xA78 JUMPI PUSH1 0x0 DUP1 REVERT JUMPDEST POP GAS CALL ISZERO DUP1 ISZERO PUSH2 0xA8C JUMPI RETURNDATASIZE PUSH1 0x0 DUP1 RETURNDATACOPY RETURNDATASIZE PUSH1 0x0 REVERT JUMPDEST POP POP POP POP POP POP POP POP JUMP JUMPDEST PUSH1 0x0 PUSH1 0x2 PUSH1 0x0 DUP4 DUP2 MSTORE PUSH1 0x20 ADD SWAP1 DUP2 MSTORE PUSH1 0x20 ADD PUSH1 0x0 KECCAK256 SWAP1 POP DUP1 PUSH1 0x3 ADD PUSH1 0x0 SWAP1 SLOAD SWAP1 PUSH2 0x100 EXP SWAP1 DIV PUSH20 0xFFFFFFFFFFFFFFFFFFFFFFFFFFFFFFFFFFFFFFFF AND PUSH20 0xFFFFFFFFFFFFFFFFFFFFFFFFFFFFFFFFFFFFFFFF AND CALLER PUSH20 0xFFFFFFFFFFFFFFFFFFFFFFFFFFFFFFFFFFFFFFFF AND EQ PUSH2 0xB09 JUMPI PUSH1 0x0 DUP1 REVERT JUMPDEST PUSH1 0x0 PUSH1 0x3 PUSH1 0x0 DUP4 PUSH1 0x0 ADD SLOAD DUP2 MSTORE PUSH1 0x20 ADD SWAP1 DUP2 MSTORE PUSH1 0x20 ADD PUSH1 0x0 KECCAK256 SWAP1 POP DUP1 PUSH1 0x0 ADD SLOAD DUP2 PUSH1 0x2 ADD SLOAD PUSH2 0xB38 SWAP2 SWAP1 PUSH2 0x1D16 JUMP JUMPDEST DUP3 PUSH1 0x2 ADD SLOAD LT PUSH2 0xB47 JUMPI PUSH1 0x0 DUP1 REVERT JUMPDEST PUSH1 0x0 DUP3 PUSH1 0x2 ADD SLOAD DUP3 PUSH1 0x0 ADD SLOAD DUP4 PUSH1 0x2 ADD SLOAD PUSH2 0xB62 SWAP2 SWAP1 PUSH2 0x1D16 JUMP JUMPDEST PUSH2 0xB6C SWAP2 SWAP1 PUSH2 0x1D4A JUMP JUMPDEST SWAP1 POP PUSH1 0x0 DUP4 PUSH1 0x1 ADD SLOAD DUP3 GT PUSH2 0xB81 JUMPI DUP2 PUSH2 0xB87 JUMP JUMPDEST DUP4 PUSH1 0x1 ADD SLOAD JUMPDEST SWAP1 POP DUP1 DUP5 PUSH1 0x1 ADD PUSH1 0x0 DUP3 DUP3 SLOAD PUSH2 0xB9D SWAP2 SWAP1 PUSH2 0x1D4A JUMP JUMPDEST SWAP3 POP POP DUP2 SWAP1 SSTORE POP DUP1 DUP4 PUSH1 0x0 ADD PUSH1 0x0 DUP3 DUP3 SLOAD PUSH2 0xBB8 SWAP2 SWAP1 PUSH2 0x1D16 JUMP JUMPDEST SWAP3 POP POP DUP2 SWAP1 SSTORE POP DUP1 DUP4 PUSH1 0x2 ADD PUSH1 0x0 DUP3 DUP3 SLOAD PUSH2 0xBD3 SWAP2 SWAP1 PUSH2 0x1D4A JUMP JUMPDEST SWAP3 POP POP DUP2 SWAP1 SSTORE POP PUSH1 0x6 PUSH1 0x0 SWAP1 SLOAD SWAP1 PUSH2 0x100 EXP SWAP1 DIV PUSH20 0xFFFFFFFFFFFFFFFFFFFFFFFFFFFFFFFFFFFFFFFF AND PUSH20 0xFFFFFFFFFFFFFFFFFFFFFFFFFFFFFFFFFFFFFFFF AND PUSH4 0xABB2361E CALLER PUSH1 0x8 PUSH1 0x0 SWAP1 SLOAD SWAP1 PUSH2 0x100 EXP SWAP1 DIV PUSH20 0xFFFFFFFFFFFFFFFFFFFFFFFFFFFFFFFFFFFFFFFF AND DUP5 PUSH2 0xC6B PUSH5 0x2540BE400 PUSH2 0xC5D DUP12 PUSH1 0x0 ADD SLOAD DUP10 PUSH2 0x1307 SWAP1 SWAP2 SWAP1 PUSH4 0xFFFFFFFF AND JUMP JUMPDEST PUSH2 0x131D SWAP1 SWAP2 SWAP1 PUSH4 0xFFFFFFFF AND JUMP JUMPDEST PUSH1 0x40 MLOAD DUP6 PUSH4 0xFFFFFFFF AND PUSH1 0xE0 SHL DUP2 MSTORE PUSH1 0x4 ADD PUSH2 0xC8A SWAP5 SWAP4 SWAP3 SWAP2 SWAP1 PUSH2 0x1DBF JUMP JUMPDEST PUSH1 0x0 PUSH1 0x40 MLOAD DUP1 DUP4 SUB DUP2 PUSH1 0x0 DUP8 DUP1 EXTCODESIZE ISZERO DUP1 ISZERO PUSH2 0xCA4 JUMPI PUSH1 0x0 DUP1 REVERT JUMPDEST POP GAS CALL ISZERO DUP1 ISZERO PUSH2 0xCB8 JUMPI RETURNDATASIZE PUSH1 0x0 DUP1 RETURNDATACOPY RETURNDATASIZE PUSH1 0x0 REVERT JUMPDEST POP POP POP POP PUSH1 0x0 DUP5 PUSH1 0x1 ADD SLOAD SUB PUSH2 0xDCF JUMPI PUSH1 0x2 PUSH1 0x0 DUP7 DUP2 MSTORE PUSH1 0x20 ADD SWAP1 DUP2 MSTORE PUSH1 0x20 ADD PUSH1 0x0 KECCAK256 PUSH1 0x0 DUP1 DUP3 ADD PUSH1 0x0 SWAP1 SSTORE PUSH1 0x1 DUP3 ADD PUSH1 0x0 SWAP1 SSTORE PUSH1 0x2 DUP3 ADD PUSH1 0x0 SWAP1 SSTORE PUSH1 0x3 DUP3 ADD PUSH1 0x0 PUSH2 0x100 EXP DUP2 SLOAD SWAP1 PUSH20 0xFFFFFFFFFFFFFFFFFFFFFFFFFFFFFFFFFFFFFFFF MUL NOT AND SWAP1 SSTORE POP POP PUSH1 0x7 PUSH1 0x0 SWAP1 SLOAD SWAP1 PUSH2 0x100 EXP SWAP1 DIV PUSH20 0xFFFFFFFFFFFFFFFFFFFFFFFFFFFFFFFFFFFFFFFF AND PUSH20 0xFFFFFFFFFFFFFFFFFFFFFFFFFFFFFFFFFFFFFFFF AND PUSH4 0xBC73473B CALLER PUSH1 0x8 PUSH1 0x0 SWAP1 SLOAD SWAP1 PUSH2 0x100 EXP SWAP1 DIV PUSH20 0xFFFFFFFFFFFFFFFFFFFFFFFFFFFFFFFFFFFFFFFF AND PUSH1 0x40 MLOAD DUP4 PUSH4 0xFFFFFFFF AND PUSH1 0xE0 SHL DUP2 MSTORE PUSH1 0x4 ADD PUSH2 0xD9C SWAP3 SWAP2 SWAP1 PUSH2 0x1E04 JUMP JUMPDEST PUSH1 0x0 PUSH1 0x40 MLOAD DUP1 DUP4 SUB DUP2 PUSH1 0x0 DUP8 DUP1 EXTCODESIZE ISZERO DUP1 ISZERO PUSH2 0xDB6 JUMPI PUSH1 0x0 DUP1 REVERT JUMPDEST POP GAS CALL ISZERO DUP1 ISZERO PUSH2 0xDCA JUMPI RETURNDATASIZE PUSH1 0x0 DUP1 RETURNDATACOPY RETURNDATASIZE PUSH1 0x0 REVERT JUMPDEST POP POP POP POP JUMPDEST POP POP POP POP POP JUMP JUMPDEST PUSH1 0x5 PUSH1 0x0 DUP2 SLOAD DUP1 SWAP3 SWAP2 SWAP1 PUSH2 0xDE9 SWAP1 PUSH2 0x1E2D JUMP JUMPDEST SWAP2 SWAP1 POP SSTORE POP PUSH1 0x0 PUSH1 0x3 PUSH1 0x0 DUP5 DUP2 MSTORE PUSH1 0x20 ADD SWAP1 DUP2 MSTORE PUSH1 0x20 ADD PUSH1 0x0 KECCAK256 SWAP1 POP PUSH1 0x0 DUP2 PUSH1 0x1 ADD SLOAD SUB PUSH2 0xE1B JUMPI PUSH2 0xE1A DUP4 PUSH2 0x16CC JUMP JUMPDEST JUMPDEST PUSH2 0xE26 DUP2 DUP5 DUP5 PUSH2 0x146D JUMP JUMPDEST PUSH1 0x7 PUSH1 0x0 SWAP1 SLOAD SWAP1 PUSH2 0x100 EXP SWAP1 DIV PUSH20 0xFFFFFFFFFFFFFFFFFFFFFFFFFFFFFFFFFFFFFFFF AND PUSH20 0xFFFFFFFFFFFFFFFFFFFFFFFFFFFFFFFFFFFFFFFF AND PUSH4 0x466730FF CALLER PUSH1 0x8 PUSH1 0x0 SWAP1 SLOAD SWAP1 PUSH2 0x100 EXP SWAP1 DIV PUSH20 0xFFFFFFFFFFFFFFFFFFFFFFFFFFFFFFFFFFFFFFFF AND PUSH1 0x40 MLOAD DUP4 PUSH4 0xFFFFFFFF AND PUSH1 0xE0 SHL DUP2 MSTORE PUSH1 0x4 ADD PUSH2 0xEA5 SWAP3 SWAP2 SWAP1 PUSH2 0x1E04 JUMP JUMPDEST PUSH1 0x0 PUSH1 0x40 MLOAD DUP1 DUP4 SUB DUP2 PUSH1 0x0 DUP8 DUP1 EXTCODESIZE ISZERO DUP1 ISZERO PUSH2 0xEBF JUMPI PUSH1 0x0 DUP1 REVERT JUMPDEST POP GAS CALL ISZERO DUP1 ISZERO PUSH2 0xED3 JUMPI RETURNDATASIZE PUSH1 0x0 DUP1 RETURNDATACOPY RETURNDATASIZE PUSH1 0x0 REVERT JUMPDEST POP POP POP POP POP POP POP JUMP JUMPDEST PUSH1 0x0 DUP2 GT PUSH2 0xEE9 JUMPI PUSH1 0x0 DUP1 REVERT JUMPDEST PUSH1 0x0 PUSH1 0x4 PUSH1 0x0 PUSH1 0x1 PUSH1 0x0 DUP2 SLOAD DUP2 LT PUSH2 0xF04 JUMPI PUSH2 0xF03 PUSH2 0x1E75 JUMP JUMPDEST JUMPDEST SWAP1 PUSH1 0x0 MSTORE PUSH1 0x20 PUSH1 0x0 KECCAK256 ADD SLOAD DUP2 MSTORE PUSH1 0x20 ADD SWAP1 DUP2 MSTORE PUSH1 0x20 ADD PUSH1 0x0 KECCAK256 SWAP1 POP PUSH1 0x0 DUP2 PUSH1 0x2 ADD SLOAD DUP3 PUSH1 0x0 ADD SLOAD DUP4 PUSH1 0x1 ADD SLOAD PUSH2 0xF3A SWAP2 SWAP1 PUSH2 0x1D4A JUMP JUMPDEST PUSH2 0xF44 SWAP2 SWAP1 PUSH2 0x1D4A JUMP JUMPDEST SWAP1 POP PUSH1 0x0 JUMPDEST DUP2 DUP5 GT ISZERO PUSH2 0x101F JUMPI PUSH2 0xF83 PUSH1 0x1 PUSH1 0x0 DUP2 SLOAD DUP2 LT PUSH2 0xF69 JUMPI PUSH2 0xF68 PUSH2 0x1E75 JUMP JUMPDEST JUMPDEST SWAP1 PUSH1 0x0 MSTORE PUSH1 0x20 PUSH1 0x0 KECCAK256 ADD SLOAD DUP4 PUSH2 0x1307 SWAP1 SWAP2 SWAP1 PUSH4 0xFFFFFFFF AND JUMP JUMPDEST DUP2 PUSH2 0xF8E SWAP2 SWAP1 PUSH2 0x1D16 JUMP JUMPDEST SWAP1 POP DUP2 DUP4 PUSH1 0x2 ADD PUSH1 0x0 DUP3 DUP3 SLOAD PUSH2 0xFA4 SWAP2 SWAP1 PUSH2 0x1D16 JUMP JUMPDEST SWAP3 POP POP DUP2 SWAP1 SSTORE POP DUP2 DUP5 PUSH2 0xFB7 SWAP2 SWAP1 PUSH2 0x1D4A JUMP JUMPDEST SWAP4 POP PUSH2 0xFC1 PUSH2 0x1804 JUMP JUMPDEST PUSH1 0x4 PUSH1 0x0 PUSH1 0x1 PUSH1 0x0 DUP2 SLOAD DUP2 LT PUSH2 0xFDA JUMPI PUSH2 0xFD9 PUSH2 0x1E75 JUMP JUMPDEST JUMPDEST SWAP1 PUSH1 0x0 MSTORE PUSH1 0x20 PUSH1 0x0 KECCAK256 ADD SLOAD DUP2 MSTORE PUSH1 0x20 ADD SWAP1 DUP2 MSTORE PUSH1 0x20 ADD PUSH1 0x0 KECCAK256 SWAP3 POP DUP3 PUSH1 0x2 ADD SLOAD DUP4 PUSH1 0x0 ADD SLOAD DUP5 PUSH1 0x1 ADD SLOAD PUSH2 0x100E SWAP2 SWAP1 PUSH2 0x1D4A JUMP JUMPDEST PUSH2 0x1018 SWAP2 SWAP1 PUSH2 0x1D4A JUMP JUMPDEST SWAP2 POP PUSH2 0xF49 JUMP JUMPDEST PUSH1 0x0 DUP5 GT ISZERO PUSH2 0x1083 JUMPI PUSH2 0x105A PUSH1 0x1 PUSH1 0x0 DUP2 SLOAD DUP2 LT PUSH2 0x1040 JUMPI PUSH2 0x103F PUSH2 0x1E75 JUMP JUMPDEST JUMPDEST SWAP1 PUSH1 0x0 MSTORE PUSH1 0x20 PUSH1 0x0 KECCAK256 ADD SLOAD DUP6 PUSH2 0x1307 SWAP1 SWAP2 SWAP1 PUSH4 0xFFFFFFFF AND JUMP JUMPDEST DUP2 PUSH2 0x1065 SWAP2 SWAP1 PUSH2 0x1D16 JUMP JUMPDEST SWAP1 POP DUP4 DUP4 PUSH1 0x2 ADD PUSH1 0x0 DUP3 DUP3 SLOAD PUSH2 0x107B SWAP2 SWAP1 PUSH2 0x1D16 JUMP JUMPDEST SWAP3 POP POP DUP2 SWAP1 SSTORE POP JUMPDEST PUSH1 0x6 PUSH1 0x0 SWAP1 SLOAD SWAP1 PUSH2 0x100 EXP SWAP1 DIV PUSH20 0xFFFFFFFFFFFFFFFFFFFFFFFFFFFFFFFFFFFFFFFF AND PUSH20 0xFFFFFFFFFFFFFFFFFFFFFFFFFFFFFFFFFFFFFFFF AND PUSH4 0xABB2361E CALLER PUSH1 0x8 PUSH1 0x0 SWAP1 SLOAD SWAP1 PUSH2 0x100 EXP SWAP1 DIV PUSH20 0xFFFFFFFFFFFFFFFFFFFFFFFFFFFFFFFFFFFFFFFF AND DUP8 PUSH2 0x10FE PUSH5 0x2540BE400 DUP8 PUSH2 0x131D SWAP1 SWAP2 SWAP1 PUSH4 0xFFFFFFFF AND JUMP JUMPDEST PUSH1 0x40 MLOAD DUP6 PUSH4 0xFFFFFFFF AND PUSH1 0xE0 SHL DUP2 MSTORE PUSH1 0x4 ADD PUSH2 0x111D SWAP5 SWAP4 SWAP3 SWAP2 SWAP1 PUSH2 0x1DBF JUMP JUMPDEST PUSH1 0x0 PUSH1 0x40 MLOAD DUP1 DUP4 SUB DUP2 PUSH1 0x0 DUP8 DUP1 EXTCODESIZE ISZERO DUP1 ISZERO PUSH2 0x1137 JUMPI PUSH1 0x0 DUP1 REVERT JUMPDEST POP GAS CALL ISZERO DUP1 ISZERO PUSH2 0x114B JUMPI RETURNDATASIZE PUSH1 0x0 DUP1 RETURNDATACOPY RETURNDATASIZE PUSH1 0x0 REVERT JUMPDEST POP POP POP POP POP POP POP POP JUMP JUMPDEST PUSH1 0x0 PUSH1 0x2 PUSH1 0x0 DUP4 DUP2 MSTORE PUSH1 0x20 ADD SWAP1 DUP2 MSTORE PUSH1 0x20 ADD PUSH1 0x0 KECCAK256 SWAP1 POP DUP1 PUSH1 0x3 ADD PUSH1 0x0 SWAP1 SLOAD SWAP1 PUSH2 0x100 EXP SWAP1 DIV PUSH20 0xFFFFFFFFFFFFFFFFFFFFFFFFFFFFFFFFFFFFFFFF AND PUSH20 0xFFFFFFFFFFFFFFFFFFFFFFFFFFFFFFFFFFFFFFFF AND CALLER PUSH20 0xFFFFFFFFFFFFFFFFFFFFFFFFFFFFFFFFFFFFFFFF AND EQ PUSH2 0x11C8 JUMPI PUSH1 0x0 DUP1 REVERT JUMPDEST DUP1 PUSH1 0x1 ADD SLOAD PUSH1 0x3 PUSH1 0x0 DUP4 PUSH1 0x0 ADD SLOAD DUP2 MSTORE PUSH1 0x20 ADD SWAP1 DUP2 MSTORE PUSH1 0x20 ADD PUSH1 0x0 KECCAK256 PUSH1 0x0 ADD PUSH1 0x0 DUP3 DUP3 SLOAD PUSH2 0x11F6 SWAP2 SWAP1 PUSH2 0x1D16 JUMP JUMPDEST SWAP3 POP POP DUP2 SWAP1 SSTORE POP PUSH1 0x2 PUSH1 0x0 DUP4 DUP2 MSTORE PUSH1 0x20 ADD SWAP1 DUP2 MSTORE PUSH1 0x20 ADD PUSH1 0x0 KECCAK256 PUSH1 0x0 DUP1 DUP3 ADD PUSH1 0x0 SWAP1 SSTORE PUSH1 0x1 DUP3 ADD PUSH1 0x0 SWAP1 SSTORE PUSH1 0x2 DUP3 ADD PUSH1 0x0 SWAP1 SSTORE PUSH1 0x3 DUP3 ADD PUSH1 0x0 PUSH2 0x100 EXP DUP2 SLOAD SWAP1 PUSH20 0xFFFFFFFFFFFFFFFFFFFFFFFFFFFFFFFFFFFFFFFF MUL NOT AND SWAP1 SSTORE POP POP PUSH1 0x7 PUSH1 0x0 SWAP1 SLOAD SWAP1 PUSH2 0x100 EXP SWAP1 DIV PUSH20 0xFFFFFFFFFFFFFFFFFFFFFFFFFFFFFFFFFFFFFFFF AND PUSH20 0xFFFFFFFFFFFFFFFFFFFFFFFFFFFFFFFFFFFFFFFF AND PUSH4 0xBC73473B CALLER PUSH1 0x8 PUSH1 0x0 SWAP1 SLOAD SWAP1 PUSH2 0x100 EXP SWAP1 DIV PUSH20 0xFFFFFFFFFFFFFFFFFFFFFFFFFFFFFFFFFFFFFFFF AND PUSH1 0x40 MLOAD DUP4 PUSH4 0xFFFFFFFF AND PUSH1 0xE0 SHL DUP2 MSTORE PUSH1 0x4 ADD PUSH2 0x12D1 SWAP3 SWAP2 SWAP1 PUSH2 0x1E04 JUMP JUMPDEST PUSH1 0x0 PUSH1 0x40 MLOAD DUP1 DUP4 SUB DUP2 PUSH1 0x0 DUP8 DUP1 EXTCODESIZE ISZERO DUP1 ISZERO PUSH2 0x12EB JUMPI PUSH1 0x0 DUP1 REVERT JUMPDEST POP GAS CALL ISZERO DUP1 ISZERO PUSH2 0x12FF JUMPI RETURNDATASIZE PUSH1 0x0 DUP1 RETURNDATACOPY RETURNDATASIZE PUSH1 0x0 REVERT JUMPDEST POP POP POP POP POP POP JUMP JUMPDEST PUSH1 0x0 DUP2 DUP4 PUSH2 0x1315 SWAP2 SWAP1 PUSH2 0x1F21 JUMP JUMPDEST SWAP1 POP SWAP3 SWAP2 POP POP JUMP JUMPDEST PUSH1 0x0 DUP2 DUP4 PUSH2 0x132B SWAP2 SWAP1 PUSH2 0x1F92 JUMP JUMPDEST SWAP1 POP SWAP3 SWAP2 POP POP JUMP JUMPDEST PUSH1 0x0 PUSH1 0x1 DUP1 SLOAD SWAP1 POP SWAP1 POP PUSH1 0x1 DUP3 SWAP1 DUP1 PUSH1 0x1 DUP2 SLOAD ADD DUP1 DUP3 SSTORE DUP1 SWAP2 POP POP PUSH1 0x1 SWAP1 SUB SWAP1 PUSH1 0x0 MSTORE PUSH1 0x20 PUSH1 0x0 KECCAK256 ADD PUSH1 0x0 SWAP1 SWAP2 SWAP1 SWAP2 SWAP1 SWAP2 POP SSTORE JUMPDEST PUSH1 0x0 DUP2 GT ISZERO PUSH2 0x1469 JUMPI PUSH1 0x0 PUSH1 0x2 PUSH1 0x1 DUP4 PUSH2 0x1381 SWAP2 SWAP1 PUSH2 0x1D4A JUMP JUMPDEST PUSH2 0x138B SWAP2 SWAP1 PUSH2 0x1F92 JUMP JUMPDEST SWAP1 POP PUSH1 0x1 DUP3 DUP2 SLOAD DUP2 LT PUSH2 0x13A1 JUMPI PUSH2 0x13A0 PUSH2 0x1E75 JUMP JUMPDEST JUMPDEST SWAP1 PUSH1 0x0 MSTORE PUSH1 0x20 PUSH1 0x0 KECCAK256 ADD SLOAD PUSH1 0x1 DUP3 DUP2 SLOAD DUP2 LT PUSH2 0x13C0 JUMPI PUSH2 0x13BF PUSH2 0x1E75 JUMP JUMPDEST JUMPDEST SWAP1 PUSH1 0x0 MSTORE PUSH1 0x20 PUSH1 0x0 KECCAK256 ADD SLOAD GT PUSH2 0x13D6 JUMPI POP PUSH2 0x1469 JUMP JUMPDEST PUSH1 0x1 DUP2 DUP2 SLOAD DUP2 LT PUSH2 0x13EA JUMPI PUSH2 0x13E9 PUSH2 0x1E75 JUMP JUMPDEST JUMPDEST SWAP1 PUSH1 0x0 MSTORE PUSH1 0x20 PUSH1 0x0 KECCAK256 ADD SLOAD PUSH1 0x1 DUP4 DUP2 SLOAD DUP2 LT PUSH2 0x1409 JUMPI PUSH2 0x1408 PUSH2 0x1E75 JUMP JUMPDEST JUMPDEST SWAP1 PUSH1 0x0 MSTORE PUSH1 0x20 PUSH1 0x0 KECCAK256 ADD SLOAD PUSH1 0x1 DUP5 DUP2 SLOAD DUP2 LT PUSH2 0x1428 JUMPI PUSH2 0x1427 PUSH2 0x1E75 JUMP JUMPDEST JUMPDEST SWAP1 PUSH1 0x0 MSTORE PUSH1 0x20 PUSH1 0x0 KECCAK256 ADD PUSH1 0x0 PUSH1 0x1 DUP6 DUP2 SLOAD DUP2 LT PUSH2 0x1448 JUMPI PUSH2 0x1447 PUSH2 0x1E75 JUMP JUMPDEST JUMPDEST SWAP1 PUSH1 0x0 MSTORE PUSH1 0x20 PUSH1 0x0 KECCAK256 ADD PUSH1 0x0 DUP5 SWAP2 SWAP1 POP SSTORE DUP4 SWAP2 SWAP1 POP SSTORE POP POP DUP1 SWAP2 POP POP PUSH2 0x1367 JUMP JUMPDEST POP POP JUMP JUMPDEST PUSH1 0x0 DUP1 DUP5 PUSH1 0x1 ADD SLOAD EQ PUSH2 0x1484 JUMPI DUP4 PUSH1 0x1 ADD SLOAD PUSH2 0x1487 JUMP JUMPDEST PUSH1 0x0 JUMPDEST SWAP1 POP PUSH1 0x40 MLOAD DUP1 PUSH1 0x80 ADD PUSH1 0x40 MSTORE DUP1 DUP5 DUP2 MSTORE PUSH1 0x20 ADD DUP4 DUP2 MSTORE PUSH1 0x20 ADD DUP3 DUP2 MSTORE PUSH1 0x20 ADD CALLER PUSH20 0xFFFFFFFFFFFFFFFFFFFFFFFFFFFFFFFFFFFFFFFF AND DUP2 MSTORE POP PUSH1 0x2 PUSH1 0x0 PUSH1 0x5 SLOAD DUP2 MSTORE PUSH1 0x20 ADD SWAP1 DUP2 MSTORE PUSH1 0x20 ADD PUSH1 0x0 KECCAK256 PUSH1 0x0 DUP3 ADD MLOAD DUP2 PUSH1 0x0 ADD SSTORE PUSH1 0x20 DUP3 ADD MLOAD DUP2 PUSH1 0x1 ADD SSTORE PUSH1 0x40 DUP3 ADD MLOAD DUP2 PUSH1 0x2 ADD SSTORE PUSH1 0x60 DUP3 ADD MLOAD DUP2 PUSH1 0x3 ADD PUSH1 0x0 PUSH2 0x100 EXP DUP2 SLOAD DUP2 PUSH20 0xFFFFFFFFFFFFFFFFFFFFFFFFFFFFFFFFFFFFFFFF MUL NOT AND SWAP1 DUP4 PUSH20 0xFFFFFFFFFFFFFFFFFFFFFFFFFFFFFFFFFFFFFFFF AND MUL OR SWAP1 SSTORE POP SWAP1 POP POP DUP2 DUP5 PUSH1 0x1 ADD PUSH1 0x0 DUP3 DUP3 SLOAD PUSH2 0x1551 SWAP2 SWAP1 PUSH2 0x1D16 JUMP JUMPDEST SWAP3 POP POP DUP2 SWAP1 SSTORE POP POP POP POP POP JUMP JUMPDEST PUSH2 0x15F4 DUP2 PUSH1 0x40 MLOAD PUSH1 0x24 ADD PUSH2 0x1572 SWAP2 SWAP1 PUSH2 0x1FC3 JUMP JUMPDEST PUSH1 0x40 MLOAD PUSH1 0x20 DUP2 DUP4 SUB SUB DUP2 MSTORE SWAP1 PUSH1 0x40 MSTORE PUSH32 0xF82C50F100000000000000000000000000000000000000000000000000000000 PUSH28 0xFFFFFFFFFFFFFFFFFFFFFFFFFFFFFFFFFFFFFFFFFFFFFFFFFFFFFFFF NOT AND PUSH1 0x20 DUP3 ADD DUP1 MLOAD PUSH28 0xFFFFFFFFFFFFFFFFFFFFFFFFFFFFFFFFFFFFFFFFFFFFFFFFFFFFFFFF DUP4 DUP2 DUP4 AND OR DUP4 MSTORE POP POP POP POP PUSH2 0x18D7 JUMP JUMPDEST POP JUMP JUMPDEST PUSH1 0x1 PUSH1 0x0 DUP1 SLOAD SWAP1 POP LT ISZERO PUSH2 0x1640 JUMPI PUSH1 0x40 MLOAD PUSH32 0x8C379A000000000000000000000000000000000000000000000000000000000 DUP2 MSTORE PUSH1 0x4 ADD PUSH2 0x1637 SWAP1 PUSH2 0x202A JUMP JUMPDEST PUSH1 0x40 MLOAD DUP1 SWAP2 SUB SWAP1 REVERT JUMPDEST PUSH1 0x0 PUSH1 0x1 PUSH1 0x0 DUP1 SLOAD SWAP1 POP PUSH2 0x1654 SWAP2 SWAP1 PUSH2 0x1D4A JUMP JUMPDEST SWAP1 POP PUSH1 0x0 DUP2 DUP2 SLOAD DUP2 LT PUSH2 0x166A JUMPI PUSH2 0x1669 PUSH2 0x1E75 JUMP JUMPDEST JUMPDEST SWAP1 PUSH1 0x0 MSTORE PUSH1 0x20 PUSH1 0x0 KECCAK256 ADD SLOAD PUSH1 0x0 DUP1 DUP2 SLOAD DUP2 LT PUSH2 0x1689 JUMPI PUSH2 0x1688 PUSH2 0x1E75 JUMP JUMPDEST JUMPDEST SWAP1 PUSH1 0x0 MSTORE PUSH1 0x20 PUSH1 0x0 KECCAK256 ADD DUP2 SWAP1 SSTORE POP PUSH1 0x0 DUP1 SLOAD DUP1 PUSH2 0x16A9 JUMPI PUSH2 0x16A8 PUSH2 0x204A JUMP JUMPDEST JUMPDEST PUSH1 0x1 SWAP1 SUB DUP2 DUP2 SWAP1 PUSH1 0x0 MSTORE PUSH1 0x20 PUSH1 0x0 KECCAK256 ADD PUSH1 0x0 SWAP1 SSTORE SWAP1 SSTORE PUSH2 0x16C9 PUSH1 0x0 PUSH2 0x1900 JUMP JUMPDEST POP JUMP JUMPDEST PUSH1 0x0 DUP1 DUP1 SLOAD SWAP1 POP SWAP1 POP PUSH1 0x0 DUP3 SWAP1 DUP1 PUSH1 0x1 DUP2 SLOAD ADD DUP1 DUP3 SSTORE DUP1 SWAP2 POP POP PUSH1 0x1 SWAP1 SUB SWAP1 PUSH1 0x0 MSTORE PUSH1 0x20 PUSH1 0x0 KECCAK256 ADD PUSH1 0x0 SWAP1 SWAP2 SWAP1 SWAP2 SWAP1 SWAP2 POP SSTORE JUMPDEST PUSH1 0x0 DUP2 GT ISZERO PUSH2 0x1800 JUMPI PUSH1 0x0 PUSH1 0x2 PUSH1 0x1 DUP4 PUSH2 0x1719 SWAP2 SWAP1 PUSH2 0x1D4A JUMP JUMPDEST PUSH2 0x1723 SWAP2 SWAP1 PUSH2 0x1F92 JUMP JUMPDEST SWAP1 POP PUSH1 0x0 DUP3 DUP2 SLOAD DUP2 LT PUSH2 0x1739 JUMPI PUSH2 0x1738 PUSH2 0x1E75 JUMP JUMPDEST JUMPDEST SWAP1 PUSH1 0x0 MSTORE PUSH1 0x20 PUSH1 0x0 KECCAK256 ADD SLOAD PUSH1 0x0 DUP3 DUP2 SLOAD DUP2 LT PUSH2 0x1758 JUMPI PUSH2 0x1757 PUSH2 0x1E75 JUMP JUMPDEST JUMPDEST SWAP1 PUSH1 0x0 MSTORE PUSH1 0x20 PUSH1 0x0 KECCAK256 ADD SLOAD LT PUSH2 0x176E JUMPI POP PUSH2 0x1800 JUMP JUMPDEST PUSH1 0x0 DUP2 DUP2 SLOAD DUP2 LT PUSH2 0x1782 JUMPI PUSH2 0x1781 PUSH2 0x1E75 JUMP JUMPDEST JUMPDEST SWAP1 PUSH1 0x0 MSTORE PUSH1 0x20 PUSH1 0x0 KECCAK256 ADD SLOAD PUSH1 0x0 DUP4 DUP2 SLOAD DUP2 LT PUSH2 0x17A1 JUMPI PUSH2 0x17A0 PUSH2 0x1E75 JUMP JUMPDEST JUMPDEST SWAP1 PUSH1 0x0 MSTORE PUSH1 0x20 PUSH1 0x0 KECCAK256 ADD SLOAD PUSH1 0x0 DUP5 DUP2 SLOAD DUP2 LT PUSH2 0x17C0 JUMPI PUSH2 0x17BF PUSH2 0x1E75 JUMP JUMPDEST JUMPDEST SWAP1 PUSH1 0x0 MSTORE PUSH1 0x20 PUSH1 0x0 KECCAK256 ADD PUSH1 0x0 DUP1 DUP6 DUP2 SLOAD DUP2 LT PUSH2 0x17DF JUMPI PUSH2 0x17DE PUSH2 0x1E75 JUMP JUMPDEST JUMPDEST SWAP1 PUSH1 0x0 MSTORE PUSH1 0x20 PUSH1 0x0 KECCAK256 ADD PUSH1 0x0 DUP5 SWAP2 SWAP1 POP SSTORE DUP4 SWAP2 SWAP1 POP SSTORE POP POP DUP1 SWAP2 POP POP PUSH2 0x16FF JUMP JUMPDEST POP POP JUMP JUMPDEST PUSH1 0x1 DUP1 DUP1 SLOAD SWAP1 POP GT PUSH2 0x184B JUMPI PUSH1 0x40 MLOAD PUSH32 0x8C379A000000000000000000000000000000000000000000000000000000000 DUP2 MSTORE PUSH1 0x4 ADD PUSH2 0x1842 SWAP1 PUSH2 0x20C5 JUMP JUMPDEST PUSH1 0x40 MLOAD DUP1 SWAP2 SUB SWAP1 REVERT JUMPDEST PUSH1 0x0 PUSH1 0x1 DUP1 DUP1 SLOAD SWAP1 POP PUSH2 0x185E SWAP2 SWAP1 PUSH2 0x1D4A JUMP JUMPDEST SWAP1 POP PUSH1 0x1 DUP2 DUP2 SLOAD DUP2 LT PUSH2 0x1874 JUMPI PUSH2 0x1873 PUSH2 0x1E75 JUMP JUMPDEST JUMPDEST SWAP1 PUSH1 0x0 MSTORE PUSH1 0x20 PUSH1 0x0 KECCAK256 ADD SLOAD PUSH1 0x1 PUSH1 0x0 DUP2 SLOAD DUP2 LT PUSH2 0x1894 JUMPI PUSH2 0x1893 PUSH2 0x1E75 JUMP JUMPDEST JUMPDEST SWAP1 PUSH1 0x0 MSTORE PUSH1 0x20 PUSH1 0x0 KECCAK256 ADD DUP2 SWAP1 SSTORE POP PUSH1 0x1 DUP1 SLOAD DUP1 PUSH2 0x18B4 JUMPI PUSH2 0x18B3 PUSH2 0x204A JUMP JUMPDEST JUMPDEST PUSH1 0x1 SWAP1 SUB DUP2 DUP2 SWAP1 PUSH1 0x0 MSTORE PUSH1 0x20 PUSH1 0x0 KECCAK256 ADD PUSH1 0x0 SWAP1 SSTORE SWAP1 SSTORE PUSH2 0x18D4 PUSH1 0x0 PUSH2 0x1A83 JUMP JUMPDEST POP JUMP JUMPDEST PUSH1 0x0 DUP2 MLOAD SWAP1 POP PUSH1 0x0 PUSH11 0x636F6E736F6C652E6C6F67 SWAP1 POP PUSH1 0x20 DUP4 ADD PUSH1 0x0 DUP1 DUP5 DUP4 DUP6 GAS STATICCALL POP POP POP POP POP JUMP JUMPDEST PUSH1 0x0 PUSH1 0x1 PUSH1 0x2 DUP4 PUSH2 0x1911 SWAP2 SWAP1 PUSH2 0x1F21 JUMP JUMPDEST PUSH2 0x191B SWAP2 SWAP1 PUSH2 0x1D16 JUMP JUMPDEST SWAP1 POP PUSH1 0x0 PUSH1 0x2 DUP3 PUSH2 0x192C SWAP2 SWAP1 PUSH2 0x1D16 JUMP JUMPDEST SWAP1 POP PUSH1 0x0 DUP4 SWAP1 POP PUSH1 0x0 DUP1 SLOAD SWAP1 POP DUP4 LT DUP1 ISZERO PUSH2 0x1982 JUMPI POP PUSH1 0x0 DUP2 DUP2 SLOAD DUP2 LT PUSH2 0x1956 JUMPI PUSH2 0x1955 PUSH2 0x1E75 JUMP JUMPDEST JUMPDEST SWAP1 PUSH1 0x0 MSTORE PUSH1 0x20 PUSH1 0x0 KECCAK256 ADD SLOAD PUSH1 0x0 DUP5 DUP2 SLOAD DUP2 LT PUSH2 0x1975 JUMPI PUSH2 0x1974 PUSH2 0x1E75 JUMP JUMPDEST JUMPDEST SWAP1 PUSH1 0x0 MSTORE PUSH1 0x20 PUSH1 0x0 KECCAK256 ADD SLOAD GT JUMPDEST ISZERO PUSH2 0x198B JUMPI DUP3 SWAP1 POP JUMPDEST PUSH1 0x0 DUP1 SLOAD SWAP1 POP DUP3 LT DUP1 ISZERO PUSH2 0x19DA JUMPI POP PUSH1 0x0 DUP2 DUP2 SLOAD DUP2 LT PUSH2 0x19AE JUMPI PUSH2 0x19AD PUSH2 0x1E75 JUMP JUMPDEST JUMPDEST SWAP1 PUSH1 0x0 MSTORE PUSH1 0x20 PUSH1 0x0 KECCAK256 ADD SLOAD PUSH1 0x0 DUP4 DUP2 SLOAD DUP2 LT PUSH2 0x19CD JUMPI PUSH2 0x19CC PUSH2 0x1E75 JUMP JUMPDEST JUMPDEST SWAP1 PUSH1 0x0 MSTORE PUSH1 0x20 PUSH1 0x0 KECCAK256 ADD SLOAD GT JUMPDEST ISZERO PUSH2 0x19E3 JUMPI DUP2 SWAP1 POP JUMPDEST DUP4 DUP2 EQ PUSH2 0x1A7D JUMPI PUSH1 0x0 DUP2 DUP2 SLOAD DUP2 LT PUSH2 0x19FE JUMPI PUSH2 0x19FD PUSH2 0x1E75 JUMP JUMPDEST JUMPDEST SWAP1 PUSH1 0x0 MSTORE PUSH1 0x20 PUSH1 0x0 KECCAK256 ADD SLOAD PUSH1 0x0 DUP6 DUP2 SLOAD DUP2 LT PUSH2 0x1A1D JUMPI PUSH2 0x1A1C PUSH2 0x1E75 JUMP JUMPDEST JUMPDEST SWAP1 PUSH1 0x0 MSTORE PUSH1 0x20 PUSH1 0x0 KECCAK256 ADD SLOAD PUSH1 0x0 DUP7 DUP2 SLOAD DUP2 LT PUSH2 0x1A3C JUMPI PUSH2 0x1A3B PUSH2 0x1E75 JUMP JUMPDEST JUMPDEST SWAP1 PUSH1 0x0 MSTORE PUSH1 0x20 PUSH1 0x0 KECCAK256 ADD PUSH1 0x0 DUP1 DUP6 DUP2 SLOAD DUP2 LT PUSH2 0x1A5B JUMPI PUSH2 0x1A5A PUSH2 0x1E75 JUMP JUMPDEST JUMPDEST SWAP1 PUSH1 0x0 MSTORE PUSH1 0x20 PUSH1 0x0 KECCAK256 ADD PUSH1 0x0 DUP5 SWAP2 SWAP1 POP SSTORE DUP4 SWAP2 SWAP1 POP SSTORE POP POP PUSH2 0x1A7C DUP2 PUSH2 0x1900 JUMP JUMPDEST JUMPDEST POP POP POP POP JUMP JUMPDEST PUSH1 0x0 PUSH1 0x1 PUSH1 0x2 DUP4 PUSH2 0x1A94 SWAP2 SWAP1 PUSH2 0x1F21 JUMP JUMPDEST PUSH2 0x1A9E SWAP2 SWAP1 PUSH2 0x1D16 JUMP JUMPDEST SWAP1 POP PUSH1 0x0 PUSH1 0x2 DUP3 PUSH2 0x1AAF SWAP2 SWAP1 PUSH2 0x1D16 JUMP JUMPDEST SWAP1 POP PUSH1 0x0 DUP4 SWAP1 POP PUSH1 0x1 DUP1 SLOAD SWAP1 POP DUP4 LT DUP1 ISZERO PUSH2 0x1B05 JUMPI POP PUSH1 0x1 DUP2 DUP2 SLOAD DUP2 LT PUSH2 0x1AD9 JUMPI PUSH2 0x1AD8 PUSH2 0x1E75 JUMP JUMPDEST JUMPDEST SWAP1 PUSH1 0x0 MSTORE PUSH1 0x20 PUSH1 0x0 KECCAK256 ADD SLOAD PUSH1 0x1 DUP5 DUP2 SLOAD DUP2 LT PUSH2 0x1AF8 JUMPI PUSH2 0x1AF7 PUSH2 0x1E75 JUMP JUMPDEST JUMPDEST SWAP1 PUSH1 0x0 MSTORE PUSH1 0x20 PUSH1 0x0 KECCAK256 ADD SLOAD LT JUMPDEST ISZERO PUSH2 0x1B0E JUMPI DUP3 SWAP1 POP JUMPDEST PUSH1 0x1 DUP1 SLOAD SWAP1 POP DUP3 LT DUP1 ISZERO PUSH2 0x1B5D JUMPI POP PUSH1 0x1 DUP2 DUP2 SLOAD DUP2 LT PUSH2 0x1B31 JUMPI PUSH2 0x1B30 PUSH2 0x1E75 JUMP JUMPDEST JUMPDEST SWAP1 PUSH1 0x0 MSTORE PUSH1 0x20 PUSH1 0x0 KECCAK256 ADD SLOAD PUSH1 0x1 DUP4 DUP2 SLOAD DUP2 LT PUSH2 0x1B50 JUMPI PUSH2 0x1B4F PUSH2 0x1E75 JUMP JUMPDEST JUMPDEST SWAP1 PUSH1 0x0 MSTORE PUSH1 0x20 PUSH1 0x0 KECCAK256 ADD SLOAD LT JUMPDEST ISZERO PUSH2 0x1B66 JUMPI DUP2 SWAP1 POP JUMPDEST DUP4 DUP2 EQ PUSH2 0x1C01 JUMPI PUSH1 0x1 DUP2 DUP2 SLOAD DUP2 LT PUSH2 0x1B81 JUMPI PUSH2 0x1B80 PUSH2 0x1E75 JUMP JUMPDEST JUMPDEST SWAP1 PUSH1 0x0 MSTORE PUSH1 0x20 PUSH1 0x0 KECCAK256 ADD SLOAD PUSH1 0x1 DUP6 DUP2 SLOAD DUP2 LT PUSH2 0x1BA0 JUMPI PUSH2 0x1B9F PUSH2 0x1E75 JUMP JUMPDEST JUMPDEST SWAP1 PUSH1 0x0 MSTORE PUSH1 0x20 PUSH1 0x0 KECCAK256 ADD SLOAD PUSH1 0x1 DUP7 DUP2 SLOAD DUP2 LT PUSH2 0x1BBF JUMPI PUSH2 0x1BBE PUSH2 0x1E75 JUMP JUMPDEST JUMPDEST SWAP1 PUSH1 0x0 MSTORE PUSH1 0x20 PUSH1 0x0 KECCAK256 ADD PUSH1 0x0 PUSH1 0x1 DUP6 DUP2 SLOAD DUP2 LT PUSH2 0x1BDF JUMPI PUSH2 0x1BDE PUSH2 0x1E75 JUMP JUMPDEST JUMPDEST SWAP1 PUSH1 0x0 MSTORE PUSH1 0x20 PUSH1 0x0 KECCAK256 ADD PUSH1 0x0 DUP5 SWAP2 SWAP1 POP SSTORE DUP4 SWAP2 SWAP1 POP SSTORE POP POP PUSH2 0x1C00 DUP2 PUSH2 0x1A83 JUMP JUMPDEST JUMPDEST POP POP POP POP JUMP JUMPDEST PUSH1 0x0 DUP1 REVERT JUMPDEST PUSH1 0x0 DUP2 SWAP1 POP SWAP2 SWAP1 POP JUMP JUMPDEST PUSH2 0x1C1F DUP2 PUSH2 0x1C0C JUMP JUMPDEST DUP2 EQ PUSH2 0x1C2A JUMPI PUSH1 0x0 DUP1 REVERT JUMPDEST POP JUMP JUMPDEST PUSH1 0x0 DUP2 CALLDATALOAD SWAP1 POP PUSH2 0x1C3C DUP2 PUSH2 0x1C16 JUMP JUMPDEST SWAP3 SWAP2 POP POP JUMP JUMPDEST PUSH1 0x0 PUSH1 0x20 DUP3 DUP5 SUB SLT ISZERO PUSH2 0x1C58 JUMPI PUSH2 0x1C57 PUSH2 0x1C07 JUMP JUMPDEST JUMPDEST PUSH1 0x0 PUSH2 0x1C66 DUP5 DUP3 DUP6 ADD PUSH2 0x1C2D JUMP JUMPDEST SWAP2 POP POP SWAP3 SWAP2 POP POP JUMP JUMPDEST PUSH1 0x0 DUP1 PUSH1 0x40 DUP4 DUP6 SUB SLT ISZERO PUSH2 0x1C86 JUMPI PUSH2 0x1C85 PUSH2 0x1C07 JUMP JUMPDEST JUMPDEST PUSH1 0x0 PUSH2 0x1C94 DUP6 DUP3 DUP7 ADD PUSH2 0x1C2D JUMP JUMPDEST SWAP3 POP POP PUSH1 0x20 PUSH2 0x1CA5 DUP6 DUP3 DUP7 ADD PUSH2 0x1C2D JUMP JUMPDEST SWAP2 POP POP SWAP3 POP SWAP3 SWAP1 POP JUMP JUMPDEST PUSH2 0x1CB8 DUP2 PUSH2 0x1C0C JUMP JUMPDEST DUP3 MSTORE POP POP JUMP JUMPDEST PUSH1 0x0 PUSH1 0x40 DUP3 ADD SWAP1 POP PUSH2 0x1CD3 PUSH1 0x0 DUP4 ADD DUP6 PUSH2 0x1CAF JUMP JUMPDEST PUSH2 0x1CE0 PUSH1 0x20 DUP4 ADD DUP5 PUSH2 0x1CAF JUMP JUMPDEST SWAP4 SWAP3 POP POP POP JUMP JUMPDEST PUSH32 0x4E487B7100000000000000000000000000000000000000000000000000000000 PUSH1 0x0 MSTORE PUSH1 0x11 PUSH1 0x4 MSTORE PUSH1 0x24 PUSH1 0x0 REVERT JUMPDEST PUSH1 0x0 PUSH2 0x1D21 DUP3 PUSH2 0x1C0C JUMP JUMPDEST SWAP2 POP PUSH2 0x1D2C DUP4 PUSH2 0x1C0C JUMP JUMPDEST SWAP3 POP DUP3 DUP3 ADD SWAP1 POP DUP1 DUP3 GT ISZERO PUSH2 0x1D44 JUMPI PUSH2 0x1D43 PUSH2 0x1CE7 JUMP JUMPDEST JUMPDEST SWAP3 SWAP2 POP POP JUMP JUMPDEST PUSH1 0x0 PUSH2 0x1D55 DUP3 PUSH2 0x1C0C JUMP JUMPDEST SWAP2 POP PUSH2 0x1D60 DUP4 PUSH2 0x1C0C JUMP JUMPDEST SWAP3 POP DUP3 DUP3 SUB SWAP1 POP DUP2 DUP2 GT ISZERO PUSH2 0x1D78 JUMPI PUSH2 0x1D77 PUSH2 0x1CE7 JUMP JUMPDEST JUMPDEST SWAP3 SWAP2 POP POP JUMP JUMPDEST PUSH1 0x0 PUSH20 0xFFFFFFFFFFFFFFFFFFFFFFFFFFFFFFFFFFFFFFFF DUP3 AND SWAP1 POP SWAP2 SWAP1 POP JUMP JUMPDEST PUSH1 0x0 PUSH2 0x1DA9 DUP3 PUSH2 0x1D7E JUMP JUMPDEST SWAP1 POP SWAP2 SWAP1 POP JUMP JUMPDEST PUSH2 0x1DB9 DUP2 PUSH2 0x1D9E JUMP JUMPDEST DUP3 MSTORE POP POP JUMP JUMPDEST PUSH1 0x0 PUSH1 0x80 DUP3 ADD SWAP1 POP PUSH2 0x1DD4 PUSH1 0x0 DUP4 ADD DUP8 PUSH2 0x1DB0 JUMP JUMPDEST PUSH2 0x1DE1 PUSH1 0x20 DUP4 ADD DUP7 PUSH2 0x1DB0 JUMP JUMPDEST PUSH2 0x1DEE PUSH1 0x40 DUP4 ADD DUP6 PUSH2 0x1CAF JUMP JUMPDEST PUSH2 0x1DFB PUSH1 0x60 DUP4 ADD DUP5 PUSH2 0x1CAF JUMP JUMPDEST SWAP6 SWAP5 POP POP POP POP POP JUMP JUMPDEST PUSH1 0x0 PUSH1 0x40 DUP3 ADD SWAP1 POP PUSH2 0x1E19 PUSH1 0x0 DUP4 ADD DUP6 PUSH2 0x1DB0 JUMP JUMPDEST PUSH2 0x1E26 PUSH1 0x20 DUP4 ADD DUP5 PUSH2 0x1DB0 JUMP JUMPDEST SWAP4 SWAP3 POP POP POP JUMP JUMPDEST PUSH1 0x0 PUSH2 0x1E38 DUP3 PUSH2 0x1C0C JUMP JUMPDEST SWAP2 POP PUSH32 0xFFFFFFFFFFFFFFFFFFFFFFFFFFFFFFFFFFFFFFFFFFFFFFFFFFFFFFFFFFFFFFFF DUP3 SUB PUSH2 0x1E6A JUMPI PUSH2 0x1E69 PUSH2 0x1CE7 JUMP JUMPDEST JUMPDEST PUSH1 0x1 DUP3 ADD SWAP1 POP SWAP2 SWAP1 POP JUMP JUMPDEST PUSH32 0x4E487B7100000000000000000000000000000000000000000000000000000000 PUSH1 0x0 MSTORE PUSH1 0x32 PUSH1 0x4 MSTORE PUSH1 0x24 PUSH1 0x0 REVERT JUMPDEST PUSH1 0x0 DUP3 DUP3 MSTORE PUSH1 0x20 DUP3 ADD SWAP1 POP SWAP3 SWAP2 POP POP JUMP JUMPDEST PUSH32 0x73697A652063616E277420626520300000000000000000000000000000000000 PUSH1 0x0 DUP3 ADD MSTORE POP JUMP JUMPDEST PUSH1 0x0 PUSH2 0x1EEB PUSH1 0xF DUP4 PUSH2 0x1EA4 JUMP JUMPDEST SWAP2 POP PUSH2 0x1EF6 DUP3 PUSH2 0x1EB5 JUMP JUMPDEST PUSH1 0x20 DUP3 ADD SWAP1 POP SWAP2 SWAP1 POP JUMP JUMPDEST PUSH1 0x0 PUSH1 0x20 DUP3 ADD SWAP1 POP DUP2 DUP2 SUB PUSH1 0x0 DUP4 ADD MSTORE PUSH2 0x1F1A DUP2 PUSH2 0x1EDE JUMP JUMPDEST SWAP1 POP SWAP2 SWAP1 POP JUMP JUMPDEST PUSH1 0x0 PUSH2 0x1F2C DUP3 PUSH2 0x1C0C JUMP JUMPDEST SWAP2 POP PUSH2 0x1F37 DUP4 PUSH2 0x1C0C JUMP JUMPDEST SWAP3 POP DUP3 DUP3 MUL PUSH2 0x1F45 DUP2 PUSH2 0x1C0C JUMP JUMPDEST SWAP2 POP DUP3 DUP3 DIV DUP5 EQ DUP4 ISZERO OR PUSH2 0x1F5C JUMPI PUSH2 0x1F5B PUSH2 0x1CE7 JUMP JUMPDEST JUMPDEST POP SWAP3 SWAP2 POP POP JUMP JUMPDEST PUSH32 0x4E487B7100000000000000000000000000000000000000000000000000000000 PUSH1 0x0 MSTORE PUSH1 0x12 PUSH1 0x4 MSTORE PUSH1 0x24 PUSH1 0x0 REVERT JUMPDEST PUSH1 0x0 PUSH2 0x1F9D DUP3 PUSH2 0x1C0C JUMP JUMPDEST SWAP2 POP PUSH2 0x1FA8 DUP4 PUSH2 0x1C0C JUMP JUMPDEST SWAP3 POP DUP3 PUSH2 0x1FB8 JUMPI PUSH2 0x1FB7 PUSH2 0x1F63 JUMP JUMPDEST JUMPDEST DUP3 DUP3 DIV SWAP1 POP SWAP3 SWAP2 POP POP JUMP JUMPDEST PUSH1 0x0 PUSH1 0x20 DUP3 ADD SWAP1 POP PUSH2 0x1FD8 PUSH1 0x0 DUP4 ADD DUP5 PUSH2 0x1CAF JUMP JUMPDEST SWAP3 SWAP2 POP POP JUMP JUMPDEST PUSH32 0x4E6F20627579206F726465727320617661696C61626C65000000000000000000 PUSH1 0x0 DUP3 ADD MSTORE POP JUMP JUMPDEST PUSH1 0x0 PUSH2 0x2014 PUSH1 0x17 DUP4 PUSH2 0x1EA4 JUMP JUMPDEST SWAP2 POP PUSH2 0x201F DUP3 PUSH2 0x1FDE JUMP JUMPDEST PUSH1 0x20 DUP3 ADD SWAP1 POP SWAP2 SWAP1 POP JUMP JUMPDEST PUSH1 0x0 PUSH1 0x20 DUP3 ADD SWAP1 POP DUP2 DUP2 SUB PUSH1 0x0 DUP4 ADD MSTORE PUSH2 0x2043 DUP2 PUSH2 0x2007 JUMP JUMPDEST SWAP1 POP SWAP2 SWAP1 POP JUMP JUMPDEST PUSH32 0x4E487B7100000000000000000000000000000000000000000000000000000000 PUSH1 0x0 MSTORE PUSH1 0x31 PUSH1 0x4 MSTORE PUSH1 0x24 PUSH1 0x0 REVERT JUMPDEST PUSH32 0x4E6F2073656C6C206F726465727320617661696C61626C650000000000000000 PUSH1 0x0 DUP3 ADD MSTORE POP JUMP JUMPDEST PUSH1 0x0 PUSH2 0x20AF PUSH1 0x18 DUP4 PUSH2 0x1EA4 JUMP JUMPDEST SWAP2 POP PUSH2 0x20BA DUP3 PUSH2 0x2079 JUMP JUMPDEST PUSH1 0x20 DUP3 ADD SWAP1 POP SWAP2 SWAP1 POP JUMP JUMPDEST PUSH1 0x0 PUSH1 0x20 DUP3 ADD SWAP1 POP DUP2 DUP2 SUB PUSH1 0x0 DUP4 ADD MSTORE PUSH2 0x20DE DUP2 PUSH2 0x20A2 JUMP JUMPDEST SWAP1 POP SWAP2 SWAP1 POP JUMP INVALID LOG2 PUSH5 0x6970667358 0x22 SLT KECCAK256 PUSH11 0xC7612D944B2CCD15814372 0x2D SWAP11 0xAB CODECOPY 0xE8 0xEB PUSH8 0x2302B124D7790057 0xC5 0xD9 0xA9 0xDE SHR PUSH5 0x736F6C6343 STOP ADDMOD GT STOP CALLER "},"methodIdentifiers":{"addBuyOrder(uint256,uint256)":"9049681c","addSellOrder(uint256,uint256)":"3acde419","cancelBuyOrder(uint256)":"be5d147f","cancelSellOrder(uint256)":"1a46e42a","claimBuyLimitOrder(uint256)":"7e78e05f","claimSellLimitOrder(uint256)":"02e0d258","placeAndExecuteMarketBuy(uint256)":"ab0bcaaa","placeAndExecuteMarketSell(uint256)":"5998dbe6","pricePoints()":"3f146088"}}}}}