{
  "contracts/testing/helpers/Reverter.sol": {
    "Reverter": {
      "abi": [
        {
          "inputs": [],
          "name": "doRevert",
          "outputs": [],
          "stateMutability": "pure",
          "type": "function"
        }
      ],
      "devdoc": {
        "kind": "dev",
        "methods": {},
        "version": 1
      },
      "evm": {
        "bytecode": {
          "linkReferences": {},
          "object": "6080604052348015600f57600080fd5b5060d18061001e6000396000f3fe6080604052348015600f57600080fd5b506004361060285760003560e01c8063afc874d214602d575b600080fd5b60336035565b005b6040517f08c379a000000000000000000000000000000000000000000000000000000000815260206004820152601160248201527f5265766572746572207265766572746564000000000000000000000000000000604482015260640160405180910390fdfea2646970667358221220ec203cb02c39167fb92644d16c620e626dd37e549717afc0b4a58207e21910e664736f6c63430008100033",
          "opcodes": "PUSH1 0x80 PUSH1 0x40 MSTORE CALLVALUE DUP1 ISZERO PUSH1 0xF JUMPI PUSH1 0x0 DUP1 REVERT JUMPDEST POP PUSH1 0xD1 DUP1 PUSH2 0x1E PUSH1 0x0 CODECOPY PUSH1 0x0 RETURN INVALID PUSH1 0x80 PUSH1 0x40 MSTORE CALLVALUE DUP1 ISZERO PUSH1 0xF JUMPI PUSH1 0x0 DUP1 REVERT JUMPDEST POP PUSH1 0x4 CALLDATASIZE LT PUSH1 0x28 JUMPI PUSH1 0x0 CALLDATALOAD PUSH1 0xE0 SHR DUP1 PUSH4 0xAFC874D2 EQ PUSH1 0x2D JUMPI JUMPDEST PUSH1 0x0 DUP1 REVERT JUMPDEST PUSH1 0x33 PUSH1 0x35 JUMP JUMPDEST STOP JUMPDEST PUSH1 0x40 MLOAD PUSH32 0x8C379A000000000000000000000000000000000000000000000000000000000 DUP2 MSTORE PUSH1 0x20 PUSH1 0x4 DUP3 ADD MSTORE PUSH1 0x11 PUSH1 0x24 DUP3 ADD MSTORE PUSH32 0x5265766572746572207265766572746564000000000000000000000000000000 PUSH1 0x44 DUP3 ADD MSTORE PUSH1 0x64 ADD PUSH1 0x40 MLOAD DUP1 SWAP2 SUB SWAP1 REVERT INVALID LOG2 PUSH5 0x6970667358 0x22 SLT KECCAK256 0xEC KECCAK256 EXTCODECOPY 0xB0 0x2C CODECOPY AND PUSH32 0xB92644D16C620E626DD37E549717AFC0B4A58207E21910E664736F6C63430008 LT STOP CALLER "
        },
        "gasEstimates": {
          "creation": {
            "codeDepositCost": "41800",
            "executionCost": "93",
            "totalCost": "41893"
          },
          "external": {
            "doRevert()": "212"
          }
        },
        "methodIdentifiers": {
          "doRevert()": "afc874d2"
        }
      },
      "storageLayout": {
        "storage": [],
        "types": null
      },
      "userdoc": {
        "kind": "user",
        "methods": {},
        "version": 1
      }
    }
  }
}