{
  "contracts/testing/helpers/SimpleStorage.sol": {
    "SimpleStorage": {
      "abi": [
        {
          "inputs": [
            {
              "internalType": "bytes32",
              "name": "",
              "type": "bytes32"
            }
          ],
          "name": "db",
          "outputs": [
            {
              "internalType": "bytes32",
              "name": "",
              "type": "bytes32"
            }
          ],
          "stateMutability": "view",
          "type": "function"
        },
        {
          "inputs": [
            {
              "internalType": "bytes32",
              "name": "_key",
              "type": "bytes32"
            }
          ],
          "name": "get",
          "outputs": [
            {
              "internalType": "bytes32",
              "name": "",
              "type": "bytes32"
            }
          ],
          "stateMutability": "view",
          "type": "function"
        },
        {
          "inputs": [
            {
              "internalType": "bytes32",
              "name": "_key",
              "type": "bytes32"
            },
            {
              "internalType": "bytes32",
              "name": "_value",
              "type": "bytes32"
            }
          ],
          "name": "set",
          "outputs": [],
          "stateMutability": "payable",
          "type": "function"
        }
      ],
      "devdoc": {
        "kind": "dev",
        "methods": {},
        "version": 1
      },
      "evm": {
        "bytecode": {
          "linkReferences": {},
          "object": "608060405234801561001057600080fd5b50610127806100206000396000f3fe60806040526004361060305760003560e01c80638eaa6ac0146035578063ecf265bc146070578063f71f7a25146099575b600080fd5b348015604057600080fd5b50605e604c36600460b8565b60009081526020819052604090205490565b60405190815260200160405180910390f35b348015607b57600080fd5b50605e608736600460b8565b60006020819052908152604090205481565b60b660a436600460d0565b60009182526020829052604090912055565b005b60006020828403121560c957600080fd5b5035919050565b6000806040838503121560e257600080fd5b5050803592602090910135915056fea2646970667358221220ad79c6c40dc0c10da9d76894ce6f1955c557a680f2d39fbc2c98a35c8e4379fc64736f6c63430008100033",
          "opcodes": "PUSH1 0x80 PUSH1 0x40 MSTORE CALLVALUE DUP1 ISZERO PUSH2 0x10 JUMPI PUSH1 0x0 DUP1 REVERT JUMPDEST POP PUSH2 0x127 DUP1 PUSH2 0x20 PUSH1 0x0 CODECOPY PUSH1 0x0 RETURN INVALID PUSH1 0x80 PUSH1 0x40 MSTORE PUSH1 0x4 CALLDATASIZE LT PUSH1 0x30 JUMPI PUSH1 0x0 CALLDATALOAD PUSH1 0xE0 SHR DUP1 PUSH4 0x8EAA6AC0 EQ PUSH1 0x35 JUMPI DUP1 PUSH4 0xECF265BC EQ PUSH1 0x70 JUMPI DUP1 PUSH4 0xF71F7A25 EQ PUSH1 0x99 JUMPI JUMPDEST PUSH1 0x0 DUP1 REVERT JUMPDEST CALLVALUE DUP1 ISZERO PUSH1 0x40 JUMPI PUSH1 0x0 DUP1 REVERT JUMPDEST POP PUSH1 0x5E PUSH1 0x4C CALLDATASIZE PUSH1 0x4 PUSH1 0xB8 JUMP JUMPDEST PUSH1 0x0 SWAP1 DUP2 MSTORE PUSH1 0x20 DUP2 SWAP1 MSTORE PUSH1 0x40 SWAP1 KECCAK256 SLOAD SWAP1 JUMP JUMPDEST PUSH1 0x40 MLOAD SWAP1 DUP2 MSTORE PUSH1 0x20 ADD PUSH1 0x40 MLOAD DUP1 SWAP2 SUB SWAP1 RETURN JUMPDEST CALLVALUE DUP1 ISZERO PUSH1 0x7B JUMPI PUSH1 0x0 DUP1 REVERT JUMPDEST POP PUSH1 0x5E PUSH1 0x87 CALLDATASIZE PUSH1 0x4 PUSH1 0xB8 JUMP JUMPDEST PUSH1 0x0 PUSH1 0x20 DUP2 SWAP1 MSTORE SWAP1 DUP2 MSTORE PUSH1 0x40 SWAP1 KECCAK256 SLOAD DUP2 JUMP JUMPDEST PUSH1 0xB6 PUSH1 0xA4 CALLDATASIZE PUSH1 0x4 PUSH1 0xD0 JUMP JUMPDEST PUSH1 0x0 SWAP2 DUP3 MSTORE PUSH1 0x20 DUP3 SWAP1 MSTORE PUSH1 0x40 SWAP1 SWAP2 KECCAK256 SSTORE JUMP JUMPDEST STOP JUMPDEST PUSH1 0x0 PUSH1 0x20 DUP3 DUP5 SUB SLT ISZERO PUSH1 0xC9 JUMPI PUSH1 0x0 DUP1 REVERT JUMPDEST POP CALLDATALOAD SWAP2 SWAP1 POP JUMP JUMPDEST PUSH1 0x0 DUP1 PUSH1 0x40 DUP4 DUP6 SUB SLT ISZERO PUSH1 0xE2 JUMPI PUSH1 0x0 DUP1 REVERT JUMPDEST POP POP DUP1 CALLDATALOAD SWAP3 PUSH1 0x20 SWAP1 SWAP2 ADD CALLDATALOAD SWAP2 POP JUMP INVALID LOG2 PUSH5 0x6970667358 0x22 SLT KECCAK256 0xAD PUSH26 0xC6C40DC0C10DA9D76894CE6F1955C557A680F2D39FBC2C98A35C DUP15 NUMBER PUSH26 0xFC64736F6C634300081000330000000000000000000000000000 "
        },
        "gasEstimates": {
          "creation": {
            "codeDepositCost": "59000",
            "executionCost": "111",
            "totalCost": "59111"
          },
          "external": {
            "db(bytes32)": "2429",
            "get(bytes32)": "2407",
            "set(bytes32,bytes32)": "22405"
          }
        },
        "methodIdentifiers": {
          "db(bytes32)": "ecf265bc",
          "get(bytes32)": "8eaa6ac0",
          "set(bytes32,bytes32)": "f71f7a25"
        }
      },
      "storageLayout": {
        "storage": [
          {
            "astId": 5,
            "contract": "contracts/testing/helpers/SimpleStorage.sol:SimpleStorage",
            "label": "db",
            "offset": 0,
            "slot": "0",
            "type": "t_mapping(t_bytes32,t_bytes32)"
          }
        ],
        "types": {
          "t_bytes32": {
            "encoding": "inplace",
            "label": "bytes32",
            "numberOfBytes": "32"
          },
          "t_mapping(t_bytes32,t_bytes32)": {
            "encoding": "mapping",
            "key": "t_bytes32",
            "label": "mapping(bytes32 => bytes32)",
            "numberOfBytes": "32",
            "value": "t_bytes32"
          }
        }
      },
      "userdoc": {
        "kind": "user",
        "methods": {},
        "version": 1
      }
    }
  }
}