{
  "_format": "hh-sol-artifact-1",
  "contractName": "OrderBook",
  "sourceName": "contracts/OrderBook.sol",
  "abi": [
    {
      "inputs": [
        {
          "internalType": "address",
          "name": "_positionManager",
          "type": "address"
        },
        {
          "internalType": "address",
          "name": "_marginAccount",
          "type": "address"
        },
        {
          "internalType": "address",
          "name": "_tokenAddress",
          "type": "address"
        }
      ],
      "stateMutability": "nonpayable",
      "type": "constructor"
    },
    {
      "anonymous": false,
      "inputs": [
        {
          "indexed": true,
          "internalType": "address",
          "name": "ownerAddress",
          "type": "address"
        },
        {
          "indexed": false,
          "internalType": "uint256",
          "name": "orderId",
          "type": "uint256"
        },
        {
          "indexed": false,
          "internalType": "uint256",
          "name": "size",
          "type": "uint256"
        }
      ],
      "name": "LimitBuyCompleted",
      "type": "event"
    },
    {
      "anonymous": false,
      "inputs": [
        {
          "indexed": true,
          "internalType": "address",
          "name": "ownerAddress",
          "type": "address"
        },
        {
          "indexed": false,
          "internalType": "uint96",
          "name": "price",
          "type": "uint96"
        },
        {
          "indexed": false,
          "internalType": "uint256",
          "name": "orderId",
          "type": "uint256"
        },
        {
          "indexed": false,
          "internalType": "uint256",
          "name": "size",
          "type": "uint256"
        }
      ],
      "name": "LimitBuyCreated",
      "type": "event"
    },
    {
      "anonymous": false,
      "inputs": [
        {
          "indexed": true,
          "internalType": "address",
          "name": "ownerAddress",
          "type": "address"
        },
        {
          "indexed": false,
          "internalType": "uint256",
          "name": "orderId",
          "type": "uint256"
        },
        {
          "indexed": false,
          "internalType": "uint256",
          "name": "size",
          "type": "uint256"
        }
      ],
      "name": "LimitSellCompleted",
      "type": "event"
    },
    {
      "anonymous": false,
      "inputs": [
        {
          "indexed": true,
          "internalType": "address",
          "name": "ownerAddress",
          "type": "address"
        },
        {
          "indexed": false,
          "internalType": "uint96",
          "name": "price",
          "type": "uint96"
        },
        {
          "indexed": false,
          "internalType": "uint256",
          "name": "orderId",
          "type": "uint256"
        },
        {
          "indexed": false,
          "internalType": "uint256",
          "name": "size",
          "type": "uint256"
        }
      ],
      "name": "LimitSellCreated",
      "type": "event"
    },
    {
      "anonymous": false,
      "inputs": [
        {
          "indexed": true,
          "internalType": "address",
          "name": "ownerAddress",
          "type": "address"
        },
        {
          "indexed": false,
          "internalType": "uint256",
          "name": "size",
          "type": "uint256"
        }
      ],
      "name": "MarketBuyExecuted",
      "type": "event"
    },
    {
      "anonymous": false,
      "inputs": [
        {
          "indexed": true,
          "internalType": "address",
          "name": "ownerAddress",
          "type": "address"
        },
        {
          "indexed": false,
          "internalType": "uint256",
          "name": "size",
          "type": "uint256"
        }
      ],
      "name": "MarketSellExecuted",
      "type": "event"
    },
    {
      "inputs": [
        {
          "internalType": "uint96",
          "name": "_price",
          "type": "uint96"
        },
        {
          "internalType": "uint256",
          "name": "size",
          "type": "uint256"
        }
      ],
      "name": "addBuyOrder",
      "outputs": [],
      "stateMutability": "nonpayable",
      "type": "function"
    },
    {
      "inputs": [
        {
          "internalType": "uint96",
          "name": "_price",
          "type": "uint96"
        },
        {
          "internalType": "uint256",
          "name": "size",
          "type": "uint256"
        }
      ],
      "name": "addSellOrder",
      "outputs": [],
      "stateMutability": "nonpayable",
      "type": "function"
    },
    {
      "inputs": [
        {
          "internalType": "uint256",
          "name": "_orderId",
          "type": "uint256"
        }
      ],
      "name": "cancelBuyOrder",
      "outputs": [],
      "stateMutability": "nonpayable",
      "type": "function"
    },
    {
      "inputs": [
        {
          "internalType": "uint256",
          "name": "_orderId",
          "type": "uint256"
        }
      ],
      "name": "cancelSellOrder",
      "outputs": [],
      "stateMutability": "nonpayable",
      "type": "function"
    },
    {
      "inputs": [
        {
          "internalType": "uint256",
          "name": "_orderId",
          "type": "uint256"
        }
      ],
      "name": "claimBuyLimitOrder",
      "outputs": [],
      "stateMutability": "nonpayable",
      "type": "function"
    },
    {
      "inputs": [
        {
          "internalType": "uint256",
          "name": "_orderId",
          "type": "uint256"
        }
      ],
      "name": "claimSellLimitOrder",
      "outputs": [],
      "stateMutability": "nonpayable",
      "type": "function"
    },
    {
      "inputs": [
        {
          "internalType": "uint256",
          "name": "_size",
          "type": "uint256"
        },
        {
          "internalType": "address",
          "name": "_user",
          "type": "address"
        }
      ],
      "name": "placeAndExecuteMarketBuy",
      "outputs": [],
      "stateMutability": "nonpayable",
      "type": "function"
    },
    {
      "inputs": [
        {
          "internalType": "uint256",
          "name": "_size",
          "type": "uint256"
        },
        {
          "internalType": "address",
          "name": "_user",
          "type": "address"
        }
      ],
      "name": "placeAndExecuteMarketSell",
      "outputs": [],
      "stateMutability": "nonpayable",
      "type": "function"
    },
    {
      "inputs": [],
      "name": "pricePoints",
      "outputs": [
        {
          "internalType": "uint256",
          "name": "",
          "type": "uint256"
        },
        {
          "internalType": "uint256",
          "name": "",
          "type": "uint256"
        }
      ],
      "stateMutability": "view",
      "type": "function"
    },
    {
      "inputs": [
        {
          "internalType": "uint256",
          "name": "",
          "type": "uint256"
        }
      ],
      "name": "s_buyOrdersHeap",
      "outputs": [
        {
          "internalType": "uint256",
          "name": "",
          "type": "uint256"
        }
      ],
      "stateMutability": "view",
      "type": "function"
    },
    {
      "inputs": [
        {
          "internalType": "uint256",
          "name": "",
          "type": "uint256"
        }
      ],
      "name": "s_buyPricePoints",
      "outputs": [
        {
          "internalType": "uint256",
          "name": "totalCompletedOrCanceledOrders",
          "type": "uint256"
        },
        {
          "internalType": "uint256",
          "name": "totalSizeAtPrice",
          "type": "uint256"
        },
        {
          "internalType": "uint256",
          "name": "executableSize",
          "type": "uint256"
        }
      ],
      "stateMutability": "view",
      "type": "function"
    },
    {
      "inputs": [],
      "name": "s_orderIdCounter",
      "outputs": [
        {
          "internalType": "uint256",
          "name": "",
          "type": "uint256"
        }
      ],
      "stateMutability": "view",
      "type": "function"
    },
    {
      "inputs": [
        {
          "internalType": "uint256",
          "name": "",
          "type": "uint256"
        }
      ],
      "name": "s_orders",
      "outputs": [
        {
          "internalType": "address",
          "name": "ownerAddress",
          "type": "address"
        },
        {
          "internalType": "uint96",
          "name": "price",
          "type": "uint96"
        },
        {
          "internalType": "uint256",
          "name": "size",
          "type": "uint256"
        },
        {
          "internalType": "uint256",
          "name": "acceptableRange",
          "type": "uint256"
        }
      ],
      "stateMutability": "view",
      "type": "function"
    },
    {
      "inputs": [
        {
          "internalType": "uint256",
          "name": "",
          "type": "uint256"
        }
      ],
      "name": "s_sellOrdersHeap",
      "outputs": [
        {
          "internalType": "uint256",
          "name": "",
          "type": "uint256"
        }
      ],
      "stateMutability": "view",
      "type": "function"
    },
    {
      "inputs": [
        {
          "internalType": "uint256",
          "name": "",
          "type": "uint256"
        }
      ],
      "name": "s_sellPricePoints",
      "outputs": [
        {
          "internalType": "uint256",
          "name": "totalCompletedOrCanceledOrders",
          "type": "uint256"
        },
        {
          "internalType": "uint256",
          "name": "totalSizeAtPrice",
          "type": "uint256"
        },
        {
          "internalType": "uint256",
          "name": "executableSize",
          "type": "uint256"
        }
      ],
      "stateMutability": "view",
      "type": "function"
    }
  ],
  "bytecode": "0x60a06040523480156200001157600080fd5b506040516200346738038062003467833981810160405281019062000037919062000160565b81600760006101000a81548173ffffffffffffffffffffffffffffffffffffffff021916908373ffffffffffffffffffffffffffffffffffffffff16021790555082600660006101000a81548173ffffffffffffffffffffffffffffffffffffffff021916908373ffffffffffffffffffffffffffffffffffffffff1602179055508073ffffffffffffffffffffffffffffffffffffffff1660808173ffffffffffffffffffffffffffffffffffffffff1681525050505050620001bc565b600080fd5b600073ffffffffffffffffffffffffffffffffffffffff82169050919050565b60006200012882620000fb565b9050919050565b6200013a816200011b565b81146200014657600080fd5b50565b6000815190506200015a816200012f565b92915050565b6000806000606084860312156200017c576200017b620000f6565b5b60006200018c8682870162000149565b93505060206200019f8682870162000149565b9250506040620001b28682870162000149565b9150509250925092565b60805161325062000217600039600081816105b80152818161073601528181610a5201528181610bc601528181610f92015281816111100152818161159801528181611a8601528181611d920152611f5401526132506000f3fe608060405234801561001057600080fd5b50600436106100f55760003560e01c8063a008e45c11610097578063e6d29b5111610066578063e6d29b5114610260578063ebc6bac914610292578063f2ea2ef6146102c2578063f9e7c51f146102de576100f5565b8063a008e45c146101d9578063a6f3c50f146101f5578063b7377cc614610228578063be5d147f14610244576100f5565b806325df67c7116100d357806325df67c7146101645780632bf1360e146101805780633f1460881461019e5780637e78e05f146101bd576100f5565b806302e0d258146100fa5780630e2e2ffe146101165780631a46e42a14610148575b600080fd5b610114600480360381019061010f919061294d565b61030e565b005b610130600480360381019061012b919061294d565b6107fc565b60405161013f93929190612989565b60405180910390f35b610162600480360381019061015d919061294d565b610826565b005b61017e60048036038101906101799190612a04565b610b18565b005b610188610c98565b6040516101959190612a44565b60405180910390f35b6101a6610c9e565b6040516101b4929190612a5f565b60405180910390f35b6101d760048036038101906101d2919061294d565b610ce8565b005b6101f360048036038101906101ee9190612ae6565b6111d6565b005b61020f600480360381019061020a919061294d565b611678565b60405161021f9493929190612b44565b60405180910390f35b610242600480360381019061023d9190612ae6565b6116e0565b005b61025e6004803603810190610259919061294d565b611b66565b005b61027a6004803603810190610275919061294d565b611e58565b60405161028993929190612989565b60405180910390f35b6102ac60048036038101906102a7919061294d565b611e82565b6040516102b99190612a44565b60405180910390f35b6102dc60048036038101906102d79190612a04565b611ea6565b005b6102f860048036038101906102f3919061294d565b612026565b6040516103059190612a44565b60405180910390f35b6000600260008381526020019081526020016000209050600073ffffffffffffffffffffffffffffffffffffffff168160000160009054906101000a900473ffffffffffffffffffffffffffffffffffffffff1673ffffffffffffffffffffffffffffffffffffffff16036103b8576040517f08c379a00000000000000000000000000000000000000000000000000000000081526004016103af90612be6565b60405180910390fd5b8060000160009054906101000a900473ffffffffffffffffffffffffffffffffffffffff1673ffffffffffffffffffffffffffffffffffffffff163373ffffffffffffffffffffffffffffffffffffffff161461044a576040517f08c379a000000000000000000000000000000000000000000000000000000000815260040161044190612c78565b60405180910390fd5b6000600460008360000160149054906101000a90046bffffffffffffffffffffffff166bffffffffffffffffffffffff16815260200190815260200160002090508060000154816002015461049f9190612cc7565b8260020154106104e4576040517f08c379a00000000000000000000000000000000000000000000000000000000081526004016104db90612d47565b60405180910390fd5b60008260020154826000015483600201546104ff9190612cc7565b6105099190612d67565b905060008360010154821161051e5781610524565b83600101545b90508084600101600082825461053a9190612d67565b92505081905550808360000160008282546105559190612cc7565b92505081905550808360020160008282546105709190612d67565b92505081905550600660009054906101000a900473ffffffffffffffffffffffffffffffffffffffff1673ffffffffffffffffffffffffffffffffffffffff1663083d2bdb337f00000000000000000000000000000000000000000000000000000000000000008461062c6402540be40061061e8b60000160149054906101000a90046bffffffffffffffffffffffff166bffffffffffffffffffffffff168961204a90919063ffffffff16565b61206090919063ffffffff16565b6040518563ffffffff1660e01b815260040161064b9493929190612d9b565b600060405180830381600087803b15801561066557600080fd5b505af1158015610679573d6000803e3d6000fd5b5050505060008460010154036107a55760026000868152602001908152602001600020600080820160006101000a81549073ffffffffffffffffffffffffffffffffffffffff02191690556000820160146101000a8154906bffffffffffffffffffffffff0219169055600182016000905560028201600090555050600760009054906101000a900473ffffffffffffffffffffffffffffffffffffffff1673ffffffffffffffffffffffffffffffffffffffff1663bc73473b337f00000000000000000000000000000000000000000000000000000000000000006040518363ffffffff1660e01b8152600401610772929190612de0565b600060405180830381600087803b15801561078c57600080fd5b505af11580156107a0573d6000803e3d6000fd5b505050505b3373ffffffffffffffffffffffffffffffffffffffff167f62f5a574467a619a68daa8cbff02c3ab0a6d5043f7ed934ee24cf1f6018ec46786836040516107ed929190612a5f565b60405180910390a25050505050565b60046020528060005260406000206000915090508060000154908060010154908060020154905083565b6000600260008381526020019081526020016000206040518060800160405290816000820160009054906101000a900473ffffffffffffffffffffffffffffffffffffffff1673ffffffffffffffffffffffffffffffffffffffff1673ffffffffffffffffffffffffffffffffffffffff1681526020016000820160149054906101000a90046bffffffffffffffffffffffff166bffffffffffffffffffffffff166bffffffffffffffffffffffff168152602001600182015481526020016002820154815250509050806000015173ffffffffffffffffffffffffffffffffffffffff163373ffffffffffffffffffffffffffffffffffffffff1614610962576040517f08c379a000000000000000000000000000000000000000000000000000000000815260040161095990612e7b565b60405180910390fd5b80604001516004600083602001516bffffffffffffffffffffffff168152602001908152602001600020600001600082825461099e9190612cc7565b9250508190555060026000838152602001908152602001600020600080820160006101000a81549073ffffffffffffffffffffffffffffffffffffffff02191690556000820160146101000a8154906bffffffffffffffffffffffff0219169055600182016000905560028201600090555050600760009054906101000a900473ffffffffffffffffffffffffffffffffffffffff1673ffffffffffffffffffffffffffffffffffffffff1663bc73473b337f00000000000000000000000000000000000000000000000000000000000000006040518363ffffffff1660e01b8152600401610a8e929190612de0565b600060405180830381600087803b158015610aa857600080fd5b505af1158015610abc573d6000803e3d6000fd5b505050503373ffffffffffffffffffffffffffffffffffffffff167f62f5a574467a619a68daa8cbff02c3ab0a6d5043f7ed934ee24cf1f6018ec467838360400151604051610b0c929190612a5f565b60405180910390a25050565b60006005549050600181610b2c9190612cc7565b600581905550600060036000856bffffffffffffffffffffffff16815260200190815260200160002090506000816001015403610b6d57610b6c84612076565b5b610b85818585600186610b809190612cc7565b6121bc565b600760009054906101000a900473ffffffffffffffffffffffffffffffffffffffff1673ffffffffffffffffffffffffffffffffffffffff1663466730ff337f00000000000000000000000000000000000000000000000000000000000000006040518363ffffffff1660e01b8152600401610c02929190612de0565b600060405180830381600087803b158015610c1c57600080fd5b505af1158015610c30573d6000803e3d6000fd5b505050503373ffffffffffffffffffffffffffffffffffffffff167fe341ae22c129d26d068837f126903a3ba0116b559d1a5f1d39b4f1ffb777be9285600185610c7a9190612cc7565b86604051610c8a93929190612e9b565b60405180910390a250505050565b60055481565b6000806001600081548110610cb657610cb5612ed2565b5b906000526020600020015460008081548110610cd557610cd4612ed2565b5b9060005260206000200154915091509091565b6000600260008381526020019081526020016000209050600073ffffffffffffffffffffffffffffffffffffffff168160000160009054906101000a900473ffffffffffffffffffffffffffffffffffffffff1673ffffffffffffffffffffffffffffffffffffffff1603610d92576040517f08c379a0000000000000000000000000000000000000000000000000000000008152600401610d8990612be6565b60405180910390fd5b8060000160009054906101000a900473ffffffffffffffffffffffffffffffffffffffff1673ffffffffffffffffffffffffffffffffffffffff163373ffffffffffffffffffffffffffffffffffffffff1614610e24576040517f08c379a0000000000000000000000000000000000000000000000000000000008152600401610e1b90612c78565b60405180910390fd5b6000600360008360000160149054906101000a90046bffffffffffffffffffffffff166bffffffffffffffffffffffff168152602001908152602001600020905080600001548160020154610e799190612cc7565b826002015410610ebe576040517f08c379a0000000000000000000000000000000000000000000000000000000008152600401610eb590612d47565b60405180910390fd5b6000826002015482600001548360020154610ed99190612cc7565b610ee39190612d67565b9050600083600101548211610ef85781610efe565b83600101545b905080846001016000828254610f149190612d67565b9250508190555080836000016000828254610f2f9190612cc7565b9250508190555080836002016000828254610f4a9190612d67565b92505081905550600660009054906101000a900473ffffffffffffffffffffffffffffffffffffffff1673ffffffffffffffffffffffffffffffffffffffff1663abb2361e337f0000000000000000000000000000000000000000000000000000000000000000846110066402540be400610ff88b60000160149054906101000a90046bffffffffffffffffffffffff166bffffffffffffffffffffffff168961204a90919063ffffffff16565b61206090919063ffffffff16565b6040518563ffffffff1660e01b81526004016110259493929190612d9b565b600060405180830381600087803b15801561103f57600080fd5b505af1158015611053573d6000803e3d6000fd5b50505050600084600101540361117f5760026000868152602001908152602001600020600080820160006101000a81549073ffffffffffffffffffffffffffffffffffffffff02191690556000820160146101000a8154906bffffffffffffffffffffffff0219169055600182016000905560028201600090555050600760009054906101000a900473ffffffffffffffffffffffffffffffffffffffff1673ffffffffffffffffffffffffffffffffffffffff1663bc73473b337f00000000000000000000000000000000000000000000000000000000000000006040518363ffffffff1660e01b815260040161114c929190612de0565b600060405180830381600087803b15801561116657600080fd5b505af115801561117a573d6000803e3d6000fd5b505050505b3373ffffffffffffffffffffffffffffffffffffffff167f47bc0baa2fd293c6dfea7b7bcf5b051c50ccdfeb0228a20c7af6b811fa5840fc86836040516111c7929190612a5f565b60405180910390a25050505050565b600660009054906101000a900473ffffffffffffffffffffffffffffffffffffffff1673ffffffffffffffffffffffffffffffffffffffff163373ffffffffffffffffffffffffffffffffffffffff16148061125d57508073ffffffffffffffffffffffffffffffffffffffff163373ffffffffffffffffffffffffffffffffffffffff16145b61129c576040517f08c379a000000000000000000000000000000000000000000000000000000000815260040161129390612f73565b60405180910390fd5b600082116112df576040517f08c379a00000000000000000000000000000000000000000000000000000000081526004016112d690613005565b60405180910390fd5b6000806000815481106112f5576112f4612ed2565b5b9060005260206000200154905060006003600083815260200190815260200160002060405180606001604052908160008201548152602001600182015481526020016002820154815250509050600081604001518260000151836020015161135d9190612d67565b6113679190612d67565b90506000805b828711156114a357611388858461204a90919063ffffffff16565b826113939190612cc7565b915082846040018181516113a79190612cc7565b9150818152505082876113ba9190612d67565b965082816113c89190612cc7565b905060006113d46122e7565b905084600360008881526020019081526020016000206000820151816000015560208201518160010155604082015181600201559050506000810361141957506114a3565b6000808154811061142d5761142c612ed2565b5b9060005260206000200154955060036000878152602001908152602001600020604051806060016040529081600082015481526020016001820154815260200160028201548152505094508460400151856000015186602001516114919190612d67565b61149b9190612d67565b93505061136d565b6000871180156114b7575060008080549050115b15611557576114ed600080815481106114d3576114d2612ed2565b5b90600052602060002001548861204a90919063ffffffff16565b826114f89190612cc7565b9150868460400181815161150c9190612cc7565b91508181525050868161151f9190612cc7565b905083600360008781526020019081526020016000206000820151816000015560208201518160010155604082015181600201559050505b600660009054906101000a900473ffffffffffffffffffffffffffffffffffffffff1673ffffffffffffffffffffffffffffffffffffffff1663083d2bdb877f0000000000000000000000000000000000000000000000000000000000000000846115d06402540be4008861206090919063ffffffff16565b6040518563ffffffff1660e01b81526004016115ef9493929190612d9b565b600060405180830381600087803b15801561160957600080fd5b505af115801561161d573d6000803e3d6000fd5b505050508573ffffffffffffffffffffffffffffffffffffffff167f164b5737fc6428aa3fe261c4d6e12a28858c866b9b5f1a6b98b0582fbb777f25826040516116679190612a44565b60405180910390a250505050505050565b60026020528060005260406000206000915090508060000160009054906101000a900473ffffffffffffffffffffffffffffffffffffffff16908060000160149054906101000a90046bffffffffffffffffffffffff16908060010154908060020154905084565b600660009054906101000a900473ffffffffffffffffffffffffffffffffffffffff1673ffffffffffffffffffffffffffffffffffffffff163373ffffffffffffffffffffffffffffffffffffffff16148061176757508073ffffffffffffffffffffffffffffffffffffffff163373ffffffffffffffffffffffffffffffffffffffff16145b6117a6576040517f08c379a000000000000000000000000000000000000000000000000000000000815260040161179d90612f73565b60405180910390fd5b600082116117e9576040517f08c379a00000000000000000000000000000000000000000000000000000000081526004016117e090613005565b60405180910390fd5b60006001600081548110611800576117ff612ed2565b5b906000526020600020015490506000600460008381526020019081526020016000206040518060600160405290816000820154815260200160018201548152602001600282015481525050905060008160400151826000015183602001516118689190612d67565b6118729190612d67565b90506000805b8287106119ae57611892858461204a90919063ffffffff16565b8261189d9190612cc7565b915082846040018181516118b19190612cc7565b9150818152505082876118c49190612d67565b965082816118d29190612cc7565b905060006118de6123c8565b905084600460008881526020019081526020016000206000820151816000015560208201518160010155604082015181600201559050506000810361192357506119ae565b600160008154811061193857611937612ed2565b5b90600052602060002001549550600460008781526020019081526020016000206040518060600160405290816000820154815260200160018201548152602001600282015481525050945084604001518560000151866020015161199c9190612d67565b6119a69190612d67565b935050611878565b6000871180156119c357506000600180549050115b15611a45576119db858861204a90919063ffffffff16565b826119e69190612cc7565b915086846040018181516119fa9190612cc7565b915081815250508681611a0d9190612cc7565b905083600460008781526020019081526020016000206000820151816000015560208201518160010155604082015181600201559050505b600660009054906101000a900473ffffffffffffffffffffffffffffffffffffffff1673ffffffffffffffffffffffffffffffffffffffff1663abb2361e877f000000000000000000000000000000000000000000000000000000000000000084611abe6402540be4008861206090919063ffffffff16565b6040518563ffffffff1660e01b8152600401611add9493929190612d9b565b600060405180830381600087803b158015611af757600080fd5b505af1158015611b0b573d6000803e3d6000fd5b505050508573ffffffffffffffffffffffffffffffffffffffff167fb7921667e8b87dc9a92899204638d884aa348737867196f95eb33668810e784782604051611b559190612a44565b60405180910390a250505050505050565b6000600260008381526020019081526020016000206040518060800160405290816000820160009054906101000a900473ffffffffffffffffffffffffffffffffffffffff1673ffffffffffffffffffffffffffffffffffffffff1673ffffffffffffffffffffffffffffffffffffffff1681526020016000820160149054906101000a90046bffffffffffffffffffffffff166bffffffffffffffffffffffff166bffffffffffffffffffffffff168152602001600182015481526020016002820154815250509050806000015173ffffffffffffffffffffffffffffffffffffffff163373ffffffffffffffffffffffffffffffffffffffff1614611ca2576040517f08c379a0000000000000000000000000000000000000000000000000000000008152600401611c9990612e7b565b60405180910390fd5b80604001516003600083602001516bffffffffffffffffffffffff1681526020019081526020016000206000016000828254611cde9190612cc7565b9250508190555060026000838152602001908152602001600020600080820160006101000a81549073ffffffffffffffffffffffffffffffffffffffff02191690556000820160146101000a8154906bffffffffffffffffffffffff0219169055600182016000905560028201600090555050600760009054906101000a900473ffffffffffffffffffffffffffffffffffffffff1673ffffffffffffffffffffffffffffffffffffffff1663bc73473b337f00000000000000000000000000000000000000000000000000000000000000006040518363ffffffff1660e01b8152600401611dce929190612de0565b600060405180830381600087803b158015611de857600080fd5b505af1158015611dfc573d6000803e3d6000fd5b505050503373ffffffffffffffffffffffffffffffffffffffff167f47bc0baa2fd293c6dfea7b7bcf5b051c50ccdfeb0228a20c7af6b811fa5840fc838360400151604051611e4c929190612a5f565b60405180910390a25050565b60036020528060005260406000206000915090508060000154908060010154908060020154905083565b60008181548110611e9257600080fd5b906000526020600020016000915090505481565b60006005549050600181611eba9190612cc7565b600581905550600060046000856bffffffffffffffffffffffff16815260200190815260200160002090506000816001015403611efb57611efa846124a9565b5b611f13818585600186611f0e9190612cc7565b6121bc565b600760009054906101000a900473ffffffffffffffffffffffffffffffffffffffff1673ffffffffffffffffffffffffffffffffffffffff1663466730ff337f00000000000000000000000000000000000000000000000000000000000000006040518363ffffffff1660e01b8152600401611f90929190612de0565b600060405180830381600087803b158015611faa57600080fd5b505af1158015611fbe573d6000803e3d6000fd5b505050503373ffffffffffffffffffffffffffffffffffffffff167f21d96fe24c2dfba51fb9c7f89a5aaee42e23ebe58d5c152423a18a121f04c337856001856120089190612cc7565b8660405161201893929190612e9b565b60405180910390a250505050565b6001818154811061203657600080fd5b906000526020600020016000915090505481565b600081836120589190613025565b905092915050565b6000818361206e9190613096565b905092915050565b60008080549050905060008290806001815401808255809150506001900390600052602060002001600090916bffffffffffffffffffffffff169091909150555b60008111156121b857600060026001836120d19190612d67565b6120db9190613096565b9050600082815481106120f1576120f0612ed2565b5b9060005260206000200154600082815481106121105761210f612ed2565b5b90600052602060002001541061212657506121b8565b6000818154811061213a57612139612ed2565b5b90600052602060002001546000838154811061215957612158612ed2565b5b90600052602060002001546000848154811061217857612177612ed2565b5b90600052602060002001600080858154811061219757612196612ed2565b5b906000526020600020016000849190505583919050555050809150506120b7565b5050565b6000808560010154146121d35784600101546121d6565b60005b905060405180608001604052803373ffffffffffffffffffffffffffffffffffffffff168152602001856bffffffffffffffffffffffff168152602001848152602001828152506002600084815260200190815260200160002060008201518160000160006101000a81548173ffffffffffffffffffffffffffffffffffffffff021916908373ffffffffffffffffffffffffffffffffffffffff16021790555060208201518160000160146101000a8154816bffffffffffffffffffffffff02191690836bffffffffffffffffffffffff1602179055506040820151816001015560608201518160020155905050828560010160008282546122d99190612cc7565b925050819055505050505050565b60008060008054905090506001811015612336576040517f08c379a000000000000000000000000000000000000000000000000000000000815260040161232d90613139565b60405180910390fd5b60006001826123459190612d67565b8154811061235657612355612ed2565b5b90600052602060002001546000808154811061237557612374612ed2565b5b9060005260206000200181905550600080548061239557612394613159565b5b600190038181906000526020600020016000905590556123b560006125f1565b6001816123c29190612d67565b91505090565b60008060018054905090506001811015612417576040517f08c379a000000000000000000000000000000000000000000000000000000000815260040161240e906131fa565b60405180910390fd5b600180826124259190612d67565b8154811061243657612435612ed2565b5b9060005260206000200154600160008154811061245657612455612ed2565b5b9060005260206000200181905550600180548061247657612475613159565b5b600190038181906000526020600020016000905590556124966000612781565b6001816124a39190612d67565b91505090565b6000600180549050905060018290806001815401808255809150506001900390600052602060002001600090916bffffffffffffffffffffffff169091909150555b60008111156125ed57600060026001836125059190612d67565b61250f9190613096565b90506001828154811061252557612524612ed2565b5b90600052602060002001546001828154811061254457612543612ed2565b5b90600052602060002001541161255a57506125ed565b6001818154811061256e5761256d612ed2565b5b90600052602060002001546001838154811061258d5761258c612ed2565b5b9060005260206000200154600184815481106125ac576125ab612ed2565b5b906000526020600020016000600185815481106125cc576125cb612ed2565b5b906000526020600020016000849190505583919050555050809150506124eb565b5050565b60008190505b60011561277d576000600160028461260f9190613025565b6126199190612cc7565b9050600060018261262a9190612cc7565b90506000805490508210801561267b57506000838154811061264f5761264e612ed2565b5b90600052602060002001546000838154811061266e5761266d612ed2565b5b9060005260206000200154115b15612684578192505b600080549050811080156126d35750600083815481106126a7576126a6612ed2565b5b9060005260206000200154600082815481106126c6576126c5612ed2565b5b9060005260206000200154115b156126dc578092505b8383036126ea57505061277d565b600083815481106126fe576126fd612ed2565b5b90600052602060002001546000858154811061271d5761271c612ed2565b5b90600052602060002001546000868154811061273c5761273b612ed2565b5b90600052602060002001600080878154811061275b5761275a612ed2565b5b90600052602060002001600084919050558391905055505082935050506125f7565b5050565b60008190505b60011561290e576000600160028461279f9190613025565b6127a99190612cc7565b905060006001826127ba9190612cc7565b90506001805490508210801561280b5750600183815481106127df576127de612ed2565b5b9060005260206000200154600183815481106127fe576127fd612ed2565b5b9060005260206000200154105b15612814578192505b6001805490508110801561286357506001838154811061283757612836612ed2565b5b90600052602060002001546001828154811061285657612855612ed2565b5b9060005260206000200154105b1561286c578092505b83830361287a57505061290e565b6001838154811061288e5761288d612ed2565b5b9060005260206000200154600185815481106128ad576128ac612ed2565b5b9060005260206000200154600186815481106128cc576128cb612ed2565b5b906000526020600020016000600187815481106128ec576128eb612ed2565b5b9060005260206000200160008491905055839190505550508293505050612787565b5050565b600080fd5b6000819050919050565b61292a81612917565b811461293557600080fd5b50565b60008135905061294781612921565b92915050565b60006020828403121561296357612962612912565b5b600061297184828501612938565b91505092915050565b61298381612917565b82525050565b600060608201905061299e600083018661297a565b6129ab602083018561297a565b6129b8604083018461297a565b949350505050565b60006bffffffffffffffffffffffff82169050919050565b6129e1816129c0565b81146129ec57600080fd5b50565b6000813590506129fe816129d8565b92915050565b60008060408385031215612a1b57612a1a612912565b5b6000612a29858286016129ef565b9250506020612a3a85828601612938565b9150509250929050565b6000602082019050612a59600083018461297a565b92915050565b6000604082019050612a74600083018561297a565b612a81602083018461297a565b9392505050565b600073ffffffffffffffffffffffffffffffffffffffff82169050919050565b6000612ab382612a88565b9050919050565b612ac381612aa8565b8114612ace57600080fd5b50565b600081359050612ae081612aba565b92915050565b60008060408385031215612afd57612afc612912565b5b6000612b0b85828601612938565b9250506020612b1c85828601612ad1565b9150509250929050565b612b2f81612aa8565b82525050565b612b3e816129c0565b82525050565b6000608082019050612b596000830187612b26565b612b666020830186612b35565b612b73604083018561297a565b612b80606083018461297a565b95945050505050565b600082825260208201905092915050565b7f4f72646572426f6f6b3a206f7264657220646f65736e27742065786973740000600082015250565b6000612bd0601e83612b89565b9150612bdb82612b9a565b602082019050919050565b60006020820190508181036000830152612bff81612bc3565b9050919050565b7f4f72646572426f6f6b3a206f6e6c79206f72646572206f776e65722063616e2060008201527f636c61696d000000000000000000000000000000000000000000000000000000602082015250565b6000612c62602583612b89565b9150612c6d82612c06565b604082019050919050565b60006020820190508181036000830152612c9181612c55565b9050919050565b7f4e487b7100000000000000000000000000000000000000000000000000000000600052601160045260246000fd5b6000612cd282612917565b9150612cdd83612917565b9250828201905080821115612cf557612cf4612c98565b5b92915050565b7f4f72646572426f6f6b3a206f72646572206e6f742065786563757461626c6500600082015250565b6000612d31601f83612b89565b9150612d3c82612cfb565b602082019050919050565b60006020820190508181036000830152612d6081612d24565b9050919050565b6000612d7282612917565b9150612d7d83612917565b9250828203905081811115612d9557612d94612c98565b5b92915050565b6000608082019050612db06000830187612b26565b612dbd6020830186612b26565b612dca604083018561297a565b612dd7606083018461297a565b95945050505050565b6000604082019050612df56000830185612b26565b612e026020830184612b26565b9392505050565b7f4f72646572426f6f6b3a204f6e6c79206f72646572206f776e65722063616e2060008201527f63616e63656c206f726465720000000000000000000000000000000000000000602082015250565b6000612e65602c83612b89565b9150612e7082612e09565b604082019050919050565b60006020820190508181036000830152612e9481612e58565b9050919050565b6000606082019050612eb06000830186612b35565b612ebd602083018561297a565b612eca604083018461297a565b949350505050565b7f4e487b7100000000000000000000000000000000000000000000000000000000600052603260045260246000fd5b7f4f72646572426f6f6b3a206f6e6c792075736572206f7220706f736974696f6e60008201527f206d616e616765722063616e2065786563757465000000000000000000000000602082015250565b6000612f5d603483612b89565b9150612f6882612f01565b604082019050919050565b60006020820190508181036000830152612f8c81612f50565b9050919050565b7f4f72646572426f6f6b3a2073697a65206d75737420626520677265617465722060008201527f7468616e20300000000000000000000000000000000000000000000000000000602082015250565b6000612fef602683612b89565b9150612ffa82612f93565b604082019050919050565b6000602082019050818103600083015261301e81612fe2565b9050919050565b600061303082612917565b915061303b83612917565b925082820261304981612917565b915082820484148315176130605761305f612c98565b5b5092915050565b7f4e487b7100000000000000000000000000000000000000000000000000000000600052601260045260246000fd5b60006130a182612917565b91506130ac83612917565b9250826130bc576130bb613067565b5b828204905092915050565b7f4f72646572426f6f6b3a204e6f20627579206f726465727320617661696c616260008201527f6c65000000000000000000000000000000000000000000000000000000000000602082015250565b6000613123602283612b89565b915061312e826130c7565b604082019050919050565b6000602082019050818103600083015261315281613116565b9050919050565b7f4e487b7100000000000000000000000000000000000000000000000000000000600052603160045260246000fd5b7f4f72646572426f6f6b3a204e6f2073656c6c206f726465727320617661696c6160008201527f626c650000000000000000000000000000000000000000000000000000000000602082015250565b60006131e4602383612b89565b91506131ef82613188565b604082019050919050565b60006020820190508181036000830152613213816131d7565b905091905056fea26469706673582212204d2f601b07df7b76f3da85acb361b391fcdd2e685364c546cefb7909f7b2adff64736f6c63430008110033",
  "linkReferences": {},
  "deployedLinkReferences": {}
}