{
  "_format": "hh-sol-artifact-1",
  "contractName": "MarginAccount",
  "sourceName": "contracts/MarginAccount.sol",
  "abi": [
    {
      "inputs": [
        {
          "internalType": "address",
          "name": "_ropUSDC",
          "type": "address"
        },
        {
          "internalType": "address",
          "name": "_hypContractAddress",
          "type": "address"
        }
      ],
      "stateMutability": "nonpayable",
      "type": "constructor"
    },
    {
      "anonymous": false,
      "inputs": [
        {
          "indexed": true,
          "internalType": "address",
          "name": "user",
          "type": "address"
        },
        {
          "indexed": false,
          "internalType": "uint256",
          "name": "amount",
          "type": "uint256"
        }
      ],
      "name": "Deposit",
      "type": "event"
    },
    {
      "anonymous": false,
      "inputs": [
        {
          "indexed": true,
          "internalType": "address",
          "name": "user",
          "type": "address"
        },
        {
          "indexed": false,
          "internalType": "uint256",
          "name": "amount",
          "type": "uint256"
        }
      ],
      "name": "Withdraw",
      "type": "event"
    },
    {
      "inputs": [
        {
          "internalType": "address",
          "name": "_orderBook",
          "type": "address"
        },
        {
          "internalType": "address",
          "name": "_indexToken",
          "type": "address"
        }
      ],
      "name": "addOrderBook",
      "outputs": [],
      "stateMutability": "nonpayable",
      "type": "function"
    },
    {
      "inputs": [
        {
          "internalType": "bytes32",
          "name": "",
          "type": "bytes32"
        }
      ],
      "name": "balances",
      "outputs": [
        {
          "internalType": "uint256",
          "name": "",
          "type": "uint256"
        }
      ],
      "stateMutability": "view",
      "type": "function"
    },
    {
      "inputs": [
        {
          "internalType": "address",
          "name": "newGov",
          "type": "address"
        }
      ],
      "name": "changeGov",
      "outputs": [],
      "stateMutability": "nonpayable",
      "type": "function"
    },
    {
      "inputs": [
        {
          "internalType": "uint256",
          "name": "_amount",
          "type": "uint256"
        },
        {
          "internalType": "address",
          "name": "_indexToken",
          "type": "address"
        },
        {
          "internalType": "address",
          "name": "_user",
          "type": "address"
        }
      ],
      "name": "deposit",
      "outputs": [],
      "stateMutability": "nonpayable",
      "type": "function"
    },
    {
      "inputs": [],
      "name": "gov",
      "outputs": [
        {
          "internalType": "address",
          "name": "",
          "type": "address"
        }
      ],
      "stateMutability": "view",
      "type": "function"
    },
    {
      "inputs": [],
      "name": "hypContract",
      "outputs": [
        {
          "internalType": "contract IHypERC20",
          "name": "",
          "type": "address"
        }
      ],
      "stateMutability": "view",
      "type": "function"
    },
    {
      "inputs": [],
      "name": "hypContractAddress",
      "outputs": [
        {
          "internalType": "address",
          "name": "",
          "type": "address"
        }
      ],
      "stateMutability": "view",
      "type": "function"
    },
    {
      "inputs": [
        {
          "internalType": "address",
          "name": "_user",
          "type": "address"
        },
        {
          "internalType": "address",
          "name": "_indexToken",
          "type": "address"
        }
      ],
      "name": "lockFunds",
      "outputs": [],
      "stateMutability": "nonpayable",
      "type": "function"
    },
    {
      "inputs": [
        {
          "internalType": "address",
          "name": "",
          "type": "address"
        }
      ],
      "name": "lockedFunds",
      "outputs": [
        {
          "internalType": "uint256",
          "name": "",
          "type": "uint256"
        }
      ],
      "stateMutability": "view",
      "type": "function"
    },
    {
      "inputs": [],
      "name": "positionManager",
      "outputs": [
        {
          "internalType": "address",
          "name": "",
          "type": "address"
        }
      ],
      "stateMutability": "view",
      "type": "function"
    },
    {
      "inputs": [],
      "name": "ropUSDC",
      "outputs": [
        {
          "internalType": "contract IERC20",
          "name": "",
          "type": "address"
        }
      ],
      "stateMutability": "view",
      "type": "function"
    },
    {
      "inputs": [
        {
          "internalType": "address",
          "name": "_positionManager",
          "type": "address"
        }
      ],
      "name": "setPositionManager",
      "outputs": [],
      "stateMutability": "nonpayable",
      "type": "function"
    },
    {
      "inputs": [
        {
          "internalType": "address",
          "name": "_user",
          "type": "address"
        },
        {
          "internalType": "address",
          "name": "_indexToken",
          "type": "address"
        }
      ],
      "name": "unlockFunds",
      "outputs": [],
      "stateMutability": "nonpayable",
      "type": "function"
    },
    {
      "inputs": [
        {
          "internalType": "address",
          "name": "_user",
          "type": "address"
        },
        {
          "internalType": "address",
          "name": "_indexToken",
          "type": "address"
        },
        {
          "internalType": "int256",
          "name": "_fundingFee",
          "type": "int256"
        }
      ],
      "name": "updateFundingFee",
      "outputs": [
        {
          "internalType": "uint256",
          "name": "",
          "type": "uint256"
        }
      ],
      "stateMutability": "nonpayable",
      "type": "function"
    },
    {
      "inputs": [
        {
          "internalType": "uint256",
          "name": "_amount",
          "type": "uint256"
        },
        {
          "internalType": "address",
          "name": "_indexToken",
          "type": "address"
        },
        {
          "internalType": "uint32",
          "name": "_destination",
          "type": "uint32"
        }
      ],
      "name": "withdraw",
      "outputs": [],
      "stateMutability": "nonpayable",
      "type": "function"
    }
  ],
  "bytecode": "0x60806040523480156200001157600080fd5b5060405162001b0f38038062001b0f8339818101604052810190620000379190620001ad565b81600260006101000a81548173ffffffffffffffffffffffffffffffffffffffff021916908373ffffffffffffffffffffffffffffffffffffffff16021790555080600360006101000a81548173ffffffffffffffffffffffffffffffffffffffff021916908373ffffffffffffffffffffffffffffffffffffffff16021790555080600460006101000a81548173ffffffffffffffffffffffffffffffffffffffff021916908373ffffffffffffffffffffffffffffffffffffffff16021790555033600560006101000a81548173ffffffffffffffffffffffffffffffffffffffff021916908373ffffffffffffffffffffffffffffffffffffffff1602179055505050620001f4565b600080fd5b600073ffffffffffffffffffffffffffffffffffffffff82169050919050565b6000620001758262000148565b9050919050565b620001878162000168565b81146200019357600080fd5b50565b600081519050620001a7816200017c565b92915050565b60008060408385031215620001c757620001c662000143565b5b6000620001d78582860162000196565b9250506020620001ea8582860162000196565b9150509250929050565b61190b80620002046000396000f3fe608060405234801561001057600080fd5b50600436106100f55760003560e01c8063466730ff11610097578063a962ef1e11610066578063a962ef1e14610260578063b86247d71461027c578063bc73473b146102ac578063c3ae1fc0146102c8576100f5565b8063466730ff146101da5780635760f2e3146101f6578063791b98bc146102125780638909aa3f14610230576100f5565b80632e2d2984116100d35780632e2d2984146101545780633601ce3c146101705780633b1113f9146101a057806341d9a056146101be576100f5565b80630c856315146100fa578063123528de1461011857806312d43a5114610136575b600080fd5b6101026102e4565b60405161010f9190610f31565b60405180910390f35b61012061030a565b60405161012d9190610f6d565b60405180910390f35b61013e610330565b60405161014b9190610f6d565b60405180910390f35b61016e60048036038101906101699190610fef565b610356565b005b61018a60048036038101906101859190611078565b61041e565b60405161019791906110da565b60405180910390f35b6101a8610598565b6040516101b59190611116565b60405180910390f35b6101d860048036038101906101d39190611131565b6105be565b005b6101f460048036038101906101ef9190611131565b610648565b005b610210600480360381019061020b9190611171565b610804565b005b61021a610850565b6040516102279190610f6d565b60405180910390f35b61024a600480360381019061024591906111d4565b610876565b60405161025791906110da565b60405180910390f35b61027a60048036038101906102759190611171565b61088e565b005b61029660048036038101906102919190611171565b610949565b6040516102a391906110da565b60405180910390f35b6102c660048036038101906102c19190611131565b610961565b005b6102e260048036038101906102dd919061123d565b610b42565b005b600260009054906101000a900473ffffffffffffffffffffffffffffffffffffffff1681565b600460009054906101000a900473ffffffffffffffffffffffffffffffffffffffff1681565b600560009054906101000a900473ffffffffffffffffffffffffffffffffffffffff1681565b60008311610399576040517f08c379a000000000000000000000000000000000000000000000000000000000815260040161039090611313565b60405180910390fd5b826000806103a78486610dca565b815260200190815260200160002060008282546103c49190611362565b925050819055508073ffffffffffffffffffffffffffffffffffffffff167fe1fffcc4923d04b559f4d29a8bfc6cda04eb5b0d3c460751c2402c5c5cc9109c8460405161041191906110da565b60405180910390a2505050565b6000600660009054906101000a900473ffffffffffffffffffffffffffffffffffffffff1673ffffffffffffffffffffffffffffffffffffffff163373ffffffffffffffffffffffffffffffffffffffff16146104b0576040517f08c379a00000000000000000000000000000000000000000000000000000000081526004016104a790611408565b60405180910390fd5b60006104bc8585610dca565b9050600083136104fd57826104d090611428565b60008083815260200190815260200160002060008282546104f19190611362565b9250508190555061057b565b826000808381526020019081526020016000205411610551576040517f08c379a0000000000000000000000000000000000000000000000000000000008152600401610548906114e2565b60405180910390fd5b8260008083815260200190815260200160002060008282546105739190611502565b925050819055505b600080828152602001908152602001600020549150509392505050565b600360009054906101000a900473ffffffffffffffffffffffffffffffffffffffff1681565b6105c6610dfd565b81600760008373ffffffffffffffffffffffffffffffffffffffff1673ffffffffffffffffffffffffffffffffffffffff16815260200190815260200160002060006101000a81548173ffffffffffffffffffffffffffffffffffffffff021916908373ffffffffffffffffffffffffffffffffffffffff1602179055505050565b600760008273ffffffffffffffffffffffffffffffffffffffff1673ffffffffffffffffffffffffffffffffffffffff16815260200190815260200160002060009054906101000a900473ffffffffffffffffffffffffffffffffffffffff1673ffffffffffffffffffffffffffffffffffffffff163373ffffffffffffffffffffffffffffffffffffffff1614610715576040517f08c379a000000000000000000000000000000000000000000000000000000000815260040161070c906115a8565b60405180910390fd5b6008546000806107258585610dca565b81526020019081526020016000205411610774576040517f08c379a000000000000000000000000000000000000000000000000000000000815260040161076b906114e2565b60405180910390fd5b600854600160008473ffffffffffffffffffffffffffffffffffffffff1673ffffffffffffffffffffffffffffffffffffffff16815260200190815260200160002060008282546107c59190611362565b925050819055506008546000806107dc8585610dca565b815260200190815260200160002060008282546107f99190611502565b925050819055505050565b61080c610dfd565b80600660006101000a81548173ffffffffffffffffffffffffffffffffffffffff021916908373ffffffffffffffffffffffffffffffffffffffff16021790555050565b600660009054906101000a900473ffffffffffffffffffffffffffffffffffffffff1681565b60006020528060005260406000206000915090505481565b610896610dfd565b600073ffffffffffffffffffffffffffffffffffffffff168173ffffffffffffffffffffffffffffffffffffffff1603610905576040517f08c379a00000000000000000000000000000000000000000000000000000000081526004016108fc9061163a565b60405180910390fd5b80600560006101000a81548173ffffffffffffffffffffffffffffffffffffffff021916908373ffffffffffffffffffffffffffffffffffffffff16021790555050565b60016020528060005260406000206000915090505481565b600760008273ffffffffffffffffffffffffffffffffffffffff1673ffffffffffffffffffffffffffffffffffffffff16815260200190815260200160002060009054906101000a900473ffffffffffffffffffffffffffffffffffffffff1673ffffffffffffffffffffffffffffffffffffffff163373ffffffffffffffffffffffffffffffffffffffff1614610a2e576040517f08c379a0000000000000000000000000000000000000000000000000000000008152600401610a25906115a8565b60405180910390fd5b600854600160008473ffffffffffffffffffffffffffffffffffffffff1673ffffffffffffffffffffffffffffffffffffffff168152602001908152602001600020541015610ab2576040517f08c379a0000000000000000000000000000000000000000000000000000000008152600401610aa9906114e2565b60405180910390fd5b600854600160008473ffffffffffffffffffffffffffffffffffffffff1673ffffffffffffffffffffffffffffffffffffffff1681526020019081526020016000206000828254610b039190611502565b92505081905550600854600080610b1a8585610dca565b81526020019081526020016000206000828254610b379190611362565b925050819055505050565b60008311610b85576040517f08c379a0000000000000000000000000000000000000000000000000000000008152600401610b7c90611313565b60405180910390fd5b600080610b923385610dca565b815260200190815260200160002054831115610be3576040517f08c379a0000000000000000000000000000000000000000000000000000000008152600401610bda906116cc565b60405180910390fd5b6000610bee33610e8f565b9050600260009054906101000a900473ffffffffffffffffffffffffffffffffffffffff1673ffffffffffffffffffffffffffffffffffffffff1663095ea7b3600460009054906101000a900473ffffffffffffffffffffffffffffffffffffffff16866040518363ffffffff1660e01b8152600401610c6f9291906116ec565b6020604051808303816000875af1158015610c8e573d6000803e3d6000fd5b505050506040513d601f19601f82011682018060405250810190610cb2919061174d565b50600360009054906101000a900473ffffffffffffffffffffffffffffffffffffffff1673ffffffffffffffffffffffffffffffffffffffff166381b4e8b48383876040518463ffffffff1660e01b8152600401610d1293929190611798565b600060405180830381600087803b158015610d2c57600080fd5b505af1158015610d40573d6000803e3d6000fd5b5050505083600080610d523387610dca565b81526020019081526020016000206000828254610d6f9190611502565b925050819055503373ffffffffffffffffffffffffffffffffffffffff167f884edad9ce6fa2440d8a54cc123490eb96d2768479d49ff9c7366125a942436485604051610dbc91906110da565b60405180910390a250505050565b60008282604051602001610ddf929190611817565b60405160208183030381529060405280519060200120905092915050565b600560009054906101000a900473ffffffffffffffffffffffffffffffffffffffff1673ffffffffffffffffffffffffffffffffffffffff163373ffffffffffffffffffffffffffffffffffffffff1614610e8d576040517f08c379a0000000000000000000000000000000000000000000000000000000008152600401610e84906118b5565b60405180910390fd5b565b60008173ffffffffffffffffffffffffffffffffffffffff1660001b9050919050565b600073ffffffffffffffffffffffffffffffffffffffff82169050919050565b6000819050919050565b6000610ef7610ef2610eed84610eb2565b610ed2565b610eb2565b9050919050565b6000610f0982610edc565b9050919050565b6000610f1b82610efe565b9050919050565b610f2b81610f10565b82525050565b6000602082019050610f466000830184610f22565b92915050565b6000610f5782610eb2565b9050919050565b610f6781610f4c565b82525050565b6000602082019050610f826000830184610f5e565b92915050565b600080fd5b6000819050919050565b610fa081610f8d565b8114610fab57600080fd5b50565b600081359050610fbd81610f97565b92915050565b610fcc81610f4c565b8114610fd757600080fd5b50565b600081359050610fe981610fc3565b92915050565b60008060006060848603121561100857611007610f88565b5b600061101686828701610fae565b935050602061102786828701610fda565b925050604061103886828701610fda565b9150509250925092565b6000819050919050565b61105581611042565b811461106057600080fd5b50565b6000813590506110728161104c565b92915050565b60008060006060848603121561109157611090610f88565b5b600061109f86828701610fda565b93505060206110b086828701610fda565b92505060406110c186828701611063565b9150509250925092565b6110d481610f8d565b82525050565b60006020820190506110ef60008301846110cb565b92915050565b600061110082610efe565b9050919050565b611110816110f5565b82525050565b600060208201905061112b6000830184611107565b92915050565b6000806040838503121561114857611147610f88565b5b600061115685828601610fda565b925050602061116785828601610fda565b9150509250929050565b60006020828403121561118757611186610f88565b5b600061119584828501610fda565b91505092915050565b6000819050919050565b6111b18161119e565b81146111bc57600080fd5b50565b6000813590506111ce816111a8565b92915050565b6000602082840312156111ea576111e9610f88565b5b60006111f8848285016111bf565b91505092915050565b600063ffffffff82169050919050565b61121a81611201565b811461122557600080fd5b50565b60008135905061123781611211565b92915050565b60008060006060848603121561125657611255610f88565b5b600061126486828701610fae565b935050602061127586828701610fda565b925050604061128686828701611228565b9150509250925092565b600082825260208201905092915050565b7f4d617267696e4163636f756e743a20416d6f756e74206d75737420626520677260008201527f6561746572207468616e207a65726f0000000000000000000000000000000000602082015250565b60006112fd602f83611290565b9150611308826112a1565b604082019050919050565b6000602082019050818103600083015261132c816112f0565b9050919050565b7f4e487b7100000000000000000000000000000000000000000000000000000000600052601160045260246000fd5b600061136d82610f8d565b915061137883610f8d565b92508282019050808211156113905761138f611333565b5b92915050565b7f4d617267696e4163636f756e743a206f6e6c7920706f736974696f6e206d616e60008201527f616765722063616e206d616b6520746869732063616c6c000000000000000000602082015250565b60006113f2603783611290565b91506113fd82611396565b604082019050919050565b60006020820190508181036000830152611421816113e5565b9050919050565b600061143382611042565b91507f8000000000000000000000000000000000000000000000000000000000000000820361146557611464611333565b5b816000039050919050565b7f4d617267696e4163636f756e743a20696e73756666696369656e742066756e6460008201527f7300000000000000000000000000000000000000000000000000000000000000602082015250565b60006114cc602183611290565b91506114d782611470565b604082019050919050565b600060208201905081810360008301526114fb816114bf565b9050919050565b600061150d82610f8d565b915061151883610f8d565b92508282039050818111156115305761152f611333565b5b92915050565b7f4d617267696e4163636f756e743a206f6e6c79206f7264657220626f6f6b206360008201527f616e206d616b6520746869732063616c6c000000000000000000000000000000602082015250565b6000611592603183611290565b915061159d82611536565b604082019050919050565b600060208201905081810360008301526115c181611585565b9050919050565b7f4d617267696e4163636f756e743a20476f762063616e6e6f74206265207a657260008201527f6f20616464726573730000000000000000000000000000000000000000000000602082015250565b6000611624602983611290565b915061162f826115c8565b604082019050919050565b6000602082019050818103600083015261165381611617565b9050919050565b7f4d617267696e4163636f756e743a20496e73756666696369656e742062616c6160008201527f6e63650000000000000000000000000000000000000000000000000000000000602082015250565b60006116b6602383611290565b91506116c18261165a565b604082019050919050565b600060208201905081810360008301526116e5816116a9565b9050919050565b60006040820190506117016000830185610f5e565b61170e60208301846110cb565b9392505050565b60008115159050919050565b61172a81611715565b811461173557600080fd5b50565b60008151905061174781611721565b92915050565b60006020828403121561176357611762610f88565b5b600061177184828501611738565b91505092915050565b61178381611201565b82525050565b6117928161119e565b82525050565b60006060820190506117ad600083018661177a565b6117ba6020830185611789565b6117c760408301846110cb565b949350505050565b60008160601b9050919050565b60006117e7826117cf565b9050919050565b60006117f9826117dc565b9050919050565b61181161180c82610f4c565b6117ee565b82525050565b60006118238285611800565b6014820191506118338284611800565b6014820191508190509392505050565b7f4d617267696e4163636f756e743a204f6e6c7920676f762063616e2063616c6c60008201527f20746869732066756e6374696f6e000000000000000000000000000000000000602082015250565b600061189f602e83611290565b91506118aa82611843565b604082019050919050565b600060208201905081810360008301526118ce81611892565b905091905056fea2646970667358221220491c7af83c2eb5cb159ace1bdcfa29c8187a310d6e0537b14aed767f966accdc64736f6c63430008110033",
  "linkReferences": {},
  "deployedLinkReferences": {}
}