{
  "_format": "hh-sol-artifact-1",
  "contractName": "MarginAccount",
  "sourceName": "contracts/MarginAccount.sol",
  "abi": [
    {
      "inputs": [],
      "stateMutability": "nonpayable",
      "type": "constructor"
    },
    {
      "anonymous": false,
      "inputs": [
        {
          "indexed": true,
          "internalType": "address",
          "name": "user",
          "type": "address"
        },
        {
          "indexed": false,
          "internalType": "uint256",
          "name": "amount",
          "type": "uint256"
        }
      ],
      "name": "Deposit",
      "type": "event"
    },
    {
      "anonymous": false,
      "inputs": [
        {
          "indexed": true,
          "internalType": "address",
          "name": "user",
          "type": "address"
        },
        {
          "indexed": false,
          "internalType": "uint256",
          "name": "amount",
          "type": "uint256"
        }
      ],
      "name": "Withdraw",
      "type": "event"
    },
    {
      "inputs": [
        {
          "internalType": "address",
          "name": "_hypContractAddress",
          "type": "address"
        }
      ],
      "name": "addHyp",
      "outputs": [],
      "stateMutability": "nonpayable",
      "type": "function"
    },
    {
      "inputs": [
        {
          "internalType": "address",
          "name": "_orderBook",
          "type": "address"
        },
        {
          "internalType": "address",
          "name": "_indexToken",
          "type": "address"
        }
      ],
      "name": "addOrderBook",
      "outputs": [],
      "stateMutability": "nonpayable",
      "type": "function"
    },
    {
      "inputs": [
        {
          "internalType": "address",
          "name": "_ropUSDC",
          "type": "address"
        }
      ],
      "name": "addRop",
      "outputs": [],
      "stateMutability": "nonpayable",
      "type": "function"
    },
    {
      "inputs": [
        {
          "internalType": "bytes32",
          "name": "",
          "type": "bytes32"
        }
      ],
      "name": "balances",
      "outputs": [
        {
          "internalType": "uint256",
          "name": "",
          "type": "uint256"
        }
      ],
      "stateMutability": "view",
      "type": "function"
    },
    {
      "inputs": [
        {
          "internalType": "address",
          "name": "newGov",
          "type": "address"
        }
      ],
      "name": "changeGov",
      "outputs": [],
      "stateMutability": "nonpayable",
      "type": "function"
    },
    {
      "inputs": [
        {
          "internalType": "uint256",
          "name": "_amount",
          "type": "uint256"
        },
        {
          "internalType": "address",
          "name": "_indexToken",
          "type": "address"
        },
        {
          "internalType": "address",
          "name": "_user",
          "type": "address"
        }
      ],
      "name": "deposit",
      "outputs": [],
      "stateMutability": "nonpayable",
      "type": "function"
    },
    {
      "inputs": [],
      "name": "gov",
      "outputs": [
        {
          "internalType": "address",
          "name": "",
          "type": "address"
        }
      ],
      "stateMutability": "view",
      "type": "function"
    },
    {
      "inputs": [],
      "name": "hypContract",
      "outputs": [
        {
          "internalType": "contract IHypERC20",
          "name": "",
          "type": "address"
        }
      ],
      "stateMutability": "view",
      "type": "function"
    },
    {
      "inputs": [],
      "name": "hypContractAddress",
      "outputs": [
        {
          "internalType": "address",
          "name": "",
          "type": "address"
        }
      ],
      "stateMutability": "view",
      "type": "function"
    },
    {
      "inputs": [
        {
          "internalType": "address",
          "name": "_user",
          "type": "address"
        },
        {
          "internalType": "address",
          "name": "_indexToken",
          "type": "address"
        }
      ],
      "name": "lockFunds",
      "outputs": [],
      "stateMutability": "nonpayable",
      "type": "function"
    },
    {
      "inputs": [
        {
          "internalType": "address",
          "name": "",
          "type": "address"
        }
      ],
      "name": "lockedFunds",
      "outputs": [
        {
          "internalType": "uint256",
          "name": "",
          "type": "uint256"
        }
      ],
      "stateMutability": "view",
      "type": "function"
    },
    {
      "inputs": [],
      "name": "positionManager",
      "outputs": [
        {
          "internalType": "address",
          "name": "",
          "type": "address"
        }
      ],
      "stateMutability": "view",
      "type": "function"
    },
    {
      "inputs": [],
      "name": "ropUSDC",
      "outputs": [
        {
          "internalType": "contract IERC20",
          "name": "",
          "type": "address"
        }
      ],
      "stateMutability": "view",
      "type": "function"
    },
    {
      "inputs": [
        {
          "internalType": "address",
          "name": "_positionManager",
          "type": "address"
        }
      ],
      "name": "setPositionManager",
      "outputs": [],
      "stateMutability": "nonpayable",
      "type": "function"
    },
    {
      "inputs": [
        {
          "internalType": "address",
          "name": "_user",
          "type": "address"
        },
        {
          "internalType": "address",
          "name": "_indexToken",
          "type": "address"
        }
      ],
      "name": "unlockFunds",
      "outputs": [],
      "stateMutability": "nonpayable",
      "type": "function"
    },
    {
      "inputs": [
        {
          "internalType": "address",
          "name": "_user",
          "type": "address"
        },
        {
          "internalType": "address",
          "name": "_indexToken",
          "type": "address"
        },
        {
          "internalType": "int256",
          "name": "_fundingFee",
          "type": "int256"
        }
      ],
      "name": "updateFundingFee",
      "outputs": [
        {
          "internalType": "uint256",
          "name": "",
          "type": "uint256"
        }
      ],
      "stateMutability": "nonpayable",
      "type": "function"
    },
    {
      "inputs": [
        {
          "internalType": "uint256",
          "name": "_amount",
          "type": "uint256"
        },
        {
          "internalType": "address",
          "name": "_indexToken",
          "type": "address"
        },
        {
          "internalType": "uint32",
          "name": "_destination",
          "type": "uint32"
        }
      ],
      "name": "withdraw",
      "outputs": [],
      "stateMutability": "nonpayable",
      "type": "function"
    }
  ],
  "bytecode": "0x608060405234801561001057600080fd5b5033600560006101000a81548173ffffffffffffffffffffffffffffffffffffffff021916908373ffffffffffffffffffffffffffffffffffffffff160217905550611a32806100616000396000f3fe608060405234801561001057600080fd5b506004361061010b5760003560e01c806356899403116100a2578063a962ef1e11610071578063a962ef1e14610292578063b86247d7146102ae578063bc73473b146102de578063c3ae1fc0146102fa578063d1f3651e146103165761010b565b8063568994031461020c5780635760f2e314610228578063791b98bc146102445780638909aa3f146102625761010b565b80633601ce3c116100de5780633601ce3c146101865780633b1113f9146101b657806341d9a056146101d4578063466730ff146101f05761010b565b80630c85631514610110578063123528de1461012e57806312d43a511461014c5780632e2d29841461016a575b600080fd5b610118610332565b6040516101259190611058565b60405180910390f35b610136610358565b6040516101439190611094565b60405180910390f35b61015461037e565b6040516101619190611094565b60405180910390f35b610184600480360381019061017f9190611116565b6103a4565b005b6101a0600480360381019061019b919061119f565b61046c565b6040516101ad9190611201565b60405180910390f35b6101be6105e6565b6040516101cb919061123d565b60405180910390f35b6101ee60048036038101906101e99190611258565b61060c565b005b61020a60048036038101906102059190611258565b610696565b005b61022660048036038101906102219190611298565b610852565b005b610242600480360381019061023d9190611298565b61089e565b005b61024c6108ea565b6040516102599190611094565b60405180910390f35b61027c600480360381019061027791906112fb565b610910565b6040516102899190611201565b60405180910390f35b6102ac60048036038101906102a79190611298565b610928565b005b6102c860048036038101906102c39190611298565b6109e3565b6040516102d59190611201565b60405180910390f35b6102f860048036038101906102f39190611258565b6109fb565b005b610314600480360381019061030f9190611364565b610bdc565b005b610330600480360381019061032b9190611298565b610e64565b005b600260009054906101000a900473ffffffffffffffffffffffffffffffffffffffff1681565b600460009054906101000a900473ffffffffffffffffffffffffffffffffffffffff1681565b600560009054906101000a900473ffffffffffffffffffffffffffffffffffffffff1681565b600083116103e7576040517f08c379a00000000000000000000000000000000000000000000000000000000081526004016103de9061143a565b60405180910390fd5b826000806103f58486610ef1565b815260200190815260200160002060008282546104129190611489565b925050819055508073ffffffffffffffffffffffffffffffffffffffff167fe1fffcc4923d04b559f4d29a8bfc6cda04eb5b0d3c460751c2402c5c5cc9109c8460405161045f9190611201565b60405180910390a2505050565b6000600660009054906101000a900473ffffffffffffffffffffffffffffffffffffffff1673ffffffffffffffffffffffffffffffffffffffff163373ffffffffffffffffffffffffffffffffffffffff16146104fe576040517f08c379a00000000000000000000000000000000000000000000000000000000081526004016104f59061152f565b60405180910390fd5b600061050a8585610ef1565b90506000831361054b578261051e9061154f565b600080838152602001908152602001600020600082825461053f9190611489565b925050819055506105c9565b82600080838152602001908152602001600020541161059f576040517f08c379a000000000000000000000000000000000000000000000000000000000815260040161059690611609565b60405180910390fd5b8260008083815260200190815260200160002060008282546105c19190611629565b925050819055505b600080828152602001908152602001600020549150509392505050565b600360009054906101000a900473ffffffffffffffffffffffffffffffffffffffff1681565b610614610f24565b81600760008373ffffffffffffffffffffffffffffffffffffffff1673ffffffffffffffffffffffffffffffffffffffff16815260200190815260200160002060006101000a81548173ffffffffffffffffffffffffffffffffffffffff021916908373ffffffffffffffffffffffffffffffffffffffff1602179055505050565b600760008273ffffffffffffffffffffffffffffffffffffffff1673ffffffffffffffffffffffffffffffffffffffff16815260200190815260200160002060009054906101000a900473ffffffffffffffffffffffffffffffffffffffff1673ffffffffffffffffffffffffffffffffffffffff163373ffffffffffffffffffffffffffffffffffffffff1614610763576040517f08c379a000000000000000000000000000000000000000000000000000000000815260040161075a906116cf565b60405180910390fd5b6008546000806107738585610ef1565b815260200190815260200160002054116107c2576040517f08c379a00000000000000000000000000000000000000000000000000000000081526004016107b990611609565b60405180910390fd5b600854600160008473ffffffffffffffffffffffffffffffffffffffff1673ffffffffffffffffffffffffffffffffffffffff16815260200190815260200160002060008282546108139190611489565b9250508190555060085460008061082a8585610ef1565b815260200190815260200160002060008282546108479190611629565b925050819055505050565b61085a610f24565b80600260006101000a81548173ffffffffffffffffffffffffffffffffffffffff021916908373ffffffffffffffffffffffffffffffffffffffff16021790555050565b6108a6610f24565b80600660006101000a81548173ffffffffffffffffffffffffffffffffffffffff021916908373ffffffffffffffffffffffffffffffffffffffff16021790555050565b600660009054906101000a900473ffffffffffffffffffffffffffffffffffffffff1681565b60006020528060005260406000206000915090505481565b610930610f24565b600073ffffffffffffffffffffffffffffffffffffffff168173ffffffffffffffffffffffffffffffffffffffff160361099f576040517f08c379a000000000000000000000000000000000000000000000000000000000815260040161099690611761565b60405180910390fd5b80600560006101000a81548173ffffffffffffffffffffffffffffffffffffffff021916908373ffffffffffffffffffffffffffffffffffffffff16021790555050565b60016020528060005260406000206000915090505481565b600760008273ffffffffffffffffffffffffffffffffffffffff1673ffffffffffffffffffffffffffffffffffffffff16815260200190815260200160002060009054906101000a900473ffffffffffffffffffffffffffffffffffffffff1673ffffffffffffffffffffffffffffffffffffffff163373ffffffffffffffffffffffffffffffffffffffff1614610ac8576040517f08c379a0000000000000000000000000000000000000000000000000000000008152600401610abf906116cf565b60405180910390fd5b600854600160008473ffffffffffffffffffffffffffffffffffffffff1673ffffffffffffffffffffffffffffffffffffffff168152602001908152602001600020541015610b4c576040517f08c379a0000000000000000000000000000000000000000000000000000000008152600401610b4390611609565b60405180910390fd5b600854600160008473ffffffffffffffffffffffffffffffffffffffff1673ffffffffffffffffffffffffffffffffffffffff1681526020019081526020016000206000828254610b9d9190611629565b92505081905550600854600080610bb48585610ef1565b81526020019081526020016000206000828254610bd19190611489565b925050819055505050565b60008311610c1f576040517f08c379a0000000000000000000000000000000000000000000000000000000008152600401610c169061143a565b60405180910390fd5b600080610c2c3385610ef1565b815260200190815260200160002054831115610c7d576040517f08c379a0000000000000000000000000000000000000000000000000000000008152600401610c74906117f3565b60405180910390fd5b6000610c8833610fb6565b9050600260009054906101000a900473ffffffffffffffffffffffffffffffffffffffff1673ffffffffffffffffffffffffffffffffffffffff1663095ea7b3600460009054906101000a900473ffffffffffffffffffffffffffffffffffffffff16866040518363ffffffff1660e01b8152600401610d09929190611813565b6020604051808303816000875af1158015610d28573d6000803e3d6000fd5b505050506040513d601f19601f82011682018060405250810190610d4c9190611874565b50600360009054906101000a900473ffffffffffffffffffffffffffffffffffffffff1673ffffffffffffffffffffffffffffffffffffffff166381b4e8b48383876040518463ffffffff1660e01b8152600401610dac939291906118bf565b600060405180830381600087803b158015610dc657600080fd5b505af1158015610dda573d6000803e3d6000fd5b5050505083600080610dec3387610ef1565b81526020019081526020016000206000828254610e099190611629565b925050819055503373ffffffffffffffffffffffffffffffffffffffff167f884edad9ce6fa2440d8a54cc123490eb96d2768479d49ff9c7366125a942436485604051610e569190611201565b60405180910390a250505050565b610e6c610f24565b80600360006101000a81548173ffffffffffffffffffffffffffffffffffffffff021916908373ffffffffffffffffffffffffffffffffffffffff16021790555080600460006101000a81548173ffffffffffffffffffffffffffffffffffffffff021916908373ffffffffffffffffffffffffffffffffffffffff16021790555050565b60008282604051602001610f0692919061193e565b60405160208183030381529060405280519060200120905092915050565b600560009054906101000a900473ffffffffffffffffffffffffffffffffffffffff1673ffffffffffffffffffffffffffffffffffffffff163373ffffffffffffffffffffffffffffffffffffffff1614610fb4576040517f08c379a0000000000000000000000000000000000000000000000000000000008152600401610fab906119dc565b60405180910390fd5b565b60008173ffffffffffffffffffffffffffffffffffffffff1660001b9050919050565b600073ffffffffffffffffffffffffffffffffffffffff82169050919050565b6000819050919050565b600061101e61101961101484610fd9565b610ff9565b610fd9565b9050919050565b600061103082611003565b9050919050565b600061104282611025565b9050919050565b61105281611037565b82525050565b600060208201905061106d6000830184611049565b92915050565b600061107e82610fd9565b9050919050565b61108e81611073565b82525050565b60006020820190506110a96000830184611085565b92915050565b600080fd5b6000819050919050565b6110c7816110b4565b81146110d257600080fd5b50565b6000813590506110e4816110be565b92915050565b6110f381611073565b81146110fe57600080fd5b50565b600081359050611110816110ea565b92915050565b60008060006060848603121561112f5761112e6110af565b5b600061113d868287016110d5565b935050602061114e86828701611101565b925050604061115f86828701611101565b9150509250925092565b6000819050919050565b61117c81611169565b811461118757600080fd5b50565b60008135905061119981611173565b92915050565b6000806000606084860312156111b8576111b76110af565b5b60006111c686828701611101565b93505060206111d786828701611101565b92505060406111e88682870161118a565b9150509250925092565b6111fb816110b4565b82525050565b600060208201905061121660008301846111f2565b92915050565b600061122782611025565b9050919050565b6112378161121c565b82525050565b6000602082019050611252600083018461122e565b92915050565b6000806040838503121561126f5761126e6110af565b5b600061127d85828601611101565b925050602061128e85828601611101565b9150509250929050565b6000602082840312156112ae576112ad6110af565b5b60006112bc84828501611101565b91505092915050565b6000819050919050565b6112d8816112c5565b81146112e357600080fd5b50565b6000813590506112f5816112cf565b92915050565b600060208284031215611311576113106110af565b5b600061131f848285016112e6565b91505092915050565b600063ffffffff82169050919050565b61134181611328565b811461134c57600080fd5b50565b60008135905061135e81611338565b92915050565b60008060006060848603121561137d5761137c6110af565b5b600061138b868287016110d5565b935050602061139c86828701611101565b92505060406113ad8682870161134f565b9150509250925092565b600082825260208201905092915050565b7f4d617267696e4163636f756e743a20416d6f756e74206d75737420626520677260008201527f6561746572207468616e207a65726f0000000000000000000000000000000000602082015250565b6000611424602f836113b7565b915061142f826113c8565b604082019050919050565b6000602082019050818103600083015261145381611417565b9050919050565b7f4e487b7100000000000000000000000000000000000000000000000000000000600052601160045260246000fd5b6000611494826110b4565b915061149f836110b4565b92508282019050808211156114b7576114b661145a565b5b92915050565b7f4d617267696e4163636f756e743a206f6e6c7920706f736974696f6e206d616e60008201527f616765722063616e206d616b6520746869732063616c6c000000000000000000602082015250565b60006115196037836113b7565b9150611524826114bd565b604082019050919050565b600060208201905081810360008301526115488161150c565b9050919050565b600061155a82611169565b91507f8000000000000000000000000000000000000000000000000000000000000000820361158c5761158b61145a565b5b816000039050919050565b7f4d617267696e4163636f756e743a20696e73756666696369656e742066756e6460008201527f7300000000000000000000000000000000000000000000000000000000000000602082015250565b60006115f36021836113b7565b91506115fe82611597565b604082019050919050565b60006020820190508181036000830152611622816115e6565b9050919050565b6000611634826110b4565b915061163f836110b4565b92508282039050818111156116575761165661145a565b5b92915050565b7f4d617267696e4163636f756e743a206f6e6c79206f7264657220626f6f6b206360008201527f616e206d616b6520746869732063616c6c000000000000000000000000000000602082015250565b60006116b96031836113b7565b91506116c48261165d565b604082019050919050565b600060208201905081810360008301526116e8816116ac565b9050919050565b7f4d617267696e4163636f756e743a20476f762063616e6e6f74206265207a657260008201527f6f20616464726573730000000000000000000000000000000000000000000000602082015250565b600061174b6029836113b7565b9150611756826116ef565b604082019050919050565b6000602082019050818103600083015261177a8161173e565b9050919050565b7f4d617267696e4163636f756e743a20496e73756666696369656e742062616c6160008201527f6e63650000000000000000000000000000000000000000000000000000000000602082015250565b60006117dd6023836113b7565b91506117e882611781565b604082019050919050565b6000602082019050818103600083015261180c816117d0565b9050919050565b60006040820190506118286000830185611085565b61183560208301846111f2565b9392505050565b60008115159050919050565b6118518161183c565b811461185c57600080fd5b50565b60008151905061186e81611848565b92915050565b60006020828403121561188a576118896110af565b5b60006118988482850161185f565b91505092915050565b6118aa81611328565b82525050565b6118b9816112c5565b82525050565b60006060820190506118d460008301866118a1565b6118e160208301856118b0565b6118ee60408301846111f2565b949350505050565b60008160601b9050919050565b600061190e826118f6565b9050919050565b600061192082611903565b9050919050565b61193861193382611073565b611915565b82525050565b600061194a8285611927565b60148201915061195a8284611927565b6014820191508190509392505050565b7f4d617267696e4163636f756e743a204f6e6c7920676f762063616e2063616c6c60008201527f20746869732066756e6374696f6e000000000000000000000000000000000000602082015250565b60006119c6602e836113b7565b91506119d18261196a565b604082019050919050565b600060208201905081810360008301526119f5816119b9565b905091905056fea26469706673582212206b5654145c5c8b5ee24c6db79034fd8024da256c7d11ed9b3e8fa196ddf7d33964736f6c63430008110033",
  "linkReferences": {},
  "deployedLinkReferences": {}
}