{"contracts/MarginAccount.sol":{"MarginAccount":{"abi":[{"inputs":[{"internalType":"address","name":"_usdcToken","type":"address"}],"stateMutability":"nonpayable","type":"constructor"},{"anonymous":false,"inputs":[{"indexed":true,"internalType":"address","name":"user","type":"address"},{"indexed":false,"internalType":"uint256","name":"amount","type":"uint256"}],"name":"Deposit","type":"event"},{"anonymous":false,"inputs":[{"indexed":true,"internalType":"address","name":"user","type":"address"},{"indexed":false,"internalType":"uint256","name":"amount","type":"uint256"}],"name":"Withdraw","type":"event"},{"inputs":[{"internalType":"address","name":"_orderBook","type":"address"},{"internalType":"address","name":"_indexToken","type":"address"}],"name":"addOrderBook","outputs":[],"stateMutability":"nonpayable","type":"function"},{"inputs":[{"internalType":"bytes32","name":"","type":"bytes32"}],"name":"balances","outputs":[{"internalType":"uint256","name":"","type":"uint256"}],"stateMutability":"view","type":"function"},{"inputs":[{"internalType":"address","name":"newGov","type":"address"}],"name":"changeGov","outputs":[],"stateMutability":"nonpayable","type":"function"},{"inputs":[{"internalType":"uint256","name":"_amount","type":"uint256"},{"internalType":"address","name":"_indexToken","type":"address"},{"internalType":"address","name":"_user","type":"address"}],"name":"deposit","outputs":[],"stateMutability":"nonpayable","type":"function"},{"inputs":[],"name":"gov","outputs":[{"internalType":"address","name":"","type":"address"}],"stateMutability":"view","type":"function"},{"inputs":[{"internalType":"address","name":"_user","type":"address"},{"internalType":"address","name":"_indexToken","type":"address"}],"name":"lockFunds","outputs":[],"stateMutability":"nonpayable","type":"function"},{"inputs":[{"internalType":"address","name":"","type":"address"}],"name":"lockedFunds","outputs":[{"internalType":"uint256","name":"","type":"uint256"}],"stateMutability":"view","type":"function"},{"inputs":[],"name":"positionManager","outputs":[{"internalType":"address","name":"","type":"address"}],"stateMutability":"view","type":"function"},{"inputs":[{"internalType":"address","name":"_positionManager","type":"address"}],"name":"setPositionManager","outputs":[],"stateMutability":"nonpayable","type":"function"},{"inputs":[{"internalType":"address","name":"_user","type":"address"},{"internalType":"address","name":"_indexToken","type":"address"}],"name":"unlockFunds","outputs":[],"stateMutability":"nonpayable","type":"function"},{"inputs":[{"internalType":"address","name":"_user","type":"address"},{"internalType":"address","name":"_indexToken","type":"address"},{"internalType":"int256","name":"_fundingFee","type":"int256"}],"name":"updateFundingFee","outputs":[{"internalType":"uint256","name":"","type":"uint256"}],"stateMutability":"nonpayable","type":"function"},{"inputs":[],"name":"usdcToken","outputs":[{"internalType":"contract IERC20","name":"","type":"address"}],"stateMutability":"view","type":"function"},{"inputs":[{"internalType":"uint256","name":"_amount","type":"uint256"},{"internalType":"address","name":"_indexToken","type":"address"}],"name":"withdraw","outputs":[],"stateMutability":"nonpayable","type":"function"}],"evm":{"bytecode":{"linkReferences":{},"object":"60806040523480156200001157600080fd5b50604051620018ad380380620018ad83398181016040528101906200003791906200012a565b80600260006101000a81548173ffffffffffffffffffffffffffffffffffffffff021916908373ffffffffffffffffffffffffffffffffffffffff16021790555033600360006101000a81548173ffffffffffffffffffffffffffffffffffffffff021916908373ffffffffffffffffffffffffffffffffffffffff160217905550506200015c565b600080fd5b600073ffffffffffffffffffffffffffffffffffffffff82169050919050565b6000620000f282620000c5565b9050919050565b6200010481620000e5565b81146200011057600080fd5b50565b6000815190506200012481620000f9565b92915050565b600060208284031215620001435762000142620000c0565b5b6000620001538482850162000113565b91505092915050565b611741806200016c6000396000f3fe608060405234801561001057600080fd5b50600436106100ce5760003560e01c8063466730ff1161008c5780638909aa3f116100665780638909aa3f146101e9578063a962ef1e14610219578063b86247d714610235578063bc73473b14610265576100ce565b8063466730ff146101935780635760f2e3146101af578063791b98bc146101cb576100ce565b8062f714ce146100d357806311eac855146100ef57806312d43a511461010d5780632e2d29841461012b5780633601ce3c1461014757806341d9a05614610177575b600080fd5b6100ed60048036038101906100e89190610df5565b610281565b005b6100f7610485565b6040516101049190610e94565b60405180910390f35b6101156104ab565b6040516101229190610ebe565b60405180910390f35b61014560048036038101906101409190610ed9565b6104d1565b005b610161600480360381019061015c9190610f62565b610599565b60405161016e9190610fc4565b60405180910390f35b610191600480360381019061018c9190610fdf565b610713565b005b6101ad60048036038101906101a89190610fdf565b61079d565b005b6101c960048036038101906101c4919061101f565b610959565b005b6101d36109a5565b6040516101e09190610ebe565b60405180910390f35b61020360048036038101906101fe9190611082565b6109cb565b6040516102109190610fc4565b60405180910390f35b610233600480360381019061022e919061101f565b6109e3565b005b61024f600480360381019061024a919061101f565b610a9e565b60405161025c9190610fc4565b60405180910390f35b61027f600480360381019061027a9190610fdf565b610ab6565b005b600082116102c4576040517f08c379a00000000000000000000000000000000000000000000000000000000081526004016102bb90611132565b60405180910390fd5b6000806102d13384610c97565b815260200190815260200160002054821115610322576040517f08c379a0000000000000000000000000000000000000000000000000000000008152600401610319906111c4565b60405180910390fd5b816000806103303385610c97565b8152602001908152602001600020600082825461034d9190611213565b92505081905550600260009054906101000a900473ffffffffffffffffffffffffffffffffffffffff1673ffffffffffffffffffffffffffffffffffffffff1663a9059cbb33846040518363ffffffff1660e01b81526004016103b1929190611247565b6020604051808303816000875af11580156103d0573d6000803e3d6000fd5b505050506040513d601f19601f820116820180604052508101906103f491906112a8565b610433576040517f08c379a000000000000000000000000000000000000000000000000000000000815260040161042a90611321565b60405180910390fd5b3373ffffffffffffffffffffffffffffffffffffffff167f884edad9ce6fa2440d8a54cc123490eb96d2768479d49ff9c7366125a9424364836040516104799190610fc4565b60405180910390a25050565b600260009054906101000a900473ffffffffffffffffffffffffffffffffffffffff1681565b600360009054906101000a900473ffffffffffffffffffffffffffffffffffffffff1681565b60008311610514576040517f08c379a000000000000000000000000000000000000000000000000000000000815260040161050b90611132565b60405180910390fd5b826000806105228486610c97565b8152602001908152602001600020600082825461053f9190611341565b925050819055508073ffffffffffffffffffffffffffffffffffffffff167fe1fffcc4923d04b559f4d29a8bfc6cda04eb5b0d3c460751c2402c5c5cc9109c8460405161058c9190610fc4565b60405180910390a2505050565b6000600460009054906101000a900473ffffffffffffffffffffffffffffffffffffffff1673ffffffffffffffffffffffffffffffffffffffff163373ffffffffffffffffffffffffffffffffffffffff161461062b576040517f08c379a0000000000000000000000000000000000000000000000000000000008152600401610622906113e7565b60405180910390fd5b60006106378585610c97565b905060008313610678578261064b90611407565b600080838152602001908152602001600020600082825461066c9190611341565b925050819055506106f6565b8260008083815260200190815260200160002054116106cc576040517f08c379a00000000000000000000000000000000000000000000000000000000081526004016106c3906114c1565b60405180910390fd5b8260008083815260200190815260200160002060008282546106ee9190611213565b925050819055505b600080828152602001908152602001600020549150509392505050565b61071b610cca565b81600560008373ffffffffffffffffffffffffffffffffffffffff1673ffffffffffffffffffffffffffffffffffffffff16815260200190815260200160002060006101000a81548173ffffffffffffffffffffffffffffffffffffffff021916908373ffffffffffffffffffffffffffffffffffffffff1602179055505050565b600560008273ffffffffffffffffffffffffffffffffffffffff1673ffffffffffffffffffffffffffffffffffffffff16815260200190815260200160002060009054906101000a900473ffffffffffffffffffffffffffffffffffffffff1673ffffffffffffffffffffffffffffffffffffffff163373ffffffffffffffffffffffffffffffffffffffff161461086a576040517f08c379a000000000000000000000000000000000000000000000000000000000815260040161086190611553565b60405180910390fd5b60065460008061087a8585610c97565b815260200190815260200160002054116108c9576040517f08c379a00000000000000000000000000000000000000000000000000000000081526004016108c0906114c1565b60405180910390fd5b600654600160008473ffffffffffffffffffffffffffffffffffffffff1673ffffffffffffffffffffffffffffffffffffffff168152602001908152602001600020600082825461091a9190611341565b925050819055506006546000806109318585610c97565b8152602001908152602001600020600082825461094e9190611213565b925050819055505050565b610961610cca565b80600460006101000a81548173ffffffffffffffffffffffffffffffffffffffff021916908373ffffffffffffffffffffffffffffffffffffffff16021790555050565b600460009054906101000a900473ffffffffffffffffffffffffffffffffffffffff1681565b60006020528060005260406000206000915090505481565b6109eb610cca565b600073ffffffffffffffffffffffffffffffffffffffff168173ffffffffffffffffffffffffffffffffffffffff1603610a5a576040517f08c379a0000000000000000000000000000000000000000000000000000000008152600401610a51906115e5565b60405180910390fd5b80600360006101000a81548173ffffffffffffffffffffffffffffffffffffffff021916908373ffffffffffffffffffffffffffffffffffffffff16021790555050565b60016020528060005260406000206000915090505481565b600560008273ffffffffffffffffffffffffffffffffffffffff1673ffffffffffffffffffffffffffffffffffffffff16815260200190815260200160002060009054906101000a900473ffffffffffffffffffffffffffffffffffffffff1673ffffffffffffffffffffffffffffffffffffffff163373ffffffffffffffffffffffffffffffffffffffff1614610b83576040517f08c379a0000000000000000000000000000000000000000000000000000000008152600401610b7a90611553565b60405180910390fd5b600654600160008473ffffffffffffffffffffffffffffffffffffffff1673ffffffffffffffffffffffffffffffffffffffff168152602001908152602001600020541015610c07576040517f08c379a0000000000000000000000000000000000000000000000000000000008152600401610bfe906114c1565b60405180910390fd5b600654600160008473ffffffffffffffffffffffffffffffffffffffff1673ffffffffffffffffffffffffffffffffffffffff1681526020019081526020016000206000828254610c589190611213565b92505081905550600654600080610c6f8585610c97565b81526020019081526020016000206000828254610c8c9190611341565b925050819055505050565b60008282604051602001610cac92919061164d565b60405160208183030381529060405280519060200120905092915050565b600360009054906101000a900473ffffffffffffffffffffffffffffffffffffffff1673ffffffffffffffffffffffffffffffffffffffff163373ffffffffffffffffffffffffffffffffffffffff1614610d5a576040517f08c379a0000000000000000000000000000000000000000000000000000000008152600401610d51906116eb565b60405180910390fd5b565b600080fd5b6000819050919050565b610d7481610d61565b8114610d7f57600080fd5b50565b600081359050610d9181610d6b565b92915050565b600073ffffffffffffffffffffffffffffffffffffffff82169050919050565b6000610dc282610d97565b9050919050565b610dd281610db7565b8114610ddd57600080fd5b50565b600081359050610def81610dc9565b92915050565b60008060408385031215610e0c57610e0b610d5c565b5b6000610e1a85828601610d82565b9250506020610e2b85828601610de0565b9150509250929050565b6000819050919050565b6000610e5a610e55610e5084610d97565b610e35565b610d97565b9050919050565b6000610e6c82610e3f565b9050919050565b6000610e7e82610e61565b9050919050565b610e8e81610e73565b82525050565b6000602082019050610ea96000830184610e85565b92915050565b610eb881610db7565b82525050565b6000602082019050610ed36000830184610eaf565b92915050565b600080600060608486031215610ef257610ef1610d5c565b5b6000610f0086828701610d82565b9350506020610f1186828701610de0565b9250506040610f2286828701610de0565b9150509250925092565b6000819050919050565b610f3f81610f2c565b8114610f4a57600080fd5b50565b600081359050610f5c81610f36565b92915050565b600080600060608486031215610f7b57610f7a610d5c565b5b6000610f8986828701610de0565b9350506020610f9a86828701610de0565b9250506040610fab86828701610f4d565b9150509250925092565b610fbe81610d61565b82525050565b6000602082019050610fd96000830184610fb5565b92915050565b60008060408385031215610ff657610ff5610d5c565b5b600061100485828601610de0565b925050602061101585828601610de0565b9150509250929050565b60006020828403121561103557611034610d5c565b5b600061104384828501610de0565b91505092915050565b6000819050919050565b61105f8161104c565b811461106a57600080fd5b50565b60008135905061107c81611056565b92915050565b60006020828403121561109857611097610d5c565b5b60006110a68482850161106d565b91505092915050565b600082825260208201905092915050565b7f4d617267696e4163636f756e743a20416d6f756e74206d75737420626520677260008201527f6561746572207468616e207a65726f0000000000000000000000000000000000602082015250565b600061111c602f836110af565b9150611127826110c0565b604082019050919050565b6000602082019050818103600083015261114b8161110f565b9050919050565b7f4d617267696e4163636f756e743a20496e73756666696369656e742062616c6160008201527f6e63650000000000000000000000000000000000000000000000000000000000602082015250565b60006111ae6023836110af565b91506111b982611152565b604082019050919050565b600060208201905081810360008301526111dd816111a1565b9050919050565b7f4e487b7100000000000000000000000000000000000000000000000000000000600052601160045260246000fd5b600061121e82610d61565b915061122983610d61565b9250828203905081811115611241576112406111e4565b5b92915050565b600060408201905061125c6000830185610eaf565b6112696020830184610fb5565b9392505050565b60008115159050919050565b61128581611270565b811461129057600080fd5b50565b6000815190506112a28161127c565b92915050565b6000602082840312156112be576112bd610d5c565b5b60006112cc84828501611293565b91505092915050565b7f4d617267696e4163636f756e743a205472616e73666572206661696c65640000600082015250565b600061130b601e836110af565b9150611316826112d5565b602082019050919050565b6000602082019050818103600083015261133a816112fe565b9050919050565b600061134c82610d61565b915061135783610d61565b925082820190508082111561136f5761136e6111e4565b5b92915050565b7f4d617267696e4163636f756e743a206f6e6c7920706f736974696f6e206d616e60008201527f616765722063616e206d616b6520746869732063616c6c000000000000000000602082015250565b60006113d16037836110af565b91506113dc82611375565b604082019050919050565b60006020820190508181036000830152611400816113c4565b9050919050565b600061141282610f2c565b91507f80000000000000000000000000000000000000000000000000000000000000008203611444576114436111e4565b5b816000039050919050565b7f4d617267696e4163636f756e743a20696e73756666696369656e742066756e6460008201527f7300000000000000000000000000000000000000000000000000000000000000602082015250565b60006114ab6021836110af565b91506114b68261144f565b604082019050919050565b600060208201905081810360008301526114da8161149e565b9050919050565b7f4d617267696e4163636f756e743a206f6e6c79206f7264657220626f6f6b206360008201527f616e206d616b6520746869732063616c6c000000000000000000000000000000602082015250565b600061153d6031836110af565b9150611548826114e1565b604082019050919050565b6000602082019050818103600083015261156c81611530565b9050919050565b7f4d617267696e4163636f756e743a20476f762063616e6e6f74206265207a657260008201527f6f20616464726573730000000000000000000000000000000000000000000000602082015250565b60006115cf6029836110af565b91506115da82611573565b604082019050919050565b600060208201905081810360008301526115fe816115c2565b9050919050565b60008160601b9050919050565b600061161d82611605565b9050919050565b600061162f82611612565b9050919050565b61164761164282610db7565b611624565b82525050565b60006116598285611636565b6014820191506116698284611636565b6014820191508190509392505050565b7f4d617267696e4163636f756e743a204f6e6c7920676f762063616e2063616c6c60008201527f20746869732066756e6374696f6e000000000000000000000000000000000000602082015250565b60006116d5602e836110af565b91506116e082611679565b604082019050919050565b60006020820190508181036000830152611704816116c8565b905091905056fea2646970667358221220ab95026a07a7ff85c79a8fa7e3c07ea2b29a93e27c96f13eb4531f225949bbb864736f6c63430008110033","opcodes":"PUSH1 0x80 PUSH1 0x40 MSTORE CALLVALUE DUP1 ISZERO PUSH3 0x11 JUMPI PUSH1 0x0 DUP1 REVERT JUMPDEST POP PUSH1 0x40 MLOAD PUSH3 0x18AD CODESIZE SUB DUP1 PUSH3 0x18AD DUP4 CODECOPY DUP2 DUP2 ADD PUSH1 0x40 MSTORE DUP2 ADD SWAP1 PUSH3 0x37 SWAP2 SWAP1 PUSH3 0x12A JUMP JUMPDEST DUP1 PUSH1 0x2 PUSH1 0x0 PUSH2 0x100 EXP DUP2 SLOAD DUP2 PUSH20 0xFFFFFFFFFFFFFFFFFFFFFFFFFFFFFFFFFFFFFFFF MUL NOT AND SWAP1 DUP4 PUSH20 0xFFFFFFFFFFFFFFFFFFFFFFFFFFFFFFFFFFFFFFFF AND MUL OR SWAP1 SSTORE POP CALLER PUSH1 0x3 PUSH1 0x0 PUSH2 0x100 EXP DUP2 SLOAD DUP2 PUSH20 0xFFFFFFFFFFFFFFFFFFFFFFFFFFFFFFFFFFFFFFFF MUL NOT AND SWAP1 DUP4 PUSH20 0xFFFFFFFFFFFFFFFFFFFFFFFFFFFFFFFFFFFFFFFF AND MUL OR SWAP1 SSTORE POP POP PUSH3 0x15C JUMP JUMPDEST PUSH1 0x0 DUP1 REVERT JUMPDEST PUSH1 0x0 PUSH20 0xFFFFFFFFFFFFFFFFFFFFFFFFFFFFFFFFFFFFFFFF DUP3 AND SWAP1 POP SWAP2 SWAP1 POP JUMP JUMPDEST PUSH1 0x0 PUSH3 0xF2 DUP3 PUSH3 0xC5 JUMP JUMPDEST SWAP1 POP SWAP2 SWAP1 POP JUMP JUMPDEST PUSH3 0x104 DUP2 PUSH3 0xE5 JUMP JUMPDEST DUP2 EQ PUSH3 0x110 JUMPI PUSH1 0x0 DUP1 REVERT JUMPDEST POP JUMP JUMPDEST PUSH1 0x0 DUP2 MLOAD SWAP1 POP PUSH3 0x124 DUP2 PUSH3 0xF9 JUMP JUMPDEST SWAP3 SWAP2 POP POP JUMP JUMPDEST PUSH1 0x0 PUSH1 0x20 DUP3 DUP5 SUB SLT ISZERO PUSH3 0x143 JUMPI PUSH3 0x142 PUSH3 0xC0 JUMP JUMPDEST JUMPDEST PUSH1 0x0 PUSH3 0x153 DUP5 DUP3 DUP6 ADD PUSH3 0x113 JUMP JUMPDEST SWAP2 POP POP SWAP3 SWAP2 POP POP JUMP JUMPDEST PUSH2 0x1741 DUP1 PUSH3 0x16C PUSH1 0x0 CODECOPY PUSH1 0x0 RETURN INVALID PUSH1 0x80 PUSH1 0x40 MSTORE CALLVALUE DUP1 ISZERO PUSH2 0x10 JUMPI PUSH1 0x0 DUP1 REVERT JUMPDEST POP PUSH1 0x4 CALLDATASIZE LT PUSH2 0xCE JUMPI PUSH1 0x0 CALLDATALOAD PUSH1 0xE0 SHR DUP1 PUSH4 0x466730FF GT PUSH2 0x8C JUMPI DUP1 PUSH4 0x8909AA3F GT PUSH2 0x66 JUMPI DUP1 PUSH4 0x8909AA3F EQ PUSH2 0x1E9 JUMPI DUP1 PUSH4 0xA962EF1E EQ PUSH2 0x219 JUMPI DUP1 PUSH4 0xB86247D7 EQ PUSH2 0x235 JUMPI DUP1 PUSH4 0xBC73473B EQ PUSH2 0x265 JUMPI PUSH2 0xCE JUMP JUMPDEST DUP1 PUSH4 0x466730FF EQ PUSH2 0x193 JUMPI DUP1 PUSH4 0x5760F2E3 EQ PUSH2 0x1AF JUMPI DUP1 PUSH4 0x791B98BC EQ PUSH2 0x1CB JUMPI PUSH2 0xCE JUMP JUMPDEST DUP1 PUSH3 0xF714CE EQ PUSH2 0xD3 JUMPI DUP1 PUSH4 0x11EAC855 EQ PUSH2 0xEF JUMPI DUP1 PUSH4 0x12D43A51 EQ PUSH2 0x10D JUMPI DUP1 PUSH4 0x2E2D2984 EQ PUSH2 0x12B JUMPI DUP1 PUSH4 0x3601CE3C EQ PUSH2 0x147 JUMPI DUP1 PUSH4 0x41D9A056 EQ PUSH2 0x177 JUMPI JUMPDEST PUSH1 0x0 DUP1 REVERT JUMPDEST PUSH2 0xED PUSH1 0x4 DUP1 CALLDATASIZE SUB DUP2 ADD SWAP1 PUSH2 0xE8 SWAP2 SWAP1 PUSH2 0xDF5 JUMP JUMPDEST PUSH2 0x281 JUMP JUMPDEST STOP JUMPDEST PUSH2 0xF7 PUSH2 0x485 JUMP JUMPDEST PUSH1 0x40 MLOAD PUSH2 0x104 SWAP2 SWAP1 PUSH2 0xE94 JUMP JUMPDEST PUSH1 0x40 MLOAD DUP1 SWAP2 SUB SWAP1 RETURN JUMPDEST PUSH2 0x115 PUSH2 0x4AB JUMP JUMPDEST PUSH1 0x40 MLOAD PUSH2 0x122 SWAP2 SWAP1 PUSH2 0xEBE JUMP JUMPDEST PUSH1 0x40 MLOAD DUP1 SWAP2 SUB SWAP1 RETURN JUMPDEST PUSH2 0x145 PUSH1 0x4 DUP1 CALLDATASIZE SUB DUP2 ADD SWAP1 PUSH2 0x140 SWAP2 SWAP1 PUSH2 0xED9 JUMP JUMPDEST PUSH2 0x4D1 JUMP JUMPDEST STOP JUMPDEST PUSH2 0x161 PUSH1 0x4 DUP1 CALLDATASIZE SUB DUP2 ADD SWAP1 PUSH2 0x15C SWAP2 SWAP1 PUSH2 0xF62 JUMP JUMPDEST PUSH2 0x599 JUMP JUMPDEST PUSH1 0x40 MLOAD PUSH2 0x16E SWAP2 SWAP1 PUSH2 0xFC4 JUMP JUMPDEST PUSH1 0x40 MLOAD DUP1 SWAP2 SUB SWAP1 RETURN JUMPDEST PUSH2 0x191 PUSH1 0x4 DUP1 CALLDATASIZE SUB DUP2 ADD SWAP1 PUSH2 0x18C SWAP2 SWAP1 PUSH2 0xFDF JUMP JUMPDEST PUSH2 0x713 JUMP JUMPDEST STOP JUMPDEST PUSH2 0x1AD PUSH1 0x4 DUP1 CALLDATASIZE SUB DUP2 ADD SWAP1 PUSH2 0x1A8 SWAP2 SWAP1 PUSH2 0xFDF JUMP JUMPDEST PUSH2 0x79D JUMP JUMPDEST STOP JUMPDEST PUSH2 0x1C9 PUSH1 0x4 DUP1 CALLDATASIZE SUB DUP2 ADD SWAP1 PUSH2 0x1C4 SWAP2 SWAP1 PUSH2 0x101F JUMP JUMPDEST PUSH2 0x959 JUMP JUMPDEST STOP JUMPDEST PUSH2 0x1D3 PUSH2 0x9A5 JUMP JUMPDEST PUSH1 0x40 MLOAD PUSH2 0x1E0 SWAP2 SWAP1 PUSH2 0xEBE JUMP JUMPDEST PUSH1 0x40 MLOAD DUP1 SWAP2 SUB SWAP1 RETURN JUMPDEST PUSH2 0x203 PUSH1 0x4 DUP1 CALLDATASIZE SUB DUP2 ADD SWAP1 PUSH2 0x1FE SWAP2 SWAP1 PUSH2 0x1082 JUMP JUMPDEST PUSH2 0x9CB JUMP JUMPDEST PUSH1 0x40 MLOAD PUSH2 0x210 SWAP2 SWAP1 PUSH2 0xFC4 JUMP JUMPDEST PUSH1 0x40 MLOAD DUP1 SWAP2 SUB SWAP1 RETURN JUMPDEST PUSH2 0x233 PUSH1 0x4 DUP1 CALLDATASIZE SUB DUP2 ADD SWAP1 PUSH2 0x22E SWAP2 SWAP1 PUSH2 0x101F JUMP JUMPDEST PUSH2 0x9E3 JUMP JUMPDEST STOP JUMPDEST PUSH2 0x24F PUSH1 0x4 DUP1 CALLDATASIZE SUB DUP2 ADD SWAP1 PUSH2 0x24A SWAP2 SWAP1 PUSH2 0x101F JUMP JUMPDEST PUSH2 0xA9E JUMP JUMPDEST PUSH1 0x40 MLOAD PUSH2 0x25C SWAP2 SWAP1 PUSH2 0xFC4 JUMP JUMPDEST PUSH1 0x40 MLOAD DUP1 SWAP2 SUB SWAP1 RETURN JUMPDEST PUSH2 0x27F PUSH1 0x4 DUP1 CALLDATASIZE SUB DUP2 ADD SWAP1 PUSH2 0x27A SWAP2 SWAP1 PUSH2 0xFDF JUMP JUMPDEST PUSH2 0xAB6 JUMP JUMPDEST STOP JUMPDEST PUSH1 0x0 DUP3 GT PUSH2 0x2C4 JUMPI PUSH1 0x40 MLOAD PUSH32 0x8C379A000000000000000000000000000000000000000000000000000000000 DUP2 MSTORE PUSH1 0x4 ADD PUSH2 0x2BB SWAP1 PUSH2 0x1132 JUMP JUMPDEST PUSH1 0x40 MLOAD DUP1 SWAP2 SUB SWAP1 REVERT JUMPDEST PUSH1 0x0 DUP1 PUSH2 0x2D1 CALLER DUP5 PUSH2 0xC97 JUMP JUMPDEST DUP2 MSTORE PUSH1 0x20 ADD SWAP1 DUP2 MSTORE PUSH1 0x20 ADD PUSH1 0x0 KECCAK256 SLOAD DUP3 GT ISZERO PUSH2 0x322 JUMPI PUSH1 0x40 MLOAD PUSH32 0x8C379A000000000000000000000000000000000000000000000000000000000 DUP2 MSTORE PUSH1 0x4 ADD PUSH2 0x319 SWAP1 PUSH2 0x11C4 JUMP JUMPDEST PUSH1 0x40 MLOAD DUP1 SWAP2 SUB SWAP1 REVERT JUMPDEST DUP2 PUSH1 0x0 DUP1 PUSH2 0x330 CALLER DUP6 PUSH2 0xC97 JUMP JUMPDEST DUP2 MSTORE PUSH1 0x20 ADD SWAP1 DUP2 MSTORE PUSH1 0x20 ADD PUSH1 0x0 KECCAK256 PUSH1 0x0 DUP3 DUP3 SLOAD PUSH2 0x34D SWAP2 SWAP1 PUSH2 0x1213 JUMP JUMPDEST SWAP3 POP POP DUP2 SWAP1 SSTORE POP PUSH1 0x2 PUSH1 0x0 SWAP1 SLOAD SWAP1 PUSH2 0x100 EXP SWAP1 DIV PUSH20 0xFFFFFFFFFFFFFFFFFFFFFFFFFFFFFFFFFFFFFFFF AND PUSH20 0xFFFFFFFFFFFFFFFFFFFFFFFFFFFFFFFFFFFFFFFF AND PUSH4 0xA9059CBB CALLER DUP5 PUSH1 0x40 MLOAD DUP4 PUSH4 0xFFFFFFFF AND PUSH1 0xE0 SHL DUP2 MSTORE PUSH1 0x4 ADD PUSH2 0x3B1 SWAP3 SWAP2 SWAP1 PUSH2 0x1247 JUMP JUMPDEST PUSH1 0x20 PUSH1 0x40 MLOAD DUP1 DUP4 SUB DUP2 PUSH1 0x0 DUP8 GAS CALL ISZERO DUP1 ISZERO PUSH2 0x3D0 JUMPI RETURNDATASIZE PUSH1 0x0 DUP1 RETURNDATACOPY RETURNDATASIZE PUSH1 0x0 REVERT JUMPDEST POP POP POP POP PUSH1 0x40 MLOAD RETURNDATASIZE PUSH1 0x1F NOT PUSH1 0x1F DUP3 ADD AND DUP3 ADD DUP1 PUSH1 0x40 MSTORE POP DUP2 ADD SWAP1 PUSH2 0x3F4 SWAP2 SWAP1 PUSH2 0x12A8 JUMP JUMPDEST PUSH2 0x433 JUMPI PUSH1 0x40 MLOAD PUSH32 0x8C379A000000000000000000000000000000000000000000000000000000000 DUP2 MSTORE PUSH1 0x4 ADD PUSH2 0x42A SWAP1 PUSH2 0x1321 JUMP JUMPDEST PUSH1 0x40 MLOAD DUP1 SWAP2 SUB SWAP1 REVERT JUMPDEST CALLER PUSH20 0xFFFFFFFFFFFFFFFFFFFFFFFFFFFFFFFFFFFFFFFF AND PUSH32 0x884EDAD9CE6FA2440D8A54CC123490EB96D2768479D49FF9C7366125A9424364 DUP4 PUSH1 0x40 MLOAD PUSH2 0x479 SWAP2 SWAP1 PUSH2 0xFC4 JUMP JUMPDEST PUSH1 0x40 MLOAD DUP1 SWAP2 SUB SWAP1 LOG2 POP POP JUMP JUMPDEST PUSH1 0x2 PUSH1 0x0 SWAP1 SLOAD SWAP1 PUSH2 0x100 EXP SWAP1 DIV PUSH20 0xFFFFFFFFFFFFFFFFFFFFFFFFFFFFFFFFFFFFFFFF AND DUP2 JUMP JUMPDEST PUSH1 0x3 PUSH1 0x0 SWAP1 SLOAD SWAP1 PUSH2 0x100 EXP SWAP1 DIV PUSH20 0xFFFFFFFFFFFFFFFFFFFFFFFFFFFFFFFFFFFFFFFF AND DUP2 JUMP JUMPDEST PUSH1 0x0 DUP4 GT PUSH2 0x514 JUMPI PUSH1 0x40 MLOAD PUSH32 0x8C379A000000000000000000000000000000000000000000000000000000000 DUP2 MSTORE PUSH1 0x4 ADD PUSH2 0x50B SWAP1 PUSH2 0x1132 JUMP JUMPDEST PUSH1 0x40 MLOAD DUP1 SWAP2 SUB SWAP1 REVERT JUMPDEST DUP3 PUSH1 0x0 DUP1 PUSH2 0x522 DUP5 DUP7 PUSH2 0xC97 JUMP JUMPDEST DUP2 MSTORE PUSH1 0x20 ADD SWAP1 DUP2 MSTORE PUSH1 0x20 ADD PUSH1 0x0 KECCAK256 PUSH1 0x0 DUP3 DUP3 SLOAD PUSH2 0x53F SWAP2 SWAP1 PUSH2 0x1341 JUMP JUMPDEST SWAP3 POP POP DUP2 SWAP1 SSTORE POP DUP1 PUSH20 0xFFFFFFFFFFFFFFFFFFFFFFFFFFFFFFFFFFFFFFFF AND PUSH32 0xE1FFFCC4923D04B559F4D29A8BFC6CDA04EB5B0D3C460751C2402C5C5CC9109C DUP5 PUSH1 0x40 MLOAD PUSH2 0x58C SWAP2 SWAP1 PUSH2 0xFC4 JUMP JUMPDEST PUSH1 0x40 MLOAD DUP1 SWAP2 SUB SWAP1 LOG2 POP POP POP JUMP JUMPDEST PUSH1 0x0 PUSH1 0x4 PUSH1 0x0 SWAP1 SLOAD SWAP1 PUSH2 0x100 EXP SWAP1 DIV PUSH20 0xFFFFFFFFFFFFFFFFFFFFFFFFFFFFFFFFFFFFFFFF AND PUSH20 0xFFFFFFFFFFFFFFFFFFFFFFFFFFFFFFFFFFFFFFFF AND CALLER PUSH20 0xFFFFFFFFFFFFFFFFFFFFFFFFFFFFFFFFFFFFFFFF AND EQ PUSH2 0x62B JUMPI PUSH1 0x40 MLOAD PUSH32 0x8C379A000000000000000000000000000000000000000000000000000000000 DUP2 MSTORE PUSH1 0x4 ADD PUSH2 0x622 SWAP1 PUSH2 0x13E7 JUMP JUMPDEST PUSH1 0x40 MLOAD DUP1 SWAP2 SUB SWAP1 REVERT JUMPDEST PUSH1 0x0 PUSH2 0x637 DUP6 DUP6 PUSH2 0xC97 JUMP JUMPDEST SWAP1 POP PUSH1 0x0 DUP4 SGT PUSH2 0x678 JUMPI DUP3 PUSH2 0x64B SWAP1 PUSH2 0x1407 JUMP JUMPDEST PUSH1 0x0 DUP1 DUP4 DUP2 MSTORE PUSH1 0x20 ADD SWAP1 DUP2 MSTORE PUSH1 0x20 ADD PUSH1 0x0 KECCAK256 PUSH1 0x0 DUP3 DUP3 SLOAD PUSH2 0x66C SWAP2 SWAP1 PUSH2 0x1341 JUMP JUMPDEST SWAP3 POP POP DUP2 SWAP1 SSTORE POP PUSH2 0x6F6 JUMP JUMPDEST DUP3 PUSH1 0x0 DUP1 DUP4 DUP2 MSTORE PUSH1 0x20 ADD SWAP1 DUP2 MSTORE PUSH1 0x20 ADD PUSH1 0x0 KECCAK256 SLOAD GT PUSH2 0x6CC JUMPI PUSH1 0x40 MLOAD PUSH32 0x8C379A000000000000000000000000000000000000000000000000000000000 DUP2 MSTORE PUSH1 0x4 ADD PUSH2 0x6C3 SWAP1 PUSH2 0x14C1 JUMP JUMPDEST PUSH1 0x40 MLOAD DUP1 SWAP2 SUB SWAP1 REVERT JUMPDEST DUP3 PUSH1 0x0 DUP1 DUP4 DUP2 MSTORE PUSH1 0x20 ADD SWAP1 DUP2 MSTORE PUSH1 0x20 ADD PUSH1 0x0 KECCAK256 PUSH1 0x0 DUP3 DUP3 SLOAD PUSH2 0x6EE SWAP2 SWAP1 PUSH2 0x1213 JUMP JUMPDEST SWAP3 POP POP DUP2 SWAP1 SSTORE POP JUMPDEST PUSH1 0x0 DUP1 DUP3 DUP2 MSTORE PUSH1 0x20 ADD SWAP1 DUP2 MSTORE PUSH1 0x20 ADD PUSH1 0x0 KECCAK256 SLOAD SWAP2 POP POP SWAP4 SWAP3 POP POP POP JUMP JUMPDEST PUSH2 0x71B PUSH2 0xCCA JUMP JUMPDEST DUP2 PUSH1 0x5 PUSH1 0x0 DUP4 PUSH20 0xFFFFFFFFFFFFFFFFFFFFFFFFFFFFFFFFFFFFFFFF AND PUSH20 0xFFFFFFFFFFFFFFFFFFFFFFFFFFFFFFFFFFFFFFFF AND DUP2 MSTORE PUSH1 0x20 ADD SWAP1 DUP2 MSTORE PUSH1 0x20 ADD PUSH1 0x0 KECCAK256 PUSH1 0x0 PUSH2 0x100 EXP DUP2 SLOAD DUP2 PUSH20 0xFFFFFFFFFFFFFFFFFFFFFFFFFFFFFFFFFFFFFFFF MUL NOT AND SWAP1 DUP4 PUSH20 0xFFFFFFFFFFFFFFFFFFFFFFFFFFFFFFFFFFFFFFFF AND MUL OR SWAP1 SSTORE POP POP POP JUMP JUMPDEST PUSH1 0x5 PUSH1 0x0 DUP3 PUSH20 0xFFFFFFFFFFFFFFFFFFFFFFFFFFFFFFFFFFFFFFFF AND PUSH20 0xFFFFFFFFFFFFFFFFFFFFFFFFFFFFFFFFFFFFFFFF AND DUP2 MSTORE PUSH1 0x20 ADD SWAP1 DUP2 MSTORE PUSH1 0x20 ADD PUSH1 0x0 KECCAK256 PUSH1 0x0 SWAP1 SLOAD SWAP1 PUSH2 0x100 EXP SWAP1 DIV PUSH20 0xFFFFFFFFFFFFFFFFFFFFFFFFFFFFFFFFFFFFFFFF AND PUSH20 0xFFFFFFFFFFFFFFFFFFFFFFFFFFFFFFFFFFFFFFFF AND CALLER PUSH20 0xFFFFFFFFFFFFFFFFFFFFFFFFFFFFFFFFFFFFFFFF AND EQ PUSH2 0x86A JUMPI PUSH1 0x40 MLOAD PUSH32 0x8C379A000000000000000000000000000000000000000000000000000000000 DUP2 MSTORE PUSH1 0x4 ADD PUSH2 0x861 SWAP1 PUSH2 0x1553 JUMP JUMPDEST PUSH1 0x40 MLOAD DUP1 SWAP2 SUB SWAP1 REVERT JUMPDEST PUSH1 0x6 SLOAD PUSH1 0x0 DUP1 PUSH2 0x87A DUP6 DUP6 PUSH2 0xC97 JUMP JUMPDEST DUP2 MSTORE PUSH1 0x20 ADD SWAP1 DUP2 MSTORE PUSH1 0x20 ADD PUSH1 0x0 KECCAK256 SLOAD GT PUSH2 0x8C9 JUMPI PUSH1 0x40 MLOAD PUSH32 0x8C379A000000000000000000000000000000000000000000000000000000000 DUP2 MSTORE PUSH1 0x4 ADD PUSH2 0x8C0 SWAP1 PUSH2 0x14C1 JUMP JUMPDEST PUSH1 0x40 MLOAD DUP1 SWAP2 SUB SWAP1 REVERT JUMPDEST PUSH1 0x6 SLOAD PUSH1 0x1 PUSH1 0x0 DUP5 PUSH20 0xFFFFFFFFFFFFFFFFFFFFFFFFFFFFFFFFFFFFFFFF AND PUSH20 0xFFFFFFFFFFFFFFFFFFFFFFFFFFFFFFFFFFFFFFFF AND DUP2 MSTORE PUSH1 0x20 ADD SWAP1 DUP2 MSTORE PUSH1 0x20 ADD PUSH1 0x0 KECCAK256 PUSH1 0x0 DUP3 DUP3 SLOAD PUSH2 0x91A SWAP2 SWAP1 PUSH2 0x1341 JUMP JUMPDEST SWAP3 POP POP DUP2 SWAP1 SSTORE POP PUSH1 0x6 SLOAD PUSH1 0x0 DUP1 PUSH2 0x931 DUP6 DUP6 PUSH2 0xC97 JUMP JUMPDEST DUP2 MSTORE PUSH1 0x20 ADD SWAP1 DUP2 MSTORE PUSH1 0x20 ADD PUSH1 0x0 KECCAK256 PUSH1 0x0 DUP3 DUP3 SLOAD PUSH2 0x94E SWAP2 SWAP1 PUSH2 0x1213 JUMP JUMPDEST SWAP3 POP POP DUP2 SWAP1 SSTORE POP POP POP JUMP JUMPDEST PUSH2 0x961 PUSH2 0xCCA JUMP JUMPDEST DUP1 PUSH1 0x4 PUSH1 0x0 PUSH2 0x100 EXP DUP2 SLOAD DUP2 PUSH20 0xFFFFFFFFFFFFFFFFFFFFFFFFFFFFFFFFFFFFFFFF MUL NOT AND SWAP1 DUP4 PUSH20 0xFFFFFFFFFFFFFFFFFFFFFFFFFFFFFFFFFFFFFFFF AND MUL OR SWAP1 SSTORE POP POP JUMP JUMPDEST PUSH1 0x4 PUSH1 0x0 SWAP1 SLOAD SWAP1 PUSH2 0x100 EXP SWAP1 DIV PUSH20 0xFFFFFFFFFFFFFFFFFFFFFFFFFFFFFFFFFFFFFFFF AND DUP2 JUMP JUMPDEST PUSH1 0x0 PUSH1 0x20 MSTORE DUP1 PUSH1 0x0 MSTORE PUSH1 0x40 PUSH1 0x0 KECCAK256 PUSH1 0x0 SWAP2 POP SWAP1 POP SLOAD DUP2 JUMP JUMPDEST PUSH2 0x9EB PUSH2 0xCCA JUMP JUMPDEST PUSH1 0x0 PUSH20 0xFFFFFFFFFFFFFFFFFFFFFFFFFFFFFFFFFFFFFFFF AND DUP2 PUSH20 0xFFFFFFFFFFFFFFFFFFFFFFFFFFFFFFFFFFFFFFFF AND SUB PUSH2 0xA5A JUMPI PUSH1 0x40 MLOAD PUSH32 0x8C379A000000000000000000000000000000000000000000000000000000000 DUP2 MSTORE PUSH1 0x4 ADD PUSH2 0xA51 SWAP1 PUSH2 0x15E5 JUMP JUMPDEST PUSH1 0x40 MLOAD DUP1 SWAP2 SUB SWAP1 REVERT JUMPDEST DUP1 PUSH1 0x3 PUSH1 0x0 PUSH2 0x100 EXP DUP2 SLOAD DUP2 PUSH20 0xFFFFFFFFFFFFFFFFFFFFFFFFFFFFFFFFFFFFFFFF MUL NOT AND SWAP1 DUP4 PUSH20 0xFFFFFFFFFFFFFFFFFFFFFFFFFFFFFFFFFFFFFFFF AND MUL OR SWAP1 SSTORE POP POP JUMP JUMPDEST PUSH1 0x1 PUSH1 0x20 MSTORE DUP1 PUSH1 0x0 MSTORE PUSH1 0x40 PUSH1 0x0 KECCAK256 PUSH1 0x0 SWAP2 POP SWAP1 POP SLOAD DUP2 JUMP JUMPDEST PUSH1 0x5 PUSH1 0x0 DUP3 PUSH20 0xFFFFFFFFFFFFFFFFFFFFFFFFFFFFFFFFFFFFFFFF AND PUSH20 0xFFFFFFFFFFFFFFFFFFFFFFFFFFFFFFFFFFFFFFFF AND DUP2 MSTORE PUSH1 0x20 ADD SWAP1 DUP2 MSTORE PUSH1 0x20 ADD PUSH1 0x0 KECCAK256 PUSH1 0x0 SWAP1 SLOAD SWAP1 PUSH2 0x100 EXP SWAP1 DIV PUSH20 0xFFFFFFFFFFFFFFFFFFFFFFFFFFFFFFFFFFFFFFFF AND PUSH20 0xFFFFFFFFFFFFFFFFFFFFFFFFFFFFFFFFFFFFFFFF AND CALLER PUSH20 0xFFFFFFFFFFFFFFFFFFFFFFFFFFFFFFFFFFFFFFFF AND EQ PUSH2 0xB83 JUMPI PUSH1 0x40 MLOAD PUSH32 0x8C379A000000000000000000000000000000000000000000000000000000000 DUP2 MSTORE PUSH1 0x4 ADD PUSH2 0xB7A SWAP1 PUSH2 0x1553 JUMP JUMPDEST PUSH1 0x40 MLOAD DUP1 SWAP2 SUB SWAP1 REVERT JUMPDEST PUSH1 0x6 SLOAD PUSH1 0x1 PUSH1 0x0 DUP5 PUSH20 0xFFFFFFFFFFFFFFFFFFFFFFFFFFFFFFFFFFFFFFFF AND PUSH20 0xFFFFFFFFFFFFFFFFFFFFFFFFFFFFFFFFFFFFFFFF AND DUP2 MSTORE PUSH1 0x20 ADD SWAP1 DUP2 MSTORE PUSH1 0x20 ADD PUSH1 0x0 KECCAK256 SLOAD LT ISZERO PUSH2 0xC07 JUMPI PUSH1 0x40 MLOAD PUSH32 0x8C379A000000000000000000000000000000000000000000000000000000000 DUP2 MSTORE PUSH1 0x4 ADD PUSH2 0xBFE SWAP1 PUSH2 0x14C1 JUMP JUMPDEST PUSH1 0x40 MLOAD DUP1 SWAP2 SUB SWAP1 REVERT JUMPDEST PUSH1 0x6 SLOAD PUSH1 0x1 PUSH1 0x0 DUP5 PUSH20 0xFFFFFFFFFFFFFFFFFFFFFFFFFFFFFFFFFFFFFFFF AND PUSH20 0xFFFFFFFFFFFFFFFFFFFFFFFFFFFFFFFFFFFFFFFF AND DUP2 MSTORE PUSH1 0x20 ADD SWAP1 DUP2 MSTORE PUSH1 0x20 ADD PUSH1 0x0 KECCAK256 PUSH1 0x0 DUP3 DUP3 SLOAD PUSH2 0xC58 SWAP2 SWAP1 PUSH2 0x1213 JUMP JUMPDEST SWAP3 POP POP DUP2 SWAP1 SSTORE POP PUSH1 0x6 SLOAD PUSH1 0x0 DUP1 PUSH2 0xC6F DUP6 DUP6 PUSH2 0xC97 JUMP JUMPDEST DUP2 MSTORE PUSH1 0x20 ADD SWAP1 DUP2 MSTORE PUSH1 0x20 ADD PUSH1 0x0 KECCAK256 PUSH1 0x0 DUP3 DUP3 SLOAD PUSH2 0xC8C SWAP2 SWAP1 PUSH2 0x1341 JUMP JUMPDEST SWAP3 POP POP DUP2 SWAP1 SSTORE POP POP POP JUMP JUMPDEST PUSH1 0x0 DUP3 DUP3 PUSH1 0x40 MLOAD PUSH1 0x20 ADD PUSH2 0xCAC SWAP3 SWAP2 SWAP1 PUSH2 0x164D JUMP JUMPDEST PUSH1 0x40 MLOAD PUSH1 0x20 DUP2 DUP4 SUB SUB DUP2 MSTORE SWAP1 PUSH1 0x40 MSTORE DUP1 MLOAD SWAP1 PUSH1 0x20 ADD KECCAK256 SWAP1 POP SWAP3 SWAP2 POP POP JUMP JUMPDEST PUSH1 0x3 PUSH1 0x0 SWAP1 SLOAD SWAP1 PUSH2 0x100 EXP SWAP1 DIV PUSH20 0xFFFFFFFFFFFFFFFFFFFFFFFFFFFFFFFFFFFFFFFF AND PUSH20 0xFFFFFFFFFFFFFFFFFFFFFFFFFFFFFFFFFFFFFFFF AND CALLER PUSH20 0xFFFFFFFFFFFFFFFFFFFFFFFFFFFFFFFFFFFFFFFF AND EQ PUSH2 0xD5A JUMPI PUSH1 0x40 MLOAD PUSH32 0x8C379A000000000000000000000000000000000000000000000000000000000 DUP2 MSTORE PUSH1 0x4 ADD PUSH2 0xD51 SWAP1 PUSH2 0x16EB JUMP JUMPDEST PUSH1 0x40 MLOAD DUP1 SWAP2 SUB SWAP1 REVERT JUMPDEST JUMP JUMPDEST PUSH1 0x0 DUP1 REVERT JUMPDEST PUSH1 0x0 DUP2 SWAP1 POP SWAP2 SWAP1 POP JUMP JUMPDEST PUSH2 0xD74 DUP2 PUSH2 0xD61 JUMP JUMPDEST DUP2 EQ PUSH2 0xD7F JUMPI PUSH1 0x0 DUP1 REVERT JUMPDEST POP JUMP JUMPDEST PUSH1 0x0 DUP2 CALLDATALOAD SWAP1 POP PUSH2 0xD91 DUP2 PUSH2 0xD6B JUMP JUMPDEST SWAP3 SWAP2 POP POP JUMP JUMPDEST PUSH1 0x0 PUSH20 0xFFFFFFFFFFFFFFFFFFFFFFFFFFFFFFFFFFFFFFFF DUP3 AND SWAP1 POP SWAP2 SWAP1 POP JUMP JUMPDEST PUSH1 0x0 PUSH2 0xDC2 DUP3 PUSH2 0xD97 JUMP JUMPDEST SWAP1 POP SWAP2 SWAP1 POP JUMP JUMPDEST PUSH2 0xDD2 DUP2 PUSH2 0xDB7 JUMP JUMPDEST DUP2 EQ PUSH2 0xDDD JUMPI PUSH1 0x0 DUP1 REVERT JUMPDEST POP JUMP JUMPDEST PUSH1 0x0 DUP2 CALLDATALOAD SWAP1 POP PUSH2 0xDEF DUP2 PUSH2 0xDC9 JUMP JUMPDEST SWAP3 SWAP2 POP POP JUMP JUMPDEST PUSH1 0x0 DUP1 PUSH1 0x40 DUP4 DUP6 SUB SLT ISZERO PUSH2 0xE0C JUMPI PUSH2 0xE0B PUSH2 0xD5C JUMP JUMPDEST JUMPDEST PUSH1 0x0 PUSH2 0xE1A DUP6 DUP3 DUP7 ADD PUSH2 0xD82 JUMP JUMPDEST SWAP3 POP POP PUSH1 0x20 PUSH2 0xE2B DUP6 DUP3 DUP7 ADD PUSH2 0xDE0 JUMP JUMPDEST SWAP2 POP POP SWAP3 POP SWAP3 SWAP1 POP JUMP JUMPDEST PUSH1 0x0 DUP2 SWAP1 POP SWAP2 SWAP1 POP JUMP JUMPDEST PUSH1 0x0 PUSH2 0xE5A PUSH2 0xE55 PUSH2 0xE50 DUP5 PUSH2 0xD97 JUMP JUMPDEST PUSH2 0xE35 JUMP JUMPDEST PUSH2 0xD97 JUMP JUMPDEST SWAP1 POP SWAP2 SWAP1 POP JUMP JUMPDEST PUSH1 0x0 PUSH2 0xE6C DUP3 PUSH2 0xE3F JUMP JUMPDEST SWAP1 POP SWAP2 SWAP1 POP JUMP JUMPDEST PUSH1 0x0 PUSH2 0xE7E DUP3 PUSH2 0xE61 JUMP JUMPDEST SWAP1 POP SWAP2 SWAP1 POP JUMP JUMPDEST PUSH2 0xE8E DUP2 PUSH2 0xE73 JUMP JUMPDEST DUP3 MSTORE POP POP JUMP JUMPDEST PUSH1 0x0 PUSH1 0x20 DUP3 ADD SWAP1 POP PUSH2 0xEA9 PUSH1 0x0 DUP4 ADD DUP5 PUSH2 0xE85 JUMP JUMPDEST SWAP3 SWAP2 POP POP JUMP JUMPDEST PUSH2 0xEB8 DUP2 PUSH2 0xDB7 JUMP JUMPDEST DUP3 MSTORE POP POP JUMP JUMPDEST PUSH1 0x0 PUSH1 0x20 DUP3 ADD SWAP1 POP PUSH2 0xED3 PUSH1 0x0 DUP4 ADD DUP5 PUSH2 0xEAF JUMP JUMPDEST SWAP3 SWAP2 POP POP JUMP JUMPDEST PUSH1 0x0 DUP1 PUSH1 0x0 PUSH1 0x60 DUP5 DUP7 SUB SLT ISZERO PUSH2 0xEF2 JUMPI PUSH2 0xEF1 PUSH2 0xD5C JUMP JUMPDEST JUMPDEST PUSH1 0x0 PUSH2 0xF00 DUP7 DUP3 DUP8 ADD PUSH2 0xD82 JUMP JUMPDEST SWAP4 POP POP PUSH1 0x20 PUSH2 0xF11 DUP7 DUP3 DUP8 ADD PUSH2 0xDE0 JUMP JUMPDEST SWAP3 POP POP PUSH1 0x40 PUSH2 0xF22 DUP7 DUP3 DUP8 ADD PUSH2 0xDE0 JUMP JUMPDEST SWAP2 POP POP SWAP3 POP SWAP3 POP SWAP3 JUMP JUMPDEST PUSH1 0x0 DUP2 SWAP1 POP SWAP2 SWAP1 POP JUMP JUMPDEST PUSH2 0xF3F DUP2 PUSH2 0xF2C JUMP JUMPDEST DUP2 EQ PUSH2 0xF4A JUMPI PUSH1 0x0 DUP1 REVERT JUMPDEST POP JUMP JUMPDEST PUSH1 0x0 DUP2 CALLDATALOAD SWAP1 POP PUSH2 0xF5C DUP2 PUSH2 0xF36 JUMP JUMPDEST SWAP3 SWAP2 POP POP JUMP JUMPDEST PUSH1 0x0 DUP1 PUSH1 0x0 PUSH1 0x60 DUP5 DUP7 SUB SLT ISZERO PUSH2 0xF7B JUMPI PUSH2 0xF7A PUSH2 0xD5C JUMP JUMPDEST JUMPDEST PUSH1 0x0 PUSH2 0xF89 DUP7 DUP3 DUP8 ADD PUSH2 0xDE0 JUMP JUMPDEST SWAP4 POP POP PUSH1 0x20 PUSH2 0xF9A DUP7 DUP3 DUP8 ADD PUSH2 0xDE0 JUMP JUMPDEST SWAP3 POP POP PUSH1 0x40 PUSH2 0xFAB DUP7 DUP3 DUP8 ADD PUSH2 0xF4D JUMP JUMPDEST SWAP2 POP POP SWAP3 POP SWAP3 POP SWAP3 JUMP JUMPDEST PUSH2 0xFBE DUP2 PUSH2 0xD61 JUMP JUMPDEST DUP3 MSTORE POP POP JUMP JUMPDEST PUSH1 0x0 PUSH1 0x20 DUP3 ADD SWAP1 POP PUSH2 0xFD9 PUSH1 0x0 DUP4 ADD DUP5 PUSH2 0xFB5 JUMP JUMPDEST SWAP3 SWAP2 POP POP JUMP JUMPDEST PUSH1 0x0 DUP1 PUSH1 0x40 DUP4 DUP6 SUB SLT ISZERO PUSH2 0xFF6 JUMPI PUSH2 0xFF5 PUSH2 0xD5C JUMP JUMPDEST JUMPDEST PUSH1 0x0 PUSH2 0x1004 DUP6 DUP3 DUP7 ADD PUSH2 0xDE0 JUMP JUMPDEST SWAP3 POP POP PUSH1 0x20 PUSH2 0x1015 DUP6 DUP3 DUP7 ADD PUSH2 0xDE0 JUMP JUMPDEST SWAP2 POP POP SWAP3 POP SWAP3 SWAP1 POP JUMP JUMPDEST PUSH1 0x0 PUSH1 0x20 DUP3 DUP5 SUB SLT ISZERO PUSH2 0x1035 JUMPI PUSH2 0x1034 PUSH2 0xD5C JUMP JUMPDEST JUMPDEST PUSH1 0x0 PUSH2 0x1043 DUP5 DUP3 DUP6 ADD PUSH2 0xDE0 JUMP JUMPDEST SWAP2 POP POP SWAP3 SWAP2 POP POP JUMP JUMPDEST PUSH1 0x0 DUP2 SWAP1 POP SWAP2 SWAP1 POP JUMP JUMPDEST PUSH2 0x105F DUP2 PUSH2 0x104C JUMP JUMPDEST DUP2 EQ PUSH2 0x106A JUMPI PUSH1 0x0 DUP1 REVERT JUMPDEST POP JUMP JUMPDEST PUSH1 0x0 DUP2 CALLDATALOAD SWAP1 POP PUSH2 0x107C DUP2 PUSH2 0x1056 JUMP JUMPDEST SWAP3 SWAP2 POP POP JUMP JUMPDEST PUSH1 0x0 PUSH1 0x20 DUP3 DUP5 SUB SLT ISZERO PUSH2 0x1098 JUMPI PUSH2 0x1097 PUSH2 0xD5C JUMP JUMPDEST JUMPDEST PUSH1 0x0 PUSH2 0x10A6 DUP5 DUP3 DUP6 ADD PUSH2 0x106D JUMP JUMPDEST SWAP2 POP POP SWAP3 SWAP2 POP POP JUMP JUMPDEST PUSH1 0x0 DUP3 DUP3 MSTORE PUSH1 0x20 DUP3 ADD SWAP1 POP SWAP3 SWAP2 POP POP JUMP JUMPDEST PUSH32 0x4D617267696E4163636F756E743A20416D6F756E74206D757374206265206772 PUSH1 0x0 DUP3 ADD MSTORE PUSH32 0x6561746572207468616E207A65726F0000000000000000000000000000000000 PUSH1 0x20 DUP3 ADD MSTORE POP JUMP JUMPDEST PUSH1 0x0 PUSH2 0x111C PUSH1 0x2F DUP4 PUSH2 0x10AF JUMP JUMPDEST SWAP2 POP PUSH2 0x1127 DUP3 PUSH2 0x10C0 JUMP JUMPDEST PUSH1 0x40 DUP3 ADD SWAP1 POP SWAP2 SWAP1 POP JUMP JUMPDEST PUSH1 0x0 PUSH1 0x20 DUP3 ADD SWAP1 POP DUP2 DUP2 SUB PUSH1 0x0 DUP4 ADD MSTORE PUSH2 0x114B DUP2 PUSH2 0x110F JUMP JUMPDEST SWAP1 POP SWAP2 SWAP1 POP JUMP JUMPDEST PUSH32 0x4D617267696E4163636F756E743A20496E73756666696369656E742062616C61 PUSH1 0x0 DUP3 ADD MSTORE PUSH32 0x6E63650000000000000000000000000000000000000000000000000000000000 PUSH1 0x20 DUP3 ADD MSTORE POP JUMP JUMPDEST PUSH1 0x0 PUSH2 0x11AE PUSH1 0x23 DUP4 PUSH2 0x10AF JUMP JUMPDEST SWAP2 POP PUSH2 0x11B9 DUP3 PUSH2 0x1152 JUMP JUMPDEST PUSH1 0x40 DUP3 ADD SWAP1 POP SWAP2 SWAP1 POP JUMP JUMPDEST PUSH1 0x0 PUSH1 0x20 DUP3 ADD SWAP1 POP DUP2 DUP2 SUB PUSH1 0x0 DUP4 ADD MSTORE PUSH2 0x11DD DUP2 PUSH2 0x11A1 JUMP JUMPDEST SWAP1 POP SWAP2 SWAP1 POP JUMP JUMPDEST PUSH32 0x4E487B7100000000000000000000000000000000000000000000000000000000 PUSH1 0x0 MSTORE PUSH1 0x11 PUSH1 0x4 MSTORE PUSH1 0x24 PUSH1 0x0 REVERT JUMPDEST PUSH1 0x0 PUSH2 0x121E DUP3 PUSH2 0xD61 JUMP JUMPDEST SWAP2 POP PUSH2 0x1229 DUP4 PUSH2 0xD61 JUMP JUMPDEST SWAP3 POP DUP3 DUP3 SUB SWAP1 POP DUP2 DUP2 GT ISZERO PUSH2 0x1241 JUMPI PUSH2 0x1240 PUSH2 0x11E4 JUMP JUMPDEST JUMPDEST SWAP3 SWAP2 POP POP JUMP JUMPDEST PUSH1 0x0 PUSH1 0x40 DUP3 ADD SWAP1 POP PUSH2 0x125C PUSH1 0x0 DUP4 ADD DUP6 PUSH2 0xEAF JUMP JUMPDEST PUSH2 0x1269 PUSH1 0x20 DUP4 ADD DUP5 PUSH2 0xFB5 JUMP JUMPDEST SWAP4 SWAP3 POP POP POP JUMP JUMPDEST PUSH1 0x0 DUP2 ISZERO ISZERO SWAP1 POP SWAP2 SWAP1 POP JUMP JUMPDEST PUSH2 0x1285 DUP2 PUSH2 0x1270 JUMP JUMPDEST DUP2 EQ PUSH2 0x1290 JUMPI PUSH1 0x0 DUP1 REVERT JUMPDEST POP JUMP JUMPDEST PUSH1 0x0 DUP2 MLOAD SWAP1 POP PUSH2 0x12A2 DUP2 PUSH2 0x127C JUMP JUMPDEST SWAP3 SWAP2 POP POP JUMP JUMPDEST PUSH1 0x0 PUSH1 0x20 DUP3 DUP5 SUB SLT ISZERO PUSH2 0x12BE JUMPI PUSH2 0x12BD PUSH2 0xD5C JUMP JUMPDEST JUMPDEST PUSH1 0x0 PUSH2 0x12CC DUP5 DUP3 DUP6 ADD PUSH2 0x1293 JUMP JUMPDEST SWAP2 POP POP SWAP3 SWAP2 POP POP JUMP JUMPDEST PUSH32 0x4D617267696E4163636F756E743A205472616E73666572206661696C65640000 PUSH1 0x0 DUP3 ADD MSTORE POP JUMP JUMPDEST PUSH1 0x0 PUSH2 0x130B PUSH1 0x1E DUP4 PUSH2 0x10AF JUMP JUMPDEST SWAP2 POP PUSH2 0x1316 DUP3 PUSH2 0x12D5 JUMP JUMPDEST PUSH1 0x20 DUP3 ADD SWAP1 POP SWAP2 SWAP1 POP JUMP JUMPDEST PUSH1 0x0 PUSH1 0x20 DUP3 ADD SWAP1 POP DUP2 DUP2 SUB PUSH1 0x0 DUP4 ADD MSTORE PUSH2 0x133A DUP2 PUSH2 0x12FE JUMP JUMPDEST SWAP1 POP SWAP2 SWAP1 POP JUMP JUMPDEST PUSH1 0x0 PUSH2 0x134C DUP3 PUSH2 0xD61 JUMP JUMPDEST SWAP2 POP PUSH2 0x1357 DUP4 PUSH2 0xD61 JUMP JUMPDEST SWAP3 POP DUP3 DUP3 ADD SWAP1 POP DUP1 DUP3 GT ISZERO PUSH2 0x136F JUMPI PUSH2 0x136E PUSH2 0x11E4 JUMP JUMPDEST JUMPDEST SWAP3 SWAP2 POP POP JUMP JUMPDEST PUSH32 0x4D617267696E4163636F756E743A206F6E6C7920706F736974696F6E206D616E PUSH1 0x0 DUP3 ADD MSTORE PUSH32 0x616765722063616E206D616B6520746869732063616C6C000000000000000000 PUSH1 0x20 DUP3 ADD MSTORE POP JUMP JUMPDEST PUSH1 0x0 PUSH2 0x13D1 PUSH1 0x37 DUP4 PUSH2 0x10AF JUMP JUMPDEST SWAP2 POP PUSH2 0x13DC DUP3 PUSH2 0x1375 JUMP JUMPDEST PUSH1 0x40 DUP3 ADD SWAP1 POP SWAP2 SWAP1 POP JUMP JUMPDEST PUSH1 0x0 PUSH1 0x20 DUP3 ADD SWAP1 POP DUP2 DUP2 SUB PUSH1 0x0 DUP4 ADD MSTORE PUSH2 0x1400 DUP2 PUSH2 0x13C4 JUMP JUMPDEST SWAP1 POP SWAP2 SWAP1 POP JUMP JUMPDEST PUSH1 0x0 PUSH2 0x1412 DUP3 PUSH2 0xF2C JUMP JUMPDEST SWAP2 POP PUSH32 0x8000000000000000000000000000000000000000000000000000000000000000 DUP3 SUB PUSH2 0x1444 JUMPI PUSH2 0x1443 PUSH2 0x11E4 JUMP JUMPDEST JUMPDEST DUP2 PUSH1 0x0 SUB SWAP1 POP SWAP2 SWAP1 POP JUMP JUMPDEST PUSH32 0x4D617267696E4163636F756E743A20696E73756666696369656E742066756E64 PUSH1 0x0 DUP3 ADD MSTORE PUSH32 0x7300000000000000000000000000000000000000000000000000000000000000 PUSH1 0x20 DUP3 ADD MSTORE POP JUMP JUMPDEST PUSH1 0x0 PUSH2 0x14AB PUSH1 0x21 DUP4 PUSH2 0x10AF JUMP JUMPDEST SWAP2 POP PUSH2 0x14B6 DUP3 PUSH2 0x144F JUMP JUMPDEST PUSH1 0x40 DUP3 ADD SWAP1 POP SWAP2 SWAP1 POP JUMP JUMPDEST PUSH1 0x0 PUSH1 0x20 DUP3 ADD SWAP1 POP DUP2 DUP2 SUB PUSH1 0x0 DUP4 ADD MSTORE PUSH2 0x14DA DUP2 PUSH2 0x149E JUMP JUMPDEST SWAP1 POP SWAP2 SWAP1 POP JUMP JUMPDEST PUSH32 0x4D617267696E4163636F756E743A206F6E6C79206F7264657220626F6F6B2063 PUSH1 0x0 DUP3 ADD MSTORE PUSH32 0x616E206D616B6520746869732063616C6C000000000000000000000000000000 PUSH1 0x20 DUP3 ADD MSTORE POP JUMP JUMPDEST PUSH1 0x0 PUSH2 0x153D PUSH1 0x31 DUP4 PUSH2 0x10AF JUMP JUMPDEST SWAP2 POP PUSH2 0x1548 DUP3 PUSH2 0x14E1 JUMP JUMPDEST PUSH1 0x40 DUP3 ADD SWAP1 POP SWAP2 SWAP1 POP JUMP JUMPDEST PUSH1 0x0 PUSH1 0x20 DUP3 ADD SWAP1 POP DUP2 DUP2 SUB PUSH1 0x0 DUP4 ADD MSTORE PUSH2 0x156C DUP2 PUSH2 0x1530 JUMP JUMPDEST SWAP1 POP SWAP2 SWAP1 POP JUMP JUMPDEST PUSH32 0x4D617267696E4163636F756E743A20476F762063616E6E6F74206265207A6572 PUSH1 0x0 DUP3 ADD MSTORE PUSH32 0x6F20616464726573730000000000000000000000000000000000000000000000 PUSH1 0x20 DUP3 ADD MSTORE POP JUMP JUMPDEST PUSH1 0x0 PUSH2 0x15CF PUSH1 0x29 DUP4 PUSH2 0x10AF JUMP JUMPDEST SWAP2 POP PUSH2 0x15DA DUP3 PUSH2 0x1573 JUMP JUMPDEST PUSH1 0x40 DUP3 ADD SWAP1 POP SWAP2 SWAP1 POP JUMP JUMPDEST PUSH1 0x0 PUSH1 0x20 DUP3 ADD SWAP1 POP DUP2 DUP2 SUB PUSH1 0x0 DUP4 ADD MSTORE PUSH2 0x15FE DUP2 PUSH2 0x15C2 JUMP JUMPDEST SWAP1 POP SWAP2 SWAP1 POP JUMP JUMPDEST PUSH1 0x0 DUP2 PUSH1 0x60 SHL SWAP1 POP SWAP2 SWAP1 POP JUMP JUMPDEST PUSH1 0x0 PUSH2 0x161D DUP3 PUSH2 0x1605 JUMP JUMPDEST SWAP1 POP SWAP2 SWAP1 POP JUMP JUMPDEST PUSH1 0x0 PUSH2 0x162F DUP3 PUSH2 0x1612 JUMP JUMPDEST SWAP1 POP SWAP2 SWAP1 POP JUMP JUMPDEST PUSH2 0x1647 PUSH2 0x1642 DUP3 PUSH2 0xDB7 JUMP JUMPDEST PUSH2 0x1624 JUMP JUMPDEST DUP3 MSTORE POP POP JUMP JUMPDEST PUSH1 0x0 PUSH2 0x1659 DUP3 DUP6 PUSH2 0x1636 JUMP JUMPDEST PUSH1 0x14 DUP3 ADD SWAP2 POP PUSH2 0x1669 DUP3 DUP5 PUSH2 0x1636 JUMP JUMPDEST PUSH1 0x14 DUP3 ADD SWAP2 POP DUP2 SWAP1 POP SWAP4 SWAP3 POP POP POP JUMP JUMPDEST PUSH32 0x4D617267696E4163636F756E743A204F6E6C7920676F762063616E2063616C6C PUSH1 0x0 DUP3 ADD MSTORE PUSH32 0x20746869732066756E6374696F6E000000000000000000000000000000000000 PUSH1 0x20 DUP3 ADD MSTORE POP JUMP JUMPDEST PUSH1 0x0 PUSH2 0x16D5 PUSH1 0x2E DUP4 PUSH2 0x10AF JUMP JUMPDEST SWAP2 POP PUSH2 0x16E0 DUP3 PUSH2 0x1679 JUMP JUMPDEST PUSH1 0x40 DUP3 ADD SWAP1 POP SWAP2 SWAP1 POP JUMP JUMPDEST PUSH1 0x0 PUSH1 0x20 DUP3 ADD SWAP1 POP DUP2 DUP2 SUB PUSH1 0x0 DUP4 ADD MSTORE PUSH2 0x1704 DUP2 PUSH2 0x16C8 JUMP JUMPDEST SWAP1 POP SWAP2 SWAP1 POP JUMP INVALID LOG2 PUSH5 0x6970667358 0x22 SLT KECCAK256 0xAB SWAP6 MUL PUSH11 0x7A7FF85C79A8FA7E3C07E LOG2 0xB2 SWAP11 SWAP4 0xE2 PUSH29 0x96F13EB4531F225949BBB864736F6C6343000811003300000000000000 "},"methodIdentifiers":{"addOrderBook(address,address)":"41d9a056","balances(bytes32)":"8909aa3f","changeGov(address)":"a962ef1e","deposit(uint256,address,address)":"2e2d2984","gov()":"12d43a51","lockFunds(address,address)":"466730ff","lockedFunds(address)":"b86247d7","positionManager()":"791b98bc","setPositionManager(address)":"5760f2e3","unlockFunds(address,address)":"bc73473b","updateFundingFee(address,address,int256)":"3601ce3c","usdcToken()":"11eac855","withdraw(uint256,address)":"00f714ce"}}}}}