{"contracts/MarginAccount.sol":{"MarginAccount":{"abi":[{"inputs":[],"stateMutability":"nonpayable","type":"constructor"},{"anonymous":false,"inputs":[{"indexed":true,"internalType":"address","name":"user","type":"address"},{"indexed":false,"internalType":"uint256","name":"amount","type":"uint256"}],"name":"Deposit","type":"event"},{"anonymous":false,"inputs":[{"indexed":true,"internalType":"address","name":"user","type":"address"},{"indexed":false,"internalType":"uint256","name":"amount","type":"uint256"}],"name":"Withdraw","type":"event"},{"inputs":[{"internalType":"address","name":"_hypContractAddress","type":"address"}],"name":"addHyp","outputs":[],"stateMutability":"nonpayable","type":"function"},{"inputs":[{"internalType":"address","name":"_orderBook","type":"address"},{"internalType":"address","name":"_indexToken","type":"address"}],"name":"addOrderBook","outputs":[],"stateMutability":"nonpayable","type":"function"},{"inputs":[{"internalType":"address","name":"_ropUSDC","type":"address"}],"name":"addRop","outputs":[],"stateMutability":"nonpayable","type":"function"},{"inputs":[{"internalType":"bytes32","name":"","type":"bytes32"}],"name":"balances","outputs":[{"internalType":"uint256","name":"","type":"uint256"}],"stateMutability":"view","type":"function"},{"inputs":[{"internalType":"address","name":"newGov","type":"address"}],"name":"changeGov","outputs":[],"stateMutability":"nonpayable","type":"function"},{"inputs":[{"internalType":"uint256","name":"_amount","type":"uint256"},{"internalType":"address","name":"_indexToken","type":"address"},{"internalType":"address","name":"_user","type":"address"}],"name":"deposit","outputs":[],"stateMutability":"nonpayable","type":"function"},{"inputs":[],"name":"gov","outputs":[{"internalType":"address","name":"","type":"address"}],"stateMutability":"view","type":"function"},{"inputs":[],"name":"hypContract","outputs":[{"internalType":"contract IHypERC20","name":"","type":"address"}],"stateMutability":"view","type":"function"},{"inputs":[],"name":"hypContractAddress","outputs":[{"internalType":"address","name":"","type":"address"}],"stateMutability":"view","type":"function"},{"inputs":[{"internalType":"address","name":"_user","type":"address"},{"internalType":"address","name":"_indexToken","type":"address"}],"name":"lockFunds","outputs":[],"stateMutability":"nonpayable","type":"function"},{"inputs":[{"internalType":"address","name":"","type":"address"}],"name":"lockedFunds","outputs":[{"internalType":"uint256","name":"","type":"uint256"}],"stateMutability":"view","type":"function"},{"inputs":[],"name":"positionManager","outputs":[{"internalType":"address","name":"","type":"address"}],"stateMutability":"view","type":"function"},{"inputs":[],"name":"ropUSDC","outputs":[{"internalType":"contract IERC20","name":"","type":"address"}],"stateMutability":"view","type":"function"},{"inputs":[{"internalType":"address","name":"_positionManager","type":"address"}],"name":"setPositionManager","outputs":[],"stateMutability":"nonpayable","type":"function"},{"inputs":[{"internalType":"address","name":"_user","type":"address"},{"internalType":"address","name":"_indexToken","type":"address"}],"name":"unlockFunds","outputs":[],"stateMutability":"nonpayable","type":"function"},{"inputs":[{"internalType":"address","name":"_user","type":"address"},{"internalType":"address","name":"_indexToken","type":"address"},{"internalType":"int256","name":"_fundingFee","type":"int256"}],"name":"updateFundingFee","outputs":[{"internalType":"uint256","name":"","type":"uint256"}],"stateMutability":"nonpayable","type":"function"},{"inputs":[{"internalType":"uint256","name":"_amount","type":"uint256"},{"internalType":"address","name":"_indexToken","type":"address"},{"internalType":"uint32","name":"_destination","type":"uint32"}],"name":"withdraw","outputs":[],"stateMutability":"nonpayable","type":"function"}],"evm":{"bytecode":{"linkReferences":{},"object":"608060405234801561001057600080fd5b5033600560006101000a81548173ffffffffffffffffffffffffffffffffffffffff021916908373ffffffffffffffffffffffffffffffffffffffff160217905550611a32806100616000396000f3fe608060405234801561001057600080fd5b506004361061010b5760003560e01c806356899403116100a2578063a962ef1e11610071578063a962ef1e14610292578063b86247d7146102ae578063bc73473b146102de578063c3ae1fc0146102fa578063d1f3651e146103165761010b565b8063568994031461020c5780635760f2e314610228578063791b98bc146102445780638909aa3f146102625761010b565b80633601ce3c116100de5780633601ce3c146101865780633b1113f9146101b657806341d9a056146101d4578063466730ff146101f05761010b565b80630c85631514610110578063123528de1461012e57806312d43a511461014c5780632e2d29841461016a575b600080fd5b610118610332565b6040516101259190611058565b60405180910390f35b610136610358565b6040516101439190611094565b60405180910390f35b61015461037e565b6040516101619190611094565b60405180910390f35b610184600480360381019061017f9190611116565b6103a4565b005b6101a0600480360381019061019b919061119f565b61046c565b6040516101ad9190611201565b60405180910390f35b6101be6105e6565b6040516101cb919061123d565b60405180910390f35b6101ee60048036038101906101e99190611258565b61060c565b005b61020a60048036038101906102059190611258565b610696565b005b61022660048036038101906102219190611298565b610852565b005b610242600480360381019061023d9190611298565b61089e565b005b61024c6108ea565b6040516102599190611094565b60405180910390f35b61027c600480360381019061027791906112fb565b610910565b6040516102899190611201565b60405180910390f35b6102ac60048036038101906102a79190611298565b610928565b005b6102c860048036038101906102c39190611298565b6109e3565b6040516102d59190611201565b60405180910390f35b6102f860048036038101906102f39190611258565b6109fb565b005b610314600480360381019061030f9190611364565b610bdc565b005b610330600480360381019061032b9190611298565b610e64565b005b600260009054906101000a900473ffffffffffffffffffffffffffffffffffffffff1681565b600460009054906101000a900473ffffffffffffffffffffffffffffffffffffffff1681565b600560009054906101000a900473ffffffffffffffffffffffffffffffffffffffff1681565b600083116103e7576040517f08c379a00000000000000000000000000000000000000000000000000000000081526004016103de9061143a565b60405180910390fd5b826000806103f58486610ef1565b815260200190815260200160002060008282546104129190611489565b925050819055508073ffffffffffffffffffffffffffffffffffffffff167fe1fffcc4923d04b559f4d29a8bfc6cda04eb5b0d3c460751c2402c5c5cc9109c8460405161045f9190611201565b60405180910390a2505050565b6000600660009054906101000a900473ffffffffffffffffffffffffffffffffffffffff1673ffffffffffffffffffffffffffffffffffffffff163373ffffffffffffffffffffffffffffffffffffffff16146104fe576040517f08c379a00000000000000000000000000000000000000000000000000000000081526004016104f59061152f565b60405180910390fd5b600061050a8585610ef1565b90506000831361054b578261051e9061154f565b600080838152602001908152602001600020600082825461053f9190611489565b925050819055506105c9565b82600080838152602001908152602001600020541161059f576040517f08c379a000000000000000000000000000000000000000000000000000000000815260040161059690611609565b60405180910390fd5b8260008083815260200190815260200160002060008282546105c19190611629565b925050819055505b600080828152602001908152602001600020549150509392505050565b600360009054906101000a900473ffffffffffffffffffffffffffffffffffffffff1681565b610614610f24565b81600760008373ffffffffffffffffffffffffffffffffffffffff1673ffffffffffffffffffffffffffffffffffffffff16815260200190815260200160002060006101000a81548173ffffffffffffffffffffffffffffffffffffffff021916908373ffffffffffffffffffffffffffffffffffffffff1602179055505050565b600760008273ffffffffffffffffffffffffffffffffffffffff1673ffffffffffffffffffffffffffffffffffffffff16815260200190815260200160002060009054906101000a900473ffffffffffffffffffffffffffffffffffffffff1673ffffffffffffffffffffffffffffffffffffffff163373ffffffffffffffffffffffffffffffffffffffff1614610763576040517f08c379a000000000000000000000000000000000000000000000000000000000815260040161075a906116cf565b60405180910390fd5b6008546000806107738585610ef1565b815260200190815260200160002054116107c2576040517f08c379a00000000000000000000000000000000000000000000000000000000081526004016107b990611609565b60405180910390fd5b600854600160008473ffffffffffffffffffffffffffffffffffffffff1673ffffffffffffffffffffffffffffffffffffffff16815260200190815260200160002060008282546108139190611489565b9250508190555060085460008061082a8585610ef1565b815260200190815260200160002060008282546108479190611629565b925050819055505050565b61085a610f24565b80600260006101000a81548173ffffffffffffffffffffffffffffffffffffffff021916908373ffffffffffffffffffffffffffffffffffffffff16021790555050565b6108a6610f24565b80600660006101000a81548173ffffffffffffffffffffffffffffffffffffffff021916908373ffffffffffffffffffffffffffffffffffffffff16021790555050565b600660009054906101000a900473ffffffffffffffffffffffffffffffffffffffff1681565b60006020528060005260406000206000915090505481565b610930610f24565b600073ffffffffffffffffffffffffffffffffffffffff168173ffffffffffffffffffffffffffffffffffffffff160361099f576040517f08c379a000000000000000000000000000000000000000000000000000000000815260040161099690611761565b60405180910390fd5b80600560006101000a81548173ffffffffffffffffffffffffffffffffffffffff021916908373ffffffffffffffffffffffffffffffffffffffff16021790555050565b60016020528060005260406000206000915090505481565b600760008273ffffffffffffffffffffffffffffffffffffffff1673ffffffffffffffffffffffffffffffffffffffff16815260200190815260200160002060009054906101000a900473ffffffffffffffffffffffffffffffffffffffff1673ffffffffffffffffffffffffffffffffffffffff163373ffffffffffffffffffffffffffffffffffffffff1614610ac8576040517f08c379a0000000000000000000000000000000000000000000000000000000008152600401610abf906116cf565b60405180910390fd5b600854600160008473ffffffffffffffffffffffffffffffffffffffff1673ffffffffffffffffffffffffffffffffffffffff168152602001908152602001600020541015610b4c576040517f08c379a0000000000000000000000000000000000000000000000000000000008152600401610b4390611609565b60405180910390fd5b600854600160008473ffffffffffffffffffffffffffffffffffffffff1673ffffffffffffffffffffffffffffffffffffffff1681526020019081526020016000206000828254610b9d9190611629565b92505081905550600854600080610bb48585610ef1565b81526020019081526020016000206000828254610bd19190611489565b925050819055505050565b60008311610c1f576040517f08c379a0000000000000000000000000000000000000000000000000000000008152600401610c169061143a565b60405180910390fd5b600080610c2c3385610ef1565b815260200190815260200160002054831115610c7d576040517f08c379a0000000000000000000000000000000000000000000000000000000008152600401610c74906117f3565b60405180910390fd5b6000610c8833610fb6565b9050600260009054906101000a900473ffffffffffffffffffffffffffffffffffffffff1673ffffffffffffffffffffffffffffffffffffffff1663095ea7b3600460009054906101000a900473ffffffffffffffffffffffffffffffffffffffff16866040518363ffffffff1660e01b8152600401610d09929190611813565b6020604051808303816000875af1158015610d28573d6000803e3d6000fd5b505050506040513d601f19601f82011682018060405250810190610d4c9190611874565b50600360009054906101000a900473ffffffffffffffffffffffffffffffffffffffff1673ffffffffffffffffffffffffffffffffffffffff166381b4e8b48383876040518463ffffffff1660e01b8152600401610dac939291906118bf565b600060405180830381600087803b158015610dc657600080fd5b505af1158015610dda573d6000803e3d6000fd5b5050505083600080610dec3387610ef1565b81526020019081526020016000206000828254610e099190611629565b925050819055503373ffffffffffffffffffffffffffffffffffffffff167f884edad9ce6fa2440d8a54cc123490eb96d2768479d49ff9c7366125a942436485604051610e569190611201565b60405180910390a250505050565b610e6c610f24565b80600360006101000a81548173ffffffffffffffffffffffffffffffffffffffff021916908373ffffffffffffffffffffffffffffffffffffffff16021790555080600460006101000a81548173ffffffffffffffffffffffffffffffffffffffff021916908373ffffffffffffffffffffffffffffffffffffffff16021790555050565b60008282604051602001610f0692919061193e565b60405160208183030381529060405280519060200120905092915050565b600560009054906101000a900473ffffffffffffffffffffffffffffffffffffffff1673ffffffffffffffffffffffffffffffffffffffff163373ffffffffffffffffffffffffffffffffffffffff1614610fb4576040517f08c379a0000000000000000000000000000000000000000000000000000000008152600401610fab906119dc565b60405180910390fd5b565b60008173ffffffffffffffffffffffffffffffffffffffff1660001b9050919050565b600073ffffffffffffffffffffffffffffffffffffffff82169050919050565b6000819050919050565b600061101e61101961101484610fd9565b610ff9565b610fd9565b9050919050565b600061103082611003565b9050919050565b600061104282611025565b9050919050565b61105281611037565b82525050565b600060208201905061106d6000830184611049565b92915050565b600061107e82610fd9565b9050919050565b61108e81611073565b82525050565b60006020820190506110a96000830184611085565b92915050565b600080fd5b6000819050919050565b6110c7816110b4565b81146110d257600080fd5b50565b6000813590506110e4816110be565b92915050565b6110f381611073565b81146110fe57600080fd5b50565b600081359050611110816110ea565b92915050565b60008060006060848603121561112f5761112e6110af565b5b600061113d868287016110d5565b935050602061114e86828701611101565b925050604061115f86828701611101565b9150509250925092565b6000819050919050565b61117c81611169565b811461118757600080fd5b50565b60008135905061119981611173565b92915050565b6000806000606084860312156111b8576111b76110af565b5b60006111c686828701611101565b93505060206111d786828701611101565b92505060406111e88682870161118a565b9150509250925092565b6111fb816110b4565b82525050565b600060208201905061121660008301846111f2565b92915050565b600061122782611025565b9050919050565b6112378161121c565b82525050565b6000602082019050611252600083018461122e565b92915050565b6000806040838503121561126f5761126e6110af565b5b600061127d85828601611101565b925050602061128e85828601611101565b9150509250929050565b6000602082840312156112ae576112ad6110af565b5b60006112bc84828501611101565b91505092915050565b6000819050919050565b6112d8816112c5565b81146112e357600080fd5b50565b6000813590506112f5816112cf565b92915050565b600060208284031215611311576113106110af565b5b600061131f848285016112e6565b91505092915050565b600063ffffffff82169050919050565b61134181611328565b811461134c57600080fd5b50565b60008135905061135e81611338565b92915050565b60008060006060848603121561137d5761137c6110af565b5b600061138b868287016110d5565b935050602061139c86828701611101565b92505060406113ad8682870161134f565b9150509250925092565b600082825260208201905092915050565b7f4d617267696e4163636f756e743a20416d6f756e74206d75737420626520677260008201527f6561746572207468616e207a65726f0000000000000000000000000000000000602082015250565b6000611424602f836113b7565b915061142f826113c8565b604082019050919050565b6000602082019050818103600083015261145381611417565b9050919050565b7f4e487b7100000000000000000000000000000000000000000000000000000000600052601160045260246000fd5b6000611494826110b4565b915061149f836110b4565b92508282019050808211156114b7576114b661145a565b5b92915050565b7f4d617267696e4163636f756e743a206f6e6c7920706f736974696f6e206d616e60008201527f616765722063616e206d616b6520746869732063616c6c000000000000000000602082015250565b60006115196037836113b7565b9150611524826114bd565b604082019050919050565b600060208201905081810360008301526115488161150c565b9050919050565b600061155a82611169565b91507f8000000000000000000000000000000000000000000000000000000000000000820361158c5761158b61145a565b5b816000039050919050565b7f4d617267696e4163636f756e743a20696e73756666696369656e742066756e6460008201527f7300000000000000000000000000000000000000000000000000000000000000602082015250565b60006115f36021836113b7565b91506115fe82611597565b604082019050919050565b60006020820190508181036000830152611622816115e6565b9050919050565b6000611634826110b4565b915061163f836110b4565b92508282039050818111156116575761165661145a565b5b92915050565b7f4d617267696e4163636f756e743a206f6e6c79206f7264657220626f6f6b206360008201527f616e206d616b6520746869732063616c6c000000000000000000000000000000602082015250565b60006116b96031836113b7565b91506116c48261165d565b604082019050919050565b600060208201905081810360008301526116e8816116ac565b9050919050565b7f4d617267696e4163636f756e743a20476f762063616e6e6f74206265207a657260008201527f6f20616464726573730000000000000000000000000000000000000000000000602082015250565b600061174b6029836113b7565b9150611756826116ef565b604082019050919050565b6000602082019050818103600083015261177a8161173e565b9050919050565b7f4d617267696e4163636f756e743a20496e73756666696369656e742062616c6160008201527f6e63650000000000000000000000000000000000000000000000000000000000602082015250565b60006117dd6023836113b7565b91506117e882611781565b604082019050919050565b6000602082019050818103600083015261180c816117d0565b9050919050565b60006040820190506118286000830185611085565b61183560208301846111f2565b9392505050565b60008115159050919050565b6118518161183c565b811461185c57600080fd5b50565b60008151905061186e81611848565b92915050565b60006020828403121561188a576118896110af565b5b60006118988482850161185f565b91505092915050565b6118aa81611328565b82525050565b6118b9816112c5565b82525050565b60006060820190506118d460008301866118a1565b6118e160208301856118b0565b6118ee60408301846111f2565b949350505050565b60008160601b9050919050565b600061190e826118f6565b9050919050565b600061192082611903565b9050919050565b61193861193382611073565b611915565b82525050565b600061194a8285611927565b60148201915061195a8284611927565b6014820191508190509392505050565b7f4d617267696e4163636f756e743a204f6e6c7920676f762063616e2063616c6c60008201527f20746869732066756e6374696f6e000000000000000000000000000000000000602082015250565b60006119c6602e836113b7565b91506119d18261196a565b604082019050919050565b600060208201905081810360008301526119f5816119b9565b905091905056fea26469706673582212206b5654145c5c8b5ee24c6db79034fd8024da256c7d11ed9b3e8fa196ddf7d33964736f6c63430008110033","opcodes":"PUSH1 0x80 PUSH1 0x40 MSTORE CALLVALUE DUP1 ISZERO PUSH2 0x10 JUMPI PUSH1 0x0 DUP1 REVERT JUMPDEST POP CALLER PUSH1 0x5 PUSH1 0x0 PUSH2 0x100 EXP DUP2 SLOAD DUP2 PUSH20 0xFFFFFFFFFFFFFFFFFFFFFFFFFFFFFFFFFFFFFFFF MUL NOT AND SWAP1 DUP4 PUSH20 0xFFFFFFFFFFFFFFFFFFFFFFFFFFFFFFFFFFFFFFFF AND MUL OR SWAP1 SSTORE POP PUSH2 0x1A32 DUP1 PUSH2 0x61 PUSH1 0x0 CODECOPY PUSH1 0x0 RETURN INVALID PUSH1 0x80 PUSH1 0x40 MSTORE CALLVALUE DUP1 ISZERO PUSH2 0x10 JUMPI PUSH1 0x0 DUP1 REVERT JUMPDEST POP PUSH1 0x4 CALLDATASIZE LT PUSH2 0x10B JUMPI PUSH1 0x0 CALLDATALOAD PUSH1 0xE0 SHR DUP1 PUSH4 0x56899403 GT PUSH2 0xA2 JUMPI DUP1 PUSH4 0xA962EF1E GT PUSH2 0x71 JUMPI DUP1 PUSH4 0xA962EF1E EQ PUSH2 0x292 JUMPI DUP1 PUSH4 0xB86247D7 EQ PUSH2 0x2AE JUMPI DUP1 PUSH4 0xBC73473B EQ PUSH2 0x2DE JUMPI DUP1 PUSH4 0xC3AE1FC0 EQ PUSH2 0x2FA JUMPI DUP1 PUSH4 0xD1F3651E EQ PUSH2 0x316 JUMPI PUSH2 0x10B JUMP JUMPDEST DUP1 PUSH4 0x56899403 EQ PUSH2 0x20C JUMPI DUP1 PUSH4 0x5760F2E3 EQ PUSH2 0x228 JUMPI DUP1 PUSH4 0x791B98BC EQ PUSH2 0x244 JUMPI DUP1 PUSH4 0x8909AA3F EQ PUSH2 0x262 JUMPI PUSH2 0x10B JUMP JUMPDEST DUP1 PUSH4 0x3601CE3C GT PUSH2 0xDE JUMPI DUP1 PUSH4 0x3601CE3C EQ PUSH2 0x186 JUMPI DUP1 PUSH4 0x3B1113F9 EQ PUSH2 0x1B6 JUMPI DUP1 PUSH4 0x41D9A056 EQ PUSH2 0x1D4 JUMPI DUP1 PUSH4 0x466730FF EQ PUSH2 0x1F0 JUMPI PUSH2 0x10B JUMP JUMPDEST DUP1 PUSH4 0xC856315 EQ PUSH2 0x110 JUMPI DUP1 PUSH4 0x123528DE EQ PUSH2 0x12E JUMPI DUP1 PUSH4 0x12D43A51 EQ PUSH2 0x14C JUMPI DUP1 PUSH4 0x2E2D2984 EQ PUSH2 0x16A JUMPI JUMPDEST PUSH1 0x0 DUP1 REVERT JUMPDEST PUSH2 0x118 PUSH2 0x332 JUMP JUMPDEST PUSH1 0x40 MLOAD PUSH2 0x125 SWAP2 SWAP1 PUSH2 0x1058 JUMP JUMPDEST PUSH1 0x40 MLOAD DUP1 SWAP2 SUB SWAP1 RETURN JUMPDEST PUSH2 0x136 PUSH2 0x358 JUMP JUMPDEST PUSH1 0x40 MLOAD PUSH2 0x143 SWAP2 SWAP1 PUSH2 0x1094 JUMP JUMPDEST PUSH1 0x40 MLOAD DUP1 SWAP2 SUB SWAP1 RETURN JUMPDEST PUSH2 0x154 PUSH2 0x37E JUMP JUMPDEST PUSH1 0x40 MLOAD PUSH2 0x161 SWAP2 SWAP1 PUSH2 0x1094 JUMP JUMPDEST PUSH1 0x40 MLOAD DUP1 SWAP2 SUB SWAP1 RETURN JUMPDEST PUSH2 0x184 PUSH1 0x4 DUP1 CALLDATASIZE SUB DUP2 ADD SWAP1 PUSH2 0x17F SWAP2 SWAP1 PUSH2 0x1116 JUMP JUMPDEST PUSH2 0x3A4 JUMP JUMPDEST STOP JUMPDEST PUSH2 0x1A0 PUSH1 0x4 DUP1 CALLDATASIZE SUB DUP2 ADD SWAP1 PUSH2 0x19B SWAP2 SWAP1 PUSH2 0x119F JUMP JUMPDEST PUSH2 0x46C JUMP JUMPDEST PUSH1 0x40 MLOAD PUSH2 0x1AD SWAP2 SWAP1 PUSH2 0x1201 JUMP JUMPDEST PUSH1 0x40 MLOAD DUP1 SWAP2 SUB SWAP1 RETURN JUMPDEST PUSH2 0x1BE PUSH2 0x5E6 JUMP JUMPDEST PUSH1 0x40 MLOAD PUSH2 0x1CB SWAP2 SWAP1 PUSH2 0x123D JUMP JUMPDEST PUSH1 0x40 MLOAD DUP1 SWAP2 SUB SWAP1 RETURN JUMPDEST PUSH2 0x1EE PUSH1 0x4 DUP1 CALLDATASIZE SUB DUP2 ADD SWAP1 PUSH2 0x1E9 SWAP2 SWAP1 PUSH2 0x1258 JUMP JUMPDEST PUSH2 0x60C JUMP JUMPDEST STOP JUMPDEST PUSH2 0x20A PUSH1 0x4 DUP1 CALLDATASIZE SUB DUP2 ADD SWAP1 PUSH2 0x205 SWAP2 SWAP1 PUSH2 0x1258 JUMP JUMPDEST PUSH2 0x696 JUMP JUMPDEST STOP JUMPDEST PUSH2 0x226 PUSH1 0x4 DUP1 CALLDATASIZE SUB DUP2 ADD SWAP1 PUSH2 0x221 SWAP2 SWAP1 PUSH2 0x1298 JUMP JUMPDEST PUSH2 0x852 JUMP JUMPDEST STOP JUMPDEST PUSH2 0x242 PUSH1 0x4 DUP1 CALLDATASIZE SUB DUP2 ADD SWAP1 PUSH2 0x23D SWAP2 SWAP1 PUSH2 0x1298 JUMP JUMPDEST PUSH2 0x89E JUMP JUMPDEST STOP JUMPDEST PUSH2 0x24C PUSH2 0x8EA JUMP JUMPDEST PUSH1 0x40 MLOAD PUSH2 0x259 SWAP2 SWAP1 PUSH2 0x1094 JUMP JUMPDEST PUSH1 0x40 MLOAD DUP1 SWAP2 SUB SWAP1 RETURN JUMPDEST PUSH2 0x27C PUSH1 0x4 DUP1 CALLDATASIZE SUB DUP2 ADD SWAP1 PUSH2 0x277 SWAP2 SWAP1 PUSH2 0x12FB JUMP JUMPDEST PUSH2 0x910 JUMP JUMPDEST PUSH1 0x40 MLOAD PUSH2 0x289 SWAP2 SWAP1 PUSH2 0x1201 JUMP JUMPDEST PUSH1 0x40 MLOAD DUP1 SWAP2 SUB SWAP1 RETURN JUMPDEST PUSH2 0x2AC PUSH1 0x4 DUP1 CALLDATASIZE SUB DUP2 ADD SWAP1 PUSH2 0x2A7 SWAP2 SWAP1 PUSH2 0x1298 JUMP JUMPDEST PUSH2 0x928 JUMP JUMPDEST STOP JUMPDEST PUSH2 0x2C8 PUSH1 0x4 DUP1 CALLDATASIZE SUB DUP2 ADD SWAP1 PUSH2 0x2C3 SWAP2 SWAP1 PUSH2 0x1298 JUMP JUMPDEST PUSH2 0x9E3 JUMP JUMPDEST PUSH1 0x40 MLOAD PUSH2 0x2D5 SWAP2 SWAP1 PUSH2 0x1201 JUMP JUMPDEST PUSH1 0x40 MLOAD DUP1 SWAP2 SUB SWAP1 RETURN JUMPDEST PUSH2 0x2F8 PUSH1 0x4 DUP1 CALLDATASIZE SUB DUP2 ADD SWAP1 PUSH2 0x2F3 SWAP2 SWAP1 PUSH2 0x1258 JUMP JUMPDEST PUSH2 0x9FB JUMP JUMPDEST STOP JUMPDEST PUSH2 0x314 PUSH1 0x4 DUP1 CALLDATASIZE SUB DUP2 ADD SWAP1 PUSH2 0x30F SWAP2 SWAP1 PUSH2 0x1364 JUMP JUMPDEST PUSH2 0xBDC JUMP JUMPDEST STOP JUMPDEST PUSH2 0x330 PUSH1 0x4 DUP1 CALLDATASIZE SUB DUP2 ADD SWAP1 PUSH2 0x32B SWAP2 SWAP1 PUSH2 0x1298 JUMP JUMPDEST PUSH2 0xE64 JUMP JUMPDEST STOP JUMPDEST PUSH1 0x2 PUSH1 0x0 SWAP1 SLOAD SWAP1 PUSH2 0x100 EXP SWAP1 DIV PUSH20 0xFFFFFFFFFFFFFFFFFFFFFFFFFFFFFFFFFFFFFFFF AND DUP2 JUMP JUMPDEST PUSH1 0x4 PUSH1 0x0 SWAP1 SLOAD SWAP1 PUSH2 0x100 EXP SWAP1 DIV PUSH20 0xFFFFFFFFFFFFFFFFFFFFFFFFFFFFFFFFFFFFFFFF AND DUP2 JUMP JUMPDEST PUSH1 0x5 PUSH1 0x0 SWAP1 SLOAD SWAP1 PUSH2 0x100 EXP SWAP1 DIV PUSH20 0xFFFFFFFFFFFFFFFFFFFFFFFFFFFFFFFFFFFFFFFF AND DUP2 JUMP JUMPDEST PUSH1 0x0 DUP4 GT PUSH2 0x3E7 JUMPI PUSH1 0x40 MLOAD PUSH32 0x8C379A000000000000000000000000000000000000000000000000000000000 DUP2 MSTORE PUSH1 0x4 ADD PUSH2 0x3DE SWAP1 PUSH2 0x143A JUMP JUMPDEST PUSH1 0x40 MLOAD DUP1 SWAP2 SUB SWAP1 REVERT JUMPDEST DUP3 PUSH1 0x0 DUP1 PUSH2 0x3F5 DUP5 DUP7 PUSH2 0xEF1 JUMP JUMPDEST DUP2 MSTORE PUSH1 0x20 ADD SWAP1 DUP2 MSTORE PUSH1 0x20 ADD PUSH1 0x0 KECCAK256 PUSH1 0x0 DUP3 DUP3 SLOAD PUSH2 0x412 SWAP2 SWAP1 PUSH2 0x1489 JUMP JUMPDEST SWAP3 POP POP DUP2 SWAP1 SSTORE POP DUP1 PUSH20 0xFFFFFFFFFFFFFFFFFFFFFFFFFFFFFFFFFFFFFFFF AND PUSH32 0xE1FFFCC4923D04B559F4D29A8BFC6CDA04EB5B0D3C460751C2402C5C5CC9109C DUP5 PUSH1 0x40 MLOAD PUSH2 0x45F SWAP2 SWAP1 PUSH2 0x1201 JUMP JUMPDEST PUSH1 0x40 MLOAD DUP1 SWAP2 SUB SWAP1 LOG2 POP POP POP JUMP JUMPDEST PUSH1 0x0 PUSH1 0x6 PUSH1 0x0 SWAP1 SLOAD SWAP1 PUSH2 0x100 EXP SWAP1 DIV PUSH20 0xFFFFFFFFFFFFFFFFFFFFFFFFFFFFFFFFFFFFFFFF AND PUSH20 0xFFFFFFFFFFFFFFFFFFFFFFFFFFFFFFFFFFFFFFFF AND CALLER PUSH20 0xFFFFFFFFFFFFFFFFFFFFFFFFFFFFFFFFFFFFFFFF AND EQ PUSH2 0x4FE JUMPI PUSH1 0x40 MLOAD PUSH32 0x8C379A000000000000000000000000000000000000000000000000000000000 DUP2 MSTORE PUSH1 0x4 ADD PUSH2 0x4F5 SWAP1 PUSH2 0x152F JUMP JUMPDEST PUSH1 0x40 MLOAD DUP1 SWAP2 SUB SWAP1 REVERT JUMPDEST PUSH1 0x0 PUSH2 0x50A DUP6 DUP6 PUSH2 0xEF1 JUMP JUMPDEST SWAP1 POP PUSH1 0x0 DUP4 SGT PUSH2 0x54B JUMPI DUP3 PUSH2 0x51E SWAP1 PUSH2 0x154F JUMP JUMPDEST PUSH1 0x0 DUP1 DUP4 DUP2 MSTORE PUSH1 0x20 ADD SWAP1 DUP2 MSTORE PUSH1 0x20 ADD PUSH1 0x0 KECCAK256 PUSH1 0x0 DUP3 DUP3 SLOAD PUSH2 0x53F SWAP2 SWAP1 PUSH2 0x1489 JUMP JUMPDEST SWAP3 POP POP DUP2 SWAP1 SSTORE POP PUSH2 0x5C9 JUMP JUMPDEST DUP3 PUSH1 0x0 DUP1 DUP4 DUP2 MSTORE PUSH1 0x20 ADD SWAP1 DUP2 MSTORE PUSH1 0x20 ADD PUSH1 0x0 KECCAK256 SLOAD GT PUSH2 0x59F JUMPI PUSH1 0x40 MLOAD PUSH32 0x8C379A000000000000000000000000000000000000000000000000000000000 DUP2 MSTORE PUSH1 0x4 ADD PUSH2 0x596 SWAP1 PUSH2 0x1609 JUMP JUMPDEST PUSH1 0x40 MLOAD DUP1 SWAP2 SUB SWAP1 REVERT JUMPDEST DUP3 PUSH1 0x0 DUP1 DUP4 DUP2 MSTORE PUSH1 0x20 ADD SWAP1 DUP2 MSTORE PUSH1 0x20 ADD PUSH1 0x0 KECCAK256 PUSH1 0x0 DUP3 DUP3 SLOAD PUSH2 0x5C1 SWAP2 SWAP1 PUSH2 0x1629 JUMP JUMPDEST SWAP3 POP POP DUP2 SWAP1 SSTORE POP JUMPDEST PUSH1 0x0 DUP1 DUP3 DUP2 MSTORE PUSH1 0x20 ADD SWAP1 DUP2 MSTORE PUSH1 0x20 ADD PUSH1 0x0 KECCAK256 SLOAD SWAP2 POP POP SWAP4 SWAP3 POP POP POP JUMP JUMPDEST PUSH1 0x3 PUSH1 0x0 SWAP1 SLOAD SWAP1 PUSH2 0x100 EXP SWAP1 DIV PUSH20 0xFFFFFFFFFFFFFFFFFFFFFFFFFFFFFFFFFFFFFFFF AND DUP2 JUMP JUMPDEST PUSH2 0x614 PUSH2 0xF24 JUMP JUMPDEST DUP2 PUSH1 0x7 PUSH1 0x0 DUP4 PUSH20 0xFFFFFFFFFFFFFFFFFFFFFFFFFFFFFFFFFFFFFFFF AND PUSH20 0xFFFFFFFFFFFFFFFFFFFFFFFFFFFFFFFFFFFFFFFF AND DUP2 MSTORE PUSH1 0x20 ADD SWAP1 DUP2 MSTORE PUSH1 0x20 ADD PUSH1 0x0 KECCAK256 PUSH1 0x0 PUSH2 0x100 EXP DUP2 SLOAD DUP2 PUSH20 0xFFFFFFFFFFFFFFFFFFFFFFFFFFFFFFFFFFFFFFFF MUL NOT AND SWAP1 DUP4 PUSH20 0xFFFFFFFFFFFFFFFFFFFFFFFFFFFFFFFFFFFFFFFF AND MUL OR SWAP1 SSTORE POP POP POP JUMP JUMPDEST PUSH1 0x7 PUSH1 0x0 DUP3 PUSH20 0xFFFFFFFFFFFFFFFFFFFFFFFFFFFFFFFFFFFFFFFF AND PUSH20 0xFFFFFFFFFFFFFFFFFFFFFFFFFFFFFFFFFFFFFFFF AND DUP2 MSTORE PUSH1 0x20 ADD SWAP1 DUP2 MSTORE PUSH1 0x20 ADD PUSH1 0x0 KECCAK256 PUSH1 0x0 SWAP1 SLOAD SWAP1 PUSH2 0x100 EXP SWAP1 DIV PUSH20 0xFFFFFFFFFFFFFFFFFFFFFFFFFFFFFFFFFFFFFFFF AND PUSH20 0xFFFFFFFFFFFFFFFFFFFFFFFFFFFFFFFFFFFFFFFF AND CALLER PUSH20 0xFFFFFFFFFFFFFFFFFFFFFFFFFFFFFFFFFFFFFFFF AND EQ PUSH2 0x763 JUMPI PUSH1 0x40 MLOAD PUSH32 0x8C379A000000000000000000000000000000000000000000000000000000000 DUP2 MSTORE PUSH1 0x4 ADD PUSH2 0x75A SWAP1 PUSH2 0x16CF JUMP JUMPDEST PUSH1 0x40 MLOAD DUP1 SWAP2 SUB SWAP1 REVERT JUMPDEST PUSH1 0x8 SLOAD PUSH1 0x0 DUP1 PUSH2 0x773 DUP6 DUP6 PUSH2 0xEF1 JUMP JUMPDEST DUP2 MSTORE PUSH1 0x20 ADD SWAP1 DUP2 MSTORE PUSH1 0x20 ADD PUSH1 0x0 KECCAK256 SLOAD GT PUSH2 0x7C2 JUMPI PUSH1 0x40 MLOAD PUSH32 0x8C379A000000000000000000000000000000000000000000000000000000000 DUP2 MSTORE PUSH1 0x4 ADD PUSH2 0x7B9 SWAP1 PUSH2 0x1609 JUMP JUMPDEST PUSH1 0x40 MLOAD DUP1 SWAP2 SUB SWAP1 REVERT JUMPDEST PUSH1 0x8 SLOAD PUSH1 0x1 PUSH1 0x0 DUP5 PUSH20 0xFFFFFFFFFFFFFFFFFFFFFFFFFFFFFFFFFFFFFFFF AND PUSH20 0xFFFFFFFFFFFFFFFFFFFFFFFFFFFFFFFFFFFFFFFF AND DUP2 MSTORE PUSH1 0x20 ADD SWAP1 DUP2 MSTORE PUSH1 0x20 ADD PUSH1 0x0 KECCAK256 PUSH1 0x0 DUP3 DUP3 SLOAD PUSH2 0x813 SWAP2 SWAP1 PUSH2 0x1489 JUMP JUMPDEST SWAP3 POP POP DUP2 SWAP1 SSTORE POP PUSH1 0x8 SLOAD PUSH1 0x0 DUP1 PUSH2 0x82A DUP6 DUP6 PUSH2 0xEF1 JUMP JUMPDEST DUP2 MSTORE PUSH1 0x20 ADD SWAP1 DUP2 MSTORE PUSH1 0x20 ADD PUSH1 0x0 KECCAK256 PUSH1 0x0 DUP3 DUP3 SLOAD PUSH2 0x847 SWAP2 SWAP1 PUSH2 0x1629 JUMP JUMPDEST SWAP3 POP POP DUP2 SWAP1 SSTORE POP POP POP JUMP JUMPDEST PUSH2 0x85A PUSH2 0xF24 JUMP JUMPDEST DUP1 PUSH1 0x2 PUSH1 0x0 PUSH2 0x100 EXP DUP2 SLOAD DUP2 PUSH20 0xFFFFFFFFFFFFFFFFFFFFFFFFFFFFFFFFFFFFFFFF MUL NOT AND SWAP1 DUP4 PUSH20 0xFFFFFFFFFFFFFFFFFFFFFFFFFFFFFFFFFFFFFFFF AND MUL OR SWAP1 SSTORE POP POP JUMP JUMPDEST PUSH2 0x8A6 PUSH2 0xF24 JUMP JUMPDEST DUP1 PUSH1 0x6 PUSH1 0x0 PUSH2 0x100 EXP DUP2 SLOAD DUP2 PUSH20 0xFFFFFFFFFFFFFFFFFFFFFFFFFFFFFFFFFFFFFFFF MUL NOT AND SWAP1 DUP4 PUSH20 0xFFFFFFFFFFFFFFFFFFFFFFFFFFFFFFFFFFFFFFFF AND MUL OR SWAP1 SSTORE POP POP JUMP JUMPDEST PUSH1 0x6 PUSH1 0x0 SWAP1 SLOAD SWAP1 PUSH2 0x100 EXP SWAP1 DIV PUSH20 0xFFFFFFFFFFFFFFFFFFFFFFFFFFFFFFFFFFFFFFFF AND DUP2 JUMP JUMPDEST PUSH1 0x0 PUSH1 0x20 MSTORE DUP1 PUSH1 0x0 MSTORE PUSH1 0x40 PUSH1 0x0 KECCAK256 PUSH1 0x0 SWAP2 POP SWAP1 POP SLOAD DUP2 JUMP JUMPDEST PUSH2 0x930 PUSH2 0xF24 JUMP JUMPDEST PUSH1 0x0 PUSH20 0xFFFFFFFFFFFFFFFFFFFFFFFFFFFFFFFFFFFFFFFF AND DUP2 PUSH20 0xFFFFFFFFFFFFFFFFFFFFFFFFFFFFFFFFFFFFFFFF AND SUB PUSH2 0x99F JUMPI PUSH1 0x40 MLOAD PUSH32 0x8C379A000000000000000000000000000000000000000000000000000000000 DUP2 MSTORE PUSH1 0x4 ADD PUSH2 0x996 SWAP1 PUSH2 0x1761 JUMP JUMPDEST PUSH1 0x40 MLOAD DUP1 SWAP2 SUB SWAP1 REVERT JUMPDEST DUP1 PUSH1 0x5 PUSH1 0x0 PUSH2 0x100 EXP DUP2 SLOAD DUP2 PUSH20 0xFFFFFFFFFFFFFFFFFFFFFFFFFFFFFFFFFFFFFFFF MUL NOT AND SWAP1 DUP4 PUSH20 0xFFFFFFFFFFFFFFFFFFFFFFFFFFFFFFFFFFFFFFFF AND MUL OR SWAP1 SSTORE POP POP JUMP JUMPDEST PUSH1 0x1 PUSH1 0x20 MSTORE DUP1 PUSH1 0x0 MSTORE PUSH1 0x40 PUSH1 0x0 KECCAK256 PUSH1 0x0 SWAP2 POP SWAP1 POP SLOAD DUP2 JUMP JUMPDEST PUSH1 0x7 PUSH1 0x0 DUP3 PUSH20 0xFFFFFFFFFFFFFFFFFFFFFFFFFFFFFFFFFFFFFFFF AND PUSH20 0xFFFFFFFFFFFFFFFFFFFFFFFFFFFFFFFFFFFFFFFF AND DUP2 MSTORE PUSH1 0x20 ADD SWAP1 DUP2 MSTORE PUSH1 0x20 ADD PUSH1 0x0 KECCAK256 PUSH1 0x0 SWAP1 SLOAD SWAP1 PUSH2 0x100 EXP SWAP1 DIV PUSH20 0xFFFFFFFFFFFFFFFFFFFFFFFFFFFFFFFFFFFFFFFF AND PUSH20 0xFFFFFFFFFFFFFFFFFFFFFFFFFFFFFFFFFFFFFFFF AND CALLER PUSH20 0xFFFFFFFFFFFFFFFFFFFFFFFFFFFFFFFFFFFFFFFF AND EQ PUSH2 0xAC8 JUMPI PUSH1 0x40 MLOAD PUSH32 0x8C379A000000000000000000000000000000000000000000000000000000000 DUP2 MSTORE PUSH1 0x4 ADD PUSH2 0xABF SWAP1 PUSH2 0x16CF JUMP JUMPDEST PUSH1 0x40 MLOAD DUP1 SWAP2 SUB SWAP1 REVERT JUMPDEST PUSH1 0x8 SLOAD PUSH1 0x1 PUSH1 0x0 DUP5 PUSH20 0xFFFFFFFFFFFFFFFFFFFFFFFFFFFFFFFFFFFFFFFF AND PUSH20 0xFFFFFFFFFFFFFFFFFFFFFFFFFFFFFFFFFFFFFFFF AND DUP2 MSTORE PUSH1 0x20 ADD SWAP1 DUP2 MSTORE PUSH1 0x20 ADD PUSH1 0x0 KECCAK256 SLOAD LT ISZERO PUSH2 0xB4C JUMPI PUSH1 0x40 MLOAD PUSH32 0x8C379A000000000000000000000000000000000000000000000000000000000 DUP2 MSTORE PUSH1 0x4 ADD PUSH2 0xB43 SWAP1 PUSH2 0x1609 JUMP JUMPDEST PUSH1 0x40 MLOAD DUP1 SWAP2 SUB SWAP1 REVERT JUMPDEST PUSH1 0x8 SLOAD PUSH1 0x1 PUSH1 0x0 DUP5 PUSH20 0xFFFFFFFFFFFFFFFFFFFFFFFFFFFFFFFFFFFFFFFF AND PUSH20 0xFFFFFFFFFFFFFFFFFFFFFFFFFFFFFFFFFFFFFFFF AND DUP2 MSTORE PUSH1 0x20 ADD SWAP1 DUP2 MSTORE PUSH1 0x20 ADD PUSH1 0x0 KECCAK256 PUSH1 0x0 DUP3 DUP3 SLOAD PUSH2 0xB9D SWAP2 SWAP1 PUSH2 0x1629 JUMP JUMPDEST SWAP3 POP POP DUP2 SWAP1 SSTORE POP PUSH1 0x8 SLOAD PUSH1 0x0 DUP1 PUSH2 0xBB4 DUP6 DUP6 PUSH2 0xEF1 JUMP JUMPDEST DUP2 MSTORE PUSH1 0x20 ADD SWAP1 DUP2 MSTORE PUSH1 0x20 ADD PUSH1 0x0 KECCAK256 PUSH1 0x0 DUP3 DUP3 SLOAD PUSH2 0xBD1 SWAP2 SWAP1 PUSH2 0x1489 JUMP JUMPDEST SWAP3 POP POP DUP2 SWAP1 SSTORE POP POP POP JUMP JUMPDEST PUSH1 0x0 DUP4 GT PUSH2 0xC1F JUMPI PUSH1 0x40 MLOAD PUSH32 0x8C379A000000000000000000000000000000000000000000000000000000000 DUP2 MSTORE PUSH1 0x4 ADD PUSH2 0xC16 SWAP1 PUSH2 0x143A JUMP JUMPDEST PUSH1 0x40 MLOAD DUP1 SWAP2 SUB SWAP1 REVERT JUMPDEST PUSH1 0x0 DUP1 PUSH2 0xC2C CALLER DUP6 PUSH2 0xEF1 JUMP JUMPDEST DUP2 MSTORE PUSH1 0x20 ADD SWAP1 DUP2 MSTORE PUSH1 0x20 ADD PUSH1 0x0 KECCAK256 SLOAD DUP4 GT ISZERO PUSH2 0xC7D JUMPI PUSH1 0x40 MLOAD PUSH32 0x8C379A000000000000000000000000000000000000000000000000000000000 DUP2 MSTORE PUSH1 0x4 ADD PUSH2 0xC74 SWAP1 PUSH2 0x17F3 JUMP JUMPDEST PUSH1 0x40 MLOAD DUP1 SWAP2 SUB SWAP1 REVERT JUMPDEST PUSH1 0x0 PUSH2 0xC88 CALLER PUSH2 0xFB6 JUMP JUMPDEST SWAP1 POP PUSH1 0x2 PUSH1 0x0 SWAP1 SLOAD SWAP1 PUSH2 0x100 EXP SWAP1 DIV PUSH20 0xFFFFFFFFFFFFFFFFFFFFFFFFFFFFFFFFFFFFFFFF AND PUSH20 0xFFFFFFFFFFFFFFFFFFFFFFFFFFFFFFFFFFFFFFFF AND PUSH4 0x95EA7B3 PUSH1 0x4 PUSH1 0x0 SWAP1 SLOAD SWAP1 PUSH2 0x100 EXP SWAP1 DIV PUSH20 0xFFFFFFFFFFFFFFFFFFFFFFFFFFFFFFFFFFFFFFFF AND DUP7 PUSH1 0x40 MLOAD DUP4 PUSH4 0xFFFFFFFF AND PUSH1 0xE0 SHL DUP2 MSTORE PUSH1 0x4 ADD PUSH2 0xD09 SWAP3 SWAP2 SWAP1 PUSH2 0x1813 JUMP JUMPDEST PUSH1 0x20 PUSH1 0x40 MLOAD DUP1 DUP4 SUB DUP2 PUSH1 0x0 DUP8 GAS CALL ISZERO DUP1 ISZERO PUSH2 0xD28 JUMPI RETURNDATASIZE PUSH1 0x0 DUP1 RETURNDATACOPY RETURNDATASIZE PUSH1 0x0 REVERT JUMPDEST POP POP POP POP PUSH1 0x40 MLOAD RETURNDATASIZE PUSH1 0x1F NOT PUSH1 0x1F DUP3 ADD AND DUP3 ADD DUP1 PUSH1 0x40 MSTORE POP DUP2 ADD SWAP1 PUSH2 0xD4C SWAP2 SWAP1 PUSH2 0x1874 JUMP JUMPDEST POP PUSH1 0x3 PUSH1 0x0 SWAP1 SLOAD SWAP1 PUSH2 0x100 EXP SWAP1 DIV PUSH20 0xFFFFFFFFFFFFFFFFFFFFFFFFFFFFFFFFFFFFFFFF AND PUSH20 0xFFFFFFFFFFFFFFFFFFFFFFFFFFFFFFFFFFFFFFFF AND PUSH4 0x81B4E8B4 DUP4 DUP4 DUP8 PUSH1 0x40 MLOAD DUP5 PUSH4 0xFFFFFFFF AND PUSH1 0xE0 SHL DUP2 MSTORE PUSH1 0x4 ADD PUSH2 0xDAC SWAP4 SWAP3 SWAP2 SWAP1 PUSH2 0x18BF JUMP JUMPDEST PUSH1 0x0 PUSH1 0x40 MLOAD DUP1 DUP4 SUB DUP2 PUSH1 0x0 DUP8 DUP1 EXTCODESIZE ISZERO DUP1 ISZERO PUSH2 0xDC6 JUMPI PUSH1 0x0 DUP1 REVERT JUMPDEST POP GAS CALL ISZERO DUP1 ISZERO PUSH2 0xDDA JUMPI RETURNDATASIZE PUSH1 0x0 DUP1 RETURNDATACOPY RETURNDATASIZE PUSH1 0x0 REVERT JUMPDEST POP POP POP POP DUP4 PUSH1 0x0 DUP1 PUSH2 0xDEC CALLER DUP8 PUSH2 0xEF1 JUMP JUMPDEST DUP2 MSTORE PUSH1 0x20 ADD SWAP1 DUP2 MSTORE PUSH1 0x20 ADD PUSH1 0x0 KECCAK256 PUSH1 0x0 DUP3 DUP3 SLOAD PUSH2 0xE09 SWAP2 SWAP1 PUSH2 0x1629 JUMP JUMPDEST SWAP3 POP POP DUP2 SWAP1 SSTORE POP CALLER PUSH20 0xFFFFFFFFFFFFFFFFFFFFFFFFFFFFFFFFFFFFFFFF AND PUSH32 0x884EDAD9CE6FA2440D8A54CC123490EB96D2768479D49FF9C7366125A9424364 DUP6 PUSH1 0x40 MLOAD PUSH2 0xE56 SWAP2 SWAP1 PUSH2 0x1201 JUMP JUMPDEST PUSH1 0x40 MLOAD DUP1 SWAP2 SUB SWAP1 LOG2 POP POP POP POP JUMP JUMPDEST PUSH2 0xE6C PUSH2 0xF24 JUMP JUMPDEST DUP1 PUSH1 0x3 PUSH1 0x0 PUSH2 0x100 EXP DUP2 SLOAD DUP2 PUSH20 0xFFFFFFFFFFFFFFFFFFFFFFFFFFFFFFFFFFFFFFFF MUL NOT AND SWAP1 DUP4 PUSH20 0xFFFFFFFFFFFFFFFFFFFFFFFFFFFFFFFFFFFFFFFF AND MUL OR SWAP1 SSTORE POP DUP1 PUSH1 0x4 PUSH1 0x0 PUSH2 0x100 EXP DUP2 SLOAD DUP2 PUSH20 0xFFFFFFFFFFFFFFFFFFFFFFFFFFFFFFFFFFFFFFFF MUL NOT AND SWAP1 DUP4 PUSH20 0xFFFFFFFFFFFFFFFFFFFFFFFFFFFFFFFFFFFFFFFF AND MUL OR SWAP1 SSTORE POP POP JUMP JUMPDEST PUSH1 0x0 DUP3 DUP3 PUSH1 0x40 MLOAD PUSH1 0x20 ADD PUSH2 0xF06 SWAP3 SWAP2 SWAP1 PUSH2 0x193E JUMP JUMPDEST PUSH1 0x40 MLOAD PUSH1 0x20 DUP2 DUP4 SUB SUB DUP2 MSTORE SWAP1 PUSH1 0x40 MSTORE DUP1 MLOAD SWAP1 PUSH1 0x20 ADD KECCAK256 SWAP1 POP SWAP3 SWAP2 POP POP JUMP JUMPDEST PUSH1 0x5 PUSH1 0x0 SWAP1 SLOAD SWAP1 PUSH2 0x100 EXP SWAP1 DIV PUSH20 0xFFFFFFFFFFFFFFFFFFFFFFFFFFFFFFFFFFFFFFFF AND PUSH20 0xFFFFFFFFFFFFFFFFFFFFFFFFFFFFFFFFFFFFFFFF AND CALLER PUSH20 0xFFFFFFFFFFFFFFFFFFFFFFFFFFFFFFFFFFFFFFFF AND EQ PUSH2 0xFB4 JUMPI PUSH1 0x40 MLOAD PUSH32 0x8C379A000000000000000000000000000000000000000000000000000000000 DUP2 MSTORE PUSH1 0x4 ADD PUSH2 0xFAB SWAP1 PUSH2 0x19DC JUMP JUMPDEST PUSH1 0x40 MLOAD DUP1 SWAP2 SUB SWAP1 REVERT JUMPDEST JUMP JUMPDEST PUSH1 0x0 DUP2 PUSH20 0xFFFFFFFFFFFFFFFFFFFFFFFFFFFFFFFFFFFFFFFF AND PUSH1 0x0 SHL SWAP1 POP SWAP2 SWAP1 POP JUMP JUMPDEST PUSH1 0x0 PUSH20 0xFFFFFFFFFFFFFFFFFFFFFFFFFFFFFFFFFFFFFFFF DUP3 AND SWAP1 POP SWAP2 SWAP1 POP JUMP JUMPDEST PUSH1 0x0 DUP2 SWAP1 POP SWAP2 SWAP1 POP JUMP JUMPDEST PUSH1 0x0 PUSH2 0x101E PUSH2 0x1019 PUSH2 0x1014 DUP5 PUSH2 0xFD9 JUMP JUMPDEST PUSH2 0xFF9 JUMP JUMPDEST PUSH2 0xFD9 JUMP JUMPDEST SWAP1 POP SWAP2 SWAP1 POP JUMP JUMPDEST PUSH1 0x0 PUSH2 0x1030 DUP3 PUSH2 0x1003 JUMP JUMPDEST SWAP1 POP SWAP2 SWAP1 POP JUMP JUMPDEST PUSH1 0x0 PUSH2 0x1042 DUP3 PUSH2 0x1025 JUMP JUMPDEST SWAP1 POP SWAP2 SWAP1 POP JUMP JUMPDEST PUSH2 0x1052 DUP2 PUSH2 0x1037 JUMP JUMPDEST DUP3 MSTORE POP POP JUMP JUMPDEST PUSH1 0x0 PUSH1 0x20 DUP3 ADD SWAP1 POP PUSH2 0x106D PUSH1 0x0 DUP4 ADD DUP5 PUSH2 0x1049 JUMP JUMPDEST SWAP3 SWAP2 POP POP JUMP JUMPDEST PUSH1 0x0 PUSH2 0x107E DUP3 PUSH2 0xFD9 JUMP JUMPDEST SWAP1 POP SWAP2 SWAP1 POP JUMP JUMPDEST PUSH2 0x108E DUP2 PUSH2 0x1073 JUMP JUMPDEST DUP3 MSTORE POP POP JUMP JUMPDEST PUSH1 0x0 PUSH1 0x20 DUP3 ADD SWAP1 POP PUSH2 0x10A9 PUSH1 0x0 DUP4 ADD DUP5 PUSH2 0x1085 JUMP JUMPDEST SWAP3 SWAP2 POP POP JUMP JUMPDEST PUSH1 0x0 DUP1 REVERT JUMPDEST PUSH1 0x0 DUP2 SWAP1 POP SWAP2 SWAP1 POP JUMP JUMPDEST PUSH2 0x10C7 DUP2 PUSH2 0x10B4 JUMP JUMPDEST DUP2 EQ PUSH2 0x10D2 JUMPI PUSH1 0x0 DUP1 REVERT JUMPDEST POP JUMP JUMPDEST PUSH1 0x0 DUP2 CALLDATALOAD SWAP1 POP PUSH2 0x10E4 DUP2 PUSH2 0x10BE JUMP JUMPDEST SWAP3 SWAP2 POP POP JUMP JUMPDEST PUSH2 0x10F3 DUP2 PUSH2 0x1073 JUMP JUMPDEST DUP2 EQ PUSH2 0x10FE JUMPI PUSH1 0x0 DUP1 REVERT JUMPDEST POP JUMP JUMPDEST PUSH1 0x0 DUP2 CALLDATALOAD SWAP1 POP PUSH2 0x1110 DUP2 PUSH2 0x10EA JUMP JUMPDEST SWAP3 SWAP2 POP POP JUMP JUMPDEST PUSH1 0x0 DUP1 PUSH1 0x0 PUSH1 0x60 DUP5 DUP7 SUB SLT ISZERO PUSH2 0x112F JUMPI PUSH2 0x112E PUSH2 0x10AF JUMP JUMPDEST JUMPDEST PUSH1 0x0 PUSH2 0x113D DUP7 DUP3 DUP8 ADD PUSH2 0x10D5 JUMP JUMPDEST SWAP4 POP POP PUSH1 0x20 PUSH2 0x114E DUP7 DUP3 DUP8 ADD PUSH2 0x1101 JUMP JUMPDEST SWAP3 POP POP PUSH1 0x40 PUSH2 0x115F DUP7 DUP3 DUP8 ADD PUSH2 0x1101 JUMP JUMPDEST SWAP2 POP POP SWAP3 POP SWAP3 POP SWAP3 JUMP JUMPDEST PUSH1 0x0 DUP2 SWAP1 POP SWAP2 SWAP1 POP JUMP JUMPDEST PUSH2 0x117C DUP2 PUSH2 0x1169 JUMP JUMPDEST DUP2 EQ PUSH2 0x1187 JUMPI PUSH1 0x0 DUP1 REVERT JUMPDEST POP JUMP JUMPDEST PUSH1 0x0 DUP2 CALLDATALOAD SWAP1 POP PUSH2 0x1199 DUP2 PUSH2 0x1173 JUMP JUMPDEST SWAP3 SWAP2 POP POP JUMP JUMPDEST PUSH1 0x0 DUP1 PUSH1 0x0 PUSH1 0x60 DUP5 DUP7 SUB SLT ISZERO PUSH2 0x11B8 JUMPI PUSH2 0x11B7 PUSH2 0x10AF JUMP JUMPDEST JUMPDEST PUSH1 0x0 PUSH2 0x11C6 DUP7 DUP3 DUP8 ADD PUSH2 0x1101 JUMP JUMPDEST SWAP4 POP POP PUSH1 0x20 PUSH2 0x11D7 DUP7 DUP3 DUP8 ADD PUSH2 0x1101 JUMP JUMPDEST SWAP3 POP POP PUSH1 0x40 PUSH2 0x11E8 DUP7 DUP3 DUP8 ADD PUSH2 0x118A JUMP JUMPDEST SWAP2 POP POP SWAP3 POP SWAP3 POP SWAP3 JUMP JUMPDEST PUSH2 0x11FB DUP2 PUSH2 0x10B4 JUMP JUMPDEST DUP3 MSTORE POP POP JUMP JUMPDEST PUSH1 0x0 PUSH1 0x20 DUP3 ADD SWAP1 POP PUSH2 0x1216 PUSH1 0x0 DUP4 ADD DUP5 PUSH2 0x11F2 JUMP JUMPDEST SWAP3 SWAP2 POP POP JUMP JUMPDEST PUSH1 0x0 PUSH2 0x1227 DUP3 PUSH2 0x1025 JUMP JUMPDEST SWAP1 POP SWAP2 SWAP1 POP JUMP JUMPDEST PUSH2 0x1237 DUP2 PUSH2 0x121C JUMP JUMPDEST DUP3 MSTORE POP POP JUMP JUMPDEST PUSH1 0x0 PUSH1 0x20 DUP3 ADD SWAP1 POP PUSH2 0x1252 PUSH1 0x0 DUP4 ADD DUP5 PUSH2 0x122E JUMP JUMPDEST SWAP3 SWAP2 POP POP JUMP JUMPDEST PUSH1 0x0 DUP1 PUSH1 0x40 DUP4 DUP6 SUB SLT ISZERO PUSH2 0x126F JUMPI PUSH2 0x126E PUSH2 0x10AF JUMP JUMPDEST JUMPDEST PUSH1 0x0 PUSH2 0x127D DUP6 DUP3 DUP7 ADD PUSH2 0x1101 JUMP JUMPDEST SWAP3 POP POP PUSH1 0x20 PUSH2 0x128E DUP6 DUP3 DUP7 ADD PUSH2 0x1101 JUMP JUMPDEST SWAP2 POP POP SWAP3 POP SWAP3 SWAP1 POP JUMP JUMPDEST PUSH1 0x0 PUSH1 0x20 DUP3 DUP5 SUB SLT ISZERO PUSH2 0x12AE JUMPI PUSH2 0x12AD PUSH2 0x10AF JUMP JUMPDEST JUMPDEST PUSH1 0x0 PUSH2 0x12BC DUP5 DUP3 DUP6 ADD PUSH2 0x1101 JUMP JUMPDEST SWAP2 POP POP SWAP3 SWAP2 POP POP JUMP JUMPDEST PUSH1 0x0 DUP2 SWAP1 POP SWAP2 SWAP1 POP JUMP JUMPDEST PUSH2 0x12D8 DUP2 PUSH2 0x12C5 JUMP JUMPDEST DUP2 EQ PUSH2 0x12E3 JUMPI PUSH1 0x0 DUP1 REVERT JUMPDEST POP JUMP JUMPDEST PUSH1 0x0 DUP2 CALLDATALOAD SWAP1 POP PUSH2 0x12F5 DUP2 PUSH2 0x12CF JUMP JUMPDEST SWAP3 SWAP2 POP POP JUMP JUMPDEST PUSH1 0x0 PUSH1 0x20 DUP3 DUP5 SUB SLT ISZERO PUSH2 0x1311 JUMPI PUSH2 0x1310 PUSH2 0x10AF JUMP JUMPDEST JUMPDEST PUSH1 0x0 PUSH2 0x131F DUP5 DUP3 DUP6 ADD PUSH2 0x12E6 JUMP JUMPDEST SWAP2 POP POP SWAP3 SWAP2 POP POP JUMP JUMPDEST PUSH1 0x0 PUSH4 0xFFFFFFFF DUP3 AND SWAP1 POP SWAP2 SWAP1 POP JUMP JUMPDEST PUSH2 0x1341 DUP2 PUSH2 0x1328 JUMP JUMPDEST DUP2 EQ PUSH2 0x134C JUMPI PUSH1 0x0 DUP1 REVERT JUMPDEST POP JUMP JUMPDEST PUSH1 0x0 DUP2 CALLDATALOAD SWAP1 POP PUSH2 0x135E DUP2 PUSH2 0x1338 JUMP JUMPDEST SWAP3 SWAP2 POP POP JUMP JUMPDEST PUSH1 0x0 DUP1 PUSH1 0x0 PUSH1 0x60 DUP5 DUP7 SUB SLT ISZERO PUSH2 0x137D JUMPI PUSH2 0x137C PUSH2 0x10AF JUMP JUMPDEST JUMPDEST PUSH1 0x0 PUSH2 0x138B DUP7 DUP3 DUP8 ADD PUSH2 0x10D5 JUMP JUMPDEST SWAP4 POP POP PUSH1 0x20 PUSH2 0x139C DUP7 DUP3 DUP8 ADD PUSH2 0x1101 JUMP JUMPDEST SWAP3 POP POP PUSH1 0x40 PUSH2 0x13AD DUP7 DUP3 DUP8 ADD PUSH2 0x134F JUMP JUMPDEST SWAP2 POP POP SWAP3 POP SWAP3 POP SWAP3 JUMP JUMPDEST PUSH1 0x0 DUP3 DUP3 MSTORE PUSH1 0x20 DUP3 ADD SWAP1 POP SWAP3 SWAP2 POP POP JUMP JUMPDEST PUSH32 0x4D617267696E4163636F756E743A20416D6F756E74206D757374206265206772 PUSH1 0x0 DUP3 ADD MSTORE PUSH32 0x6561746572207468616E207A65726F0000000000000000000000000000000000 PUSH1 0x20 DUP3 ADD MSTORE POP JUMP JUMPDEST PUSH1 0x0 PUSH2 0x1424 PUSH1 0x2F DUP4 PUSH2 0x13B7 JUMP JUMPDEST SWAP2 POP PUSH2 0x142F DUP3 PUSH2 0x13C8 JUMP JUMPDEST PUSH1 0x40 DUP3 ADD SWAP1 POP SWAP2 SWAP1 POP JUMP JUMPDEST PUSH1 0x0 PUSH1 0x20 DUP3 ADD SWAP1 POP DUP2 DUP2 SUB PUSH1 0x0 DUP4 ADD MSTORE PUSH2 0x1453 DUP2 PUSH2 0x1417 JUMP JUMPDEST SWAP1 POP SWAP2 SWAP1 POP JUMP JUMPDEST PUSH32 0x4E487B7100000000000000000000000000000000000000000000000000000000 PUSH1 0x0 MSTORE PUSH1 0x11 PUSH1 0x4 MSTORE PUSH1 0x24 PUSH1 0x0 REVERT JUMPDEST PUSH1 0x0 PUSH2 0x1494 DUP3 PUSH2 0x10B4 JUMP JUMPDEST SWAP2 POP PUSH2 0x149F DUP4 PUSH2 0x10B4 JUMP JUMPDEST SWAP3 POP DUP3 DUP3 ADD SWAP1 POP DUP1 DUP3 GT ISZERO PUSH2 0x14B7 JUMPI PUSH2 0x14B6 PUSH2 0x145A JUMP JUMPDEST JUMPDEST SWAP3 SWAP2 POP POP JUMP JUMPDEST PUSH32 0x4D617267696E4163636F756E743A206F6E6C7920706F736974696F6E206D616E PUSH1 0x0 DUP3 ADD MSTORE PUSH32 0x616765722063616E206D616B6520746869732063616C6C000000000000000000 PUSH1 0x20 DUP3 ADD MSTORE POP JUMP JUMPDEST PUSH1 0x0 PUSH2 0x1519 PUSH1 0x37 DUP4 PUSH2 0x13B7 JUMP JUMPDEST SWAP2 POP PUSH2 0x1524 DUP3 PUSH2 0x14BD JUMP JUMPDEST PUSH1 0x40 DUP3 ADD SWAP1 POP SWAP2 SWAP1 POP JUMP JUMPDEST PUSH1 0x0 PUSH1 0x20 DUP3 ADD SWAP1 POP DUP2 DUP2 SUB PUSH1 0x0 DUP4 ADD MSTORE PUSH2 0x1548 DUP2 PUSH2 0x150C JUMP JUMPDEST SWAP1 POP SWAP2 SWAP1 POP JUMP JUMPDEST PUSH1 0x0 PUSH2 0x155A DUP3 PUSH2 0x1169 JUMP JUMPDEST SWAP2 POP PUSH32 0x8000000000000000000000000000000000000000000000000000000000000000 DUP3 SUB PUSH2 0x158C JUMPI PUSH2 0x158B PUSH2 0x145A JUMP JUMPDEST JUMPDEST DUP2 PUSH1 0x0 SUB SWAP1 POP SWAP2 SWAP1 POP JUMP JUMPDEST PUSH32 0x4D617267696E4163636F756E743A20696E73756666696369656E742066756E64 PUSH1 0x0 DUP3 ADD MSTORE PUSH32 0x7300000000000000000000000000000000000000000000000000000000000000 PUSH1 0x20 DUP3 ADD MSTORE POP JUMP JUMPDEST PUSH1 0x0 PUSH2 0x15F3 PUSH1 0x21 DUP4 PUSH2 0x13B7 JUMP JUMPDEST SWAP2 POP PUSH2 0x15FE DUP3 PUSH2 0x1597 JUMP JUMPDEST PUSH1 0x40 DUP3 ADD SWAP1 POP SWAP2 SWAP1 POP JUMP JUMPDEST PUSH1 0x0 PUSH1 0x20 DUP3 ADD SWAP1 POP DUP2 DUP2 SUB PUSH1 0x0 DUP4 ADD MSTORE PUSH2 0x1622 DUP2 PUSH2 0x15E6 JUMP JUMPDEST SWAP1 POP SWAP2 SWAP1 POP JUMP JUMPDEST PUSH1 0x0 PUSH2 0x1634 DUP3 PUSH2 0x10B4 JUMP JUMPDEST SWAP2 POP PUSH2 0x163F DUP4 PUSH2 0x10B4 JUMP JUMPDEST SWAP3 POP DUP3 DUP3 SUB SWAP1 POP DUP2 DUP2 GT ISZERO PUSH2 0x1657 JUMPI PUSH2 0x1656 PUSH2 0x145A JUMP JUMPDEST JUMPDEST SWAP3 SWAP2 POP POP JUMP JUMPDEST PUSH32 0x4D617267696E4163636F756E743A206F6E6C79206F7264657220626F6F6B2063 PUSH1 0x0 DUP3 ADD MSTORE PUSH32 0x616E206D616B6520746869732063616C6C000000000000000000000000000000 PUSH1 0x20 DUP3 ADD MSTORE POP JUMP JUMPDEST PUSH1 0x0 PUSH2 0x16B9 PUSH1 0x31 DUP4 PUSH2 0x13B7 JUMP JUMPDEST SWAP2 POP PUSH2 0x16C4 DUP3 PUSH2 0x165D JUMP JUMPDEST PUSH1 0x40 DUP3 ADD SWAP1 POP SWAP2 SWAP1 POP JUMP JUMPDEST PUSH1 0x0 PUSH1 0x20 DUP3 ADD SWAP1 POP DUP2 DUP2 SUB PUSH1 0x0 DUP4 ADD MSTORE PUSH2 0x16E8 DUP2 PUSH2 0x16AC JUMP JUMPDEST SWAP1 POP SWAP2 SWAP1 POP JUMP JUMPDEST PUSH32 0x4D617267696E4163636F756E743A20476F762063616E6E6F74206265207A6572 PUSH1 0x0 DUP3 ADD MSTORE PUSH32 0x6F20616464726573730000000000000000000000000000000000000000000000 PUSH1 0x20 DUP3 ADD MSTORE POP JUMP JUMPDEST PUSH1 0x0 PUSH2 0x174B PUSH1 0x29 DUP4 PUSH2 0x13B7 JUMP JUMPDEST SWAP2 POP PUSH2 0x1756 DUP3 PUSH2 0x16EF JUMP JUMPDEST PUSH1 0x40 DUP3 ADD SWAP1 POP SWAP2 SWAP1 POP JUMP JUMPDEST PUSH1 0x0 PUSH1 0x20 DUP3 ADD SWAP1 POP DUP2 DUP2 SUB PUSH1 0x0 DUP4 ADD MSTORE PUSH2 0x177A DUP2 PUSH2 0x173E JUMP JUMPDEST SWAP1 POP SWAP2 SWAP1 POP JUMP JUMPDEST PUSH32 0x4D617267696E4163636F756E743A20496E73756666696369656E742062616C61 PUSH1 0x0 DUP3 ADD MSTORE PUSH32 0x6E63650000000000000000000000000000000000000000000000000000000000 PUSH1 0x20 DUP3 ADD MSTORE POP JUMP JUMPDEST PUSH1 0x0 PUSH2 0x17DD PUSH1 0x23 DUP4 PUSH2 0x13B7 JUMP JUMPDEST SWAP2 POP PUSH2 0x17E8 DUP3 PUSH2 0x1781 JUMP JUMPDEST PUSH1 0x40 DUP3 ADD SWAP1 POP SWAP2 SWAP1 POP JUMP JUMPDEST PUSH1 0x0 PUSH1 0x20 DUP3 ADD SWAP1 POP DUP2 DUP2 SUB PUSH1 0x0 DUP4 ADD MSTORE PUSH2 0x180C DUP2 PUSH2 0x17D0 JUMP JUMPDEST SWAP1 POP SWAP2 SWAP1 POP JUMP JUMPDEST PUSH1 0x0 PUSH1 0x40 DUP3 ADD SWAP1 POP PUSH2 0x1828 PUSH1 0x0 DUP4 ADD DUP6 PUSH2 0x1085 JUMP JUMPDEST PUSH2 0x1835 PUSH1 0x20 DUP4 ADD DUP5 PUSH2 0x11F2 JUMP JUMPDEST SWAP4 SWAP3 POP POP POP JUMP JUMPDEST PUSH1 0x0 DUP2 ISZERO ISZERO SWAP1 POP SWAP2 SWAP1 POP JUMP JUMPDEST PUSH2 0x1851 DUP2 PUSH2 0x183C JUMP JUMPDEST DUP2 EQ PUSH2 0x185C JUMPI PUSH1 0x0 DUP1 REVERT JUMPDEST POP JUMP JUMPDEST PUSH1 0x0 DUP2 MLOAD SWAP1 POP PUSH2 0x186E DUP2 PUSH2 0x1848 JUMP JUMPDEST SWAP3 SWAP2 POP POP JUMP JUMPDEST PUSH1 0x0 PUSH1 0x20 DUP3 DUP5 SUB SLT ISZERO PUSH2 0x188A JUMPI PUSH2 0x1889 PUSH2 0x10AF JUMP JUMPDEST JUMPDEST PUSH1 0x0 PUSH2 0x1898 DUP5 DUP3 DUP6 ADD PUSH2 0x185F JUMP JUMPDEST SWAP2 POP POP SWAP3 SWAP2 POP POP JUMP JUMPDEST PUSH2 0x18AA DUP2 PUSH2 0x1328 JUMP JUMPDEST DUP3 MSTORE POP POP JUMP JUMPDEST PUSH2 0x18B9 DUP2 PUSH2 0x12C5 JUMP JUMPDEST DUP3 MSTORE POP POP JUMP JUMPDEST PUSH1 0x0 PUSH1 0x60 DUP3 ADD SWAP1 POP PUSH2 0x18D4 PUSH1 0x0 DUP4 ADD DUP7 PUSH2 0x18A1 JUMP JUMPDEST PUSH2 0x18E1 PUSH1 0x20 DUP4 ADD DUP6 PUSH2 0x18B0 JUMP JUMPDEST PUSH2 0x18EE PUSH1 0x40 DUP4 ADD DUP5 PUSH2 0x11F2 JUMP JUMPDEST SWAP5 SWAP4 POP POP POP POP JUMP JUMPDEST PUSH1 0x0 DUP2 PUSH1 0x60 SHL SWAP1 POP SWAP2 SWAP1 POP JUMP JUMPDEST PUSH1 0x0 PUSH2 0x190E DUP3 PUSH2 0x18F6 JUMP JUMPDEST SWAP1 POP SWAP2 SWAP1 POP JUMP JUMPDEST PUSH1 0x0 PUSH2 0x1920 DUP3 PUSH2 0x1903 JUMP JUMPDEST SWAP1 POP SWAP2 SWAP1 POP JUMP JUMPDEST PUSH2 0x1938 PUSH2 0x1933 DUP3 PUSH2 0x1073 JUMP JUMPDEST PUSH2 0x1915 JUMP JUMPDEST DUP3 MSTORE POP POP JUMP JUMPDEST PUSH1 0x0 PUSH2 0x194A DUP3 DUP6 PUSH2 0x1927 JUMP JUMPDEST PUSH1 0x14 DUP3 ADD SWAP2 POP PUSH2 0x195A DUP3 DUP5 PUSH2 0x1927 JUMP JUMPDEST PUSH1 0x14 DUP3 ADD SWAP2 POP DUP2 SWAP1 POP SWAP4 SWAP3 POP POP POP JUMP JUMPDEST PUSH32 0x4D617267696E4163636F756E743A204F6E6C7920676F762063616E2063616C6C PUSH1 0x0 DUP3 ADD MSTORE PUSH32 0x20746869732066756E6374696F6E000000000000000000000000000000000000 PUSH1 0x20 DUP3 ADD MSTORE POP JUMP JUMPDEST PUSH1 0x0 PUSH2 0x19C6 PUSH1 0x2E DUP4 PUSH2 0x13B7 JUMP JUMPDEST SWAP2 POP PUSH2 0x19D1 DUP3 PUSH2 0x196A JUMP JUMPDEST PUSH1 0x40 DUP3 ADD SWAP1 POP SWAP2 SWAP1 POP JUMP JUMPDEST PUSH1 0x0 PUSH1 0x20 DUP3 ADD SWAP1 POP DUP2 DUP2 SUB PUSH1 0x0 DUP4 ADD MSTORE PUSH2 0x19F5 DUP2 PUSH2 0x19B9 JUMP JUMPDEST SWAP1 POP SWAP2 SWAP1 POP JUMP INVALID LOG2 PUSH5 0x6970667358 0x22 SLT KECCAK256 PUSH12 0x5654145C5C8B5EE24C6DB790 CALLVALUE REVERT DUP1 0x24 0xDA 0x25 PUSH13 0x7D11ED9B3E8FA196DDF7D33964 PUSH20 0x6F6C634300081100330000000000000000000000 "},"methodIdentifiers":{"addHyp(address)":"d1f3651e","addOrderBook(address,address)":"41d9a056","addRop(address)":"56899403","balances(bytes32)":"8909aa3f","changeGov(address)":"a962ef1e","deposit(uint256,address,address)":"2e2d2984","gov()":"12d43a51","hypContract()":"3b1113f9","hypContractAddress()":"123528de","lockFunds(address,address)":"466730ff","lockedFunds(address)":"b86247d7","positionManager()":"791b98bc","ropUSDC()":"0c856315","setPositionManager(address)":"5760f2e3","unlockFunds(address,address)":"bc73473b","updateFundingFee(address,address,int256)":"3601ce3c","withdraw(uint256,address,uint32)":"c3ae1fc0"}}}}}