{
  "_format": "hh-sol-artifact-1",
  "contractName": "PositionManager",
  "sourceName": "contracts/PositionManager.sol",
  "abi": [
    {
      "inputs": [
        {
          "internalType": "address",
          "name": "_marginAccount",
          "type": "address"
        },
        {
          "internalType": "address",
          "name": "_priceFeedAddress",
          "type": "address"
        }
      ],
      "stateMutability": "nonpayable",
      "type": "constructor"
    },
    {
      "inputs": [],
      "name": "_onlyGov",
      "outputs": [],
      "stateMutability": "view",
      "type": "function"
    },
    {
      "inputs": [
        {
          "internalType": "int256",
          "name": "_bid",
          "type": "int256"
        },
        {
          "internalType": "int256",
          "name": "_ask",
          "type": "int256"
        },
        {
          "internalType": "int256",
          "name": "_indexPrice",
          "type": "int256"
        },
        {
          "internalType": "address",
          "name": "_indexToken",
          "type": "address"
        }
      ],
      "name": "_updateFundingRate",
      "outputs": [],
      "stateMutability": "nonpayable",
      "type": "function"
    },
    {
      "inputs": [
        {
          "internalType": "address",
          "name": "_orderBook",
          "type": "address"
        },
        {
          "internalType": "address",
          "name": "_indexToken",
          "type": "address"
        }
      ],
      "name": "addOrderBook",
      "outputs": [],
      "stateMutability": "nonpayable",
      "type": "function"
    },
    {
      "inputs": [
        {
          "internalType": "address",
          "name": "_id",
          "type": "address"
        },
        {
          "internalType": "address",
          "name": "_indexToken",
          "type": "address"
        }
      ],
      "name": "addPriceFeed",
      "outputs": [],
      "stateMutability": "nonpayable",
      "type": "function"
    },
    {
      "inputs": [
        {
          "internalType": "address",
          "name": "_user",
          "type": "address"
        },
        {
          "internalType": "address",
          "name": "_indexToken",
          "type": "address"
        },
        {
          "internalType": "uint256",
          "name": "_size",
          "type": "uint256"
        },
        {
          "internalType": "uint256",
          "name": "_priceToPay",
          "type": "uint256"
        }
      ],
      "name": "decreasePosition",
      "outputs": [],
      "stateMutability": "nonpayable",
      "type": "function"
    },
    {
      "inputs": [
        {
          "internalType": "address",
          "name": "user",
          "type": "address"
        },
        {
          "internalType": "address",
          "name": "token",
          "type": "address"
        }
      ],
      "name": "getPositionKey",
      "outputs": [
        {
          "internalType": "bytes32",
          "name": "",
          "type": "bytes32"
        }
      ],
      "stateMutability": "pure",
      "type": "function"
    },
    {
      "inputs": [],
      "name": "gov",
      "outputs": [
        {
          "internalType": "address",
          "name": "",
          "type": "address"
        }
      ],
      "stateMutability": "view",
      "type": "function"
    },
    {
      "inputs": [
        {
          "internalType": "address",
          "name": "_user",
          "type": "address"
        },
        {
          "internalType": "address",
          "name": "_indexToken",
          "type": "address"
        },
        {
          "internalType": "uint256",
          "name": "_size",
          "type": "uint256"
        },
        {
          "internalType": "uint256",
          "name": "_priceToPay",
          "type": "uint256"
        }
      ],
      "name": "increasePosition",
      "outputs": [],
      "stateMutability": "nonpayable",
      "type": "function"
    },
    {
      "inputs": [
        {
          "internalType": "address",
          "name": "_user",
          "type": "address"
        },
        {
          "internalType": "address",
          "name": "_indexToken",
          "type": "address"
        }
      ],
      "name": "liquidatePosition",
      "outputs": [],
      "stateMutability": "nonpayable",
      "type": "function"
    },
    {
      "inputs": [],
      "name": "marginAccount",
      "outputs": [
        {
          "internalType": "address",
          "name": "",
          "type": "address"
        }
      ],
      "stateMutability": "view",
      "type": "function"
    },
    {
      "inputs": [
        {
          "internalType": "address",
          "name": "_user",
          "type": "address"
        },
        {
          "internalType": "address",
          "name": "_indexToken",
          "type": "address"
        }
      ],
      "name": "positionValue",
      "outputs": [
        {
          "internalType": "int256",
          "name": "",
          "type": "int256"
        }
      ],
      "stateMutability": "view",
      "type": "function"
    },
    {
      "inputs": [
        {
          "internalType": "address",
          "name": "",
          "type": "address"
        }
      ],
      "name": "s_cumulativeFundingRates",
      "outputs": [
        {
          "internalType": "int256",
          "name": "",
          "type": "int256"
        }
      ],
      "stateMutability": "view",
      "type": "function"
    },
    {
      "inputs": [
        {
          "internalType": "address",
          "name": "",
          "type": "address"
        }
      ],
      "name": "s_lastFundingTimes",
      "outputs": [
        {
          "internalType": "uint256",
          "name": "",
          "type": "uint256"
        }
      ],
      "stateMutability": "view",
      "type": "function"
    },
    {
      "inputs": [
        {
          "internalType": "address",
          "name": "",
          "type": "address"
        }
      ],
      "name": "s_oracleIds",
      "outputs": [
        {
          "internalType": "address",
          "name": "",
          "type": "address"
        }
      ],
      "stateMutability": "view",
      "type": "function"
    },
    {
      "inputs": [
        {
          "internalType": "address",
          "name": "",
          "type": "address"
        }
      ],
      "name": "s_oracles",
      "outputs": [
        {
          "internalType": "address",
          "name": "",
          "type": "address"
        }
      ],
      "stateMutability": "view",
      "type": "function"
    },
    {
      "inputs": [
        {
          "internalType": "bytes32",
          "name": "",
          "type": "bytes32"
        }
      ],
      "name": "s_positions",
      "outputs": [
        {
          "internalType": "int256",
          "name": "size",
          "type": "int256"
        },
        {
          "internalType": "int256",
          "name": "entryFundingRate",
          "type": "int256"
        },
        {
          "internalType": "int256",
          "name": "amountToPay",
          "type": "int256"
        }
      ],
      "stateMutability": "view",
      "type": "function"
    },
    {
      "inputs": [
        {
          "internalType": "address",
          "name": "_marginAccount",
          "type": "address"
        }
      ],
      "name": "setMarginAccount",
      "outputs": [],
      "stateMutability": "nonpayable",
      "type": "function"
    },
    {
      "inputs": [
        {
          "internalType": "address",
          "name": "_indexToken",
          "type": "address"
        }
      ],
      "name": "updateFundingRate",
      "outputs": [],
      "stateMutability": "nonpayable",
      "type": "function"
    },
    {
      "inputs": [
        {
          "internalType": "bytes32",
          "name": "_positionKey",
          "type": "bytes32"
        },
        {
          "internalType": "address",
          "name": "_indexToken",
          "type": "address"
        },
        {
          "internalType": "int256",
          "name": "_userMargin",
          "type": "int256"
        },
        {
          "internalType": "int256",
          "name": "_size",
          "type": "int256"
        }
      ],
      "name": "validateMargin",
      "outputs": [],
      "stateMutability": "view",
      "type": "function"
    }
  ],
  "bytecode": "0x60806040523480156200001157600080fd5b50604051620024233803806200242383398181016040528101906200003791906200016b565b81600760006101000a81548173ffffffffffffffffffffffffffffffffffffffff021916908373ffffffffffffffffffffffffffffffffffffffff16021790555080600860006101000a81548173ffffffffffffffffffffffffffffffffffffffff021916908373ffffffffffffffffffffffffffffffffffffffff160217905550336000806101000a81548173ffffffffffffffffffffffffffffffffffffffff021916908373ffffffffffffffffffffffffffffffffffffffff1602179055505050620001b2565b600080fd5b600073ffffffffffffffffffffffffffffffffffffffff82169050919050565b6000620001338262000106565b9050919050565b620001458162000126565b81146200015157600080fd5b50565b60008151905062000165816200013a565b92915050565b6000806040838503121562000185576200018462000101565b5b6000620001958582860162000154565b9250506020620001a88582860162000154565b9150509250929050565b61226180620001c26000396000f3fe608060405234801561001057600080fd5b50600436106101215760003560e01c806382526d0f116100ad578063c202250b11610071578063c202250b14610304578063e161671514610320578063e8a97a3e14610350578063f742269d1461036c578063f9c51f271461038a57610121565b806382526d0f146102605780638a09c890146102925780638de917ab146102ae578063abb2361e146102de578063b0c1d316146102fa57610121565b806336351365116100f457806336351365146101ac57806341d9a056146101dc5780634d18c0af146101f8578063586e848f146102285780635a723de01461024457610121565b8063083d2bdb1461012657806312d43a511461014257806319ab149c146101605780632715d1cc14610190575b600080fd5b610140600480360381019061013b91906118b1565b6103ba565b005b61014a610600565b6040516101579190611927565b60405180910390f35b61017a60048036038101906101759190611942565b610624565b6040516101879190611988565b60405180910390f35b6101aa60048036038101906101a591906119cf565b61063c565b005b6101c660048036038101906101c19190611a36565b6106c2565b6040516101d39190611a8f565b60405180910390f35b6101f660048036038101906101f19190611a36565b6106f5565b005b610212600480360381019061020d9190611942565b61077f565b60405161021f9190611927565b60405180910390f35b610242600480360381019061023d9190611a36565b6107b2565b005b61025e60048036038101906102599190611942565b610d32565b005b61027a60048036038101906102759190611ad6565b610ffe565b60405161028993929190611b03565b60405180910390f35b6102ac60048036038101906102a79190611b3a565b611028565b005b6102c860048036038101906102c39190611942565b611258565b6040516102d59190611bb0565b60405180910390f35b6102f860048036038101906102f391906118b1565b611270565b005b610302611471565b005b61031e60048036038101906103199190611942565b611501565b005b61033a60048036038101906103359190611942565b61154d565b6040516103479190611927565b60405180910390f35b61036a60048036038101906103659190611a36565b611580565b005b61037461160a565b6040516103819190611927565b60405180910390f35b6103a4600480360381019061039f9190611a36565b611630565b6040516103b19190611988565b60405180910390f35b60006103c685856106c2565b9050600060016000838152602001908152602001600020604051806060016040529081600082015481526020016001820154815260200160028201548152505090506000600260008773ffffffffffffffffffffffffffffffffffffffff1673ffffffffffffffffffffffffffffffffffffffff16815260200190815260200160002054905060008083600001511461046e578260200151826104699190611bfa565b610471565b60005b90506000600760009054906101000a900473ffffffffffffffffffffffffffffffffffffffff1673ffffffffffffffffffffffffffffffffffffffff16633601ce3c8a8a612710866104c39190611c3d565b6040518463ffffffff1660e01b81526004016104e193929190611cb5565b6020604051808303816000875af1158015610500573d6000803e3d6000fd5b505050506040513d601f19601f820116820180604052508101906105249190611d01565b9050828460200181815250506105498589612710846105439190611d5d565b8a611028565b868460000181815161055b9190611bfa565b9150818152505085846040018181516105749190611bfa565b9150818152505060008460000151036105bf576001600086815260200190815260200160002060008082016000905560018201600090556002820160009055505050505050506105fa565b836001600087815260200190815260200160002060008201518160000155602082015181600101556040820151816002015590505050505050505b50505050565b60008054906101000a900473ffffffffffffffffffffffffffffffffffffffff1681565b60026020528060005260406000206000915090505481565b60008285136106565783836106519190611bfa565b610663565b82856106629190611bfa565b5b905080600260008473ffffffffffffffffffffffffffffffffffffffff1673ffffffffffffffffffffffffffffffffffffffff16815260200190815260200160002060008282546106b49190611dc7565b925050819055505050505050565b600082826040516020016106d7929190611e53565b60405160208183030381529060405280519060200120905092915050565b6106fd611471565b81600660008373ffffffffffffffffffffffffffffffffffffffff1673ffffffffffffffffffffffffffffffffffffffff16815260200190815260200160002060006101000a81548173ffffffffffffffffffffffffffffffffffffffff021916908373ffffffffffffffffffffffffffffffffffffffff1602179055505050565b60056020528060005260406000206000915054906101000a900473ffffffffffffffffffffffffffffffffffffffff1681565b60006107be83836106c2565b9050600060016000838152602001908152602001600020604051806060016040529081600082015481526020016001820154815260200160028201548152505090506000600260008573ffffffffffffffffffffffffffffffffffffffff1673ffffffffffffffffffffffffffffffffffffffff168152602001908152602001600020549050600082600001510361088b576040517f08c379a000000000000000000000000000000000000000000000000000000000815260040161088290611edc565b60405180910390fd5b600082602001518261089d9190611bfa565b90506000600760009054906101000a900473ffffffffffffffffffffffffffffffffffffffff1673ffffffffffffffffffffffffffffffffffffffff16633601ce3c8888612710866108ef9190611c3d565b6040518463ffffffff1660e01b815260040161090d93929190611cb5565b6020604051808303816000875af115801561092c573d6000803e3d6000fd5b505050506040513d601f19601f820116820180604052508101906109509190611d01565b90506000600860009054906101000a900473ffffffffffffffffffffffffffffffffffffffff1673ffffffffffffffffffffffffffffffffffffffff166341976e09600560008a73ffffffffffffffffffffffffffffffffffffffff1673ffffffffffffffffffffffffffffffffffffffff16815260200190815260200160002060009054906101000a900473ffffffffffffffffffffffffffffffffffffffff166040518263ffffffff1660e01b8152600401610a0e9190611927565b602060405180830381865afa158015610a2b573d6000803e3d6000fd5b505050506040513d601f19601f82011682018060405250810190610a4f9190611f3c565b905060008167ffffffffffffffff16905060008660400151620f42406402540be400848a60000151610a819190611c3d565b610a8b9190611d5d565b610a959190611d5d565b610a9f9190611bfa565b905060008112610ae4576040517f08c379a0000000000000000000000000000000000000000000000000000000008152600401610adb90611fb5565b60405180910390fd5b6032620f42406402540be400848a60000151610b009190611c3d565b610b0a9190611d5d565b610b149190611d5d565b610b1e9190611d5d565b8185610b2a9190611dc7565b12610b6a576040517f08c379a0000000000000000000000000000000000000000000000000000000008152600401610b6190611fb5565b60405180910390fd5b600087600001511315610c4c57600660008a73ffffffffffffffffffffffffffffffffffffffff1673ffffffffffffffffffffffffffffffffffffffff16815260200190815260200160002060009054906101000a900473ffffffffffffffffffffffffffffffffffffffff1673ffffffffffffffffffffffffffffffffffffffff1663a008e45c88600001518c6040518363ffffffff1660e01b8152600401610c15929190611fd5565b600060405180830381600087803b158015610c2f57600080fd5b505af1158015610c43573d6000803e3d6000fd5b50505050610d26565b600660008a73ffffffffffffffffffffffffffffffffffffffff1673ffffffffffffffffffffffffffffffffffffffff16815260200190815260200160002060009054906101000a900473ffffffffffffffffffffffffffffffffffffffff1673ffffffffffffffffffffffffffffffffffffffff1663b7377cc68860000151610cd590611ffe565b8c6040518363ffffffff1660e01b8152600401610cf3929190611fd5565b600060405180830381600087803b158015610d0d57600080fd5b505af1158015610d21573d6000803e3d6000fd5b505050505b50505050505050505050565b42610d87610e10600360008573ffffffffffffffffffffffffffffffffffffffff1673ffffffffffffffffffffffffffffffffffffffff168152602001908152602001600020546117d690919063ffffffff16565b11610ffb57610db5610e10610da7610e10426117ec90919063ffffffff16565b61180290919063ffffffff16565b600360008373ffffffffffffffffffffffffffffffffffffffff1673ffffffffffffffffffffffffffffffffffffffff168152602001908152602001600020819055506000600860009054906101000a900473ffffffffffffffffffffffffffffffffffffffff1673ffffffffffffffffffffffffffffffffffffffff166341976e09600560008573ffffffffffffffffffffffffffffffffffffffff1673ffffffffffffffffffffffffffffffffffffffff16815260200190815260200160002060009054906101000a900473ffffffffffffffffffffffffffffffffffffffff166040518263ffffffff1660e01b8152600401610eb49190611927565b602060405180830381865afa158015610ed1573d6000803e3d6000fd5b505050506040513d601f19601f82011682018060405250810190610ef59190611f3c565b905060008167ffffffffffffffff169050600080600660008673ffffffffffffffffffffffffffffffffffffffff1673ffffffffffffffffffffffffffffffffffffffff16815260200190815260200160002060009054906101000a900473ffffffffffffffffffffffffffffffffffffffff1673ffffffffffffffffffffffffffffffffffffffff16633f1460886040518163ffffffff1660e01b815260040160408051808303816000875af1158015610fb4573d6000803e3d6000fd5b505050506040513d601f19601f82011682018060405250810190610fd89190612046565b91509150610ff68282620f424086610ff09190611d5d565b8861063c565b505050505b50565b60016020528060005260406000206000915090508060000154908060010154908060020154905083565b600060016000868152602001908152602001600020604051806060016040529081600082015481526020016001820154815260200160028201548152505090506000600860009054906101000a900473ffffffffffffffffffffffffffffffffffffffff1673ffffffffffffffffffffffffffffffffffffffff166341976e09600560008873ffffffffffffffffffffffffffffffffffffffff1673ffffffffffffffffffffffffffffffffffffffff16815260200190815260200160002060009054906101000a900473ffffffffffffffffffffffffffffffffffffffff166040518263ffffffff1660e01b81526004016111249190611927565b602060405180830381865afa158015611141573d6000803e3d6000fd5b505050506040513d601f19601f820116820180604052508101906111659190611f3c565b905060008167ffffffffffffffff16905060008360400151620f42406402540be4008487600001516111979190611c3d565b6111a19190611d5d565b6111ab9190611d5d565b6111b59190611bfa565b905060008585600001516111c99190611dc7565b9050620f42406402540be40084836111e19190611c3d565b6111eb9190611d5d565b6111f59190611d5d565b603283896112039190611dc7565b61120d9190611c3d565b1361124d576040517f08c379a0000000000000000000000000000000000000000000000000000000008152600401611244906120f8565b60405180910390fd5b505050505050505050565b60036020528060005260406000206000915090505481565b600061127c85856106c2565b9050600060016000838152602001908152602001600020604051806060016040529081600082015481526020016001820154815260200160028201548152505090506000600260008773ffffffffffffffffffffffffffffffffffffffff1673ffffffffffffffffffffffffffffffffffffffff1681526020019081526020016000205490506000808360000151146113245782602001518261131f9190611bfa565b611327565b60005b90506000600760009054906101000a900473ffffffffffffffffffffffffffffffffffffffff1673ffffffffffffffffffffffffffffffffffffffff16633601ce3c8a8a612710866113799190611c3d565b6040518463ffffffff1660e01b815260040161139793929190611cb5565b6020604051808303816000875af11580156113b6573d6000803e3d6000fd5b505050506040513d601f19601f820116820180604052508101906113da9190611d01565b9050828460200181815250506113ff8589612710846113f99190611d5d565b8a611028565b86846000018181516114119190611dc7565b91508181525050858460400181815161142a9190611dc7565b915081815250508360016000878152602001908152602001600020600082015181600001556020820151816001015560408201518160020155905050505050505050505050565b60008054906101000a900473ffffffffffffffffffffffffffffffffffffffff1673ffffffffffffffffffffffffffffffffffffffff163373ffffffffffffffffffffffffffffffffffffffff16146114ff576040517f08c379a00000000000000000000000000000000000000000000000000000000081526004016114f690612164565b60405180910390fd5b565b611509611471565b80600760006101000a81548173ffffffffffffffffffffffffffffffffffffffff021916908373ffffffffffffffffffffffffffffffffffffffff16021790555050565b60046020528060005260406000206000915054906101000a900473ffffffffffffffffffffffffffffffffffffffff1681565b611588611471565b81600560008373ffffffffffffffffffffffffffffffffffffffff1673ffffffffffffffffffffffffffffffffffffffff16815260200190815260200160002060006101000a81548173ffffffffffffffffffffffffffffffffffffffff021916908373ffffffffffffffffffffffffffffffffffffffff1602179055505050565b600760009054906101000a900473ffffffffffffffffffffffffffffffffffffffff1681565b60008061163d84846106c2565b9050600060016000838152602001908152602001600020604051806060016040529081600082015481526020016001820154815260200160028201548152505090506000600860009054906101000a900473ffffffffffffffffffffffffffffffffffffffff1673ffffffffffffffffffffffffffffffffffffffff166341976e09600560008873ffffffffffffffffffffffffffffffffffffffff1673ffffffffffffffffffffffffffffffffffffffff16815260200190815260200160002060009054906101000a900473ffffffffffffffffffffffffffffffffffffffff166040518263ffffffff1660e01b815260040161173b9190611927565b602060405180830381865afa158015611758573d6000803e3d6000fd5b505050506040513d601f19601f8201168201806040525081019061177c9190611f3c565b905060008167ffffffffffffffff1690508260400151620f42406402540be4008386600001516117ac9190611c3d565b6117b69190611d5d565b6117c09190611d5d565b6117ca9190611bfa565b94505050505092915050565b600081836117e49190612184565b905092915050565b600081836117fa91906121b8565b905092915050565b6000818361181091906121e9565b905092915050565b600080fd5b600073ffffffffffffffffffffffffffffffffffffffff82169050919050565b60006118488261181d565b9050919050565b6118588161183d565b811461186357600080fd5b50565b6000813590506118758161184f565b92915050565b6000819050919050565b61188e8161187b565b811461189957600080fd5b50565b6000813590506118ab81611885565b92915050565b600080600080608085870312156118cb576118ca611818565b5b60006118d987828801611866565b94505060206118ea87828801611866565b93505060406118fb8782880161189c565b925050606061190c8782880161189c565b91505092959194509250565b6119218161183d565b82525050565b600060208201905061193c6000830184611918565b92915050565b60006020828403121561195857611957611818565b5b600061196684828501611866565b91505092915050565b6000819050919050565b6119828161196f565b82525050565b600060208201905061199d6000830184611979565b92915050565b6119ac8161196f565b81146119b757600080fd5b50565b6000813590506119c9816119a3565b92915050565b600080600080608085870312156119e9576119e8611818565b5b60006119f7878288016119ba565b9450506020611a08878288016119ba565b9350506040611a19878288016119ba565b9250506060611a2a87828801611866565b91505092959194509250565b60008060408385031215611a4d57611a4c611818565b5b6000611a5b85828601611866565b9250506020611a6c85828601611866565b9150509250929050565b6000819050919050565b611a8981611a76565b82525050565b6000602082019050611aa46000830184611a80565b92915050565b611ab381611a76565b8114611abe57600080fd5b50565b600081359050611ad081611aaa565b92915050565b600060208284031215611aec57611aeb611818565b5b6000611afa84828501611ac1565b91505092915050565b6000606082019050611b186000830186611979565b611b256020830185611979565b611b326040830184611979565b949350505050565b60008060008060808587031215611b5457611b53611818565b5b6000611b6287828801611ac1565b9450506020611b7387828801611866565b9350506040611b84878288016119ba565b9250506060611b95878288016119ba565b91505092959194509250565b611baa8161187b565b82525050565b6000602082019050611bc56000830184611ba1565b92915050565b7f4e487b7100000000000000000000000000000000000000000000000000000000600052601160045260246000fd5b6000611c058261196f565b9150611c108361196f565b9250828203905081811260008412168282136000851215161715611c3757611c36611bcb565b5b92915050565b6000611c488261196f565b9150611c538361196f565b9250828202611c618161196f565b91507f80000000000000000000000000000000000000000000000000000000000000008414600084121615611c9957611c98611bcb565b5b8282058414831517611cae57611cad611bcb565b5b5092915050565b6000606082019050611cca6000830186611918565b611cd76020830185611918565b611ce46040830184611979565b949350505050565b600081519050611cfb81611885565b92915050565b600060208284031215611d1757611d16611818565b5b6000611d2584828501611cec565b91505092915050565b7f4e487b7100000000000000000000000000000000000000000000000000000000600052601260045260246000fd5b6000611d688261196f565b9150611d738361196f565b925082611d8357611d82611d2e565b5b600160000383147f800000000000000000000000000000000000000000000000000000000000000083141615611dbc57611dbb611bcb565b5b828205905092915050565b6000611dd28261196f565b9150611ddd8361196f565b925082820190508281121560008312168382126000841215161715611e0557611e04611bcb565b5b92915050565b60008160601b9050919050565b6000611e2382611e0b565b9050919050565b6000611e3582611e18565b9050919050565b611e4d611e488261183d565b611e2a565b82525050565b6000611e5f8285611e3c565b601482019150611e6f8284611e3c565b6014820191508190509392505050565b600082825260208201905092915050565b7f506f736974696f6e20646f6573206e6f74206578697374000000000000000000600082015250565b6000611ec6601783611e7f565b9150611ed182611e90565b602082019050919050565b60006020820190508181036000830152611ef581611eb9565b9050919050565b600067ffffffffffffffff82169050919050565b611f1981611efc565b8114611f2457600080fd5b50565b600081519050611f3681611f10565b92915050565b600060208284031215611f5257611f51611818565b5b6000611f6084828501611f27565b91505092915050565b7f506f736974696f6e206973206e6f74206c6971756964617461626c6500000000600082015250565b6000611f9f601c83611e7f565b9150611faa82611f69565b602082019050919050565b60006020820190508181036000830152611fce81611f92565b9050919050565b6000604082019050611fea6000830185611ba1565b611ff76020830184611918565b9392505050565b60006120098261196f565b91507f8000000000000000000000000000000000000000000000000000000000000000820361203b5761203a611bcb565b5b816000039050919050565b6000806040838503121561205d5761205c611818565b5b600061206b85828601611cec565b925050602061207c85828601611cec565b9150509250929050565b7f696e73756666696369616e74206d617267696e20746f2063726561746520706f60008201527f736974696f6e0000000000000000000000000000000000000000000000000000602082015250565b60006120e2602683611e7f565b91506120ed82612086565b604082019050919050565b60006020820190508181036000830152612111816120d5565b9050919050565b7f6f6e6c7920676f762063616e2063616c6c20746869732066756e6374696f6e00600082015250565b600061214e601f83611e7f565b915061215982612118565b602082019050919050565b6000602082019050818103600083015261217d81612141565b9050919050565b600061218f8261187b565b915061219a8361187b565b92508282019050808211156121b2576121b1611bcb565b5b92915050565b60006121c38261187b565b91506121ce8361187b565b9250826121de576121dd611d2e565b5b828204905092915050565b60006121f48261187b565b91506121ff8361187b565b925082820261220d8161187b565b9150828204841483151761222457612223611bcb565b5b509291505056fea264697066735822122051c9c51658551e7f6f7d64b6d57bbf96861a0d854ede228825c2a0f1611ccb1d64736f6c63430008110033",
  "linkReferences": {},
  "deployedLinkReferences": {}
}