{
  "_format": "hh-sol-artifact-1",
  "contractName": "PositionManager",
  "sourceName": "contracts/PositionManager.sol",
  "abi": [
    {
      "inputs": [
        {
          "internalType": "address",
          "name": "_marginAccount",
          "type": "address"
        },
        {
          "internalType": "address",
          "name": "_pythAddress",
          "type": "address"
        }
      ],
      "stateMutability": "nonpayable",
      "type": "constructor"
    },
    {
      "inputs": [],
      "name": "_onlyGov",
      "outputs": [],
      "stateMutability": "view",
      "type": "function"
    },
    {
      "inputs": [
        {
          "internalType": "int256",
          "name": "_bid",
          "type": "int256"
        },
        {
          "internalType": "int256",
          "name": "_ask",
          "type": "int256"
        },
        {
          "internalType": "int256",
          "name": "_indexPrice",
          "type": "int256"
        },
        {
          "internalType": "address",
          "name": "_indexToken",
          "type": "address"
        }
      ],
      "name": "_updateFundingRate",
      "outputs": [],
      "stateMutability": "nonpayable",
      "type": "function"
    },
    {
      "inputs": [
        {
          "internalType": "address",
          "name": "_orderBook",
          "type": "address"
        },
        {
          "internalType": "address",
          "name": "_indexToken",
          "type": "address"
        }
      ],
      "name": "addOrderBook",
      "outputs": [],
      "stateMutability": "nonpayable",
      "type": "function"
    },
    {
      "inputs": [
        {
          "internalType": "bytes32",
          "name": "_id",
          "type": "bytes32"
        },
        {
          "internalType": "address",
          "name": "_indexToken",
          "type": "address"
        }
      ],
      "name": "addPythOracle",
      "outputs": [],
      "stateMutability": "nonpayable",
      "type": "function"
    },
    {
      "inputs": [
        {
          "internalType": "address",
          "name": "_user",
          "type": "address"
        },
        {
          "internalType": "address",
          "name": "_indexToken",
          "type": "address"
        },
        {
          "internalType": "uint256",
          "name": "_size",
          "type": "uint256"
        },
        {
          "internalType": "uint256",
          "name": "_priceToPay",
          "type": "uint256"
        }
      ],
      "name": "decreasePosition",
      "outputs": [],
      "stateMutability": "nonpayable",
      "type": "function"
    },
    {
      "inputs": [
        {
          "internalType": "address",
          "name": "user",
          "type": "address"
        },
        {
          "internalType": "address",
          "name": "token",
          "type": "address"
        }
      ],
      "name": "getPositionKey",
      "outputs": [
        {
          "internalType": "bytes32",
          "name": "",
          "type": "bytes32"
        }
      ],
      "stateMutability": "pure",
      "type": "function"
    },
    {
      "inputs": [],
      "name": "gov",
      "outputs": [
        {
          "internalType": "address",
          "name": "",
          "type": "address"
        }
      ],
      "stateMutability": "view",
      "type": "function"
    },
    {
      "inputs": [
        {
          "internalType": "address",
          "name": "_user",
          "type": "address"
        },
        {
          "internalType": "address",
          "name": "_indexToken",
          "type": "address"
        },
        {
          "internalType": "uint256",
          "name": "_size",
          "type": "uint256"
        },
        {
          "internalType": "uint256",
          "name": "_priceToPay",
          "type": "uint256"
        }
      ],
      "name": "increasePosition",
      "outputs": [],
      "stateMutability": "nonpayable",
      "type": "function"
    },
    {
      "inputs": [
        {
          "internalType": "address",
          "name": "_user",
          "type": "address"
        },
        {
          "internalType": "address",
          "name": "_indexToken",
          "type": "address"
        }
      ],
      "name": "liquidatePosition",
      "outputs": [],
      "stateMutability": "nonpayable",
      "type": "function"
    },
    {
      "inputs": [],
      "name": "marginAccount",
      "outputs": [
        {
          "internalType": "address",
          "name": "",
          "type": "address"
        }
      ],
      "stateMutability": "view",
      "type": "function"
    },
    {
      "inputs": [
        {
          "internalType": "address",
          "name": "_user",
          "type": "address"
        },
        {
          "internalType": "address",
          "name": "_indexToken",
          "type": "address"
        }
      ],
      "name": "positionValue",
      "outputs": [
        {
          "internalType": "int256",
          "name": "",
          "type": "int256"
        }
      ],
      "stateMutability": "view",
      "type": "function"
    },
    {
      "inputs": [
        {
          "internalType": "address",
          "name": "",
          "type": "address"
        }
      ],
      "name": "s_cumulativeFundingRates",
      "outputs": [
        {
          "internalType": "int256",
          "name": "",
          "type": "int256"
        }
      ],
      "stateMutability": "view",
      "type": "function"
    },
    {
      "inputs": [
        {
          "internalType": "address",
          "name": "",
          "type": "address"
        }
      ],
      "name": "s_lastFundingTimes",
      "outputs": [
        {
          "internalType": "uint256",
          "name": "",
          "type": "uint256"
        }
      ],
      "stateMutability": "view",
      "type": "function"
    },
    {
      "inputs": [
        {
          "internalType": "address",
          "name": "",
          "type": "address"
        }
      ],
      "name": "s_oracles",
      "outputs": [
        {
          "internalType": "address",
          "name": "",
          "type": "address"
        }
      ],
      "stateMutability": "view",
      "type": "function"
    },
    {
      "inputs": [
        {
          "internalType": "bytes32",
          "name": "",
          "type": "bytes32"
        }
      ],
      "name": "s_positions",
      "outputs": [
        {
          "internalType": "int256",
          "name": "size",
          "type": "int256"
        },
        {
          "internalType": "int256",
          "name": "entryFundingRate",
          "type": "int256"
        },
        {
          "internalType": "int256",
          "name": "amountToPay",
          "type": "int256"
        }
      ],
      "stateMutability": "view",
      "type": "function"
    },
    {
      "inputs": [
        {
          "internalType": "address",
          "name": "",
          "type": "address"
        }
      ],
      "name": "s_pythOracleIds",
      "outputs": [
        {
          "internalType": "bytes32",
          "name": "",
          "type": "bytes32"
        }
      ],
      "stateMutability": "view",
      "type": "function"
    },
    {
      "inputs": [
        {
          "internalType": "address",
          "name": "_marginAccount",
          "type": "address"
        }
      ],
      "name": "setMarginAccount",
      "outputs": [],
      "stateMutability": "nonpayable",
      "type": "function"
    },
    {
      "inputs": [
        {
          "internalType": "address",
          "name": "_indexToken",
          "type": "address"
        }
      ],
      "name": "updateFundingRate",
      "outputs": [],
      "stateMutability": "nonpayable",
      "type": "function"
    },
    {
      "inputs": [
        {
          "internalType": "bytes32",
          "name": "_positionKey",
          "type": "bytes32"
        },
        {
          "internalType": "address",
          "name": "_indexToken",
          "type": "address"
        },
        {
          "internalType": "int256",
          "name": "_userMargin",
          "type": "int256"
        },
        {
          "internalType": "int256",
          "name": "_size",
          "type": "int256"
        }
      ],
      "name": "validateMargin",
      "outputs": [],
      "stateMutability": "view",
      "type": "function"
    }
  ],
  "bytecode": "0x60806040523480156200001157600080fd5b50604051620025073803806200250783398181016040528101906200003791906200016b565b81600760006101000a81548173ffffffffffffffffffffffffffffffffffffffff021916908373ffffffffffffffffffffffffffffffffffffffff16021790555080600860006101000a81548173ffffffffffffffffffffffffffffffffffffffff021916908373ffffffffffffffffffffffffffffffffffffffff160217905550336000806101000a81548173ffffffffffffffffffffffffffffffffffffffff021916908373ffffffffffffffffffffffffffffffffffffffff1602179055505050620001b2565b600080fd5b600073ffffffffffffffffffffffffffffffffffffffff82169050919050565b6000620001338262000106565b9050919050565b620001458162000126565b81146200015157600080fd5b50565b60008151905062000165816200013a565b92915050565b6000806040838503121562000185576200018462000101565b5b6000620001958582860162000154565b9250506020620001a88582860162000154565b9150509250929050565b61234580620001c26000396000f3fe608060405234801561001057600080fd5b50600436106101215760003560e01c806382526d0f116100ad578063bedf3b5411610071578063bedf3b54146102f0578063c202250b14610320578063e16167151461033c578063f742269d1461036c578063f9c51f271461038a57610121565b806382526d0f1461024c5780638a09c8901461027e5780638de917ab1461029a578063abb2361e146102ca578063b0c1d316146102e657610121565b80632715d1cc116100f45780632715d1cc146101ac57806336351365146101c857806341d9a056146101f8578063586e848f146102145780635a723de01461023057610121565b8063083d2bdb1461012657806312d43a51146101425780631552b29a1461016057806319ab149c1461017c575b600080fd5b610140600480360381019061013b91906117da565b6103ba565b005b61014a610600565b6040516101579190611850565b60405180910390f35b61017a600480360381019061017591906118a1565b610624565b005b610196600480360381019061019191906118e1565b610674565b6040516101a39190611927565b60405180910390f35b6101c660048036038101906101c1919061196e565b61068c565b005b6101e260048036038101906101dd91906119d5565b610712565b6040516101ef9190611a24565b60405180910390f35b610212600480360381019061020d91906119d5565b610745565b005b61022e600480360381019061022991906119d5565b6107cf565b005b61024a600480360381019061024591906118e1565b610d2c565b005b61026660048036038101906102619190611a3f565b610fd5565b60405161027593929190611a6c565b60405180910390f35b61029860048036038101906102939190611aa3565b610fff565b005b6102b460048036038101906102af91906118e1565b61120c565b6040516102c19190611b19565b60405180910390f35b6102e460048036038101906102df91906117da565b611224565b005b6102ee611425565b005b61030a600480360381019061030591906118e1565b6114b5565b6040516103179190611a24565b60405180910390f35b61033a600480360381019061033591906118e1565b6114cd565b005b610356600480360381019061035191906118e1565b611519565b6040516103639190611850565b60405180910390f35b61037461154c565b6040516103819190611850565b60405180910390f35b6103a4600480360381019061039f91906119d5565b611572565b6040516103b19190611927565b60405180910390f35b60006103c68585610712565b9050600060016000838152602001908152602001600020604051806060016040529081600082015481526020016001820154815260200160028201548152505090506000600260008773ffffffffffffffffffffffffffffffffffffffff1673ffffffffffffffffffffffffffffffffffffffff16815260200190815260200160002054905060008083600001511461046e578260200151826104699190611b63565b610471565b60005b90506000600760009054906101000a900473ffffffffffffffffffffffffffffffffffffffff1673ffffffffffffffffffffffffffffffffffffffff16633601ce3c8a8a612710866104c39190611ba6565b6040518463ffffffff1660e01b81526004016104e193929190611c1e565b6020604051808303816000875af1158015610500573d6000803e3d6000fd5b505050506040513d601f19601f820116820180604052508101906105249190611c6a565b9050828460200181815250506105498589612710846105439190611cc6565b8a610fff565b868460000181815161055b9190611b63565b9150818152505085846040018181516105749190611b63565b9150818152505060008460000151036105bf576001600086815260200190815260200160002060008082016000905560018201600090556002820160009055505050505050506105fa565b836001600087815260200190815260200160002060008201518160000155602082015181600101556040820151816002015590505050505050505b50505050565b60008054906101000a900473ffffffffffffffffffffffffffffffffffffffff1681565b61062c611425565b81600560008373ffffffffffffffffffffffffffffffffffffffff1673ffffffffffffffffffffffffffffffffffffffff168152602001908152602001600020819055505050565b60026020528060005260406000206000915090505481565b60008285136106a65783836106a19190611b63565b6106b3565b82856106b29190611b63565b5b905080600260008473ffffffffffffffffffffffffffffffffffffffff1673ffffffffffffffffffffffffffffffffffffffff16815260200190815260200160002060008282546107049190611d30565b925050819055505050505050565b60008282604051602001610727929190611dbc565b60405160208183030381529060405280519060200120905092915050565b61074d611425565b81600660008373ffffffffffffffffffffffffffffffffffffffff1673ffffffffffffffffffffffffffffffffffffffff16815260200190815260200160002060006101000a81548173ffffffffffffffffffffffffffffffffffffffff021916908373ffffffffffffffffffffffffffffffffffffffff1602179055505050565b60006107db8383610712565b9050600060016000838152602001908152602001600020604051806060016040529081600082015481526020016001820154815260200160028201548152505090506000600260008573ffffffffffffffffffffffffffffffffffffffff1673ffffffffffffffffffffffffffffffffffffffff16815260200190815260200160002054905060008260000151036108a8576040517f08c379a000000000000000000000000000000000000000000000000000000000815260040161089f90611e45565b60405180910390fd5b60008260200151826108ba9190611b63565b90506000600760009054906101000a900473ffffffffffffffffffffffffffffffffffffffff1673ffffffffffffffffffffffffffffffffffffffff16633601ce3c88886127108661090c9190611ba6565b6040518463ffffffff1660e01b815260040161092a93929190611c1e565b6020604051808303816000875af1158015610949573d6000803e3d6000fd5b505050506040513d601f19601f8201168201806040525081019061096d9190611c6a565b90506000600860009054906101000a900473ffffffffffffffffffffffffffffffffffffffff1673ffffffffffffffffffffffffffffffffffffffff166331d98b3f600560008a73ffffffffffffffffffffffffffffffffffffffff1673ffffffffffffffffffffffffffffffffffffffff168152602001908152602001600020546040518263ffffffff1660e01b8152600401610a0b9190611a24565b608060405180830381865afa158015610a28573d6000803e3d6000fd5b505050506040513d601f19601f82011682018060405250810190610a4c9190612020565b90506000816000015160070b905060008660400151620f42406402540be400848a60000151610a7b9190611ba6565b610a859190611cc6565b610a8f9190611cc6565b610a999190611b63565b905060008112610ade576040517f08c379a0000000000000000000000000000000000000000000000000000000008152600401610ad590612099565b60405180910390fd5b6032620f42406402540be400848a60000151610afa9190611ba6565b610b049190611cc6565b610b0e9190611cc6565b610b189190611cc6565b8185610b249190611d30565b12610b64576040517f08c379a0000000000000000000000000000000000000000000000000000000008152600401610b5b90612099565b60405180910390fd5b600087600001511315610c4657600660008a73ffffffffffffffffffffffffffffffffffffffff1673ffffffffffffffffffffffffffffffffffffffff16815260200190815260200160002060009054906101000a900473ffffffffffffffffffffffffffffffffffffffff1673ffffffffffffffffffffffffffffffffffffffff1663a008e45c88600001518c6040518363ffffffff1660e01b8152600401610c0f9291906120b9565b600060405180830381600087803b158015610c2957600080fd5b505af1158015610c3d573d6000803e3d6000fd5b50505050610d20565b600660008a73ffffffffffffffffffffffffffffffffffffffff1673ffffffffffffffffffffffffffffffffffffffff16815260200190815260200160002060009054906101000a900473ffffffffffffffffffffffffffffffffffffffff1673ffffffffffffffffffffffffffffffffffffffff1663b7377cc68860000151610ccf906120e2565b8c6040518363ffffffff1660e01b8152600401610ced9291906120b9565b600060405180830381600087803b158015610d0757600080fd5b505af1158015610d1b573d6000803e3d6000fd5b505050505b50505050505050505050565b42610d81610e10600360008573ffffffffffffffffffffffffffffffffffffffff1673ffffffffffffffffffffffffffffffffffffffff168152602001908152602001600020546116f590919063ffffffff16565b11610fd257610daf610e10610da1610e104261170b90919063ffffffff16565b61172190919063ffffffff16565b600360008373ffffffffffffffffffffffffffffffffffffffff1673ffffffffffffffffffffffffffffffffffffffff168152602001908152602001600020819055506000600860009054906101000a900473ffffffffffffffffffffffffffffffffffffffff1673ffffffffffffffffffffffffffffffffffffffff166331d98b3f600560008573ffffffffffffffffffffffffffffffffffffffff1673ffffffffffffffffffffffffffffffffffffffff168152602001908152602001600020546040518263ffffffff1660e01b8152600401610e8e9190611a24565b608060405180830381865afa158015610eab573d6000803e3d6000fd5b505050506040513d601f19601f82011682018060405250810190610ecf9190612020565b90506000816000015160070b9050600080600660008673ffffffffffffffffffffffffffffffffffffffff1673ffffffffffffffffffffffffffffffffffffffff16815260200190815260200160002060009054906101000a900473ffffffffffffffffffffffffffffffffffffffff1673ffffffffffffffffffffffffffffffffffffffff16633f1460886040518163ffffffff1660e01b815260040160408051808303816000875af1158015610f8b573d6000803e3d6000fd5b505050506040513d601f19601f82011682018060405250810190610faf919061212a565b91509150610fcd8282620f424086610fc79190611cc6565b8861068c565b505050505b50565b60016020528060005260406000206000915090508060000154908060010154908060020154905083565b600060016000868152602001908152602001600020604051806060016040529081600082015481526020016001820154815260200160028201548152505090506000600860009054906101000a900473ffffffffffffffffffffffffffffffffffffffff1673ffffffffffffffffffffffffffffffffffffffff166331d98b3f600560008873ffffffffffffffffffffffffffffffffffffffff1673ffffffffffffffffffffffffffffffffffffffff168152602001908152602001600020546040518263ffffffff1660e01b81526004016110db9190611a24565b608060405180830381865afa1580156110f8573d6000803e3d6000fd5b505050506040513d601f19601f8201168201806040525081019061111c9190612020565b90506000816000015160070b905060008360400151620f42406402540be40084876000015161114b9190611ba6565b6111559190611cc6565b61115f9190611cc6565b6111699190611b63565b9050600085856000015161117d9190611d30565b9050620f42406402540be40084836111959190611ba6565b61119f9190611cc6565b6111a99190611cc6565b603283896111b79190611d30565b6111c19190611ba6565b13611201576040517f08c379a00000000000000000000000000000000000000000000000000000000081526004016111f8906121dc565b60405180910390fd5b505050505050505050565b60036020528060005260406000206000915090505481565b60006112308585610712565b9050600060016000838152602001908152602001600020604051806060016040529081600082015481526020016001820154815260200160028201548152505090506000600260008773ffffffffffffffffffffffffffffffffffffffff1673ffffffffffffffffffffffffffffffffffffffff1681526020019081526020016000205490506000808360000151146112d8578260200151826112d39190611b63565b6112db565b60005b90506000600760009054906101000a900473ffffffffffffffffffffffffffffffffffffffff1673ffffffffffffffffffffffffffffffffffffffff16633601ce3c8a8a6127108661132d9190611ba6565b6040518463ffffffff1660e01b815260040161134b93929190611c1e565b6020604051808303816000875af115801561136a573d6000803e3d6000fd5b505050506040513d601f19601f8201168201806040525081019061138e9190611c6a565b9050828460200181815250506113b38589612710846113ad9190611cc6565b8a610fff565b86846000018181516113c59190611d30565b9150818152505085846040018181516113de9190611d30565b915081815250508360016000878152602001908152602001600020600082015181600001556020820151816001015560408201518160020155905050505050505050505050565b60008054906101000a900473ffffffffffffffffffffffffffffffffffffffff1673ffffffffffffffffffffffffffffffffffffffff163373ffffffffffffffffffffffffffffffffffffffff16146114b3576040517f08c379a00000000000000000000000000000000000000000000000000000000081526004016114aa90612248565b60405180910390fd5b565b60056020528060005260406000206000915090505481565b6114d5611425565b80600760006101000a81548173ffffffffffffffffffffffffffffffffffffffff021916908373ffffffffffffffffffffffffffffffffffffffff16021790555050565b60046020528060005260406000206000915054906101000a900473ffffffffffffffffffffffffffffffffffffffff1681565b600760009054906101000a900473ffffffffffffffffffffffffffffffffffffffff1681565b60008061157f8484610712565b9050600060016000838152602001908152602001600020604051806060016040529081600082015481526020016001820154815260200160028201548152505090506000600860009054906101000a900473ffffffffffffffffffffffffffffffffffffffff1673ffffffffffffffffffffffffffffffffffffffff166331d98b3f600560008873ffffffffffffffffffffffffffffffffffffffff1673ffffffffffffffffffffffffffffffffffffffff168152602001908152602001600020546040518263ffffffff1660e01b815260040161165d9190611a24565b608060405180830381865afa15801561167a573d6000803e3d6000fd5b505050506040513d601f19601f8201168201806040525081019061169e9190612020565b90506000816000015160070b90508260400151620f42406402540be4008386600001516116cb9190611ba6565b6116d59190611cc6565b6116df9190611cc6565b6116e99190611b63565b94505050505092915050565b600081836117039190612268565b905092915050565b60008183611719919061229c565b905092915050565b6000818361172f91906122cd565b905092915050565b6000604051905090565b600080fd5b600073ffffffffffffffffffffffffffffffffffffffff82169050919050565b600061177182611746565b9050919050565b61178181611766565b811461178c57600080fd5b50565b60008135905061179e81611778565b92915050565b6000819050919050565b6117b7816117a4565b81146117c257600080fd5b50565b6000813590506117d4816117ae565b92915050565b600080600080608085870312156117f4576117f3611741565b5b60006118028782880161178f565b94505060206118138782880161178f565b9350506040611824878288016117c5565b9250506060611835878288016117c5565b91505092959194509250565b61184a81611766565b82525050565b60006020820190506118656000830184611841565b92915050565b6000819050919050565b61187e8161186b565b811461188957600080fd5b50565b60008135905061189b81611875565b92915050565b600080604083850312156118b8576118b7611741565b5b60006118c68582860161188c565b92505060206118d78582860161178f565b9150509250929050565b6000602082840312156118f7576118f6611741565b5b60006119058482850161178f565b91505092915050565b6000819050919050565b6119218161190e565b82525050565b600060208201905061193c6000830184611918565b92915050565b61194b8161190e565b811461195657600080fd5b50565b60008135905061196881611942565b92915050565b6000806000806080858703121561198857611987611741565b5b600061199687828801611959565b94505060206119a787828801611959565b93505060406119b887828801611959565b92505060606119c98782880161178f565b91505092959194509250565b600080604083850312156119ec576119eb611741565b5b60006119fa8582860161178f565b9250506020611a0b8582860161178f565b9150509250929050565b611a1e8161186b565b82525050565b6000602082019050611a396000830184611a15565b92915050565b600060208284031215611a5557611a54611741565b5b6000611a638482850161188c565b91505092915050565b6000606082019050611a816000830186611918565b611a8e6020830185611918565b611a9b6040830184611918565b949350505050565b60008060008060808587031215611abd57611abc611741565b5b6000611acb8782880161188c565b9450506020611adc8782880161178f565b9350506040611aed87828801611959565b9250506060611afe87828801611959565b91505092959194509250565b611b13816117a4565b82525050565b6000602082019050611b2e6000830184611b0a565b92915050565b7f4e487b7100000000000000000000000000000000000000000000000000000000600052601160045260246000fd5b6000611b6e8261190e565b9150611b798361190e565b9250828203905081811260008412168282136000851215161715611ba057611b9f611b34565b5b92915050565b6000611bb18261190e565b9150611bbc8361190e565b9250828202611bca8161190e565b91507f80000000000000000000000000000000000000000000000000000000000000008414600084121615611c0257611c01611b34565b5b8282058414831517611c1757611c16611b34565b5b5092915050565b6000606082019050611c336000830186611841565b611c406020830185611841565b611c4d6040830184611918565b949350505050565b600081519050611c64816117ae565b92915050565b600060208284031215611c8057611c7f611741565b5b6000611c8e84828501611c55565b91505092915050565b7f4e487b7100000000000000000000000000000000000000000000000000000000600052601260045260246000fd5b6000611cd18261190e565b9150611cdc8361190e565b925082611cec57611ceb611c97565b5b600160000383147f800000000000000000000000000000000000000000000000000000000000000083141615611d2557611d24611b34565b5b828205905092915050565b6000611d3b8261190e565b9150611d468361190e565b925082820190508281121560008312168382126000841215161715611d6e57611d6d611b34565b5b92915050565b60008160601b9050919050565b6000611d8c82611d74565b9050919050565b6000611d9e82611d81565b9050919050565b611db6611db182611766565b611d93565b82525050565b6000611dc88285611da5565b601482019150611dd88284611da5565b6014820191508190509392505050565b600082825260208201905092915050565b7f506f736974696f6e20646f6573206e6f74206578697374000000000000000000600082015250565b6000611e2f601783611de8565b9150611e3a82611df9565b602082019050919050565b60006020820190508181036000830152611e5e81611e22565b9050919050565b600080fd5b6000601f19601f8301169050919050565b7f4e487b7100000000000000000000000000000000000000000000000000000000600052604160045260246000fd5b611eb382611e6a565b810181811067ffffffffffffffff82111715611ed257611ed1611e7b565b5b80604052505050565b6000611ee5611737565b9050611ef18282611eaa565b919050565b60008160070b9050919050565b611f0c81611ef6565b8114611f1757600080fd5b50565b600081519050611f2981611f03565b92915050565b600067ffffffffffffffff82169050919050565b611f4c81611f2f565b8114611f5757600080fd5b50565b600081519050611f6981611f43565b92915050565b60008160030b9050919050565b611f8581611f6f565b8114611f9057600080fd5b50565b600081519050611fa281611f7c565b92915050565b600060808284031215611fbe57611fbd611e65565b5b611fc86080611edb565b90506000611fd884828501611f1a565b6000830152506020611fec84828501611f5a565b602083015250604061200084828501611f93565b604083015250606061201484828501611c55565b60608301525092915050565b60006080828403121561203657612035611741565b5b600061204484828501611fa8565b91505092915050565b7f506f736974696f6e206973206e6f74206c6971756964617461626c6500000000600082015250565b6000612083601c83611de8565b915061208e8261204d565b602082019050919050565b600060208201905081810360008301526120b281612076565b9050919050565b60006040820190506120ce6000830185611b0a565b6120db6020830184611841565b9392505050565b60006120ed8261190e565b91507f8000000000000000000000000000000000000000000000000000000000000000820361211f5761211e611b34565b5b816000039050919050565b6000806040838503121561214157612140611741565b5b600061214f85828601611c55565b925050602061216085828601611c55565b9150509250929050565b7f696e73756666696369616e74206d617267696e20746f2063726561746520706f60008201527f736974696f6e0000000000000000000000000000000000000000000000000000602082015250565b60006121c6602683611de8565b91506121d18261216a565b604082019050919050565b600060208201905081810360008301526121f5816121b9565b9050919050565b7f6f6e6c7920676f762063616e2063616c6c20746869732066756e6374696f6e00600082015250565b6000612232601f83611de8565b915061223d826121fc565b602082019050919050565b6000602082019050818103600083015261226181612225565b9050919050565b6000612273826117a4565b915061227e836117a4565b925082820190508082111561229657612295611b34565b5b92915050565b60006122a7826117a4565b91506122b2836117a4565b9250826122c2576122c1611c97565b5b828204905092915050565b60006122d8826117a4565b91506122e3836117a4565b92508282026122f1816117a4565b9150828204841483151761230857612307611b34565b5b509291505056fea264697066735822122014468973449c7294cf03da840f331911204130b7bfe26f02fcdae0a5804108d664736f6c63430008110033",
  "linkReferences": {},
  "deployedLinkReferences": {}
}