{
  "_format": "hh-sol-artifact-1",
  "contractName": "VaultDispatcher",
  "sourceName": "contracts/VaultDispatcher.sol",
  "abi": [
    {
      "inputs": [
        {
          "internalType": "address",
          "name": "_usdc",
          "type": "address"
        },
        {
          "internalType": "address",
          "name": "_chainMailbox",
          "type": "address"
        }
      ],
      "stateMutability": "nonpayable",
      "type": "constructor"
    },
    {
      "inputs": [],
      "name": "chainMailbox",
      "outputs": [
        {
          "internalType": "contract IMailbox",
          "name": "",
          "type": "address"
        }
      ],
      "stateMutability": "view",
      "type": "function"
    },
    {
      "inputs": [
        {
          "internalType": "uint256",
          "name": "amount",
          "type": "uint256"
        }
      ],
      "name": "depositAndDispatch",
      "outputs": [],
      "stateMutability": "nonpayable",
      "type": "function"
    },
    {
      "inputs": [],
      "name": "recoverUSDC",
      "outputs": [],
      "stateMutability": "nonpayable",
      "type": "function"
    },
    {
      "inputs": [],
      "name": "ropUsdcAddress",
      "outputs": [
        {
          "internalType": "address",
          "name": "",
          "type": "address"
        }
      ],
      "stateMutability": "view",
      "type": "function"
    },
    {
      "inputs": [],
      "name": "usdc",
      "outputs": [
        {
          "internalType": "contract IERC20",
          "name": "",
          "type": "address"
        }
      ],
      "stateMutability": "view",
      "type": "function"
    }
  ],
  "bytecode": "0x608060405273a4575d5eb1cdef356110f59b7191cc447acd34e5600260006101000a81548173ffffffffffffffffffffffffffffffffffffffff021916908373ffffffffffffffffffffffffffffffffffffffff16021790555034801561006557600080fd5b50604051610b0e380380610b0e83398181016040528101906100879190610172565b816000806101000a81548173ffffffffffffffffffffffffffffffffffffffff021916908373ffffffffffffffffffffffffffffffffffffffff16021790555080600160006101000a81548173ffffffffffffffffffffffffffffffffffffffff021916908373ffffffffffffffffffffffffffffffffffffffff16021790555050506101b2565b600080fd5b600073ffffffffffffffffffffffffffffffffffffffff82169050919050565b600061013f82610114565b9050919050565b61014f81610134565b811461015a57600080fd5b50565b60008151905061016c81610146565b92915050565b600080604083850312156101895761018861010f565b5b60006101978582860161015d565b92505060206101a88582860161015d565b9150509250929050565b61094d806101c16000396000f3fe608060405234801561001057600080fd5b50600436106100575760003560e01c80632131b4e21461005c5780633e413bee146100785780639645069f14610096578063b1b0574a146100a0578063e2c0f783146100be575b600080fd5b610076600480360381019061007191906104bd565b6100dc565b005b61008061026e565b60405161008d9190610569565b60405180910390f35b61009e610292565b005b6100a8610413565b6040516100b591906105a5565b60405180910390f35b6100c6610439565b6040516100d391906105e1565b60405180910390f35b600033826040516020016100f192919061060b565b60405160208183030381529060405290506000600160009054906101000a900473ffffffffffffffffffffffffffffffffffffffff1673ffffffffffffffffffffffffffffffffffffffff1663fa31de0161a455610170600260009054906101000a900473ffffffffffffffffffffffffffffffffffffffff1661045f565b856040518463ffffffff1660e01b815260040161018f939291906106fc565b6020604051808303816000875af11580156101ae573d6000803e3d6000fd5b505050506040513d601f19601f820116820180604052508101906101d29190610766565b90507311360cb2c92ca8c4dbb1474701f310c6b48d638a73ffffffffffffffffffffffffffffffffffffffff16633fa843b061a455836040518363ffffffff1660e01b8152600401610225929190610793565b6020604051808303816000875af1158015610244573d6000803e3d6000fd5b505050506040513d601f19601f8201168201806040525081019061026891906107d1565b50505050565b60008054906101000a900473ffffffffffffffffffffffffffffffffffffffff1681565b60008060009054906101000a900473ffffffffffffffffffffffffffffffffffffffff1673ffffffffffffffffffffffffffffffffffffffff166370a08231306040518263ffffffff1660e01b81526004016102ee91906105e1565b602060405180830381865afa15801561030b573d6000803e3d6000fd5b505050506040513d601f19601f8201168201806040525081019061032f91906107d1565b905060008054906101000a900473ffffffffffffffffffffffffffffffffffffffff1673ffffffffffffffffffffffffffffffffffffffff166323b872dd3033846040518463ffffffff1660e01b815260040161038e939291906107fe565b6020604051808303816000875af11580156103ad573d6000803e3d6000fd5b505050506040513d601f19601f820116820180604052508101906103d1919061086d565b610410576040517f08c379a0000000000000000000000000000000000000000000000000000000008152600401610407906108f7565b60405180910390fd5b50565b600160009054906101000a900473ffffffffffffffffffffffffffffffffffffffff1681565b600260009054906101000a900473ffffffffffffffffffffffffffffffffffffffff1681565b60008173ffffffffffffffffffffffffffffffffffffffff1660001b9050919050565b600080fd5b6000819050919050565b61049a81610487565b81146104a557600080fd5b50565b6000813590506104b781610491565b92915050565b6000602082840312156104d3576104d2610482565b5b60006104e1848285016104a8565b91505092915050565b600073ffffffffffffffffffffffffffffffffffffffff82169050919050565b6000819050919050565b600061052f61052a610525846104ea565b61050a565b6104ea565b9050919050565b600061054182610514565b9050919050565b600061055382610536565b9050919050565b61056381610548565b82525050565b600060208201905061057e600083018461055a565b92915050565b600061058f82610536565b9050919050565b61059f81610584565b82525050565b60006020820190506105ba6000830184610596565b92915050565b60006105cb826104ea565b9050919050565b6105db816105c0565b82525050565b60006020820190506105f660008301846105d2565b92915050565b61060581610487565b82525050565b600060408201905061062060008301856105d2565b61062d60208301846105fc565b9392505050565b600063ffffffff82169050919050565b61064d81610634565b82525050565b6000819050919050565b61066681610653565b82525050565b600081519050919050565b600082825260208201905092915050565b60005b838110156106a657808201518184015260208101905061068b565b60008484015250505050565b6000601f19601f8301169050919050565b60006106ce8261066c565b6106d88185610677565b93506106e8818560208601610688565b6106f1816106b2565b840191505092915050565b60006060820190506107116000830186610644565b61071e602083018561065d565b818103604083015261073081846106c3565b9050949350505050565b61074381610653565b811461074e57600080fd5b50565b6000815190506107608161073a565b92915050565b60006020828403121561077c5761077b610482565b5b600061078a84828501610751565b91505092915050565b60006040820190506107a86000830185610644565b6107b5602083018461065d565b9392505050565b6000815190506107cb81610491565b92915050565b6000602082840312156107e7576107e6610482565b5b60006107f5848285016107bc565b91505092915050565b600060608201905061081360008301866105d2565b61082060208301856105d2565b61082d60408301846105fc565b949350505050565b60008115159050919050565b61084a81610835565b811461085557600080fd5b50565b60008151905061086781610841565b92915050565b60006020828403121561088357610882610482565b5b600061089184828501610858565b91505092915050565b600082825260208201905092915050565b7f5265636f76657279206661696c65640000000000000000000000000000000000600082015250565b60006108e1600f8361089a565b91506108ec826108ab565b602082019050919050565b60006020820190508181036000830152610910816108d4565b905091905056fea26469706673582212207b6890694cda5e15f9dc07996de65ec6819ed5209ddaa8bc58212fec49bd355c64736f6c63430008110033",
  "linkReferences": {},
  "deployedLinkReferences": {}
}