{
  "_format": "hh-sol-artifact-1",
  "contractName": "ropUSDC",
  "sourceName": "contracts/ropUSDC.sol",
  "abi": [
    {
      "anonymous": false,
      "inputs": [
        {
          "indexed": true,
          "internalType": "address",
          "name": "owner",
          "type": "address"
        },
        {
          "indexed": true,
          "internalType": "address",
          "name": "spender",
          "type": "address"
        },
        {
          "indexed": false,
          "internalType": "uint256",
          "name": "value",
          "type": "uint256"
        }
      ],
      "name": "Approval",
      "type": "event"
    },
    {
      "anonymous": false,
      "inputs": [
        {
          "indexed": false,
          "internalType": "uint32",
          "name": "origin",
          "type": "uint32"
        },
        {
          "indexed": false,
          "internalType": "address",
          "name": "sender",
          "type": "address"
        },
        {
          "indexed": false,
          "internalType": "bytes",
          "name": "body",
          "type": "bytes"
        }
      ],
      "name": "Received",
      "type": "event"
    },
    {
      "anonymous": false,
      "inputs": [
        {
          "indexed": true,
          "internalType": "address",
          "name": "from",
          "type": "address"
        },
        {
          "indexed": true,
          "internalType": "address",
          "name": "to",
          "type": "address"
        },
        {
          "indexed": false,
          "internalType": "uint256",
          "name": "value",
          "type": "uint256"
        }
      ],
      "name": "Transfer",
      "type": "event"
    },
    {
      "inputs": [],
      "name": "DECIMALS",
      "outputs": [
        {
          "internalType": "uint8",
          "name": "",
          "type": "uint8"
        }
      ],
      "stateMutability": "view",
      "type": "function"
    },
    {
      "inputs": [],
      "name": "NAME",
      "outputs": [
        {
          "internalType": "string",
          "name": "",
          "type": "string"
        }
      ],
      "stateMutability": "view",
      "type": "function"
    },
    {
      "inputs": [],
      "name": "SYMBOL",
      "outputs": [
        {
          "internalType": "string",
          "name": "",
          "type": "string"
        }
      ],
      "stateMutability": "view",
      "type": "function"
    },
    {
      "inputs": [
        {
          "internalType": "address",
          "name": "owner",
          "type": "address"
        },
        {
          "internalType": "address",
          "name": "spender",
          "type": "address"
        }
      ],
      "name": "allowance",
      "outputs": [
        {
          "internalType": "uint256",
          "name": "",
          "type": "uint256"
        }
      ],
      "stateMutability": "view",
      "type": "function"
    },
    {
      "inputs": [
        {
          "internalType": "address",
          "name": "",
          "type": "address"
        },
        {
          "internalType": "address",
          "name": "",
          "type": "address"
        }
      ],
      "name": "allowances",
      "outputs": [
        {
          "internalType": "uint256",
          "name": "",
          "type": "uint256"
        }
      ],
      "stateMutability": "view",
      "type": "function"
    },
    {
      "inputs": [
        {
          "internalType": "address",
          "name": "spender",
          "type": "address"
        },
        {
          "internalType": "uint256",
          "name": "amount",
          "type": "uint256"
        }
      ],
      "name": "approve",
      "outputs": [
        {
          "internalType": "bool",
          "name": "",
          "type": "bool"
        }
      ],
      "stateMutability": "nonpayable",
      "type": "function"
    },
    {
      "inputs": [
        {
          "internalType": "address",
          "name": "account",
          "type": "address"
        }
      ],
      "name": "balanceOf",
      "outputs": [
        {
          "internalType": "uint256",
          "name": "",
          "type": "uint256"
        }
      ],
      "stateMutability": "view",
      "type": "function"
    },
    {
      "inputs": [
        {
          "internalType": "address",
          "name": "",
          "type": "address"
        }
      ],
      "name": "balances",
      "outputs": [
        {
          "internalType": "uint256",
          "name": "",
          "type": "uint256"
        }
      ],
      "stateMutability": "view",
      "type": "function"
    },
    {
      "inputs": [
        {
          "internalType": "uint32",
          "name": "_origin",
          "type": "uint32"
        },
        {
          "internalType": "bytes32",
          "name": "_sender",
          "type": "bytes32"
        },
        {
          "internalType": "bytes",
          "name": "_body",
          "type": "bytes"
        }
      ],
      "name": "handle",
      "outputs": [],
      "stateMutability": "nonpayable",
      "type": "function"
    },
    {
      "inputs": [],
      "name": "mailbox",
      "outputs": [
        {
          "internalType": "address",
          "name": "",
          "type": "address"
        }
      ],
      "stateMutability": "view",
      "type": "function"
    },
    {
      "inputs": [],
      "name": "totalSupply",
      "outputs": [
        {
          "internalType": "uint256",
          "name": "",
          "type": "uint256"
        }
      ],
      "stateMutability": "view",
      "type": "function"
    },
    {
      "inputs": [
        {
          "internalType": "address",
          "name": "recipient",
          "type": "address"
        },
        {
          "internalType": "uint256",
          "name": "amount",
          "type": "uint256"
        }
      ],
      "name": "transfer",
      "outputs": [
        {
          "internalType": "bool",
          "name": "",
          "type": "bool"
        }
      ],
      "stateMutability": "nonpayable",
      "type": "function"
    },
    {
      "inputs": [
        {
          "internalType": "address",
          "name": "sender",
          "type": "address"
        },
        {
          "internalType": "address",
          "name": "recipient",
          "type": "address"
        },
        {
          "internalType": "uint256",
          "name": "amount",
          "type": "uint256"
        }
      ],
      "name": "transferFrom",
      "outputs": [
        {
          "internalType": "bool",
          "name": "",
          "type": "bool"
        }
      ],
      "stateMutability": "nonpayable",
      "type": "function"
    }
  ],
  "bytecode": "0x6080604052734200000000000000000000000000000000000068600360006101000a81548173ffffffffffffffffffffffffffffffffffffffff021916908373ffffffffffffffffffffffffffffffffffffffff16021790555034801561006557600080fd5b5061152d806100756000396000f3fe608060405234801561001057600080fd5b50600436106100cf5760003560e01c806356d5d4751161008c578063a9059cbb11610066578063a9059cbb1461023a578063d5438eae1461026a578063dd62ed3e14610288578063f76f8d78146102b8576100cf565b806356d5d475146101d057806370a08231146101ec578063a3f4df7e1461021c576100cf565b8063095ea7b3146100d457806318160ddd1461010457806323b872dd1461012257806327e235e3146101525780632e0f26251461018257806355b6ed5c146101a0575b600080fd5b6100ee60048036038101906100e99190610cd4565b6102d6565b6040516100fb9190610d2f565b60405180910390f35b61010c6103c8565b6040516101199190610d59565b60405180910390f35b61013c60048036038101906101379190610d74565b6103ce565b6040516101499190610d2f565b60405180910390f35b61016c60048036038101906101679190610dc7565b610619565b6040516101799190610d59565b60405180910390f35b61018a610631565b6040516101979190610e10565b60405180910390f35b6101ba60048036038101906101b59190610e2b565b610636565b6040516101c79190610d59565b60405180910390f35b6101ea60048036038101906101e59190610f42565b61065b565b005b61020660048036038101906102019190610dc7565b61075c565b6040516102139190610d59565b60405180910390f35b6102246107a5565b6040516102319190611046565b60405180910390f35b610254600480360381019061024f9190610cd4565b6107de565b6040516102619190610d2f565b60405180910390f35b6102726107f5565b60405161027f9190611077565b60405180910390f35b6102a2600480360381019061029d9190610e2b565b61081b565b6040516102af9190610d59565b60405180910390f35b6102c06108a2565b6040516102cd9190611046565b60405180910390f35b600081600260003373ffffffffffffffffffffffffffffffffffffffff1673ffffffffffffffffffffffffffffffffffffffff16815260200190815260200160002060008573ffffffffffffffffffffffffffffffffffffffff1673ffffffffffffffffffffffffffffffffffffffff168152602001908152602001600020819055508273ffffffffffffffffffffffffffffffffffffffff163373ffffffffffffffffffffffffffffffffffffffff167f8c5be1e5ebec7d5bd14f71427d1e84f3dd0314c0f7b2291e5b200ac8c7c3b925846040516103b69190610d59565b60405180910390a36001905092915050565b60005481565b600081600260008673ffffffffffffffffffffffffffffffffffffffff1673ffffffffffffffffffffffffffffffffffffffff16815260200190815260200160002060003373ffffffffffffffffffffffffffffffffffffffff1673ffffffffffffffffffffffffffffffffffffffff16815260200190815260200160002054101561048f576040517f08c379a000000000000000000000000000000000000000000000000000000000815260040161048690611104565b60405180910390fd5b61049a8484846108db565b81600260008673ffffffffffffffffffffffffffffffffffffffff1673ffffffffffffffffffffffffffffffffffffffff16815260200190815260200160002060003373ffffffffffffffffffffffffffffffffffffffff1673ffffffffffffffffffffffffffffffffffffffff16815260200190815260200160002060008282546105269190611153565b925050819055503373ffffffffffffffffffffffffffffffffffffffff168473ffffffffffffffffffffffffffffffffffffffff167f8c5be1e5ebec7d5bd14f71427d1e84f3dd0314c0f7b2291e5b200ac8c7c3b925600260008873ffffffffffffffffffffffffffffffffffffffff1673ffffffffffffffffffffffffffffffffffffffff16815260200190815260200160002060003373ffffffffffffffffffffffffffffffffffffffff1673ffffffffffffffffffffffffffffffffffffffff168152602001908152602001600020546040516106069190610d59565b60405180910390a3600190509392505050565b60016020528060005260406000206000915090505481565b600681565b6002602052816000526040600020602052806000526040600020600091509150505481565b600360009054906101000a900473ffffffffffffffffffffffffffffffffffffffff1673ffffffffffffffffffffffffffffffffffffffff163373ffffffffffffffffffffffffffffffffffffffff16146106eb576040517f08c379a00000000000000000000000000000000000000000000000000000000081526004016106e2906111d3565b60405180910390fd5b60008083838101906106fd9190611231565b809250819350505061070f8282610b51565b7fbb8068a80970e39c505e930e385376bf8649fce97bd3eb8f4c4dfffc5e9b80338661073a87610c29565b868660405161074c94939291906112cd565b60405180910390a1505050505050565b6000600160008373ffffffffffffffffffffffffffffffffffffffff1673ffffffffffffffffffffffffffffffffffffffff168152602001908152602001600020549050919050565b6040518060400160405280600781526020017f726f70555344430000000000000000000000000000000000000000000000000081525081565b60006107eb3384846108db565b6001905092915050565b600360009054906101000a900473ffffffffffffffffffffffffffffffffffffffff1681565b6000600260008473ffffffffffffffffffffffffffffffffffffffff1673ffffffffffffffffffffffffffffffffffffffff16815260200190815260200160002060008373ffffffffffffffffffffffffffffffffffffffff1673ffffffffffffffffffffffffffffffffffffffff16815260200190815260200160002054905092915050565b6040518060400160405280600781526020017f726f70555344430000000000000000000000000000000000000000000000000081525081565b600073ffffffffffffffffffffffffffffffffffffffff168373ffffffffffffffffffffffffffffffffffffffff160361094a576040517f08c379a00000000000000000000000000000000000000000000000000000000081526004016109419061137f565b60405180910390fd5b600073ffffffffffffffffffffffffffffffffffffffff168273ffffffffffffffffffffffffffffffffffffffff16036109b9576040517f08c379a00000000000000000000000000000000000000000000000000000000081526004016109b090611411565b60405180910390fd5b80600160008573ffffffffffffffffffffffffffffffffffffffff1673ffffffffffffffffffffffffffffffffffffffff168152602001908152602001600020541015610a3b576040517f08c379a0000000000000000000000000000000000000000000000000000000008152600401610a32906114a3565b60405180910390fd5b80600160008573ffffffffffffffffffffffffffffffffffffffff1673ffffffffffffffffffffffffffffffffffffffff1681526020019081526020016000206000828254610a8a9190611153565b9250508190555080600160008473ffffffffffffffffffffffffffffffffffffffff1673ffffffffffffffffffffffffffffffffffffffff1681526020019081526020016000206000828254610ae091906114c3565b925050819055508173ffffffffffffffffffffffffffffffffffffffff168373ffffffffffffffffffffffffffffffffffffffff167fddf252ad1be2c89b69c2b068fc378daa952ba7f163c4a11628f55a4df523b3ef83604051610b449190610d59565b60405180910390a3505050565b80600080828254610b6291906114c3565b9250508190555080600160008473ffffffffffffffffffffffffffffffffffffffff1673ffffffffffffffffffffffffffffffffffffffff1681526020019081526020016000206000828254610bb891906114c3565b925050819055508173ffffffffffffffffffffffffffffffffffffffff16600073ffffffffffffffffffffffffffffffffffffffff167fddf252ad1be2c89b69c2b068fc378daa952ba7f163c4a11628f55a4df523b3ef83604051610c1d9190610d59565b60405180910390a35050565b60008160001c9050919050565b600080fd5b600080fd5b600073ffffffffffffffffffffffffffffffffffffffff82169050919050565b6000610c6b82610c40565b9050919050565b610c7b81610c60565b8114610c8657600080fd5b50565b600081359050610c9881610c72565b92915050565b6000819050919050565b610cb181610c9e565b8114610cbc57600080fd5b50565b600081359050610cce81610ca8565b92915050565b60008060408385031215610ceb57610cea610c36565b5b6000610cf985828601610c89565b9250506020610d0a85828601610cbf565b9150509250929050565b60008115159050919050565b610d2981610d14565b82525050565b6000602082019050610d446000830184610d20565b92915050565b610d5381610c9e565b82525050565b6000602082019050610d6e6000830184610d4a565b92915050565b600080600060608486031215610d8d57610d8c610c36565b5b6000610d9b86828701610c89565b9350506020610dac86828701610c89565b9250506040610dbd86828701610cbf565b9150509250925092565b600060208284031215610ddd57610ddc610c36565b5b6000610deb84828501610c89565b91505092915050565b600060ff82169050919050565b610e0a81610df4565b82525050565b6000602082019050610e256000830184610e01565b92915050565b60008060408385031215610e4257610e41610c36565b5b6000610e5085828601610c89565b9250506020610e6185828601610c89565b9150509250929050565b600063ffffffff82169050919050565b610e8481610e6b565b8114610e8f57600080fd5b50565b600081359050610ea181610e7b565b92915050565b6000819050919050565b610eba81610ea7565b8114610ec557600080fd5b50565b600081359050610ed781610eb1565b92915050565b600080fd5b600080fd5b600080fd5b60008083601f840112610f0257610f01610edd565b5b8235905067ffffffffffffffff811115610f1f57610f1e610ee2565b5b602083019150836001820283011115610f3b57610f3a610ee7565b5b9250929050565b60008060008060608587031215610f5c57610f5b610c36565b5b6000610f6a87828801610e92565b9450506020610f7b87828801610ec8565b935050604085013567ffffffffffffffff811115610f9c57610f9b610c3b565b5b610fa887828801610eec565b925092505092959194509250565b600081519050919050565b600082825260208201905092915050565b60005b83811015610ff0578082015181840152602081019050610fd5565b60008484015250505050565b6000601f19601f8301169050919050565b600061101882610fb6565b6110228185610fc1565b9350611032818560208601610fd2565b61103b81610ffc565b840191505092915050565b60006020820190508181036000830152611060818461100d565b905092915050565b61107181610c60565b82525050565b600060208201905061108c6000830184611068565b92915050565b7f45524332303a205472616e7366657220616d6f756e742065786365656473206160008201527f6c6c6f77616e6365000000000000000000000000000000000000000000000000602082015250565b60006110ee602883610fc1565b91506110f982611092565b604082019050919050565b6000602082019050818103600083015261111d816110e1565b9050919050565b7f4e487b7100000000000000000000000000000000000000000000000000000000600052601160045260246000fd5b600061115e82610c9e565b915061116983610c9e565b925082820390508181111561118157611180611124565b5b92915050565b7f4f6e6c79206d61696c626f7820616c6c6f776564000000000000000000000000600082015250565b60006111bd601483610fc1565b91506111c882611187565b602082019050919050565b600060208201905081810360008301526111ec816111b0565b9050919050565b60006111fe82610c40565b9050919050565b61120e816111f3565b811461121957600080fd5b50565b60008135905061122b81611205565b92915050565b6000806040838503121561124857611247610c36565b5b60006112568582860161121c565b925050602061126785828601610cbf565b9150509250929050565b61127a81610e6b565b82525050565b600082825260208201905092915050565b82818337600083830152505050565b60006112ac8385611280565b93506112b9838584611291565b6112c283610ffc565b840190509392505050565b60006060820190506112e26000830187611271565b6112ef6020830186611068565b81810360408301526113028184866112a0565b905095945050505050565b7f45524332303a207472616e736665722066726f6d20746865207a65726f20616460008201527f6472657373000000000000000000000000000000000000000000000000000000602082015250565b6000611369602583610fc1565b91506113748261130d565b604082019050919050565b600060208201905081810360008301526113988161135c565b9050919050565b7f45524332303a207472616e7366657220746f20746865207a65726f206164647260008201527f6573730000000000000000000000000000000000000000000000000000000000602082015250565b60006113fb602383610fc1565b91506114068261139f565b604082019050919050565b6000602082019050818103600083015261142a816113ee565b9050919050565b7f45524332303a205472616e7366657220616d6f756e742065786365656473206260008201527f616c616e63650000000000000000000000000000000000000000000000000000602082015250565b600061148d602683610fc1565b915061149882611431565b604082019050919050565b600060208201905081810360008301526114bc81611480565b9050919050565b60006114ce82610c9e565b91506114d983610c9e565b92508282019050808211156114f1576114f0611124565b5b9291505056fea26469706673582212205f3739e1ab9ffc3eab604dff32a2ebf43607d5232a645861ffe4bb384fe0b6de64736f6c63430008110033",
  "linkReferences": {},
  "deployedLinkReferences": {}
}