{
  "_format": "hh-sol-artifact-1",
  "contractName": "ropUSDC",
  "sourceName": "contracts/ropUSDC.sol",
  "abi": [
    {
      "inputs": [
        {
          "internalType": "address",
          "name": "_marginAccount",
          "type": "address"
        }
      ],
      "stateMutability": "nonpayable",
      "type": "constructor"
    },
    {
      "anonymous": false,
      "inputs": [
        {
          "indexed": true,
          "internalType": "address",
          "name": "owner",
          "type": "address"
        },
        {
          "indexed": true,
          "internalType": "address",
          "name": "spender",
          "type": "address"
        },
        {
          "indexed": false,
          "internalType": "uint256",
          "name": "value",
          "type": "uint256"
        }
      ],
      "name": "Approval",
      "type": "event"
    },
    {
      "anonymous": false,
      "inputs": [
        {
          "indexed": false,
          "internalType": "uint32",
          "name": "origin",
          "type": "uint32"
        },
        {
          "indexed": false,
          "internalType": "address",
          "name": "sender",
          "type": "address"
        },
        {
          "indexed": false,
          "internalType": "bytes",
          "name": "body",
          "type": "bytes"
        }
      ],
      "name": "Received",
      "type": "event"
    },
    {
      "anonymous": false,
      "inputs": [
        {
          "indexed": true,
          "internalType": "address",
          "name": "from",
          "type": "address"
        },
        {
          "indexed": true,
          "internalType": "address",
          "name": "to",
          "type": "address"
        },
        {
          "indexed": false,
          "internalType": "uint256",
          "name": "value",
          "type": "uint256"
        }
      ],
      "name": "Transfer",
      "type": "event"
    },
    {
      "inputs": [],
      "name": "DECIMALS",
      "outputs": [
        {
          "internalType": "uint8",
          "name": "",
          "type": "uint8"
        }
      ],
      "stateMutability": "view",
      "type": "function"
    },
    {
      "inputs": [],
      "name": "NAME",
      "outputs": [
        {
          "internalType": "string",
          "name": "",
          "type": "string"
        }
      ],
      "stateMutability": "view",
      "type": "function"
    },
    {
      "inputs": [],
      "name": "SYMBOL",
      "outputs": [
        {
          "internalType": "string",
          "name": "",
          "type": "string"
        }
      ],
      "stateMutability": "view",
      "type": "function"
    },
    {
      "inputs": [
        {
          "internalType": "address",
          "name": "owner",
          "type": "address"
        },
        {
          "internalType": "address",
          "name": "spender",
          "type": "address"
        }
      ],
      "name": "allowance",
      "outputs": [
        {
          "internalType": "uint256",
          "name": "",
          "type": "uint256"
        }
      ],
      "stateMutability": "view",
      "type": "function"
    },
    {
      "inputs": [
        {
          "internalType": "address",
          "name": "",
          "type": "address"
        },
        {
          "internalType": "address",
          "name": "",
          "type": "address"
        }
      ],
      "name": "allowances",
      "outputs": [
        {
          "internalType": "uint256",
          "name": "",
          "type": "uint256"
        }
      ],
      "stateMutability": "view",
      "type": "function"
    },
    {
      "inputs": [
        {
          "internalType": "address",
          "name": "spender",
          "type": "address"
        },
        {
          "internalType": "uint256",
          "name": "amount",
          "type": "uint256"
        }
      ],
      "name": "approve",
      "outputs": [
        {
          "internalType": "bool",
          "name": "",
          "type": "bool"
        }
      ],
      "stateMutability": "nonpayable",
      "type": "function"
    },
    {
      "inputs": [
        {
          "internalType": "address",
          "name": "account",
          "type": "address"
        }
      ],
      "name": "balanceOf",
      "outputs": [
        {
          "internalType": "uint256",
          "name": "",
          "type": "uint256"
        }
      ],
      "stateMutability": "view",
      "type": "function"
    },
    {
      "inputs": [
        {
          "internalType": "address",
          "name": "",
          "type": "address"
        }
      ],
      "name": "balances",
      "outputs": [
        {
          "internalType": "uint256",
          "name": "",
          "type": "uint256"
        }
      ],
      "stateMutability": "view",
      "type": "function"
    },
    {
      "inputs": [
        {
          "internalType": "uint32",
          "name": "_origin",
          "type": "uint32"
        },
        {
          "internalType": "bytes32",
          "name": "_sender",
          "type": "bytes32"
        },
        {
          "internalType": "bytes",
          "name": "_body",
          "type": "bytes"
        }
      ],
      "name": "handle",
      "outputs": [],
      "stateMutability": "nonpayable",
      "type": "function"
    },
    {
      "inputs": [],
      "name": "indexToken",
      "outputs": [
        {
          "internalType": "address",
          "name": "",
          "type": "address"
        }
      ],
      "stateMutability": "view",
      "type": "function"
    },
    {
      "inputs": [],
      "name": "mailbox",
      "outputs": [
        {
          "internalType": "address",
          "name": "",
          "type": "address"
        }
      ],
      "stateMutability": "view",
      "type": "function"
    },
    {
      "inputs": [],
      "name": "marginAccount",
      "outputs": [
        {
          "internalType": "contract IMarginAccount",
          "name": "",
          "type": "address"
        }
      ],
      "stateMutability": "view",
      "type": "function"
    },
    {
      "inputs": [],
      "name": "marginAccountAddress",
      "outputs": [
        {
          "internalType": "address",
          "name": "",
          "type": "address"
        }
      ],
      "stateMutability": "view",
      "type": "function"
    },
    {
      "inputs": [],
      "name": "totalSupply",
      "outputs": [
        {
          "internalType": "uint256",
          "name": "",
          "type": "uint256"
        }
      ],
      "stateMutability": "view",
      "type": "function"
    },
    {
      "inputs": [
        {
          "internalType": "address",
          "name": "recipient",
          "type": "address"
        },
        {
          "internalType": "uint256",
          "name": "amount",
          "type": "uint256"
        }
      ],
      "name": "transfer",
      "outputs": [
        {
          "internalType": "bool",
          "name": "",
          "type": "bool"
        }
      ],
      "stateMutability": "nonpayable",
      "type": "function"
    },
    {
      "inputs": [
        {
          "internalType": "address",
          "name": "sender",
          "type": "address"
        },
        {
          "internalType": "address",
          "name": "recipient",
          "type": "address"
        },
        {
          "internalType": "uint256",
          "name": "amount",
          "type": "uint256"
        }
      ],
      "name": "transferFrom",
      "outputs": [
        {
          "internalType": "bool",
          "name": "",
          "type": "bool"
        }
      ],
      "stateMutability": "nonpayable",
      "type": "function"
    }
  ],
  "bytecode": "0x6080604052734200000000000000000000000000000000000068600360006101000a81548173ffffffffffffffffffffffffffffffffffffffff021916908373ffffffffffffffffffffffffffffffffffffffff160217905550734200000000000000000000000000000000000068600460006101000a81548173ffffffffffffffffffffffffffffffffffffffff021916908373ffffffffffffffffffffffffffffffffffffffff160217905550348015620000bb57600080fd5b50604051620019e8380380620019e88339818101604052810190620000e19190620001d4565b80600660006101000a81548173ffffffffffffffffffffffffffffffffffffffff021916908373ffffffffffffffffffffffffffffffffffffffff16021790555080600560006101000a81548173ffffffffffffffffffffffffffffffffffffffff021916908373ffffffffffffffffffffffffffffffffffffffff1602179055505062000206565b600080fd5b600073ffffffffffffffffffffffffffffffffffffffff82169050919050565b60006200019c826200016f565b9050919050565b620001ae816200018f565b8114620001ba57600080fd5b50565b600081519050620001ce81620001a3565b92915050565b600060208284031215620001ed57620001ec6200016a565b5b6000620001fd84828501620001bd565b91505092915050565b6117d280620002166000396000f3fe608060405234801561001057600080fd5b50600436106101005760003560e01c806370a0823111610097578063dd62ed3e11610066578063dd62ed3e146102d7578063e7d015f214610307578063f742269d14610325578063f76f8d781461034357610100565b806370a082311461023b578063a3f4df7e1461026b578063a9059cbb14610289578063d5438eae146102b957610100565b80632e0f2625116100d35780632e0f2625146101b3578063483100bd146101d157806355b6ed5c146101ef57806356d5d4751461021f57610100565b8063095ea7b31461010557806318160ddd1461013557806323b872dd1461015357806327e235e314610183575b600080fd5b61011f600480360381019061011a9190610ec8565b610361565b60405161012c9190610f23565b60405180910390f35b61013d610453565b60405161014a9190610f4d565b60405180910390f35b61016d60048036038101906101689190610f68565b610459565b60405161017a9190610f23565b60405180910390f35b61019d60048036038101906101989190610fbb565b6106a4565b6040516101aa9190610f4d565b60405180910390f35b6101bb6106bc565b6040516101c89190611004565b60405180910390f35b6101d96106c1565b6040516101e6919061102e565b60405180910390f35b61020960048036038101906102049190611049565b6106e7565b6040516102169190610f4d565b60405180910390f35b61023960048036038101906102349190611160565b61070c565b005b61025560048036038101906102509190610fbb565b61080d565b6040516102629190610f4d565b60405180910390f35b610273610856565b6040516102809190611264565b60405180910390f35b6102a3600480360381019061029e9190610ec8565b61088f565b6040516102b09190610f23565b60405180910390f35b6102c16108a6565b6040516102ce919061102e565b60405180910390f35b6102f160048036038101906102ec9190611049565b6108cc565b6040516102fe9190610f4d565b60405180910390f35b61030f610953565b60405161031c919061102e565b60405180910390f35b61032d610979565b60405161033a91906112e5565b60405180910390f35b61034b61099f565b6040516103589190611264565b60405180910390f35b600081600260003373ffffffffffffffffffffffffffffffffffffffff1673ffffffffffffffffffffffffffffffffffffffff16815260200190815260200160002060008573ffffffffffffffffffffffffffffffffffffffff1673ffffffffffffffffffffffffffffffffffffffff168152602001908152602001600020819055508273ffffffffffffffffffffffffffffffffffffffff163373ffffffffffffffffffffffffffffffffffffffff167f8c5be1e5ebec7d5bd14f71427d1e84f3dd0314c0f7b2291e5b200ac8c7c3b925846040516104419190610f4d565b60405180910390a36001905092915050565b60005481565b600081600260008673ffffffffffffffffffffffffffffffffffffffff1673ffffffffffffffffffffffffffffffffffffffff16815260200190815260200160002060003373ffffffffffffffffffffffffffffffffffffffff1673ffffffffffffffffffffffffffffffffffffffff16815260200190815260200160002054101561051a576040517f08c379a000000000000000000000000000000000000000000000000000000000815260040161051190611372565b60405180910390fd5b6105258484846109d8565b81600260008673ffffffffffffffffffffffffffffffffffffffff1673ffffffffffffffffffffffffffffffffffffffff16815260200190815260200160002060003373ffffffffffffffffffffffffffffffffffffffff1673ffffffffffffffffffffffffffffffffffffffff16815260200190815260200160002060008282546105b191906113c1565b925050819055503373ffffffffffffffffffffffffffffffffffffffff168473ffffffffffffffffffffffffffffffffffffffff167f8c5be1e5ebec7d5bd14f71427d1e84f3dd0314c0f7b2291e5b200ac8c7c3b925600260008873ffffffffffffffffffffffffffffffffffffffff1673ffffffffffffffffffffffffffffffffffffffff16815260200190815260200160002060003373ffffffffffffffffffffffffffffffffffffffff1673ffffffffffffffffffffffffffffffffffffffff168152602001908152602001600020546040516106919190610f4d565b60405180910390a3600190509392505050565b60016020528060005260406000206000915090505481565b600681565b600560009054906101000a900473ffffffffffffffffffffffffffffffffffffffff1681565b6002602052816000526040600020602052806000526040600020600091509150505481565b600360009054906101000a900473ffffffffffffffffffffffffffffffffffffffff1673ffffffffffffffffffffffffffffffffffffffff163373ffffffffffffffffffffffffffffffffffffffff161461079c576040517f08c379a000000000000000000000000000000000000000000000000000000000815260040161079390611441565b60405180910390fd5b60008083838101906107ae919061149f565b80925081935050506107c08282610c4e565b7fbb8068a80970e39c505e930e385376bf8649fce97bd3eb8f4c4dfffc5e9b8033866107eb87610e1d565b86866040516107fd949392919061153b565b60405180910390a1505050505050565b6000600160008373ffffffffffffffffffffffffffffffffffffffff1673ffffffffffffffffffffffffffffffffffffffff168152602001908152602001600020549050919050565b6040518060400160405280600781526020017f726f70555344430000000000000000000000000000000000000000000000000081525081565b600061089c3384846109d8565b6001905092915050565b600360009054906101000a900473ffffffffffffffffffffffffffffffffffffffff1681565b6000600260008473ffffffffffffffffffffffffffffffffffffffff1673ffffffffffffffffffffffffffffffffffffffff16815260200190815260200160002060008373ffffffffffffffffffffffffffffffffffffffff1673ffffffffffffffffffffffffffffffffffffffff16815260200190815260200160002054905092915050565b600460009054906101000a900473ffffffffffffffffffffffffffffffffffffffff1681565b600660009054906101000a900473ffffffffffffffffffffffffffffffffffffffff1681565b6040518060400160405280600781526020017f726f70555344430000000000000000000000000000000000000000000000000081525081565b600073ffffffffffffffffffffffffffffffffffffffff168373ffffffffffffffffffffffffffffffffffffffff1603610a47576040517f08c379a0000000000000000000000000000000000000000000000000000000008152600401610a3e906115ed565b60405180910390fd5b600073ffffffffffffffffffffffffffffffffffffffff168273ffffffffffffffffffffffffffffffffffffffff1603610ab6576040517f08c379a0000000000000000000000000000000000000000000000000000000008152600401610aad9061167f565b60405180910390fd5b80600160008573ffffffffffffffffffffffffffffffffffffffff1673ffffffffffffffffffffffffffffffffffffffff168152602001908152602001600020541015610b38576040517f08c379a0000000000000000000000000000000000000000000000000000000008152600401610b2f90611711565b60405180910390fd5b80600160008573ffffffffffffffffffffffffffffffffffffffff1673ffffffffffffffffffffffffffffffffffffffff1681526020019081526020016000206000828254610b8791906113c1565b9250508190555080600160008473ffffffffffffffffffffffffffffffffffffffff1673ffffffffffffffffffffffffffffffffffffffff1681526020019081526020016000206000828254610bdd9190611731565b925050819055508173ffffffffffffffffffffffffffffffffffffffff168373ffffffffffffffffffffffffffffffffffffffff167fddf252ad1be2c89b69c2b068fc378daa952ba7f163c4a11628f55a4df523b3ef83604051610c419190610f4d565b60405180910390a3505050565b80600080828254610c5f9190611731565b925050819055508060016000600560009054906101000a900473ffffffffffffffffffffffffffffffffffffffff1673ffffffffffffffffffffffffffffffffffffffff1673ffffffffffffffffffffffffffffffffffffffff1681526020019081526020016000206000828254610cd79190611731565b92505081905550600660009054906101000a900473ffffffffffffffffffffffffffffffffffffffff1673ffffffffffffffffffffffffffffffffffffffff16632e2d298482600460009054906101000a900473ffffffffffffffffffffffffffffffffffffffff16856040518463ffffffff1660e01b8152600401610d5f93929190611765565b600060405180830381600087803b158015610d7957600080fd5b505af1158015610d8d573d6000803e3d6000fd5b50505050600560009054906101000a900473ffffffffffffffffffffffffffffffffffffffff1673ffffffffffffffffffffffffffffffffffffffff16600073ffffffffffffffffffffffffffffffffffffffff167fddf252ad1be2c89b69c2b068fc378daa952ba7f163c4a11628f55a4df523b3ef83604051610e119190610f4d565b60405180910390a35050565b60008160001c9050919050565b600080fd5b600080fd5b600073ffffffffffffffffffffffffffffffffffffffff82169050919050565b6000610e5f82610e34565b9050919050565b610e6f81610e54565b8114610e7a57600080fd5b50565b600081359050610e8c81610e66565b92915050565b6000819050919050565b610ea581610e92565b8114610eb057600080fd5b50565b600081359050610ec281610e9c565b92915050565b60008060408385031215610edf57610ede610e2a565b5b6000610eed85828601610e7d565b9250506020610efe85828601610eb3565b9150509250929050565b60008115159050919050565b610f1d81610f08565b82525050565b6000602082019050610f386000830184610f14565b92915050565b610f4781610e92565b82525050565b6000602082019050610f626000830184610f3e565b92915050565b600080600060608486031215610f8157610f80610e2a565b5b6000610f8f86828701610e7d565b9350506020610fa086828701610e7d565b9250506040610fb186828701610eb3565b9150509250925092565b600060208284031215610fd157610fd0610e2a565b5b6000610fdf84828501610e7d565b91505092915050565b600060ff82169050919050565b610ffe81610fe8565b82525050565b60006020820190506110196000830184610ff5565b92915050565b61102881610e54565b82525050565b6000602082019050611043600083018461101f565b92915050565b600080604083850312156110605761105f610e2a565b5b600061106e85828601610e7d565b925050602061107f85828601610e7d565b9150509250929050565b600063ffffffff82169050919050565b6110a281611089565b81146110ad57600080fd5b50565b6000813590506110bf81611099565b92915050565b6000819050919050565b6110d8816110c5565b81146110e357600080fd5b50565b6000813590506110f5816110cf565b92915050565b600080fd5b600080fd5b600080fd5b60008083601f8401126111205761111f6110fb565b5b8235905067ffffffffffffffff81111561113d5761113c611100565b5b60208301915083600182028301111561115957611158611105565b5b9250929050565b6000806000806060858703121561117a57611179610e2a565b5b6000611188878288016110b0565b9450506020611199878288016110e6565b935050604085013567ffffffffffffffff8111156111ba576111b9610e2f565b5b6111c68782880161110a565b925092505092959194509250565b600081519050919050565b600082825260208201905092915050565b60005b8381101561120e5780820151818401526020810190506111f3565b60008484015250505050565b6000601f19601f8301169050919050565b6000611236826111d4565b61124081856111df565b93506112508185602086016111f0565b6112598161121a565b840191505092915050565b6000602082019050818103600083015261127e818461122b565b905092915050565b6000819050919050565b60006112ab6112a66112a184610e34565b611286565b610e34565b9050919050565b60006112bd82611290565b9050919050565b60006112cf826112b2565b9050919050565b6112df816112c4565b82525050565b60006020820190506112fa60008301846112d6565b92915050565b7f45524332303a205472616e7366657220616d6f756e742065786365656473206160008201527f6c6c6f77616e6365000000000000000000000000000000000000000000000000602082015250565b600061135c6028836111df565b915061136782611300565b604082019050919050565b6000602082019050818103600083015261138b8161134f565b9050919050565b7f4e487b7100000000000000000000000000000000000000000000000000000000600052601160045260246000fd5b60006113cc82610e92565b91506113d783610e92565b92508282039050818111156113ef576113ee611392565b5b92915050565b7f4f6e6c79206d61696c626f7820616c6c6f776564000000000000000000000000600082015250565b600061142b6014836111df565b9150611436826113f5565b602082019050919050565b6000602082019050818103600083015261145a8161141e565b9050919050565b600061146c82610e34565b9050919050565b61147c81611461565b811461148757600080fd5b50565b60008135905061149981611473565b92915050565b600080604083850312156114b6576114b5610e2a565b5b60006114c48582860161148a565b92505060206114d585828601610eb3565b9150509250929050565b6114e881611089565b82525050565b600082825260208201905092915050565b82818337600083830152505050565b600061151a83856114ee565b93506115278385846114ff565b6115308361121a565b840190509392505050565b600060608201905061155060008301876114df565b61155d602083018661101f565b818103604083015261157081848661150e565b905095945050505050565b7f45524332303a207472616e736665722066726f6d20746865207a65726f20616460008201527f6472657373000000000000000000000000000000000000000000000000000000602082015250565b60006115d76025836111df565b91506115e28261157b565b604082019050919050565b60006020820190508181036000830152611606816115ca565b9050919050565b7f45524332303a207472616e7366657220746f20746865207a65726f206164647260008201527f6573730000000000000000000000000000000000000000000000000000000000602082015250565b60006116696023836111df565b91506116748261160d565b604082019050919050565b600060208201905081810360008301526116988161165c565b9050919050565b7f45524332303a205472616e7366657220616d6f756e742065786365656473206260008201527f616c616e63650000000000000000000000000000000000000000000000000000602082015250565b60006116fb6026836111df565b91506117068261169f565b604082019050919050565b6000602082019050818103600083015261172a816116ee565b9050919050565b600061173c82610e92565b915061174783610e92565b925082820190508082111561175f5761175e611392565b5b92915050565b600060608201905061177a6000830186610f3e565b611787602083018561101f565b611794604083018461101f565b94935050505056fea26469706673582212208d00e3cc72dd2cf60f53dbabfc45185e450ae150bb83fea78421686c7637626a64736f6c63430008110033",
  "linkReferences": {},
  "deployedLinkReferences": {}
}